{
  "_format": "hh-sol-artifact-1",
  "contractName": "Heavenlywords",
  "sourceName": "contracts/MyNFT.sol",
  "abi": [
    {
      "inputs": [],
      "stateMutability": "nonpayable",
      "type": "constructor"
    },
    {
      "anonymous": false,
      "inputs": [
        {
          "indexed": true,
          "internalType": "address",
          "name": "owner",
          "type": "address"
        },
        {
          "indexed": true,
          "internalType": "address",
          "name": "approved",
          "type": "address"
        },
        {
          "indexed": true,
          "internalType": "uint256",
          "name": "tokenId",
          "type": "uint256"
        }
      ],
      "name": "Approval",
      "type": "event"
    },
    {
      "anonymous": false,
      "inputs": [
        {
          "indexed": true,
          "internalType": "address",
          "name": "owner",
          "type": "address"
        },
        {
          "indexed": true,
          "internalType": "address",
          "name": "operator",
          "type": "address"
        },
        {
          "indexed": false,
          "internalType": "bool",
          "name": "approved",
          "type": "bool"
        }
      ],
      "name": "ApprovalForAll",
      "type": "event"
    },
    {
      "anonymous": false,
      "inputs": [
        {
          "indexed": true,
          "internalType": "address",
          "name": "from",
          "type": "address"
        },
        {
          "indexed": true,
          "internalType": "address",
          "name": "to",
          "type": "address"
        },
        {
          "indexed": true,
          "internalType": "uint256",
          "name": "tokenId",
          "type": "uint256"
        }
      ],
      "name": "Transfer",
      "type": "event"
    },
    {
      "inputs": [
        {
          "internalType": "address",
          "name": "",
          "type": "address"
        }
      ],
      "name": "admins",
      "outputs": [
        {
          "internalType": "bool",
          "name": "",
          "type": "bool"
        }
      ],
      "stateMutability": "view",
      "type": "function"
    },
    {
      "inputs": [
        {
          "internalType": "address",
          "name": "to",
          "type": "address"
        },
        {
          "internalType": "uint256",
          "name": "tokenId",
          "type": "uint256"
        }
      ],
      "name": "approve",
      "outputs": [],
      "stateMutability": "nonpayable",
      "type": "function"
    },
    {
      "inputs": [
        {
          "internalType": "address",
          "name": "owner",
          "type": "address"
        }
      ],
      "name": "balanceOf",
      "outputs": [
        {
          "internalType": "uint256",
          "name": "",
          "type": "uint256"
        }
      ],
      "stateMutability": "view",
      "type": "function"
    },
    {
      "inputs": [],
      "name": "cost",
      "outputs": [
        {
          "internalType": "uint256",
          "name": "",
          "type": "uint256"
        }
      ],
      "stateMutability": "view",
      "type": "function"
    },
    {
      "inputs": [
        {
          "internalType": "uint256",
          "name": "_id",
          "type": "uint256"
        }
      ],
      "name": "getAddressById",
      "outputs": [
        {
          "internalType": "address",
          "name": "",
          "type": "address"
        }
      ],
      "stateMutability": "view",
      "type": "function"
    },
    {
      "inputs": [
        {
          "internalType": "uint256",
          "name": "tokenId",
          "type": "uint256"
        }
      ],
      "name": "getApproved",
      "outputs": [
        {
          "internalType": "address",
          "name": "",
          "type": "address"
        }
      ],
      "stateMutability": "view",
      "type": "function"
    },
    {
      "inputs": [],
      "name": "getBalance",
      "outputs": [
        {
          "internalType": "uint256",
          "name": "",
          "type": "uint256"
        }
      ],
      "stateMutability": "view",
      "type": "function"
    },
    {
      "inputs": [],
      "name": "getCost",
      "outputs": [
        {
          "internalType": "uint256",
          "name": "",
          "type": "uint256"
        }
      ],
      "stateMutability": "view",
      "type": "function"
    },
    {
      "inputs": [
        {
          "internalType": "uint256",
          "name": "_id",
          "type": "uint256"
        }
      ],
      "name": "getImageDescById",
      "outputs": [
        {
          "internalType": "string",
          "name": "",
          "type": "string"
        }
      ],
      "stateMutability": "view",
      "type": "function"
    },
    {
      "inputs": [],
      "name": "getInitialURI",
      "outputs": [
        {
          "internalType": "string",
          "name": "",
          "type": "string"
        }
      ],
      "stateMutability": "view",
      "type": "function"
    },
    {
      "inputs": [],
      "name": "getMaxSupply",
      "outputs": [
        {
          "internalType": "uint256",
          "name": "",
          "type": "uint256"
        }
      ],
      "stateMutability": "view",
      "type": "function"
    },
    {
      "inputs": [],
      "name": "getMintCount",
      "outputs": [
        {
          "internalType": "uint256",
          "name": "",
          "type": "uint256"
        }
      ],
      "stateMutability": "view",
      "type": "function"
    },
    {
      "inputs": [],
      "name": "getOwner",
      "outputs": [
        {
          "internalType": "address",
          "name": "",
          "type": "address"
        }
      ],
      "stateMutability": "view",
      "type": "function"
    },
    {
      "inputs": [],
      "name": "getPaused",
      "outputs": [
        {
          "internalType": "bool",
          "name": "",
          "type": "bool"
        }
      ],
      "stateMutability": "view",
      "type": "function"
    },
    {
      "inputs": [],
      "name": "getPresale",
      "outputs": [
        {
          "internalType": "bool",
          "name": "",
          "type": "bool"
        }
      ],
      "stateMutability": "view",
      "type": "function"
    },
    {
      "inputs": [],
      "name": "getRevaledTokens",
      "outputs": [
        {
          "internalType": "uint256",
          "name": "",
          "type": "uint256"
        }
      ],
      "stateMutability": "view",
      "type": "function"
    },
    {
      "inputs": [
        {
          "internalType": "uint256",
          "name": "_id",
          "type": "uint256"
        }
      ],
      "name": "getUriById",
      "outputs": [
        {
          "internalType": "string",
          "name": "",
          "type": "string"
        }
      ],
      "stateMutability": "view",
      "type": "function"
    },
    {
      "inputs": [
        {
          "internalType": "uint256",
          "name": "",
          "type": "uint256"
        }
      ],
      "name": "idToAddress",
      "outputs": [
        {
          "internalType": "address",
          "name": "",
          "type": "address"
        }
      ],
      "stateMutability": "view",
      "type": "function"
    },
    {
      "inputs": [
        {
          "internalType": "uint256",
          "name": "",
          "type": "uint256"
        }
      ],
      "name": "idToImageDesc",
      "outputs": [
        {
          "internalType": "string",
          "name": "",
          "type": "string"
        }
      ],
      "stateMutability": "view",
      "type": "function"
    },
    {
      "inputs": [
        {
          "internalType": "uint256",
          "name": "",
          "type": "uint256"
        }
      ],
      "name": "idToUri",
      "outputs": [
        {
          "internalType": "string",
          "name": "",
          "type": "string"
        }
      ],
      "stateMutability": "view",
      "type": "function"
    },
    {
      "inputs": [],
      "name": "initialURI",
      "outputs": [
        {
          "internalType": "string",
          "name": "",
          "type": "string"
        }
      ],
      "stateMutability": "view",
      "type": "function"
    },
    {
      "inputs": [
        {
          "internalType": "address",
          "name": "_addr",
          "type": "address"
        }
      ],
      "name": "isAdmin",
      "outputs": [
        {
          "internalType": "bool",
          "name": "",
          "type": "bool"
        }
      ],
      "stateMutability": "view",
      "type": "function"
    },
    {
      "inputs": [
        {
          "internalType": "address",
          "name": "owner",
          "type": "address"
        },
        {
          "internalType": "address",
          "name": "operator",
          "type": "address"
        }
      ],
      "name": "isApprovedForAll",
      "outputs": [
        {
          "internalType": "bool",
          "name": "",
          "type": "bool"
        }
      ],
      "stateMutability": "view",
      "type": "function"
    },
    {
      "inputs": [
        {
          "internalType": "address",
          "name": "_addr",
          "type": "address"
        }
      ],
      "name": "isWhitelisted",
      "outputs": [
        {
          "internalType": "bool",
          "name": "",
          "type": "bool"
        }
      ],
      "stateMutability": "view",
      "type": "function"
    },
    {
      "inputs": [],
      "name": "maxSupply",
      "outputs": [
        {
          "internalType": "uint256",
          "name": "",
          "type": "uint256"
        }
      ],
      "stateMutability": "view",
      "type": "function"
    },
    {
      "inputs": [
        {
          "internalType": "address",
          "name": "_recipient",
          "type": "address"
        },
        {
          "internalType": "string",
          "name": "_imageDesc",
          "type": "string"
        }
      ],
      "name": "mint",
      "outputs": [
        {
          "internalType": "uint256",
          "name": "",
          "type": "uint256"
        }
      ],
      "stateMutability": "payable",
      "type": "function"
    },
    {
      "inputs": [],
      "name": "name",
      "outputs": [
        {
          "internalType": "string",
          "name": "",
          "type": "string"
        }
      ],
      "stateMutability": "view",
      "type": "function"
    },
    {
      "inputs": [
        {
          "internalType": "uint256",
          "name": "tokenId",
          "type": "uint256"
        }
      ],
      "name": "ownerOf",
      "outputs": [
        {
          "internalType": "address",
          "name": "",
          "type": "address"
        }
      ],
      "stateMutability": "view",
      "type": "function"
    },
    {
      "inputs": [],
      "name": "paused",
      "outputs": [
        {
          "internalType": "bool",
          "name": "",
          "type": "bool"
        }
      ],
      "stateMutability": "view",
      "type": "function"
    },
    {
      "inputs": [],
      "name": "presale",
      "outputs": [
        {
          "internalType": "bool",
          "name": "",
          "type": "bool"
        }
      ],
      "stateMutability": "view",
      "type": "function"
    },
    {
      "inputs": [
        {
          "internalType": "address",
          "name": "_addr",
          "type": "address"
        }
      ],
      "name": "removeAdmin",
      "outputs": [],
      "stateMutability": "nonpayable",
      "type": "function"
    },
    {
      "inputs": [
        {
          "internalType": "address[]",
          "name": "_addrs",
          "type": "address[]"
        }
      ],
      "name": "removeBatch",
      "outputs": [],
      "stateMutability": "nonpayable",
      "type": "function"
    },
    {
      "inputs": [
        {
          "internalType": "address",
          "name": "_addr",
          "type": "address"
        }
      ],
      "name": "removeFromWhitelist",
      "outputs": [],
      "stateMutability": "nonpayable",
      "type": "function"
    },
    {
      "inputs": [],
      "name": "reveal",
      "outputs": [],
      "stateMutability": "nonpayable",
      "type": "function"
    },
    {
      "inputs": [
        {
          "internalType": "uint256",
          "name": "_ID",
          "type": "uint256"
        }
      ],
      "name": "revealOne",
      "outputs": [],
      "stateMutability": "nonpayable",
      "type": "function"
    },
    {
      "inputs": [
        {
          "internalType": "address",
          "name": "from",
          "type": "address"
        },
        {
          "internalType": "address",
          "name": "to",
          "type": "address"
        },
        {
          "internalType": "uint256",
          "name": "tokenId",
          "type": "uint256"
        }
      ],
      "name": "safeTransferFrom",
      "outputs": [],
      "stateMutability": "nonpayable",
      "type": "function"
    },
    {
      "inputs": [
        {
          "internalType": "address",
          "name": "from",
          "type": "address"
        },
        {
          "internalType": "address",
          "name": "to",
          "type": "address"
        },
        {
          "internalType": "uint256",
          "name": "tokenId",
          "type": "uint256"
        },
        {
          "internalType": "bytes",
          "name": "_data",
          "type": "bytes"
        }
      ],
      "name": "safeTransferFrom",
      "outputs": [],
      "stateMutability": "nonpayable",
      "type": "function"
    },
    {
      "inputs": [
        {
          "internalType": "address",
          "name": "_addr",
          "type": "address"
        }
      ],
      "name": "setAdmin",
      "outputs": [],
      "stateMutability": "nonpayable",
      "type": "function"
    },
    {
      "inputs": [
        {
          "internalType": "address",
          "name": "operator",
          "type": "address"
        },
        {
          "internalType": "bool",
          "name": "approved",
          "type": "bool"
        }
      ],
      "name": "setApprovalForAll",
      "outputs": [],
      "stateMutability": "nonpayable",
      "type": "function"
    },
    {
      "inputs": [
        {
          "internalType": "uint256",
          "name": "_newCost",
          "type": "uint256"
        }
      ],
      "name": "setCost",
      "outputs": [],
      "stateMutability": "nonpayable",
      "type": "function"
    },
    {
      "inputs": [
        {
          "internalType": "string",
          "name": "_newURI",
          "type": "string"
        }
      ],
      "name": "setInitialURI",
      "outputs": [],
      "stateMutability": "nonpayable",
      "type": "function"
    },
    {
      "inputs": [
        {
          "internalType": "uint256",
          "name": "_value",
          "type": "uint256"
        }
      ],
      "name": "setMaxSupply",
      "outputs": [],
      "stateMutability": "nonpayable",
      "type": "function"
    },
    {
      "inputs": [
        {
          "internalType": "bool",
          "name": "_value",
          "type": "bool"
        }
      ],
      "name": "setPaused",
      "outputs": [],
      "stateMutability": "nonpayable",
      "type": "function"
    },
    {
      "inputs": [
        {
          "internalType": "bool",
          "name": "_value",
          "type": "bool"
        }
      ],
      "name": "setPresale",
      "outputs": [],
      "stateMutability": "nonpayable",
      "type": "function"
    },
    {
      "inputs": [
        {
          "internalType": "bytes4",
          "name": "interfaceId",
          "type": "bytes4"
        }
      ],
      "name": "supportsInterface",
      "outputs": [
        {
          "internalType": "bool",
          "name": "",
          "type": "bool"
        }
      ],
      "stateMutability": "view",
      "type": "function"
    },
    {
      "inputs": [],
      "name": "symbol",
      "outputs": [
        {
          "internalType": "string",
          "name": "",
          "type": "string"
        }
      ],
      "stateMutability": "view",
      "type": "function"
    },
    {
      "inputs": [
        {
          "internalType": "uint256",
          "name": "tokenId",
          "type": "uint256"
        }
      ],
      "name": "tokenURI",
      "outputs": [
        {
          "internalType": "string",
          "name": "",
          "type": "string"
        }
      ],
      "stateMutability": "view",
      "type": "function"
    },
    {
      "inputs": [
        {
          "internalType": "address payable",
          "name": "_addr",
          "type": "address"
        },
        {
          "internalType": "uint256",
          "name": "_amount",
          "type": "uint256"
        }
      ],
      "name": "transfer",
      "outputs": [],
      "stateMutability": "nonpayable",
      "type": "function"
    },
    {
      "inputs": [
        {
          "internalType": "address",
          "name": "from",
          "type": "address"
        },
        {
          "internalType": "address",
          "name": "to",
          "type": "address"
        },
        {
          "internalType": "uint256",
          "name": "tokenId",
          "type": "uint256"
        }
      ],
      "name": "transferFrom",
      "outputs": [],
      "stateMutability": "nonpayable",
      "type": "function"
    },
    {
      "inputs": [
        {
          "internalType": "uint256",
          "name": "_ID",
          "type": "uint256"
        },
        {
          "internalType": "string",
          "name": "_URI",
          "type": "string"
        }
      ],
      "name": "updateOneURI",
      "outputs": [],
      "stateMutability": "nonpayable",
      "type": "function"
    },
    {
      "inputs": [
        {
          "internalType": "uint256[]",
          "name": "_IDs",
          "type": "uint256[]"
        },
        {
          "internalType": "string[]",
          "name": "_URIs",
          "type": "string[]"
        }
      ],
      "name": "updateURIs",
      "outputs": [],
      "stateMutability": "nonpayable",
      "type": "function"
    },
    {
      "inputs": [
        {
          "internalType": "address",
          "name": "",
          "type": "address"
        }
      ],
      "name": "whitelist",
      "outputs": [
        {
          "internalType": "bool",
          "name": "",
          "type": "bool"
        }
      ],
      "stateMutability": "view",
      "type": "function"
    },
    {
      "inputs": [
        {
          "internalType": "address",
          "name": "_addr",
          "type": "address"
        }
      ],
      "name": "whitelistAddress",
      "outputs": [],
      "stateMutability": "nonpayable",
      "type": "function"
    },
    {
      "inputs": [
        {
          "internalType": "address[]",
          "name": "_addrs",
          "type": "address[]"
        }
      ],
      "name": "whitelistBatch",
      "outputs": [],
      "stateMutability": "nonpayable",
      "type": "function"
    },
    {
      "inputs": [
        {
          "internalType": "uint256",
          "name": "_amount",
          "type": "uint256"
        }
      ],
      "name": "withdraw",
      "outputs": [],
      "stateMutability": "nonpayable",
      "type": "function"
    }
  ],
  "bytecode": "0x60806040526001600860006101000a81548160ff0219169083151502179055506000600860016101000a81548160ff021916908315150217905550611e6160095566f8b0a10e470000600a556040518060800160405280605081526020016200529660509139600b90805190602001906200007c929190620001cf565b506000600c5533600d60006101000a81548173ffffffffffffffffffffffffffffffffffffffff021916908373ffffffffffffffffffffffffffffffffffffffff160217905550348015620000d057600080fd5b506040518060400160405280600d81526020017f48656176656e6c79776f726473000000000000000000000000000000000000008152506040518060400160405280600381526020017f4857730000000000000000000000000000000000000000000000000000000000815250816000908051906020019062000155929190620001cf565b5080600190805190602001906200016e929190620001cf565b5050506001600e60003373ffffffffffffffffffffffffffffffffffffffff1673ffffffffffffffffffffffffffffffffffffffff16815260200190815260200160002060006101000a81548160ff021916908315150217905550620002e4565b828054620001dd906200027f565b90600052602060002090601f0160209004810192826200020157600085556200024d565b82601f106200021c57805160ff19168380011785556200024d565b828001600101855582156200024d579182015b828111156200024c5782518255916020019190600101906200022f565b5b5090506200025c919062000260565b5090565b5b808211156200027b57600081600090555060010162000261565b5090565b600060028204905060018216806200029857607f821691505b60208210811415620002af57620002ae620002b5565b5b50919050565b7f4e487b7100000000000000000000000000000000000000000000000000000000600052602260045260246000fd5b614fa280620002f46000396000f3fe6080604052600436106103505760003560e01c80636f8b44b0116101c6578063a9059cbb116100f7578063d0def52111610095578063e6fb9e941161006f578063e6fb9e9414610cab578063e985e9c514610ce8578063eaa5352314610d25578063fdea8e0b14610d4e57610350565b8063d0def52114610c25578063d5abeb0114610c55578063daeeea5714610c8057610350565b8063bd3e19d4116100d1578063bd3e19d414610b69578063c54e73e314610b94578063c87b56dd14610bbd578063c9a2307714610bfa57610350565b8063a9059cbb14610aec578063aee99e5214610b15578063b88d4fde14610b4057610350565b80638d80c922116101645780639b19251a1161013e5780639b19251a14610a46578063a22cb46514610a83578063a32a7b6514610aac578063a475b5dd14610ad557610350565b80638d80c922146109b35780638fc3b549146109f057806395d89b4114610a1b57610350565b80637e2d0ebc116101a05780637e2d0ebc146108f9578063871110a314610936578063893d20e81461095f5780638ab1d6811461098a57610350565b80636f8b44b01461086a578063704b6c021461089357806370a08231146108bc57610350565b80632e298ba3116102a05780634c0f38c21161023e5780635c975abb116102185780635c975abb146107ae5780636352211e146107d95780636805b84b146108165780636b845bfe1461084157610350565b80634c0f38c21461072f578063588738201461075a5780635c5b6f491461078557610350565b8063415665851161027a578063415665851461067757806342842e0e146106a0578063429b62e5146106c957806344a0d68a1461070657610350565b80632e298ba3146105c0578063306a838c146105fd5780633af32abf1461063a57610350565b806316c38b3c1161030d57806323b872dd116102e757806323b872dd146104f457806324d7806c1461051d5780632a2d0c471461055a5780632e1a7d4d1461059757610350565b806316c38b3c146104795780631785f53c146104a257806318546706146104cb57610350565b806301ffc9a71461035557806306fdde0314610392578063081812fc146103bd578063095ea7b3146103fa57806312065fe01461042357806313faede61461044e575b600080fd5b34801561036157600080fd5b5061037c60048036038101906103779190613f0e565b610d79565b604051610389919061480d565b60405180910390f35b34801561039e57600080fd5b506103a7610e5b565b6040516103b49190614828565b60405180910390f35b3480156103c957600080fd5b506103e460048036038101906103df9190613fa1565b610eed565b6040516103f191906147a6565b60405180910390f35b34801561040657600080fd5b50610421600480360381019061041c9190613dfc565b610f72565b005b34801561042f57600080fd5b5061043861108a565b6040516104459190614a8a565b60405180910390f35b34801561045a57600080fd5b506104636110e8565b6040516104709190614a8a565b60405180910390f35b34801561048557600080fd5b506104a0600480360381019061049b9190613ee5565b6110ee565b005b3480156104ae57600080fd5b506104c960048036038101906104c49190613c01565b611161565b005b3480156104d757600080fd5b506104f260048036038101906104ed9190613e79565b611216565b005b34801561050057600080fd5b5061051b60048036038101906105169190613ca2565b611346565b005b34801561052957600080fd5b50610544600480360381019061053f9190613c01565b6113a6565b604051610551919061480d565b60405180910390f35b34801561056657600080fd5b50610581600480360381019061057c9190613fa1565b6113fc565b60405161058e91906147a6565b60405180910390f35b3480156105a357600080fd5b506105be60048036038101906105b99190613fa1565b61142f565b005b3480156105cc57600080fd5b506105e760048036038101906105e29190613fa1565b6114d3565b6040516105f49190614828565b60405180910390f35b34801561060957600080fd5b50610624600480360381019061061f9190613fa1565b611573565b6040516106319190614828565b60405180910390f35b34801561064657600080fd5b50610661600480360381019061065c9190613c01565b611618565b60405161066e919061480d565b60405180910390f35b34801561068357600080fd5b5061069e60048036038101906106999190613c01565b61166e565b005b3480156106ac57600080fd5b506106c760048036038101906106c29190613ca2565b61171f565b005b3480156106d557600080fd5b506106f060048036038101906106eb9190613c01565b61173f565b6040516106fd919061480d565b60405180910390f35b34801561071257600080fd5b5061072d60048036038101906107289190613fa1565b61175f565b005b34801561073b57600080fd5b506107446117c3565b6040516107519190614a8a565b60405180910390f35b34801561076657600080fd5b5061076f6117cd565b60405161077c9190614828565b60405180910390f35b34801561079157600080fd5b506107ac60048036038101906107a79190613fca565b61185f565b005b3480156107ba57600080fd5b506107c36118e1565b6040516107d0919061480d565b60405180910390f35b3480156107e557600080fd5b5061080060048036038101906107fb9190613fa1565b6118f4565b60405161080d91906147a6565b60405180910390f35b34801561082257600080fd5b5061082b6119a6565b604051610838919061480d565b60405180910390f35b34801561084d57600080fd5b5061086860048036038101906108639190613e38565b6119bd565b005b34801561087657600080fd5b50610891600480360381019061088c9190613fa1565b611ace565b005b34801561089f57600080fd5b506108ba60048036038101906108b59190613c01565b611b32565b005b3480156108c857600080fd5b506108e360048036038101906108de9190613c01565b611be7565b6040516108f09190614a8a565b60405180910390f35b34801561090557600080fd5b50610920600480360381019061091b9190613fa1565b611c9f565b60405161092d9190614828565b60405180910390f35b34801561094257600080fd5b5061095d60048036038101906109589190613fa1565b611d44565b005b34801561096b57600080fd5b50610974611e42565b60405161098191906147a6565b60405180910390f35b34801561099657600080fd5b506109b160048036038101906109ac9190613c01565b611e6c565b005b3480156109bf57600080fd5b506109da60048036038101906109d59190613fa1565b611f1d565b6040516109e791906147a6565b60405180910390f35b3480156109fc57600080fd5b50610a05611f5a565b604051610a129190614a8a565b60405180910390f35b348015610a2757600080fd5b50610a30611fc1565b604051610a3d9190614828565b60405180910390f35b348015610a5257600080fd5b50610a6d6004803603810190610a689190613c01565b612053565b604051610a7a919061480d565b60405180910390f35b348015610a8f57600080fd5b50610aaa6004803603810190610aa59190613d6c565b612073565b005b348015610ab857600080fd5b50610ad36004803603810190610ace9190613f60565b6121f4565b005b348015610ae157600080fd5b50610aea612264565b005b348015610af857600080fd5b50610b136004803603810190610b0e9190613c2a565b6123b5565b005b348015610b2157600080fd5b50610b2a61245a565b604051610b37919061480d565b60405180910390f35b348015610b4c57600080fd5b50610b676004803603810190610b629190613cf1565b612471565b005b348015610b7557600080fd5b50610b7e6124d3565b604051610b8b9190614a8a565b60405180910390f35b348015610ba057600080fd5b50610bbb6004803603810190610bb69190613ee5565b6124dd565b005b348015610bc957600080fd5b50610be46004803603810190610bdf9190613fa1565b612550565b604051610bf19190614828565b60405180910390f35b348015610c0657600080fd5b50610c0f6126a2565b604051610c1c9190614828565b60405180910390f35b610c3f6004803603810190610c3a9190613da8565b612730565b604051610c4c9190614a8a565b60405180910390f35b348015610c6157600080fd5b50610c6a6129bb565b604051610c779190614a8a565b60405180910390f35b348015610c8c57600080fd5b50610c956129c1565b604051610ca29190614a8a565b60405180910390f35b348015610cb757600080fd5b50610cd26004803603810190610ccd9190613fa1565b6129cb565b604051610cdf9190614828565b60405180910390f35b348015610cf457600080fd5b50610d0f6004803603810190610d0a9190613c66565b612a6b565b604051610d1c919061480d565b60405180910390f35b348015610d3157600080fd5b50610d4c6004803603810190610d479190613e38565b612aff565b005b348015610d5a57600080fd5b50610d63612c10565b604051610d70919061480d565b60405180910390f35b60007f80ac58cd000000000000000000000000000000000000000000000000000000007bffffffffffffffffffffffffffffffffffffffffffffffffffffffff1916827bffffffffffffffffffffffffffffffffffffffffffffffffffffffff19161480610e4457507f5b5e139f000000000000000000000000000000000000000000000000000000007bffffffffffffffffffffffffffffffffffffffffffffffffffffffff1916827bffffffffffffffffffffffffffffffffffffffffffffffffffffffff1916145b80610e545750610e5382612c23565b5b9050919050565b606060008054610e6a90614d80565b80601f0160208091040260200160405190810160405280929190818152602001828054610e9690614d80565b8015610ee35780601f10610eb857610100808354040283529160200191610ee3565b820191906000526020600020905b815481529060010190602001808311610ec657829003601f168201915b5050505050905090565b6000610ef882612c8d565b610f37576040517f08c379a0000000000000000000000000000000000000000000000000000000008152600401610f2e906149aa565b60405180910390fd5b6004600083815260200190815260200160002060009054906101000a900473ffffffffffffffffffffffffffffffffffffffff169050919050565b6000610f7d826118f4565b90508073ffffffffffffffffffffffffffffffffffffffff168373ffffffffffffffffffffffffffffffffffffffff161415610fee576040517f08c379a0000000000000000000000000000000000000000000000000000000008152600401610fe590614a0a565b60405180910390fd5b8073ffffffffffffffffffffffffffffffffffffffff1661100d612cf9565b73ffffffffffffffffffffffffffffffffffffffff16148061103c575061103b81611036612cf9565b612a6b565b5b61107b576040517f08c379a0000000000000000000000000000000000000000000000000000000008152600401611072906148ea565b60405180910390fd5b6110858383612d01565b505050565b6000600e60003373ffffffffffffffffffffffffffffffffffffffff1673ffffffffffffffffffffffffffffffffffffffff16815260200190815260200160002060009054906101000a900460ff166110e257600080fd5b47905090565b600a5481565b600e60003373ffffffffffffffffffffffffffffffffffffffff1673ffffffffffffffffffffffffffffffffffffffff16815260200190815260200160002060009054906101000a900460ff1661114457600080fd5b80600860016101000a81548160ff02191690831515021790555050565b600d60009054906101000a900473ffffffffffffffffffffffffffffffffffffffff1673ffffffffffffffffffffffffffffffffffffffff163373ffffffffffffffffffffffffffffffffffffffff16146111bb57600080fd5b6000600e60008373ffffffffffffffffffffffffffffffffffffffff1673ffffffffffffffffffffffffffffffffffffffff16815260200190815260200160002060006101000a81548160ff02191690831515021790555050565b600e60003373ffffffffffffffffffffffffffffffffffffffff1673ffffffffffffffffffffffffffffffffffffffff16815260200190815260200160002060009054906101000a900460ff1661126c57600080fd5b805182511461127a57600080fd5b60005b8251811015611341578181815181106112bf577f4e487b7100000000000000000000000000000000000000000000000000000000600052603260045260246000fd5b602002602001015160106000858481518110611304577f4e487b7100000000000000000000000000000000000000000000000000000000600052603260045260246000fd5b60200260200101518152602001908152602001600020908051906020019061132d9291906137d0565b50808061133990614db2565b91505061127d565b505050565b611357611351612cf9565b82612dba565b611396576040517f08c379a000000000000000000000000000000000000000000000000000000000815260040161138d90614a2a565b60405180910390fd5b6113a1838383612e98565b505050565b6000600e60008373ffffffffffffffffffffffffffffffffffffffff1673ffffffffffffffffffffffffffffffffffffffff16815260200190815260200160002060009054906101000a900460ff169050919050565b60126020528060005260406000206000915054906101000a900473ffffffffffffffffffffffffffffffffffffffff1681565b600d60009054906101000a900473ffffffffffffffffffffffffffffffffffffffff1673ffffffffffffffffffffffffffffffffffffffff163373ffffffffffffffffffffffffffffffffffffffff161461148957600080fd5b3373ffffffffffffffffffffffffffffffffffffffff166108fc829081150290604051600060405180830381858888f193505050501580156114cf573d6000803e3d6000fd5b5050565b601160205280600052604060002060009150905080546114f290614d80565b80601f016020809104026020016040519081016040528092919081815260200182805461151e90614d80565b801561156b5780601f106115405761010080835404028352916020019161156b565b820191906000526020600020905b81548152906001019060200180831161154e57829003601f168201915b505050505081565b606060116000838152602001908152602001600020805461159390614d80565b80601f01602080910402602001604051908101604052809291908181526020018280546115bf90614d80565b801561160c5780601f106115e15761010080835404028352916020019161160c565b820191906000526020600020905b8154815290600101906020018083116115ef57829003601f168201915b50505050509050919050565b6000600f60008373ffffffffffffffffffffffffffffffffffffffff1673ffffffffffffffffffffffffffffffffffffffff16815260200190815260200160002060009054906101000a900460ff169050919050565b600e60003373ffffffffffffffffffffffffffffffffffffffff1673ffffffffffffffffffffffffffffffffffffffff16815260200190815260200160002060009054906101000a900460ff166116c457600080fd5b6001600f60008373ffffffffffffffffffffffffffffffffffffffff1673ffffffffffffffffffffffffffffffffffffffff16815260200190815260200160002060006101000a81548160ff02191690831515021790555050565b61173a83838360405180602001604052806000815250612471565b505050565b600e6020528060005260406000206000915054906101000a900460ff1681565b600d60009054906101000a900473ffffffffffffffffffffffffffffffffffffffff1673ffffffffffffffffffffffffffffffffffffffff163373ffffffffffffffffffffffffffffffffffffffff16146117b957600080fd5b80600a8190555050565b6000600954905090565b6060600b80546117dc90614d80565b80601f016020809104026020016040519081016040528092919081815260200182805461180890614d80565b80156118555780601f1061182a57610100808354040283529160200191611855565b820191906000526020600020905b81548152906001019060200180831161183857829003601f168201915b5050505050905090565b600e60003373ffffffffffffffffffffffffffffffffffffffff1673ffffffffffffffffffffffffffffffffffffffff16815260200190815260200160002060009054906101000a900460ff166118b557600080fd5b806010600084815260200190815260200160002090805190602001906118dc9291906137d0565b505050565b600860019054906101000a900460ff1681565b6000806002600084815260200190815260200160002060009054906101000a900473ffffffffffffffffffffffffffffffffffffffff169050600073ffffffffffffffffffffffffffffffffffffffff168173ffffffffffffffffffffffffffffffffffffffff16141561199d576040517f08c379a00000000000000000000000000000000000000000000000000000000081526004016119949061492a565b60405180910390fd5b80915050919050565b6000600860019054906101000a900460ff16905090565b600e60003373ffffffffffffffffffffffffffffffffffffffff1673ffffffffffffffffffffffffffffffffffffffff16815260200190815260200160002060009054906101000a900460ff16611a1357600080fd5b60005b8151811015611aca576000600f6000848481518110611a5e577f4e487b7100000000000000000000000000000000000000000000000000000000600052603260045260246000fd5b602002602001015173ffffffffffffffffffffffffffffffffffffffff1673ffffffffffffffffffffffffffffffffffffffff16815260200190815260200160002060006101000a81548160ff0219169083151502179055508080611ac290614db2565b915050611a16565b5050565b600d60009054906101000a900473ffffffffffffffffffffffffffffffffffffffff1673ffffffffffffffffffffffffffffffffffffffff163373ffffffffffffffffffffffffffffffffffffffff1614611b2857600080fd5b8060098190555050565b600d60009054906101000a900473ffffffffffffffffffffffffffffffffffffffff1673ffffffffffffffffffffffffffffffffffffffff163373ffffffffffffffffffffffffffffffffffffffff1614611b8c57600080fd5b6001600e60008373ffffffffffffffffffffffffffffffffffffffff1673ffffffffffffffffffffffffffffffffffffffff16815260200190815260200160002060006101000a81548160ff02191690831515021790555050565b60008073ffffffffffffffffffffffffffffffffffffffff168273ffffffffffffffffffffffffffffffffffffffff161415611c58576040517f08c379a0000000000000000000000000000000000000000000000000000000008152600401611c4f9061490a565b60405180910390fd5b600360008373ffffffffffffffffffffffffffffffffffffffff1673ffffffffffffffffffffffffffffffffffffffff168152602001908152602001600020549050919050565b6060601060008381526020019081526020016000208054611cbf90614d80565b80601f0160208091040260200160405190810160405280929190818152602001828054611ceb90614d80565b8015611d385780601f10611d0d57610100808354040283529160200191611d38565b820191906000526020600020905b815481529060010190602001808311611d1b57829003601f168201915b50505050509050919050565b600e60003373ffffffffffffffffffffffffffffffffffffffff1673ffffffffffffffffffffffffffffffffffffffff16815260200190815260200160002060009054906101000a900460ff16611d9a57600080fd5b611e3f81601060008481526020019081526020016000208054611dbc90614d80565b80601f0160208091040260200160405190810160405280929190818152602001828054611de890614d80565b8015611e355780601f10611e0a57610100808354040283529160200191611e35565b820191906000526020600020905b815481529060010190602001808311611e1857829003601f168201915b50505050506130f4565b50565b6000600d60009054906101000a900473ffffffffffffffffffffffffffffffffffffffff16905090565b600e60003373ffffffffffffffffffffffffffffffffffffffff1673ffffffffffffffffffffffffffffffffffffffff16815260200190815260200160002060009054906101000a900460ff16611ec257600080fd5b6000600f60008373ffffffffffffffffffffffffffffffffffffffff1673ffffffffffffffffffffffffffffffffffffffff16815260200190815260200160002060006101000a81548160ff02191690831515021790555050565b60006012600083815260200190815260200160002060009054906101000a900473ffffffffffffffffffffffffffffffffffffffff169050919050565b6000600e60003373ffffffffffffffffffffffffffffffffffffffff1673ffffffffffffffffffffffffffffffffffffffff16815260200190815260200160002060009054906101000a900460ff16611fb257600080fd5b611fbc6007613168565b905090565b606060018054611fd090614d80565b80601f0160208091040260200160405190810160405280929190818152602001828054611ffc90614d80565b80156120495780601f1061201e57610100808354040283529160200191612049565b820191906000526020600020905b81548152906001019060200180831161202c57829003601f168201915b5050505050905090565b600f6020528060005260406000206000915054906101000a900460ff1681565b61207b612cf9565b73ffffffffffffffffffffffffffffffffffffffff168273ffffffffffffffffffffffffffffffffffffffff1614156120e9576040517f08c379a00000000000000000000000000000000000000000000000000000000081526004016120e0906148aa565b60405180910390fd5b80600560006120f6612cf9565b73ffffffffffffffffffffffffffffffffffffffff1673ffffffffffffffffffffffffffffffffffffffff16815260200190815260200160002060008473ffffffffffffffffffffffffffffffffffffffff1673ffffffffffffffffffffffffffffffffffffffff16815260200190815260200160002060006101000a81548160ff0219169083151502179055508173ffffffffffffffffffffffffffffffffffffffff166121a3612cf9565b73ffffffffffffffffffffffffffffffffffffffff167f17307eab39ab6107e8899845ad3d59bd9653f200f220920489ca2b5937696c31836040516121e8919061480d565b60405180910390a35050565b600e60003373ffffffffffffffffffffffffffffffffffffffff1673ffffffffffffffffffffffffffffffffffffffff16815260200190815260200160002060009054906101000a900460ff1661224a57600080fd5b80600b90805190602001906122609291906137d0565b5050565b600e60003373ffffffffffffffffffffffffffffffffffffffff1673ffffffffffffffffffffffffffffffffffffffff16815260200190815260200160002060009054906101000a900460ff166122ba57600080fd5b600c60008154809291906122cd90614db2565b91905055506000600c5490505b6122e46007613168565b81116123a25761238f8160106000848152602001908152602001600020805461230c90614d80565b80601f016020809104026020016040519081016040528092919081815260200182805461233890614d80565b80156123855780601f1061235a57610100808354040283529160200191612385565b820191906000526020600020905b81548152906001019060200180831161236857829003601f168201915b50505050506130f4565b808061239a90614db2565b9150506122da565b506123ad6007613168565b600c81905550565b600d60009054906101000a900473ffffffffffffffffffffffffffffffffffffffff1673ffffffffffffffffffffffffffffffffffffffff163373ffffffffffffffffffffffffffffffffffffffff161461240f57600080fd5b8173ffffffffffffffffffffffffffffffffffffffff166108fc829081150290604051600060405180830381858888f19350505050158015612455573d6000803e3d6000fd5b505050565b6000600860009054906101000a900460ff16905090565b61248261247c612cf9565b83612dba565b6124c1576040517f08c379a00000000000000000000000000000000000000000000000000000000081526004016124b890614a2a565b60405180910390fd5b6124cd84848484613176565b50505050565b6000600a54905090565b600e60003373ffffffffffffffffffffffffffffffffffffffff1673ffffffffffffffffffffffffffffffffffffffff16815260200190815260200160002060009054906101000a900460ff1661253357600080fd5b80600860006101000a81548160ff02191690831515021790555050565b606061255b82612c8d565b61259a576040517f08c379a00000000000000000000000000000000000000000000000000000000081526004016125919061498a565b60405180910390fd5b60006006600084815260200190815260200160002080546125ba90614d80565b80601f01602080910402602001604051908101604052809291908181526020018280546125e690614d80565b80156126335780601f1061260857610100808354040283529160200191612633565b820191906000526020600020905b81548152906001019060200180831161261657829003601f168201915b5050505050905060006126446131d2565b905060008151141561265a57819250505061269d565b60008251111561268f578082604051602001612677929190614782565b6040516020818303038152906040529250505061269d565b612698846131e9565b925050505b919050565b600b80546126af90614d80565b80601f01602080910402602001604051908101604052809291908181526020018280546126db90614d80565b80156127285780601f106126fd57610100808354040283529160200191612728565b820191906000526020600020905b81548152906001019060200180831161270b57829003601f168201915b505050505081565b6000600860019054906101000a900460ff1615612782576040517f08c379a000000000000000000000000000000000000000000000000000000000815260040161277990614a4a565b60405180910390fd5b600d60009054906101000a900473ffffffffffffffffffffffffffffffffffffffff1673ffffffffffffffffffffffffffffffffffffffff163373ffffffffffffffffffffffffffffffffffffffff161461284557600860009054906101000a900460ff16156127ff576127f583611618565b6127fe57600080fd5b5b600a54341015612844576040517f08c379a000000000000000000000000000000000000000000000000000000000815260040161283b90614a6a565b60405180910390fd5b5b61284f6007613290565b600061285b6007613168565b905060095481111561286c57600080fd5b61287684826132a6565b61290a81600b805461288790614d80565b80601f01602080910402602001604051908101604052809291908181526020018280546128b390614d80565b80156129005780601f106128d557610100808354040283529160200191612900565b820191906000526020600020905b8154815290600101906020018083116128e357829003601f168201915b50505050506130f4565b600b6010600083815260200190815260200160002090805461292b90614d80565b612936929190613856565b508260116000838152602001908152602001600020908051906020019061295e9291906137d0565b50836012600083815260200190815260200160002060006101000a81548173ffffffffffffffffffffffffffffffffffffffff021916908373ffffffffffffffffffffffffffffffffffffffff1602179055508091505092915050565b60095481565b6000600c54905090565b601060205280600052604060002060009150905080546129ea90614d80565b80601f0160208091040260200160405190810160405280929190818152602001828054612a1690614d80565b8015612a635780601f10612a3857610100808354040283529160200191612a63565b820191906000526020600020905b815481529060010190602001808311612a4657829003601f168201915b505050505081565b6000600560008473ffffffffffffffffffffffffffffffffffffffff1673ffffffffffffffffffffffffffffffffffffffff16815260200190815260200160002060008373ffffffffffffffffffffffffffffffffffffffff1673ffffffffffffffffffffffffffffffffffffffff16815260200190815260200160002060009054906101000a900460ff16905092915050565b600e60003373ffffffffffffffffffffffffffffffffffffffff1673ffffffffffffffffffffffffffffffffffffffff16815260200190815260200160002060009054906101000a900460ff16612b5557600080fd5b60005b8151811015612c0c576001600f6000848481518110612ba0577f4e487b7100000000000000000000000000000000000000000000000000000000600052603260045260246000fd5b602002602001015173ffffffffffffffffffffffffffffffffffffffff1673ffffffffffffffffffffffffffffffffffffffff16815260200190815260200160002060006101000a81548160ff0219169083151502179055508080612c0490614db2565b915050612b58565b5050565b600860009054906101000a900460ff1681565b60007f01ffc9a7000000000000000000000000000000000000000000000000000000007bffffffffffffffffffffffffffffffffffffffffffffffffffffffff1916827bffffffffffffffffffffffffffffffffffffffffffffffffffffffff1916149050919050565b60008073ffffffffffffffffffffffffffffffffffffffff166002600084815260200190815260200160002060009054906101000a900473ffffffffffffffffffffffffffffffffffffffff1673ffffffffffffffffffffffffffffffffffffffff1614159050919050565b600033905090565b816004600083815260200190815260200160002060006101000a81548173ffffffffffffffffffffffffffffffffffffffff021916908373ffffffffffffffffffffffffffffffffffffffff160217905550808273ffffffffffffffffffffffffffffffffffffffff16612d74836118f4565b73ffffffffffffffffffffffffffffffffffffffff167f8c5be1e5ebec7d5bd14f71427d1e84f3dd0314c0f7b2291e5b200ac8c7c3b92560405160405180910390a45050565b6000612dc582612c8d565b612e04576040517f08c379a0000000000000000000000000000000000000000000000000000000008152600401612dfb906148ca565b60405180910390fd5b6000612e0f836118f4565b90508073ffffffffffffffffffffffffffffffffffffffff168473ffffffffffffffffffffffffffffffffffffffff161480612e7e57508373ffffffffffffffffffffffffffffffffffffffff16612e6684610eed565b73ffffffffffffffffffffffffffffffffffffffff16145b80612e8f5750612e8e8185612a6b565b5b91505092915050565b8273ffffffffffffffffffffffffffffffffffffffff16612eb8826118f4565b73ffffffffffffffffffffffffffffffffffffffff1614612f0e576040517f08c379a0000000000000000000000000000000000000000000000000000000008152600401612f05906149ca565b60405180910390fd5b600073ffffffffffffffffffffffffffffffffffffffff168273ffffffffffffffffffffffffffffffffffffffff161415612f7e576040517f08c379a0000000000000000000000000000000000000000000000000000000008152600401612f759061488a565b60405180910390fd5b612f89838383613474565b612f94600082612d01565b6001600360008573ffffffffffffffffffffffffffffffffffffffff1673ffffffffffffffffffffffffffffffffffffffff1681526020019081526020016000206000828254612fe49190614c84565b925050819055506001600360008473ffffffffffffffffffffffffffffffffffffffff1673ffffffffffffffffffffffffffffffffffffffff168152602001908152602001600020600082825461303b9190614bfd565b92505081905550816002600083815260200190815260200160002060006101000a81548173ffffffffffffffffffffffffffffffffffffffff021916908373ffffffffffffffffffffffffffffffffffffffff160217905550808273ffffffffffffffffffffffffffffffffffffffff168473ffffffffffffffffffffffffffffffffffffffff167fddf252ad1be2c89b69c2b068fc378daa952ba7f163c4a11628f55a4df523b3ef60405160405180910390a4505050565b6130fd82612c8d565b61313c576040517f08c379a00000000000000000000000000000000000000000000000000000000081526004016131339061494a565b60405180910390fd5b806006600084815260200190815260200160002090805190602001906131639291906137d0565b505050565b600081600001549050919050565b613181848484612e98565b61318d84848484613479565b6131cc576040517f08c379a00000000000000000000000000000000000000000000000000000000081526004016131c39061484a565b60405180910390fd5b50505050565b606060405180602001604052806000815250905090565b60606131f482612c8d565b613233576040517f08c379a000000000000000000000000000000000000000000000000000000000815260040161322a906149ea565b60405180910390fd5b600061323d6131d2565b9050600081511161325d5760405180602001604052806000815250613288565b8061326784613610565b604051602001613278929190614782565b6040516020818303038152906040525b915050919050565b6001816000016000828254019250508190555050565b600073ffffffffffffffffffffffffffffffffffffffff168273ffffffffffffffffffffffffffffffffffffffff161415613316576040517f08c379a000000000000000000000000000000000000000000000000000000000815260040161330d9061496a565b60405180910390fd5b61331f81612c8d565b1561335f576040517f08c379a00000000000000000000000000000000000000000000000000000000081526004016133569061486a565b60405180910390fd5b61336b60008383613474565b6001600360008473ffffffffffffffffffffffffffffffffffffffff1673ffffffffffffffffffffffffffffffffffffffff16815260200190815260200160002060008282546133bb9190614bfd565b92505081905550816002600083815260200190815260200160002060006101000a81548173ffffffffffffffffffffffffffffffffffffffff021916908373ffffffffffffffffffffffffffffffffffffffff160217905550808273ffffffffffffffffffffffffffffffffffffffff16600073ffffffffffffffffffffffffffffffffffffffff167fddf252ad1be2c89b69c2b068fc378daa952ba7f163c4a11628f55a4df523b3ef60405160405180910390a45050565b505050565b600061349a8473ffffffffffffffffffffffffffffffffffffffff166137bd565b15613603578373ffffffffffffffffffffffffffffffffffffffff1663150b7a026134c3612cf9565b8786866040518563ffffffff1660e01b81526004016134e594939291906147c1565b602060405180830381600087803b1580156134ff57600080fd5b505af192505050801561353057506040513d601f19601f8201168201806040525081019061352d9190613f37565b60015b6135b3573d8060008114613560576040519150601f19603f3d011682016040523d82523d6000602084013e613565565b606091505b506000815114156135ab576040517f08c379a00000000000000000000000000000000000000000000000000000000081526004016135a29061484a565b60405180910390fd5b805181602001fd5b63150b7a0260e01b7bffffffffffffffffffffffffffffffffffffffffffffffffffffffff1916817bffffffffffffffffffffffffffffffffffffffffffffffffffffffff191614915050613608565b600190505b949350505050565b60606000821415613658576040518060400160405280600181526020017f300000000000000000000000000000000000000000000000000000000000000081525090506137b8565b600082905060005b6000821461368a57808061367390614db2565b915050600a826136839190614c53565b9150613660565b60008167ffffffffffffffff8111156136cc577f4e487b7100000000000000000000000000000000000000000000000000000000600052604160045260246000fd5b6040519080825280601f01601f1916602001820160405280156136fe5781602001600182028036833780820191505090505b5090505b600085146137b1576001826137179190614c84565b9150600a856137269190614dfb565b60306137329190614bfd565b60f81b81838151811061376e577f4e487b7100000000000000000000000000000000000000000000000000000000600052603260045260246000fd5b60200101907effffffffffffffffffffffffffffffffffffffffffffffffffffffffffffff1916908160001a905350600a856137aa9190614c53565b9450613702565b8093505050505b919050565b600080823b905060008111915050919050565b8280546137dc90614d80565b90600052602060002090601f0160209004810192826137fe5760008555613845565b82601f1061381757805160ff1916838001178555613845565b82800160010185558215613845579182015b82811115613844578251825591602001919060010190613829565b5b50905061385291906138e3565b5090565b82805461386290614d80565b90600052602060002090601f01602090048101928261388457600085556138d2565b82601f1061389557805485556138d2565b828001600101855582156138d257600052602060002091601f016020900482015b828111156138d15782548255916001019190600101906138b6565b5b5090506138df91906138e3565b5090565b5b808211156138fc5760008160009055506001016138e4565b5090565b600061391361390e84614ad6565b614aa5565b9050808382526020820190508285602086028201111561393257600080fd5b60005b8581101561396257816139488882613ab1565b845260208401935060208301925050600181019050613935565b5050509392505050565b600061397f61397a84614b02565b614aa5565b9050808382526020820190508260005b858110156139bf57813585016139a58882613bc2565b84526020840193506020830192505060018101905061398f565b5050509392505050565b60006139dc6139d784614b2e565b614aa5565b905080838252602082019050828560208602820111156139fb57600080fd5b60005b85811015613a2b5781613a118882613bec565b8452602084019350602083019250506001810190506139fe565b5050509392505050565b6000613a48613a4384614b5a565b614aa5565b905082815260208101848484011115613a6057600080fd5b613a6b848285614d3e565b509392505050565b6000613a86613a8184614b8a565b614aa5565b905082815260208101848484011115613a9e57600080fd5b613aa9848285614d3e565b509392505050565b600081359050613ac081614ef9565b92915050565b600081359050613ad581614f10565b92915050565b600082601f830112613aec57600080fd5b8135613afc848260208601613900565b91505092915050565b600082601f830112613b1657600080fd5b8135613b2684826020860161396c565b91505092915050565b600082601f830112613b4057600080fd5b8135613b508482602086016139c9565b91505092915050565b600081359050613b6881614f27565b92915050565b600081359050613b7d81614f3e565b92915050565b600081519050613b9281614f3e565b92915050565b600082601f830112613ba957600080fd5b8135613bb9848260208601613a35565b91505092915050565b600082601f830112613bd357600080fd5b8135613be3848260208601613a73565b91505092915050565b600081359050613bfb81614f55565b92915050565b600060208284031215613c1357600080fd5b6000613c2184828501613ab1565b91505092915050565b60008060408385031215613c3d57600080fd5b6000613c4b85828601613ac6565b9250506020613c5c85828601613bec565b9150509250929050565b60008060408385031215613c7957600080fd5b6000613c8785828601613ab1565b9250506020613c9885828601613ab1565b9150509250929050565b600080600060608486031215613cb757600080fd5b6000613cc586828701613ab1565b9350506020613cd686828701613ab1565b9250506040613ce786828701613bec565b9150509250925092565b60008060008060808587031215613d0757600080fd5b6000613d1587828801613ab1565b9450506020613d2687828801613ab1565b9350506040613d3787828801613bec565b925050606085013567ffffffffffffffff811115613d5457600080fd5b613d6087828801613b98565b91505092959194509250565b60008060408385031215613d7f57600080fd5b6000613d8d85828601613ab1565b9250506020613d9e85828601613b59565b9150509250929050565b60008060408385031215613dbb57600080fd5b6000613dc985828601613ab1565b925050602083013567ffffffffffffffff811115613de657600080fd5b613df285828601613bc2565b9150509250929050565b60008060408385031215613e0f57600080fd5b6000613e1d85828601613ab1565b9250506020613e2e85828601613bec565b9150509250929050565b600060208284031215613e4a57600080fd5b600082013567ffffffffffffffff811115613e6457600080fd5b613e7084828501613adb565b91505092915050565b60008060408385031215613e8c57600080fd5b600083013567ffffffffffffffff811115613ea657600080fd5b613eb285828601613b2f565b925050602083013567ffffffffffffffff811115613ecf57600080fd5b613edb85828601613b05565b9150509250929050565b600060208284031215613ef757600080fd5b6000613f0584828501613b59565b91505092915050565b600060208284031215613f2057600080fd5b6000613f2e84828501613b6e565b91505092915050565b600060208284031215613f4957600080fd5b6000613f5784828501613b83565b91505092915050565b600060208284031215613f7257600080fd5b600082013567ffffffffffffffff811115613f8c57600080fd5b613f9884828501613bc2565b91505092915050565b600060208284031215613fb357600080fd5b6000613fc184828501613bec565b91505092915050565b60008060408385031215613fdd57600080fd5b6000613feb85828601613bec565b925050602083013567ffffffffffffffff81111561400857600080fd5b61401485828601613bc2565b9150509250929050565b61402781614cb8565b82525050565b61403681614cdc565b82525050565b600061404782614bba565b6140518185614bd0565b9350614061818560208601614d4d565b61406a81614ee8565b840191505092915050565b600061408082614bc5565b61408a8185614be1565b935061409a818560208601614d4d565b6140a381614ee8565b840191505092915050565b60006140b982614bc5565b6140c38185614bf2565b93506140d3818560208601614d4d565b80840191505092915050565b60006140ec603283614be1565b91507f4552433732313a207472616e7366657220746f206e6f6e20455243373231526560008301527f63656976657220696d706c656d656e74657200000000000000000000000000006020830152604082019050919050565b6000614152601c83614be1565b91507f4552433732313a20746f6b656e20616c7265616479206d696e746564000000006000830152602082019050919050565b6000614192602483614be1565b91507f4552433732313a207472616e7366657220746f20746865207a65726f2061646460008301527f72657373000000000000000000000000000000000000000000000000000000006020830152604082019050919050565b60006141f8601983614be1565b91507f4552433732313a20617070726f766520746f2063616c6c6572000000000000006000830152602082019050919050565b6000614238602c83614be1565b91507f4552433732313a206f70657261746f7220717565727920666f72206e6f6e657860008301527f697374656e7420746f6b656e00000000000000000000000000000000000000006020830152604082019050919050565b600061429e603883614be1565b91507f4552433732313a20617070726f76652063616c6c6572206973206e6f74206f7760008301527f6e6572206e6f7220617070726f76656420666f7220616c6c00000000000000006020830152604082019050919050565b6000614304602a83614be1565b91507f4552433732313a2062616c616e636520717565727920666f7220746865207a6560008301527f726f2061646472657373000000000000000000000000000000000000000000006020830152604082019050919050565b600061436a602983614be1565b91507f4552433732313a206f776e657220717565727920666f72206e6f6e657869737460008301527f656e7420746f6b656e00000000000000000000000000000000000000000000006020830152604082019050919050565b60006143d0602e83614be1565b91507f45524337323155524953746f726167653a2055524920736574206f66206e6f6e60008301527f6578697374656e7420746f6b656e0000000000000000000000000000000000006020830152604082019050919050565b6000614436602083614be1565b91507f4552433732313a206d696e7420746f20746865207a65726f20616464726573736000830152602082019050919050565b6000614476603183614be1565b91507f45524337323155524953746f726167653a2055524920717565727920666f722060008301527f6e6f6e6578697374656e7420746f6b656e0000000000000000000000000000006020830152604082019050919050565b60006144dc602c83614be1565b91507f4552433732313a20617070726f76656420717565727920666f72206e6f6e657860008301527f697374656e7420746f6b656e00000000000000000000000000000000000000006020830152604082019050919050565b6000614542602983614be1565b91507f4552433732313a207472616e73666572206f6620746f6b656e2074686174206960008301527f73206e6f74206f776e00000000000000000000000000000000000000000000006020830152604082019050919050565b60006145a8602f83614be1565b91507f4552433732314d657461646174613a2055524920717565727920666f72206e6f60008301527f6e6578697374656e7420746f6b656e00000000000000000000000000000000006020830152604082019050919050565b600061460e602183614be1565b91507f4552433732313a20617070726f76616c20746f2063757272656e74206f776e6560008301527f72000000000000000000000000000000000000000000000000000000000000006020830152604082019050919050565b6000614674603183614be1565b91507f4552433732313a207472616e736665722063616c6c6572206973206e6f74206f60008301527f776e6572206e6f7220617070726f7665640000000000000000000000000000006020830152604082019050919050565b60006146da601183614be1565b91507f4d696e74696e67206973207061757365640000000000000000000000000000006000830152602082019050919050565b600061471a602183614be1565b91507f4e6f7420656e6f756768204554482073656e743b20636865636b20707269636560008301527f21000000000000000000000000000000000000000000000000000000000000006020830152604082019050919050565b61477c81614d34565b82525050565b600061478e82856140ae565b915061479a82846140ae565b91508190509392505050565b60006020820190506147bb600083018461401e565b92915050565b60006080820190506147d6600083018761401e565b6147e3602083018661401e565b6147f06040830185614773565b8181036060830152614802818461403c565b905095945050505050565b6000602082019050614822600083018461402d565b92915050565b600060208201905081810360008301526148428184614075565b905092915050565b60006020820190508181036000830152614863816140df565b9050919050565b6000602082019050818103600083015261488381614145565b9050919050565b600060208201905081810360008301526148a381614185565b9050919050565b600060208201905081810360008301526148c3816141eb565b9050919050565b600060208201905081810360008301526148e38161422b565b9050919050565b6000602082019050818103600083015261490381614291565b9050919050565b60006020820190508181036000830152614923816142f7565b9050919050565b600060208201905081810360008301526149438161435d565b9050919050565b60006020820190508181036000830152614963816143c3565b9050919050565b6000602082019050818103600083015261498381614429565b9050919050565b600060208201905081810360008301526149a381614469565b9050919050565b600060208201905081810360008301526149c3816144cf565b9050919050565b600060208201905081810360008301526149e381614535565b9050919050565b60006020820190508181036000830152614a038161459b565b9050919050565b60006020820190508181036000830152614a2381614601565b9050919050565b60006020820190508181036000830152614a4381614667565b9050919050565b60006020820190508181036000830152614a63816146cd565b9050919050565b60006020820190508181036000830152614a838161470d565b9050919050565b6000602082019050614a9f6000830184614773565b92915050565b6000604051905081810181811067ffffffffffffffff82111715614acc57614acb614eb9565b5b8060405250919050565b600067ffffffffffffffff821115614af157614af0614eb9565b5b602082029050602081019050919050565b600067ffffffffffffffff821115614b1d57614b1c614eb9565b5b602082029050602081019050919050565b600067ffffffffffffffff821115614b4957614b48614eb9565b5b602082029050602081019050919050565b600067ffffffffffffffff821115614b7557614b74614eb9565b5b601f19601f8301169050602081019050919050565b600067ffffffffffffffff821115614ba557614ba4614eb9565b5b601f19601f8301169050602081019050919050565b600081519050919050565b600081519050919050565b600082825260208201905092915050565b600082825260208201905092915050565b600081905092915050565b6000614c0882614d34565b9150614c1383614d34565b9250827fffffffffffffffffffffffffffffffffffffffffffffffffffffffffffffffff03821115614c4857614c47614e2c565b5b828201905092915050565b6000614c5e82614d34565b9150614c6983614d34565b925082614c7957614c78614e5b565b5b828204905092915050565b6000614c8f82614d34565b9150614c9a83614d34565b925082821015614cad57614cac614e2c565b5b828203905092915050565b6000614cc382614d14565b9050919050565b6000614cd582614d14565b9050919050565b60008115159050919050565b60007fffffffff0000000000000000000000000000000000000000000000000000000082169050919050565b600073ffffffffffffffffffffffffffffffffffffffff82169050919050565b6000819050919050565b82818337600083830152505050565b60005b83811015614d6b578082015181840152602081019050614d50565b83811115614d7a576000848401525b50505050565b60006002820490506001821680614d9857607f821691505b60208210811415614dac57614dab614e8a565b5b50919050565b6000614dbd82614d34565b91507fffffffffffffffffffffffffffffffffffffffffffffffffffffffffffffffff821415614df057614def614e2c565b5b600182019050919050565b6000614e0682614d34565b9150614e1183614d34565b925082614e2157614e20614e5b565b5b828206905092915050565b7f4e487b7100000000000000000000000000000000000000000000000000000000600052601160045260246000fd5b7f4e487b7100000000000000000000000000000000000000000000000000000000600052601260045260246000fd5b7f4e487b7100000000000000000000000000000000000000000000000000000000600052602260045260246000fd5b7f4e487b7100000000000000000000000000000000000000000000000000000000600052604160045260246000fd5b6000601f19601f8301169050919050565b614f0281614cb8565b8114614f0d57600080fd5b50565b614f1981614cca565b8114614f2457600080fd5b50565b614f3081614cdc565b8114614f3b57600080fd5b50565b614f4781614ce8565b8114614f5257600080fd5b50565b614f5e81614d34565b8114614f6957600080fd5b5056fea264697066735822122046f18e0df9edea4f176d4cad0a25f9835cf5a27c3cf9c12dbc91d747d14c7a5364736f6c6343000800003368747470733a2f2f676174657761792e70696e6174612e636c6f75642f697066732f516d523139767671487765746646707264433356735643644a674e5646544d654362756354576850765131506631",
  "linkReferences": {},
  "deployedLinkReferences": {}
}