{
  "_format": "hh-sol-artifact-1",
  "contractName": "Heavenlywords",
  "sourceName": "contracts/MyNFT.sol",
  "abi": [
    {
      "inputs": [],
      "stateMutability": "nonpayable",
      "type": "constructor"
    },
    {
      "anonymous": false,
      "inputs": [
        {
          "indexed": true,
          "internalType": "address",
          "name": "owner",
          "type": "address"
        },
        {
          "indexed": true,
          "internalType": "address",
          "name": "approved",
          "type": "address"
        },
        {
          "indexed": true,
          "internalType": "uint256",
          "name": "tokenId",
          "type": "uint256"
        }
      ],
      "name": "Approval",
      "type": "event"
    },
    {
      "anonymous": false,
      "inputs": [
        {
          "indexed": true,
          "internalType": "address",
          "name": "owner",
          "type": "address"
        },
        {
          "indexed": true,
          "internalType": "address",
          "name": "operator",
          "type": "address"
        },
        {
          "indexed": false,
          "internalType": "bool",
          "name": "approved",
          "type": "bool"
        }
      ],
      "name": "ApprovalForAll",
      "type": "event"
    },
    {
      "anonymous": false,
      "inputs": [
        {
          "indexed": true,
          "internalType": "address",
          "name": "from",
          "type": "address"
        },
        {
          "indexed": true,
          "internalType": "address",
          "name": "to",
          "type": "address"
        },
        {
          "indexed": true,
          "internalType": "uint256",
          "name": "tokenId",
          "type": "uint256"
        }
      ],
      "name": "Transfer",
      "type": "event"
    },
    {
      "inputs": [
        {
          "internalType": "address",
          "name": "",
          "type": "address"
        }
      ],
      "name": "admins",
      "outputs": [
        {
          "internalType": "bool",
          "name": "",
          "type": "bool"
        }
      ],
      "stateMutability": "view",
      "type": "function"
    },
    {
      "inputs": [
        {
          "internalType": "address",
          "name": "to",
          "type": "address"
        },
        {
          "internalType": "uint256",
          "name": "tokenId",
          "type": "uint256"
        }
      ],
      "name": "approve",
      "outputs": [],
      "stateMutability": "nonpayable",
      "type": "function"
    },
    {
      "inputs": [
        {
          "internalType": "address",
          "name": "owner",
          "type": "address"
        }
      ],
      "name": "balanceOf",
      "outputs": [
        {
          "internalType": "uint256",
          "name": "",
          "type": "uint256"
        }
      ],
      "stateMutability": "view",
      "type": "function"
    },
    {
      "inputs": [],
      "name": "cost",
      "outputs": [
        {
          "internalType": "uint256",
          "name": "",
          "type": "uint256"
        }
      ],
      "stateMutability": "view",
      "type": "function"
    },
    {
      "inputs": [
        {
          "internalType": "uint256",
          "name": "tokenId",
          "type": "uint256"
        }
      ],
      "name": "getApproved",
      "outputs": [
        {
          "internalType": "address",
          "name": "",
          "type": "address"
        }
      ],
      "stateMutability": "view",
      "type": "function"
    },
    {
      "inputs": [],
      "name": "getBalance",
      "outputs": [
        {
          "internalType": "uint256",
          "name": "",
          "type": "uint256"
        }
      ],
      "stateMutability": "view",
      "type": "function"
    },
    {
      "inputs": [],
      "name": "getCost",
      "outputs": [
        {
          "internalType": "uint256",
          "name": "",
          "type": "uint256"
        }
      ],
      "stateMutability": "view",
      "type": "function"
    },
    {
      "inputs": [],
      "name": "getInitialURI",
      "outputs": [
        {
          "internalType": "string",
          "name": "",
          "type": "string"
        }
      ],
      "stateMutability": "view",
      "type": "function"
    },
    {
      "inputs": [],
      "name": "getMaxSupply",
      "outputs": [
        {
          "internalType": "uint256",
          "name": "",
          "type": "uint256"
        }
      ],
      "stateMutability": "view",
      "type": "function"
    },
    {
      "inputs": [],
      "name": "getMintCount",
      "outputs": [
        {
          "internalType": "uint256",
          "name": "",
          "type": "uint256"
        }
      ],
      "stateMutability": "view",
      "type": "function"
    },
    {
      "inputs": [],
      "name": "getOwner",
      "outputs": [
        {
          "internalType": "address",
          "name": "",
          "type": "address"
        }
      ],
      "stateMutability": "view",
      "type": "function"
    },
    {
      "inputs": [],
      "name": "getPaused",
      "outputs": [
        {
          "internalType": "bool",
          "name": "",
          "type": "bool"
        }
      ],
      "stateMutability": "view",
      "type": "function"
    },
    {
      "inputs": [],
      "name": "getPresale",
      "outputs": [
        {
          "internalType": "bool",
          "name": "",
          "type": "bool"
        }
      ],
      "stateMutability": "view",
      "type": "function"
    },
    {
      "inputs": [],
      "name": "getRevaledTokens",
      "outputs": [
        {
          "internalType": "uint256",
          "name": "",
          "type": "uint256"
        }
      ],
      "stateMutability": "view",
      "type": "function"
    },
    {
      "inputs": [
        {
          "internalType": "uint256",
          "name": "",
          "type": "uint256"
        }
      ],
      "name": "idToUri",
      "outputs": [
        {
          "internalType": "string",
          "name": "",
          "type": "string"
        }
      ],
      "stateMutability": "view",
      "type": "function"
    },
    {
      "inputs": [],
      "name": "initialURI",
      "outputs": [
        {
          "internalType": "string",
          "name": "",
          "type": "string"
        }
      ],
      "stateMutability": "view",
      "type": "function"
    },
    {
      "inputs": [
        {
          "internalType": "address",
          "name": "_addr",
          "type": "address"
        }
      ],
      "name": "isAdmin",
      "outputs": [
        {
          "internalType": "bool",
          "name": "",
          "type": "bool"
        }
      ],
      "stateMutability": "view",
      "type": "function"
    },
    {
      "inputs": [
        {
          "internalType": "address",
          "name": "owner",
          "type": "address"
        },
        {
          "internalType": "address",
          "name": "operator",
          "type": "address"
        }
      ],
      "name": "isApprovedForAll",
      "outputs": [
        {
          "internalType": "bool",
          "name": "",
          "type": "bool"
        }
      ],
      "stateMutability": "view",
      "type": "function"
    },
    {
      "inputs": [
        {
          "internalType": "address",
          "name": "_addr",
          "type": "address"
        }
      ],
      "name": "isWhitelisted",
      "outputs": [
        {
          "internalType": "bool",
          "name": "",
          "type": "bool"
        }
      ],
      "stateMutability": "view",
      "type": "function"
    },
    {
      "inputs": [],
      "name": "maxSupply",
      "outputs": [
        {
          "internalType": "uint256",
          "name": "",
          "type": "uint256"
        }
      ],
      "stateMutability": "view",
      "type": "function"
    },
    {
      "inputs": [
        {
          "internalType": "address",
          "name": "_recipient",
          "type": "address"
        }
      ],
      "name": "mint",
      "outputs": [
        {
          "internalType": "uint256",
          "name": "",
          "type": "uint256"
        }
      ],
      "stateMutability": "payable",
      "type": "function"
    },
    {
      "inputs": [],
      "name": "name",
      "outputs": [
        {
          "internalType": "string",
          "name": "",
          "type": "string"
        }
      ],
      "stateMutability": "view",
      "type": "function"
    },
    {
      "inputs": [
        {
          "internalType": "uint256",
          "name": "tokenId",
          "type": "uint256"
        }
      ],
      "name": "ownerOf",
      "outputs": [
        {
          "internalType": "address",
          "name": "",
          "type": "address"
        }
      ],
      "stateMutability": "view",
      "type": "function"
    },
    {
      "inputs": [],
      "name": "paused",
      "outputs": [
        {
          "internalType": "bool",
          "name": "",
          "type": "bool"
        }
      ],
      "stateMutability": "view",
      "type": "function"
    },
    {
      "inputs": [],
      "name": "presale",
      "outputs": [
        {
          "internalType": "bool",
          "name": "",
          "type": "bool"
        }
      ],
      "stateMutability": "view",
      "type": "function"
    },
    {
      "inputs": [
        {
          "internalType": "address",
          "name": "_addr",
          "type": "address"
        }
      ],
      "name": "removeAdmin",
      "outputs": [],
      "stateMutability": "nonpayable",
      "type": "function"
    },
    {
      "inputs": [
        {
          "internalType": "address[]",
          "name": "_addrs",
          "type": "address[]"
        }
      ],
      "name": "removeBatch",
      "outputs": [],
      "stateMutability": "nonpayable",
      "type": "function"
    },
    {
      "inputs": [
        {
          "internalType": "address",
          "name": "_addr",
          "type": "address"
        }
      ],
      "name": "removeFromWhitelist",
      "outputs": [],
      "stateMutability": "nonpayable",
      "type": "function"
    },
    {
      "inputs": [],
      "name": "reveal",
      "outputs": [],
      "stateMutability": "nonpayable",
      "type": "function"
    },
    {
      "inputs": [
        {
          "internalType": "uint256",
          "name": "_ID",
          "type": "uint256"
        }
      ],
      "name": "revealOne",
      "outputs": [],
      "stateMutability": "nonpayable",
      "type": "function"
    },
    {
      "inputs": [
        {
          "internalType": "address",
          "name": "from",
          "type": "address"
        },
        {
          "internalType": "address",
          "name": "to",
          "type": "address"
        },
        {
          "internalType": "uint256",
          "name": "tokenId",
          "type": "uint256"
        }
      ],
      "name": "safeTransferFrom",
      "outputs": [],
      "stateMutability": "nonpayable",
      "type": "function"
    },
    {
      "inputs": [
        {
          "internalType": "address",
          "name": "from",
          "type": "address"
        },
        {
          "internalType": "address",
          "name": "to",
          "type": "address"
        },
        {
          "internalType": "uint256",
          "name": "tokenId",
          "type": "uint256"
        },
        {
          "internalType": "bytes",
          "name": "_data",
          "type": "bytes"
        }
      ],
      "name": "safeTransferFrom",
      "outputs": [],
      "stateMutability": "nonpayable",
      "type": "function"
    },
    {
      "inputs": [
        {
          "internalType": "address",
          "name": "_addr",
          "type": "address"
        }
      ],
      "name": "setAdmin",
      "outputs": [],
      "stateMutability": "nonpayable",
      "type": "function"
    },
    {
      "inputs": [
        {
          "internalType": "address",
          "name": "operator",
          "type": "address"
        },
        {
          "internalType": "bool",
          "name": "approved",
          "type": "bool"
        }
      ],
      "name": "setApprovalForAll",
      "outputs": [],
      "stateMutability": "nonpayable",
      "type": "function"
    },
    {
      "inputs": [
        {
          "internalType": "uint256",
          "name": "_newCost",
          "type": "uint256"
        }
      ],
      "name": "setCost",
      "outputs": [],
      "stateMutability": "nonpayable",
      "type": "function"
    },
    {
      "inputs": [
        {
          "internalType": "string",
          "name": "_newURI",
          "type": "string"
        }
      ],
      "name": "setInitialURI",
      "outputs": [],
      "stateMutability": "nonpayable",
      "type": "function"
    },
    {
      "inputs": [
        {
          "internalType": "uint256",
          "name": "_value",
          "type": "uint256"
        }
      ],
      "name": "setMaxSupply",
      "outputs": [],
      "stateMutability": "nonpayable",
      "type": "function"
    },
    {
      "inputs": [
        {
          "internalType": "bool",
          "name": "_value",
          "type": "bool"
        }
      ],
      "name": "setPaused",
      "outputs": [],
      "stateMutability": "nonpayable",
      "type": "function"
    },
    {
      "inputs": [
        {
          "internalType": "bool",
          "name": "_value",
          "type": "bool"
        }
      ],
      "name": "setPresale",
      "outputs": [],
      "stateMutability": "nonpayable",
      "type": "function"
    },
    {
      "inputs": [
        {
          "internalType": "bytes4",
          "name": "interfaceId",
          "type": "bytes4"
        }
      ],
      "name": "supportsInterface",
      "outputs": [
        {
          "internalType": "bool",
          "name": "",
          "type": "bool"
        }
      ],
      "stateMutability": "view",
      "type": "function"
    },
    {
      "inputs": [],
      "name": "symbol",
      "outputs": [
        {
          "internalType": "string",
          "name": "",
          "type": "string"
        }
      ],
      "stateMutability": "view",
      "type": "function"
    },
    {
      "inputs": [
        {
          "internalType": "uint256",
          "name": "tokenId",
          "type": "uint256"
        }
      ],
      "name": "tokenURI",
      "outputs": [
        {
          "internalType": "string",
          "name": "",
          "type": "string"
        }
      ],
      "stateMutability": "view",
      "type": "function"
    },
    {
      "inputs": [
        {
          "internalType": "address payable",
          "name": "_addr",
          "type": "address"
        },
        {
          "internalType": "uint256",
          "name": "_amount",
          "type": "uint256"
        }
      ],
      "name": "transfer",
      "outputs": [],
      "stateMutability": "nonpayable",
      "type": "function"
    },
    {
      "inputs": [
        {
          "internalType": "address",
          "name": "from",
          "type": "address"
        },
        {
          "internalType": "address",
          "name": "to",
          "type": "address"
        },
        {
          "internalType": "uint256",
          "name": "tokenId",
          "type": "uint256"
        }
      ],
      "name": "transferFrom",
      "outputs": [],
      "stateMutability": "nonpayable",
      "type": "function"
    },
    {
      "inputs": [
        {
          "internalType": "uint256",
          "name": "_ID",
          "type": "uint256"
        },
        {
          "internalType": "string",
          "name": "_URI",
          "type": "string"
        }
      ],
      "name": "updateOneURI",
      "outputs": [],
      "stateMutability": "nonpayable",
      "type": "function"
    },
    {
      "inputs": [
        {
          "internalType": "uint256[]",
          "name": "_IDs",
          "type": "uint256[]"
        },
        {
          "internalType": "string[]",
          "name": "_URIs",
          "type": "string[]"
        }
      ],
      "name": "updateURIs",
      "outputs": [],
      "stateMutability": "nonpayable",
      "type": "function"
    },
    {
      "inputs": [
        {
          "internalType": "address",
          "name": "",
          "type": "address"
        }
      ],
      "name": "whitelist",
      "outputs": [
        {
          "internalType": "bool",
          "name": "",
          "type": "bool"
        }
      ],
      "stateMutability": "view",
      "type": "function"
    },
    {
      "inputs": [
        {
          "internalType": "address",
          "name": "_addr",
          "type": "address"
        }
      ],
      "name": "whitelistAddress",
      "outputs": [],
      "stateMutability": "nonpayable",
      "type": "function"
    },
    {
      "inputs": [
        {
          "internalType": "address[]",
          "name": "_addrs",
          "type": "address[]"
        }
      ],
      "name": "whitelistBatch",
      "outputs": [],
      "stateMutability": "nonpayable",
      "type": "function"
    },
    {
      "inputs": [
        {
          "internalType": "uint256",
          "name": "_amount",
          "type": "uint256"
        }
      ],
      "name": "withdraw",
      "outputs": [],
      "stateMutability": "nonpayable",
      "type": "function"
    }
  ],
  "bytecode": "0x60806040526001600860006101000a81548160ff0219169083151502179055506000600860016101000a81548160ff021916908315150217905550611e6160095566f8b0a10e470000600a5560405180608001604052806050815260200162004db560509139600b90805190602001906200007c929190620001cf565b506000600c5533600d60006101000a81548173ffffffffffffffffffffffffffffffffffffffff021916908373ffffffffffffffffffffffffffffffffffffffff160217905550348015620000d057600080fd5b506040518060400160405280600d81526020017f48656176656e6c79776f726473000000000000000000000000000000000000008152506040518060400160405280600381526020017f4857730000000000000000000000000000000000000000000000000000000000815250816000908051906020019062000155929190620001cf565b5080600190805190602001906200016e929190620001cf565b5050506001600e60003373ffffffffffffffffffffffffffffffffffffffff1673ffffffffffffffffffffffffffffffffffffffff16815260200190815260200160002060006101000a81548160ff021916908315150217905550620002e4565b828054620001dd906200027f565b90600052602060002090601f0160209004810192826200020157600085556200024d565b82601f106200021c57805160ff19168380011785556200024d565b828001600101855582156200024d579182015b828111156200024c5782518255916020019190600101906200022f565b5b5090506200025c919062000260565b5090565b5b808211156200027b57600081600090555060010162000261565b5090565b600060028204905060018216806200029857607f821691505b60208210811415620002af57620002ae620002b5565b5b50919050565b7f4e487b7100000000000000000000000000000000000000000000000000000000600052602260045260246000fd5b614ac180620002f46000396000f3fe6080604052600436106102c95760003560e01c80636f8b44b011610175578063a9059cbb116100dc578063c9a2307711610095578063e6fb9e941161006f578063e6fb9e9414610af3578063e985e9c514610b30578063eaa5352314610b6d578063fdea8e0b14610b96576102c9565b8063c9a2307714610a72578063d5abeb0114610a9d578063daeeea5714610ac8576102c9565b8063a9059cbb14610964578063aee99e521461098d578063b88d4fde146109b8578063bd3e19d4146109e1578063c54e73e314610a0c578063c87b56dd14610a35576102c9565b80638fc3b5491161012e5780638fc3b5491461086857806395d89b41146108935780639b19251a146108be578063a22cb465146108fb578063a32a7b6514610924578063a475b5dd1461094d576102c9565b80636f8b44b01461075c578063704b6c021461078557806370a08231146107ae578063871110a3146107eb578063893d20e8146108145780638ab1d6811461083f576102c9565b80633af32abf1161023457806358873820116101ed5780636352211e116101c75780636352211e1461069b5780636805b84b146106d85780636a627842146107035780636b845bfe14610733576102c9565b8063588738201461061c5780635c5b6f49146106475780635c975abb14610670576102c9565b80633af32abf146104fc578063415665851461053957806342842e0e14610562578063429b62e51461058b57806344a0d68a146105c85780634c0f38c2146105f1576102c9565b806316c38b3c1161028657806316c38b3c146103f25780631785f53c1461041b578063185467061461044457806323b872dd1461046d57806324d7806c146104965780632e1a7d4d146104d3576102c9565b806301ffc9a7146102ce57806306fdde031461030b578063081812fc14610336578063095ea7b31461037357806312065fe01461039c57806313faede6146103c7575b600080fd5b3480156102da57600080fd5b506102f560048036038101906102f09190613a2d565b610bc1565b604051610302919061432c565b60405180910390f35b34801561031757600080fd5b50610320610ca3565b60405161032d9190614347565b60405180910390f35b34801561034257600080fd5b5061035d60048036038101906103589190613ac0565b610d35565b60405161036a91906142c5565b60405180910390f35b34801561037f57600080fd5b5061039a6004803603810190610395919061391b565b610dba565b005b3480156103a857600080fd5b506103b1610ed2565b6040516103be91906145a9565b60405180910390f35b3480156103d357600080fd5b506103dc610f30565b6040516103e991906145a9565b60405180910390f35b3480156103fe57600080fd5b5061041960048036038101906104149190613a04565b610f36565b005b34801561042757600080fd5b50610442600480360381019061043d9190613774565b610fa9565b005b34801561045057600080fd5b5061046b60048036038101906104669190613998565b61105e565b005b34801561047957600080fd5b50610494600480360381019061048f9190613815565b61118e565b005b3480156104a257600080fd5b506104bd60048036038101906104b89190613774565b6111ee565b6040516104ca919061432c565b60405180910390f35b3480156104df57600080fd5b506104fa60048036038101906104f59190613ac0565b611244565b005b34801561050857600080fd5b50610523600480360381019061051e9190613774565b6112e8565b604051610530919061432c565b60405180910390f35b34801561054557600080fd5b50610560600480360381019061055b9190613774565b61133e565b005b34801561056e57600080fd5b5061058960048036038101906105849190613815565b6113ef565b005b34801561059757600080fd5b506105b260048036038101906105ad9190613774565b61140f565b6040516105bf919061432c565b60405180910390f35b3480156105d457600080fd5b506105ef60048036038101906105ea9190613ac0565b61142f565b005b3480156105fd57600080fd5b50610606611493565b60405161061391906145a9565b60405180910390f35b34801561062857600080fd5b5061063161149d565b60405161063e9190614347565b60405180910390f35b34801561065357600080fd5b5061066e60048036038101906106699190613ae9565b61152f565b005b34801561067c57600080fd5b506106856115b1565b604051610692919061432c565b60405180910390f35b3480156106a757600080fd5b506106c260048036038101906106bd9190613ac0565b6115c4565b6040516106cf91906142c5565b60405180910390f35b3480156106e457600080fd5b506106ed611676565b6040516106fa919061432c565b60405180910390f35b61071d60048036038101906107189190613774565b61168d565b60405161072a91906145a9565b60405180910390f35b34801561073f57600080fd5b5061075a60048036038101906107559190613957565b61189d565b005b34801561076857600080fd5b50610783600480360381019061077e9190613ac0565b6119ae565b005b34801561079157600080fd5b506107ac60048036038101906107a79190613774565b611a12565b005b3480156107ba57600080fd5b506107d560048036038101906107d09190613774565b611ac7565b6040516107e291906145a9565b60405180910390f35b3480156107f757600080fd5b50610812600480360381019061080d9190613ac0565b611b7f565b005b34801561082057600080fd5b50610829611c7d565b60405161083691906142c5565b60405180910390f35b34801561084b57600080fd5b5061086660048036038101906108619190613774565b611ca7565b005b34801561087457600080fd5b5061087d611d58565b60405161088a91906145a9565b60405180910390f35b34801561089f57600080fd5b506108a8611dbf565b6040516108b59190614347565b60405180910390f35b3480156108ca57600080fd5b506108e560048036038101906108e09190613774565b611e51565b6040516108f2919061432c565b60405180910390f35b34801561090757600080fd5b50610922600480360381019061091d91906138df565b611e71565b005b34801561093057600080fd5b5061094b60048036038101906109469190613a7f565b611ff2565b005b34801561095957600080fd5b50610962612062565b005b34801561097057600080fd5b5061098b6004803603810190610986919061379d565b6121b3565b005b34801561099957600080fd5b506109a2612258565b6040516109af919061432c565b60405180910390f35b3480156109c457600080fd5b506109df60048036038101906109da9190613864565b61226f565b005b3480156109ed57600080fd5b506109f66122d1565b604051610a0391906145a9565b60405180910390f35b348015610a1857600080fd5b50610a336004803603810190610a2e9190613a04565b6122db565b005b348015610a4157600080fd5b50610a5c6004803603810190610a579190613ac0565b61234e565b604051610a699190614347565b60405180910390f35b348015610a7e57600080fd5b50610a876124a0565b604051610a949190614347565b60405180910390f35b348015610aa957600080fd5b50610ab261252e565b604051610abf91906145a9565b60405180910390f35b348015610ad457600080fd5b50610add612534565b604051610aea91906145a9565b60405180910390f35b348015610aff57600080fd5b50610b1a6004803603810190610b159190613ac0565b61253e565b604051610b279190614347565b60405180910390f35b348015610b3c57600080fd5b50610b576004803603810190610b5291906137d9565b6125de565b604051610b64919061432c565b60405180910390f35b348015610b7957600080fd5b50610b946004803603810190610b8f9190613957565b612672565b005b348015610ba257600080fd5b50610bab612783565b604051610bb8919061432c565b60405180910390f35b60007f80ac58cd000000000000000000000000000000000000000000000000000000007bffffffffffffffffffffffffffffffffffffffffffffffffffffffff1916827bffffffffffffffffffffffffffffffffffffffffffffffffffffffff19161480610c8c57507f5b5e139f000000000000000000000000000000000000000000000000000000007bffffffffffffffffffffffffffffffffffffffffffffffffffffffff1916827bffffffffffffffffffffffffffffffffffffffffffffffffffffffff1916145b80610c9c5750610c9b82612796565b5b9050919050565b606060008054610cb29061489f565b80601f0160208091040260200160405190810160405280929190818152602001828054610cde9061489f565b8015610d2b5780601f10610d0057610100808354040283529160200191610d2b565b820191906000526020600020905b815481529060010190602001808311610d0e57829003601f168201915b5050505050905090565b6000610d4082612800565b610d7f576040517f08c379a0000000000000000000000000000000000000000000000000000000008152600401610d76906144c9565b60405180910390fd5b6004600083815260200190815260200160002060009054906101000a900473ffffffffffffffffffffffffffffffffffffffff169050919050565b6000610dc5826115c4565b90508073ffffffffffffffffffffffffffffffffffffffff168373ffffffffffffffffffffffffffffffffffffffff161415610e36576040517f08c379a0000000000000000000000000000000000000000000000000000000008152600401610e2d90614529565b60405180910390fd5b8073ffffffffffffffffffffffffffffffffffffffff16610e5561286c565b73ffffffffffffffffffffffffffffffffffffffff161480610e845750610e8381610e7e61286c565b6125de565b5b610ec3576040517f08c379a0000000000000000000000000000000000000000000000000000000008152600401610eba90614409565b60405180910390fd5b610ecd8383612874565b505050565b6000600e60003373ffffffffffffffffffffffffffffffffffffffff1673ffffffffffffffffffffffffffffffffffffffff16815260200190815260200160002060009054906101000a900460ff16610f2a57600080fd5b47905090565b600a5481565b600e60003373ffffffffffffffffffffffffffffffffffffffff1673ffffffffffffffffffffffffffffffffffffffff16815260200190815260200160002060009054906101000a900460ff16610f8c57600080fd5b80600860016101000a81548160ff02191690831515021790555050565b600d60009054906101000a900473ffffffffffffffffffffffffffffffffffffffff1673ffffffffffffffffffffffffffffffffffffffff163373ffffffffffffffffffffffffffffffffffffffff161461100357600080fd5b6000600e60008373ffffffffffffffffffffffffffffffffffffffff1673ffffffffffffffffffffffffffffffffffffffff16815260200190815260200160002060006101000a81548160ff02191690831515021790555050565b600e60003373ffffffffffffffffffffffffffffffffffffffff1673ffffffffffffffffffffffffffffffffffffffff16815260200190815260200160002060009054906101000a900460ff166110b457600080fd5b80518251146110c257600080fd5b60005b825181101561118957818181518110611107577f4e487b7100000000000000000000000000000000000000000000000000000000600052603260045260246000fd5b60200260200101516010600085848151811061114c577f4e487b7100000000000000000000000000000000000000000000000000000000600052603260045260246000fd5b602002602001015181526020019081526020016000209080519060200190611175929190613343565b508080611181906148d1565b9150506110c5565b505050565b61119f61119961286c565b8261292d565b6111de576040517f08c379a00000000000000000000000000000000000000000000000000000000081526004016111d590614549565b60405180910390fd5b6111e9838383612a0b565b505050565b6000600e60008373ffffffffffffffffffffffffffffffffffffffff1673ffffffffffffffffffffffffffffffffffffffff16815260200190815260200160002060009054906101000a900460ff169050919050565b600d60009054906101000a900473ffffffffffffffffffffffffffffffffffffffff1673ffffffffffffffffffffffffffffffffffffffff163373ffffffffffffffffffffffffffffffffffffffff161461129e57600080fd5b3373ffffffffffffffffffffffffffffffffffffffff166108fc829081150290604051600060405180830381858888f193505050501580156112e4573d6000803e3d6000fd5b5050565b6000600f60008373ffffffffffffffffffffffffffffffffffffffff1673ffffffffffffffffffffffffffffffffffffffff16815260200190815260200160002060009054906101000a900460ff169050919050565b600e60003373ffffffffffffffffffffffffffffffffffffffff1673ffffffffffffffffffffffffffffffffffffffff16815260200190815260200160002060009054906101000a900460ff1661139457600080fd5b6001600f60008373ffffffffffffffffffffffffffffffffffffffff1673ffffffffffffffffffffffffffffffffffffffff16815260200190815260200160002060006101000a81548160ff02191690831515021790555050565b61140a8383836040518060200160405280600081525061226f565b505050565b600e6020528060005260406000206000915054906101000a900460ff1681565b600d60009054906101000a900473ffffffffffffffffffffffffffffffffffffffff1673ffffffffffffffffffffffffffffffffffffffff163373ffffffffffffffffffffffffffffffffffffffff161461148957600080fd5b80600a8190555050565b6000600954905090565b6060600b80546114ac9061489f565b80601f01602080910402602001604051908101604052809291908181526020018280546114d89061489f565b80156115255780601f106114fa57610100808354040283529160200191611525565b820191906000526020600020905b81548152906001019060200180831161150857829003601f168201915b5050505050905090565b600e60003373ffffffffffffffffffffffffffffffffffffffff1673ffffffffffffffffffffffffffffffffffffffff16815260200190815260200160002060009054906101000a900460ff1661158557600080fd5b806010600084815260200190815260200160002090805190602001906115ac929190613343565b505050565b600860019054906101000a900460ff1681565b6000806002600084815260200190815260200160002060009054906101000a900473ffffffffffffffffffffffffffffffffffffffff169050600073ffffffffffffffffffffffffffffffffffffffff168173ffffffffffffffffffffffffffffffffffffffff16141561166d576040517f08c379a000000000000000000000000000000000000000000000000000000000815260040161166490614449565b60405180910390fd5b80915050919050565b6000600860019054906101000a900460ff16905090565b6000600860019054906101000a900460ff16156116df576040517f08c379a00000000000000000000000000000000000000000000000000000000081526004016116d690614569565b60405180910390fd5b600d60009054906101000a900473ffffffffffffffffffffffffffffffffffffffff1673ffffffffffffffffffffffffffffffffffffffff163373ffffffffffffffffffffffffffffffffffffffff16146117a257600860009054906101000a900460ff161561175c57611752826112e8565b61175b57600080fd5b5b600a543410156117a1576040517f08c379a000000000000000000000000000000000000000000000000000000000815260040161179890614589565b60405180910390fd5b5b6117ac6007612c67565b60006117b86007612c7d565b90506009548111156117c957600080fd5b6117d38382612c8b565b61186781600b80546117e49061489f565b80601f01602080910402602001604051908101604052809291908181526020018280546118109061489f565b801561185d5780601f106118325761010080835404028352916020019161185d565b820191906000526020600020905b81548152906001019060200180831161184057829003601f168201915b5050505050612e59565b600b601060008381526020019081526020016000209080546118889061489f565b6118939291906133c9565b5080915050919050565b600e60003373ffffffffffffffffffffffffffffffffffffffff1673ffffffffffffffffffffffffffffffffffffffff16815260200190815260200160002060009054906101000a900460ff166118f357600080fd5b60005b81518110156119aa576000600f600084848151811061193e577f4e487b7100000000000000000000000000000000000000000000000000000000600052603260045260246000fd5b602002602001015173ffffffffffffffffffffffffffffffffffffffff1673ffffffffffffffffffffffffffffffffffffffff16815260200190815260200160002060006101000a81548160ff02191690831515021790555080806119a2906148d1565b9150506118f6565b5050565b600d60009054906101000a900473ffffffffffffffffffffffffffffffffffffffff1673ffffffffffffffffffffffffffffffffffffffff163373ffffffffffffffffffffffffffffffffffffffff1614611a0857600080fd5b8060098190555050565b600d60009054906101000a900473ffffffffffffffffffffffffffffffffffffffff1673ffffffffffffffffffffffffffffffffffffffff163373ffffffffffffffffffffffffffffffffffffffff1614611a6c57600080fd5b6001600e60008373ffffffffffffffffffffffffffffffffffffffff1673ffffffffffffffffffffffffffffffffffffffff16815260200190815260200160002060006101000a81548160ff02191690831515021790555050565b60008073ffffffffffffffffffffffffffffffffffffffff168273ffffffffffffffffffffffffffffffffffffffff161415611b38576040517f08c379a0000000000000000000000000000000000000000000000000000000008152600401611b2f90614429565b60405180910390fd5b600360008373ffffffffffffffffffffffffffffffffffffffff1673ffffffffffffffffffffffffffffffffffffffff168152602001908152602001600020549050919050565b600e60003373ffffffffffffffffffffffffffffffffffffffff1673ffffffffffffffffffffffffffffffffffffffff16815260200190815260200160002060009054906101000a900460ff16611bd557600080fd5b611c7a81601060008481526020019081526020016000208054611bf79061489f565b80601f0160208091040260200160405190810160405280929190818152602001828054611c239061489f565b8015611c705780601f10611c4557610100808354040283529160200191611c70565b820191906000526020600020905b815481529060010190602001808311611c5357829003601f168201915b5050505050612e59565b50565b6000600d60009054906101000a900473ffffffffffffffffffffffffffffffffffffffff16905090565b600e60003373ffffffffffffffffffffffffffffffffffffffff1673ffffffffffffffffffffffffffffffffffffffff16815260200190815260200160002060009054906101000a900460ff16611cfd57600080fd5b6000600f60008373ffffffffffffffffffffffffffffffffffffffff1673ffffffffffffffffffffffffffffffffffffffff16815260200190815260200160002060006101000a81548160ff02191690831515021790555050565b6000600e60003373ffffffffffffffffffffffffffffffffffffffff1673ffffffffffffffffffffffffffffffffffffffff16815260200190815260200160002060009054906101000a900460ff16611db057600080fd5b611dba6007612c7d565b905090565b606060018054611dce9061489f565b80601f0160208091040260200160405190810160405280929190818152602001828054611dfa9061489f565b8015611e475780601f10611e1c57610100808354040283529160200191611e47565b820191906000526020600020905b815481529060010190602001808311611e2a57829003601f168201915b5050505050905090565b600f6020528060005260406000206000915054906101000a900460ff1681565b611e7961286c565b73ffffffffffffffffffffffffffffffffffffffff168273ffffffffffffffffffffffffffffffffffffffff161415611ee7576040517f08c379a0000000000000000000000000000000000000000000000000000000008152600401611ede906143c9565b60405180910390fd5b8060056000611ef461286c565b73ffffffffffffffffffffffffffffffffffffffff1673ffffffffffffffffffffffffffffffffffffffff16815260200190815260200160002060008473ffffffffffffffffffffffffffffffffffffffff1673ffffffffffffffffffffffffffffffffffffffff16815260200190815260200160002060006101000a81548160ff0219169083151502179055508173ffffffffffffffffffffffffffffffffffffffff16611fa161286c565b73ffffffffffffffffffffffffffffffffffffffff167f17307eab39ab6107e8899845ad3d59bd9653f200f220920489ca2b5937696c3183604051611fe6919061432c565b60405180910390a35050565b600e60003373ffffffffffffffffffffffffffffffffffffffff1673ffffffffffffffffffffffffffffffffffffffff16815260200190815260200160002060009054906101000a900460ff1661204857600080fd5b80600b908051906020019061205e929190613343565b5050565b600e60003373ffffffffffffffffffffffffffffffffffffffff1673ffffffffffffffffffffffffffffffffffffffff16815260200190815260200160002060009054906101000a900460ff166120b857600080fd5b600c60008154809291906120cb906148d1565b91905055506000600c5490505b6120e26007612c7d565b81116121a05761218d8160106000848152602001908152602001600020805461210a9061489f565b80601f01602080910402602001604051908101604052809291908181526020018280546121369061489f565b80156121835780601f1061215857610100808354040283529160200191612183565b820191906000526020600020905b81548152906001019060200180831161216657829003601f168201915b5050505050612e59565b8080612198906148d1565b9150506120d8565b506121ab6007612c7d565b600c81905550565b600d60009054906101000a900473ffffffffffffffffffffffffffffffffffffffff1673ffffffffffffffffffffffffffffffffffffffff163373ffffffffffffffffffffffffffffffffffffffff161461220d57600080fd5b8173ffffffffffffffffffffffffffffffffffffffff166108fc829081150290604051600060405180830381858888f19350505050158015612253573d6000803e3d6000fd5b505050565b6000600860009054906101000a900460ff16905090565b61228061227a61286c565b8361292d565b6122bf576040517f08c379a00000000000000000000000000000000000000000000000000000000081526004016122b690614549565b60405180910390fd5b6122cb84848484612ecd565b50505050565b6000600a54905090565b600e60003373ffffffffffffffffffffffffffffffffffffffff1673ffffffffffffffffffffffffffffffffffffffff16815260200190815260200160002060009054906101000a900460ff1661233157600080fd5b80600860006101000a81548160ff02191690831515021790555050565b606061235982612800565b612398576040517f08c379a000000000000000000000000000000000000000000000000000000000815260040161238f906144a9565b60405180910390fd5b60006006600084815260200190815260200160002080546123b89061489f565b80601f01602080910402602001604051908101604052809291908181526020018280546123e49061489f565b80156124315780601f1061240657610100808354040283529160200191612431565b820191906000526020600020905b81548152906001019060200180831161241457829003601f168201915b505050505090506000612442612f29565b905060008151141561245857819250505061249b565b60008251111561248d5780826040516020016124759291906142a1565b6040516020818303038152906040529250505061249b565b61249684612f40565b925050505b919050565b600b80546124ad9061489f565b80601f01602080910402602001604051908101604052809291908181526020018280546124d99061489f565b80156125265780601f106124fb57610100808354040283529160200191612526565b820191906000526020600020905b81548152906001019060200180831161250957829003601f168201915b505050505081565b60095481565b6000600c54905090565b6010602052806000526040600020600091509050805461255d9061489f565b80601f01602080910402602001604051908101604052809291908181526020018280546125899061489f565b80156125d65780601f106125ab576101008083540402835291602001916125d6565b820191906000526020600020905b8154815290600101906020018083116125b957829003601f168201915b505050505081565b6000600560008473ffffffffffffffffffffffffffffffffffffffff1673ffffffffffffffffffffffffffffffffffffffff16815260200190815260200160002060008373ffffffffffffffffffffffffffffffffffffffff1673ffffffffffffffffffffffffffffffffffffffff16815260200190815260200160002060009054906101000a900460ff16905092915050565b600e60003373ffffffffffffffffffffffffffffffffffffffff1673ffffffffffffffffffffffffffffffffffffffff16815260200190815260200160002060009054906101000a900460ff166126c857600080fd5b60005b815181101561277f576001600f6000848481518110612713577f4e487b7100000000000000000000000000000000000000000000000000000000600052603260045260246000fd5b602002602001015173ffffffffffffffffffffffffffffffffffffffff1673ffffffffffffffffffffffffffffffffffffffff16815260200190815260200160002060006101000a81548160ff0219169083151502179055508080612777906148d1565b9150506126cb565b5050565b600860009054906101000a900460ff1681565b60007f01ffc9a7000000000000000000000000000000000000000000000000000000007bffffffffffffffffffffffffffffffffffffffffffffffffffffffff1916827bffffffffffffffffffffffffffffffffffffffffffffffffffffffff1916149050919050565b60008073ffffffffffffffffffffffffffffffffffffffff166002600084815260200190815260200160002060009054906101000a900473ffffffffffffffffffffffffffffffffffffffff1673ffffffffffffffffffffffffffffffffffffffff1614159050919050565b600033905090565b816004600083815260200190815260200160002060006101000a81548173ffffffffffffffffffffffffffffffffffffffff021916908373ffffffffffffffffffffffffffffffffffffffff160217905550808273ffffffffffffffffffffffffffffffffffffffff166128e7836115c4565b73ffffffffffffffffffffffffffffffffffffffff167f8c5be1e5ebec7d5bd14f71427d1e84f3dd0314c0f7b2291e5b200ac8c7c3b92560405160405180910390a45050565b600061293882612800565b612977576040517f08c379a000000000000000000000000000000000000000000000000000000000815260040161296e906143e9565b60405180910390fd5b6000612982836115c4565b90508073ffffffffffffffffffffffffffffffffffffffff168473ffffffffffffffffffffffffffffffffffffffff1614806129f157508373ffffffffffffffffffffffffffffffffffffffff166129d984610d35565b73ffffffffffffffffffffffffffffffffffffffff16145b80612a025750612a0181856125de565b5b91505092915050565b8273ffffffffffffffffffffffffffffffffffffffff16612a2b826115c4565b73ffffffffffffffffffffffffffffffffffffffff1614612a81576040517f08c379a0000000000000000000000000000000000000000000000000000000008152600401612a78906144e9565b60405180910390fd5b600073ffffffffffffffffffffffffffffffffffffffff168273ffffffffffffffffffffffffffffffffffffffff161415612af1576040517f08c379a0000000000000000000000000000000000000000000000000000000008152600401612ae8906143a9565b60405180910390fd5b612afc838383612fe7565b612b07600082612874565b6001600360008573ffffffffffffffffffffffffffffffffffffffff1673ffffffffffffffffffffffffffffffffffffffff1681526020019081526020016000206000828254612b5791906147a3565b925050819055506001600360008473ffffffffffffffffffffffffffffffffffffffff1673ffffffffffffffffffffffffffffffffffffffff1681526020019081526020016000206000828254612bae919061471c565b92505081905550816002600083815260200190815260200160002060006101000a81548173ffffffffffffffffffffffffffffffffffffffff021916908373ffffffffffffffffffffffffffffffffffffffff160217905550808273ffffffffffffffffffffffffffffffffffffffff168473ffffffffffffffffffffffffffffffffffffffff167fddf252ad1be2c89b69c2b068fc378daa952ba7f163c4a11628f55a4df523b3ef60405160405180910390a4505050565b6001816000016000828254019250508190555050565b600081600001549050919050565b600073ffffffffffffffffffffffffffffffffffffffff168273ffffffffffffffffffffffffffffffffffffffff161415612cfb576040517f08c379a0000000000000000000000000000000000000000000000000000000008152600401612cf290614489565b60405180910390fd5b612d0481612800565b15612d44576040517f08c379a0000000000000000000000000000000000000000000000000000000008152600401612d3b90614389565b60405180910390fd5b612d5060008383612fe7565b6001600360008473ffffffffffffffffffffffffffffffffffffffff1673ffffffffffffffffffffffffffffffffffffffff1681526020019081526020016000206000828254612da0919061471c565b92505081905550816002600083815260200190815260200160002060006101000a81548173ffffffffffffffffffffffffffffffffffffffff021916908373ffffffffffffffffffffffffffffffffffffffff160217905550808273ffffffffffffffffffffffffffffffffffffffff16600073ffffffffffffffffffffffffffffffffffffffff167fddf252ad1be2c89b69c2b068fc378daa952ba7f163c4a11628f55a4df523b3ef60405160405180910390a45050565b612e6282612800565b612ea1576040517f08c379a0000000000000000000000000000000000000000000000000000000008152600401612e9890614469565b60405180910390fd5b80600660008481526020019081526020016000209080519060200190612ec8929190613343565b505050565b612ed8848484612a0b565b612ee484848484612fec565b612f23576040517f08c379a0000000000000000000000000000000000000000000000000000000008152600401612f1a90614369565b60405180910390fd5b50505050565b606060405180602001604052806000815250905090565b6060612f4b82612800565b612f8a576040517f08c379a0000000000000000000000000000000000000000000000000000000008152600401612f8190614509565b60405180910390fd5b6000612f94612f29565b90506000815111612fb45760405180602001604052806000815250612fdf565b80612fbe84613183565b604051602001612fcf9291906142a1565b6040516020818303038152906040525b915050919050565b505050565b600061300d8473ffffffffffffffffffffffffffffffffffffffff16613330565b15613176578373ffffffffffffffffffffffffffffffffffffffff1663150b7a0261303661286c565b8786866040518563ffffffff1660e01b815260040161305894939291906142e0565b602060405180830381600087803b15801561307257600080fd5b505af19250505080156130a357506040513d601f19601f820116820180604052508101906130a09190613a56565b60015b613126573d80600081146130d3576040519150601f19603f3d011682016040523d82523d6000602084013e6130d8565b606091505b5060008151141561311e576040517f08c379a000000000000000000000000000000000000000000000000000000000815260040161311590614369565b60405180910390fd5b805181602001fd5b63150b7a0260e01b7bffffffffffffffffffffffffffffffffffffffffffffffffffffffff1916817bffffffffffffffffffffffffffffffffffffffffffffffffffffffff19161491505061317b565b600190505b949350505050565b606060008214156131cb576040518060400160405280600181526020017f3000000000000000000000000000000000000000000000000000000000000000815250905061332b565b600082905060005b600082146131fd5780806131e6906148d1565b915050600a826131f69190614772565b91506131d3565b60008167ffffffffffffffff81111561323f577f4e487b7100000000000000000000000000000000000000000000000000000000600052604160045260246000fd5b6040519080825280601f01601f1916602001820160405280156132715781602001600182028036833780820191505090505b5090505b600085146133245760018261328a91906147a3565b9150600a85613299919061491a565b60306132a5919061471c565b60f81b8183815181106132e1577f4e487b7100000000000000000000000000000000000000000000000000000000600052603260045260246000fd5b60200101907effffffffffffffffffffffffffffffffffffffffffffffffffffffffffffff1916908160001a905350600a8561331d9190614772565b9450613275565b8093505050505b919050565b600080823b905060008111915050919050565b82805461334f9061489f565b90600052602060002090601f01602090048101928261337157600085556133b8565b82601f1061338a57805160ff19168380011785556133b8565b828001600101855582156133b8579182015b828111156133b757825182559160200191906001019061339c565b5b5090506133c59190613456565b5090565b8280546133d59061489f565b90600052602060002090601f0160209004810192826133f75760008555613445565b82601f106134085780548555613445565b8280016001018555821561344557600052602060002091601f016020900482015b82811115613444578254825591600101919060010190613429565b5b5090506134529190613456565b5090565b5b8082111561346f576000816000905550600101613457565b5090565b6000613486613481846145f5565b6145c4565b905080838252602082019050828560208602820111156134a557600080fd5b60005b858110156134d557816134bb8882613624565b8452602084019350602083019250506001810190506134a8565b5050509392505050565b60006134f26134ed84614621565b6145c4565b9050808382526020820190508260005b8581101561353257813585016135188882613735565b845260208401935060208301925050600181019050613502565b5050509392505050565b600061354f61354a8461464d565b6145c4565b9050808382526020820190508285602086028201111561356e57600080fd5b60005b8581101561359e5781613584888261375f565b845260208401935060208301925050600181019050613571565b5050509392505050565b60006135bb6135b684614679565b6145c4565b9050828152602081018484840111156135d357600080fd5b6135de84828561485d565b509392505050565b60006135f96135f4846146a9565b6145c4565b90508281526020810184848401111561361157600080fd5b61361c84828561485d565b509392505050565b60008135905061363381614a18565b92915050565b60008135905061364881614a2f565b92915050565b600082601f83011261365f57600080fd5b813561366f848260208601613473565b91505092915050565b600082601f83011261368957600080fd5b81356136998482602086016134df565b91505092915050565b600082601f8301126136b357600080fd5b81356136c384826020860161353c565b91505092915050565b6000813590506136db81614a46565b92915050565b6000813590506136f081614a5d565b92915050565b60008151905061370581614a5d565b92915050565b600082601f83011261371c57600080fd5b813561372c8482602086016135a8565b91505092915050565b600082601f83011261374657600080fd5b81356137568482602086016135e6565b91505092915050565b60008135905061376e81614a74565b92915050565b60006020828403121561378657600080fd5b600061379484828501613624565b91505092915050565b600080604083850312156137b057600080fd5b60006137be85828601613639565b92505060206137cf8582860161375f565b9150509250929050565b600080604083850312156137ec57600080fd5b60006137fa85828601613624565b925050602061380b85828601613624565b9150509250929050565b60008060006060848603121561382a57600080fd5b600061383886828701613624565b935050602061384986828701613624565b925050604061385a8682870161375f565b9150509250925092565b6000806000806080858703121561387a57600080fd5b600061388887828801613624565b945050602061389987828801613624565b93505060406138aa8782880161375f565b925050606085013567ffffffffffffffff8111156138c757600080fd5b6138d38782880161370b565b91505092959194509250565b600080604083850312156138f257600080fd5b600061390085828601613624565b9250506020613911858286016136cc565b9150509250929050565b6000806040838503121561392e57600080fd5b600061393c85828601613624565b925050602061394d8582860161375f565b9150509250929050565b60006020828403121561396957600080fd5b600082013567ffffffffffffffff81111561398357600080fd5b61398f8482850161364e565b91505092915050565b600080604083850312156139ab57600080fd5b600083013567ffffffffffffffff8111156139c557600080fd5b6139d1858286016136a2565b925050602083013567ffffffffffffffff8111156139ee57600080fd5b6139fa85828601613678565b9150509250929050565b600060208284031215613a1657600080fd5b6000613a24848285016136cc565b91505092915050565b600060208284031215613a3f57600080fd5b6000613a4d848285016136e1565b91505092915050565b600060208284031215613a6857600080fd5b6000613a76848285016136f6565b91505092915050565b600060208284031215613a9157600080fd5b600082013567ffffffffffffffff811115613aab57600080fd5b613ab784828501613735565b91505092915050565b600060208284031215613ad257600080fd5b6000613ae08482850161375f565b91505092915050565b60008060408385031215613afc57600080fd5b6000613b0a8582860161375f565b925050602083013567ffffffffffffffff811115613b2757600080fd5b613b3385828601613735565b9150509250929050565b613b46816147d7565b82525050565b613b55816147fb565b82525050565b6000613b66826146d9565b613b7081856146ef565b9350613b8081856020860161486c565b613b8981614a07565b840191505092915050565b6000613b9f826146e4565b613ba98185614700565b9350613bb981856020860161486c565b613bc281614a07565b840191505092915050565b6000613bd8826146e4565b613be28185614711565b9350613bf281856020860161486c565b80840191505092915050565b6000613c0b603283614700565b91507f4552433732313a207472616e7366657220746f206e6f6e20455243373231526560008301527f63656976657220696d706c656d656e74657200000000000000000000000000006020830152604082019050919050565b6000613c71601c83614700565b91507f4552433732313a20746f6b656e20616c7265616479206d696e746564000000006000830152602082019050919050565b6000613cb1602483614700565b91507f4552433732313a207472616e7366657220746f20746865207a65726f2061646460008301527f72657373000000000000000000000000000000000000000000000000000000006020830152604082019050919050565b6000613d17601983614700565b91507f4552433732313a20617070726f766520746f2063616c6c6572000000000000006000830152602082019050919050565b6000613d57602c83614700565b91507f4552433732313a206f70657261746f7220717565727920666f72206e6f6e657860008301527f697374656e7420746f6b656e00000000000000000000000000000000000000006020830152604082019050919050565b6000613dbd603883614700565b91507f4552433732313a20617070726f76652063616c6c6572206973206e6f74206f7760008301527f6e6572206e6f7220617070726f76656420666f7220616c6c00000000000000006020830152604082019050919050565b6000613e23602a83614700565b91507f4552433732313a2062616c616e636520717565727920666f7220746865207a6560008301527f726f2061646472657373000000000000000000000000000000000000000000006020830152604082019050919050565b6000613e89602983614700565b91507f4552433732313a206f776e657220717565727920666f72206e6f6e657869737460008301527f656e7420746f6b656e00000000000000000000000000000000000000000000006020830152604082019050919050565b6000613eef602e83614700565b91507f45524337323155524953746f726167653a2055524920736574206f66206e6f6e60008301527f6578697374656e7420746f6b656e0000000000000000000000000000000000006020830152604082019050919050565b6000613f55602083614700565b91507f4552433732313a206d696e7420746f20746865207a65726f20616464726573736000830152602082019050919050565b6000613f95603183614700565b91507f45524337323155524953746f726167653a2055524920717565727920666f722060008301527f6e6f6e6578697374656e7420746f6b656e0000000000000000000000000000006020830152604082019050919050565b6000613ffb602c83614700565b91507f4552433732313a20617070726f76656420717565727920666f72206e6f6e657860008301527f697374656e7420746f6b656e00000000000000000000000000000000000000006020830152604082019050919050565b6000614061602983614700565b91507f4552433732313a207472616e73666572206f6620746f6b656e2074686174206960008301527f73206e6f74206f776e00000000000000000000000000000000000000000000006020830152604082019050919050565b60006140c7602f83614700565b91507f4552433732314d657461646174613a2055524920717565727920666f72206e6f60008301527f6e6578697374656e7420746f6b656e00000000000000000000000000000000006020830152604082019050919050565b600061412d602183614700565b91507f4552433732313a20617070726f76616c20746f2063757272656e74206f776e6560008301527f72000000000000000000000000000000000000000000000000000000000000006020830152604082019050919050565b6000614193603183614700565b91507f4552433732313a207472616e736665722063616c6c6572206973206e6f74206f60008301527f776e6572206e6f7220617070726f7665640000000000000000000000000000006020830152604082019050919050565b60006141f9601183614700565b91507f4d696e74696e67206973207061757365640000000000000000000000000000006000830152602082019050919050565b6000614239602183614700565b91507f4e6f7420656e6f756768204554482073656e743b20636865636b20707269636560008301527f21000000000000000000000000000000000000000000000000000000000000006020830152604082019050919050565b61429b81614853565b82525050565b60006142ad8285613bcd565b91506142b98284613bcd565b91508190509392505050565b60006020820190506142da6000830184613b3d565b92915050565b60006080820190506142f56000830187613b3d565b6143026020830186613b3d565b61430f6040830185614292565b81810360608301526143218184613b5b565b905095945050505050565b60006020820190506143416000830184613b4c565b92915050565b600060208201905081810360008301526143618184613b94565b905092915050565b6000602082019050818103600083015261438281613bfe565b9050919050565b600060208201905081810360008301526143a281613c64565b9050919050565b600060208201905081810360008301526143c281613ca4565b9050919050565b600060208201905081810360008301526143e281613d0a565b9050919050565b6000602082019050818103600083015261440281613d4a565b9050919050565b6000602082019050818103600083015261442281613db0565b9050919050565b6000602082019050818103600083015261444281613e16565b9050919050565b6000602082019050818103600083015261446281613e7c565b9050919050565b6000602082019050818103600083015261448281613ee2565b9050919050565b600060208201905081810360008301526144a281613f48565b9050919050565b600060208201905081810360008301526144c281613f88565b9050919050565b600060208201905081810360008301526144e281613fee565b9050919050565b6000602082019050818103600083015261450281614054565b9050919050565b60006020820190508181036000830152614522816140ba565b9050919050565b6000602082019050818103600083015261454281614120565b9050919050565b6000602082019050818103600083015261456281614186565b9050919050565b60006020820190508181036000830152614582816141ec565b9050919050565b600060208201905081810360008301526145a28161422c565b9050919050565b60006020820190506145be6000830184614292565b92915050565b6000604051905081810181811067ffffffffffffffff821117156145eb576145ea6149d8565b5b8060405250919050565b600067ffffffffffffffff8211156146105761460f6149d8565b5b602082029050602081019050919050565b600067ffffffffffffffff82111561463c5761463b6149d8565b5b602082029050602081019050919050565b600067ffffffffffffffff821115614668576146676149d8565b5b602082029050602081019050919050565b600067ffffffffffffffff821115614694576146936149d8565b5b601f19601f8301169050602081019050919050565b600067ffffffffffffffff8211156146c4576146c36149d8565b5b601f19601f8301169050602081019050919050565b600081519050919050565b600081519050919050565b600082825260208201905092915050565b600082825260208201905092915050565b600081905092915050565b600061472782614853565b915061473283614853565b9250827fffffffffffffffffffffffffffffffffffffffffffffffffffffffffffffffff038211156147675761476661494b565b5b828201905092915050565b600061477d82614853565b915061478883614853565b9250826147985761479761497a565b5b828204905092915050565b60006147ae82614853565b91506147b983614853565b9250828210156147cc576147cb61494b565b5b828203905092915050565b60006147e282614833565b9050919050565b60006147f482614833565b9050919050565b60008115159050919050565b60007fffffffff0000000000000000000000000000000000000000000000000000000082169050919050565b600073ffffffffffffffffffffffffffffffffffffffff82169050919050565b6000819050919050565b82818337600083830152505050565b60005b8381101561488a57808201518184015260208101905061486f565b83811115614899576000848401525b50505050565b600060028204905060018216806148b757607f821691505b602082108114156148cb576148ca6149a9565b5b50919050565b60006148dc82614853565b91507fffffffffffffffffffffffffffffffffffffffffffffffffffffffffffffffff82141561490f5761490e61494b565b5b600182019050919050565b600061492582614853565b915061493083614853565b9250826149405761493f61497a565b5b828206905092915050565b7f4e487b7100000000000000000000000000000000000000000000000000000000600052601160045260246000fd5b7f4e487b7100000000000000000000000000000000000000000000000000000000600052601260045260246000fd5b7f4e487b7100000000000000000000000000000000000000000000000000000000600052602260045260246000fd5b7f4e487b7100000000000000000000000000000000000000000000000000000000600052604160045260246000fd5b6000601f19601f8301169050919050565b614a21816147d7565b8114614a2c57600080fd5b50565b614a38816147e9565b8114614a4357600080fd5b50565b614a4f816147fb565b8114614a5a57600080fd5b50565b614a6681614807565b8114614a7157600080fd5b50565b614a7d81614853565b8114614a8857600080fd5b5056fea264697066735822122009e7039f4af1e954c9e6642c3d2ab421dfc82f216cf4b476ff7511d18676171964736f6c6343000800003368747470733a2f2f676174657761792e70696e6174612e636c6f75642f697066732f516d523139767671487765746646707264433356735643644a674e5646544d654362756354576850765131506631",
  "linkReferences": {},
  "deployedLinkReferences": {}
}