{
  "_format": "hh-sol-artifact-1",
  "contractName": "Heavenlywords",
  "sourceName": "contracts/MyNFT.sol",
  "abi": [
    {
      "inputs": [],
      "stateMutability": "nonpayable",
      "type": "constructor"
    },
    {
      "anonymous": false,
      "inputs": [
        {
          "indexed": true,
          "internalType": "address",
          "name": "owner",
          "type": "address"
        },
        {
          "indexed": true,
          "internalType": "address",
          "name": "approved",
          "type": "address"
        },
        {
          "indexed": true,
          "internalType": "uint256",
          "name": "tokenId",
          "type": "uint256"
        }
      ],
      "name": "Approval",
      "type": "event"
    },
    {
      "anonymous": false,
      "inputs": [
        {
          "indexed": true,
          "internalType": "address",
          "name": "owner",
          "type": "address"
        },
        {
          "indexed": true,
          "internalType": "address",
          "name": "operator",
          "type": "address"
        },
        {
          "indexed": false,
          "internalType": "bool",
          "name": "approved",
          "type": "bool"
        }
      ],
      "name": "ApprovalForAll",
      "type": "event"
    },
    {
      "anonymous": false,
      "inputs": [
        {
          "indexed": true,
          "internalType": "address",
          "name": "previousOwner",
          "type": "address"
        },
        {
          "indexed": true,
          "internalType": "address",
          "name": "newOwner",
          "type": "address"
        }
      ],
      "name": "OwnershipTransferred",
      "type": "event"
    },
    {
      "anonymous": false,
      "inputs": [
        {
          "indexed": true,
          "internalType": "address",
          "name": "from",
          "type": "address"
        },
        {
          "indexed": true,
          "internalType": "address",
          "name": "to",
          "type": "address"
        },
        {
          "indexed": true,
          "internalType": "uint256",
          "name": "tokenId",
          "type": "uint256"
        }
      ],
      "name": "Transfer",
      "type": "event"
    },
    {
      "inputs": [
        {
          "internalType": "address",
          "name": "",
          "type": "address"
        }
      ],
      "name": "admins",
      "outputs": [
        {
          "internalType": "bool",
          "name": "",
          "type": "bool"
        }
      ],
      "stateMutability": "view",
      "type": "function"
    },
    {
      "inputs": [
        {
          "internalType": "address",
          "name": "to",
          "type": "address"
        },
        {
          "internalType": "uint256",
          "name": "tokenId",
          "type": "uint256"
        }
      ],
      "name": "approve",
      "outputs": [],
      "stateMutability": "nonpayable",
      "type": "function"
    },
    {
      "inputs": [
        {
          "internalType": "address",
          "name": "owner",
          "type": "address"
        }
      ],
      "name": "balanceOf",
      "outputs": [
        {
          "internalType": "uint256",
          "name": "",
          "type": "uint256"
        }
      ],
      "stateMutability": "view",
      "type": "function"
    },
    {
      "inputs": [],
      "name": "contractOwner",
      "outputs": [
        {
          "internalType": "address",
          "name": "",
          "type": "address"
        }
      ],
      "stateMutability": "view",
      "type": "function"
    },
    {
      "inputs": [],
      "name": "contractURI",
      "outputs": [
        {
          "internalType": "string",
          "name": "",
          "type": "string"
        }
      ],
      "stateMutability": "pure",
      "type": "function"
    },
    {
      "inputs": [],
      "name": "cost",
      "outputs": [
        {
          "internalType": "uint256",
          "name": "",
          "type": "uint256"
        }
      ],
      "stateMutability": "view",
      "type": "function"
    },
    {
      "inputs": [
        {
          "internalType": "uint256",
          "name": "tokenId",
          "type": "uint256"
        }
      ],
      "name": "getApproved",
      "outputs": [
        {
          "internalType": "address",
          "name": "",
          "type": "address"
        }
      ],
      "stateMutability": "view",
      "type": "function"
    },
    {
      "inputs": [],
      "name": "getBalance",
      "outputs": [
        {
          "internalType": "uint256",
          "name": "",
          "type": "uint256"
        }
      ],
      "stateMutability": "view",
      "type": "function"
    },
    {
      "inputs": [],
      "name": "getCost",
      "outputs": [
        {
          "internalType": "uint256",
          "name": "",
          "type": "uint256"
        }
      ],
      "stateMutability": "view",
      "type": "function"
    },
    {
      "inputs": [
        {
          "internalType": "uint256",
          "name": "_id",
          "type": "uint256"
        }
      ],
      "name": "getImageDescById",
      "outputs": [
        {
          "internalType": "string",
          "name": "",
          "type": "string"
        }
      ],
      "stateMutability": "view",
      "type": "function"
    },
    {
      "inputs": [],
      "name": "getInitialURI",
      "outputs": [
        {
          "internalType": "string",
          "name": "",
          "type": "string"
        }
      ],
      "stateMutability": "view",
      "type": "function"
    },
    {
      "inputs": [],
      "name": "getMaxSupply",
      "outputs": [
        {
          "internalType": "uint256",
          "name": "",
          "type": "uint256"
        }
      ],
      "stateMutability": "view",
      "type": "function"
    },
    {
      "inputs": [],
      "name": "getMintCount",
      "outputs": [
        {
          "internalType": "uint256",
          "name": "",
          "type": "uint256"
        }
      ],
      "stateMutability": "view",
      "type": "function"
    },
    {
      "inputs": [],
      "name": "getOwner",
      "outputs": [
        {
          "internalType": "address",
          "name": "",
          "type": "address"
        }
      ],
      "stateMutability": "view",
      "type": "function"
    },
    {
      "inputs": [],
      "name": "getPaused",
      "outputs": [
        {
          "internalType": "bool",
          "name": "",
          "type": "bool"
        }
      ],
      "stateMutability": "view",
      "type": "function"
    },
    {
      "inputs": [
        {
          "internalType": "uint256",
          "name": "",
          "type": "uint256"
        }
      ],
      "name": "idToImageDesc",
      "outputs": [
        {
          "internalType": "string",
          "name": "",
          "type": "string"
        }
      ],
      "stateMutability": "view",
      "type": "function"
    },
    {
      "inputs": [],
      "name": "initialURI",
      "outputs": [
        {
          "internalType": "string",
          "name": "",
          "type": "string"
        }
      ],
      "stateMutability": "view",
      "type": "function"
    },
    {
      "inputs": [
        {
          "internalType": "address",
          "name": "_addr",
          "type": "address"
        }
      ],
      "name": "isAdmin",
      "outputs": [
        {
          "internalType": "bool",
          "name": "",
          "type": "bool"
        }
      ],
      "stateMutability": "view",
      "type": "function"
    },
    {
      "inputs": [
        {
          "internalType": "address",
          "name": "owner",
          "type": "address"
        },
        {
          "internalType": "address",
          "name": "operator",
          "type": "address"
        }
      ],
      "name": "isApprovedForAll",
      "outputs": [
        {
          "internalType": "bool",
          "name": "",
          "type": "bool"
        }
      ],
      "stateMutability": "view",
      "type": "function"
    },
    {
      "inputs": [],
      "name": "maxSupply",
      "outputs": [
        {
          "internalType": "uint256",
          "name": "",
          "type": "uint256"
        }
      ],
      "stateMutability": "view",
      "type": "function"
    },
    {
      "inputs": [
        {
          "internalType": "address",
          "name": "_recipient",
          "type": "address"
        },
        {
          "internalType": "string",
          "name": "_imageDesc",
          "type": "string"
        }
      ],
      "name": "mint",
      "outputs": [
        {
          "internalType": "uint256",
          "name": "",
          "type": "uint256"
        }
      ],
      "stateMutability": "payable",
      "type": "function"
    },
    {
      "inputs": [],
      "name": "name",
      "outputs": [
        {
          "internalType": "string",
          "name": "",
          "type": "string"
        }
      ],
      "stateMutability": "view",
      "type": "function"
    },
    {
      "inputs": [],
      "name": "owner",
      "outputs": [
        {
          "internalType": "address",
          "name": "",
          "type": "address"
        }
      ],
      "stateMutability": "view",
      "type": "function"
    },
    {
      "inputs": [
        {
          "internalType": "uint256",
          "name": "tokenId",
          "type": "uint256"
        }
      ],
      "name": "ownerOf",
      "outputs": [
        {
          "internalType": "address",
          "name": "",
          "type": "address"
        }
      ],
      "stateMutability": "view",
      "type": "function"
    },
    {
      "inputs": [],
      "name": "paused",
      "outputs": [
        {
          "internalType": "bool",
          "name": "",
          "type": "bool"
        }
      ],
      "stateMutability": "view",
      "type": "function"
    },
    {
      "inputs": [
        {
          "internalType": "address",
          "name": "_addr",
          "type": "address"
        }
      ],
      "name": "removeAdmin",
      "outputs": [],
      "stateMutability": "nonpayable",
      "type": "function"
    },
    {
      "inputs": [],
      "name": "renounceOwnership",
      "outputs": [],
      "stateMutability": "nonpayable",
      "type": "function"
    },
    {
      "inputs": [
        {
          "internalType": "address",
          "name": "from",
          "type": "address"
        },
        {
          "internalType": "address",
          "name": "to",
          "type": "address"
        },
        {
          "internalType": "uint256",
          "name": "tokenId",
          "type": "uint256"
        }
      ],
      "name": "safeTransferFrom",
      "outputs": [],
      "stateMutability": "nonpayable",
      "type": "function"
    },
    {
      "inputs": [
        {
          "internalType": "address",
          "name": "from",
          "type": "address"
        },
        {
          "internalType": "address",
          "name": "to",
          "type": "address"
        },
        {
          "internalType": "uint256",
          "name": "tokenId",
          "type": "uint256"
        },
        {
          "internalType": "bytes",
          "name": "_data",
          "type": "bytes"
        }
      ],
      "name": "safeTransferFrom",
      "outputs": [],
      "stateMutability": "nonpayable",
      "type": "function"
    },
    {
      "inputs": [
        {
          "internalType": "address",
          "name": "_addr",
          "type": "address"
        }
      ],
      "name": "setAdmin",
      "outputs": [],
      "stateMutability": "nonpayable",
      "type": "function"
    },
    {
      "inputs": [
        {
          "internalType": "address",
          "name": "operator",
          "type": "address"
        },
        {
          "internalType": "bool",
          "name": "approved",
          "type": "bool"
        }
      ],
      "name": "setApprovalForAll",
      "outputs": [],
      "stateMutability": "nonpayable",
      "type": "function"
    },
    {
      "inputs": [
        {
          "internalType": "uint256",
          "name": "_newCost",
          "type": "uint256"
        }
      ],
      "name": "setCost",
      "outputs": [],
      "stateMutability": "nonpayable",
      "type": "function"
    },
    {
      "inputs": [
        {
          "internalType": "string",
          "name": "_newURI",
          "type": "string"
        }
      ],
      "name": "setInitialURI",
      "outputs": [],
      "stateMutability": "nonpayable",
      "type": "function"
    },
    {
      "inputs": [
        {
          "internalType": "uint256",
          "name": "_value",
          "type": "uint256"
        }
      ],
      "name": "setMaxSupply",
      "outputs": [],
      "stateMutability": "nonpayable",
      "type": "function"
    },
    {
      "inputs": [
        {
          "internalType": "bool",
          "name": "_value",
          "type": "bool"
        }
      ],
      "name": "setPaused",
      "outputs": [],
      "stateMutability": "nonpayable",
      "type": "function"
    },
    {
      "inputs": [
        {
          "internalType": "bytes4",
          "name": "interfaceId",
          "type": "bytes4"
        }
      ],
      "name": "supportsInterface",
      "outputs": [
        {
          "internalType": "bool",
          "name": "",
          "type": "bool"
        }
      ],
      "stateMutability": "view",
      "type": "function"
    },
    {
      "inputs": [],
      "name": "symbol",
      "outputs": [
        {
          "internalType": "string",
          "name": "",
          "type": "string"
        }
      ],
      "stateMutability": "view",
      "type": "function"
    },
    {
      "inputs": [
        {
          "internalType": "uint256",
          "name": "tokenId",
          "type": "uint256"
        }
      ],
      "name": "tokenURI",
      "outputs": [
        {
          "internalType": "string",
          "name": "",
          "type": "string"
        }
      ],
      "stateMutability": "view",
      "type": "function"
    },
    {
      "inputs": [
        {
          "internalType": "address payable",
          "name": "_addr",
          "type": "address"
        },
        {
          "internalType": "uint256",
          "name": "_amount",
          "type": "uint256"
        }
      ],
      "name": "transfer",
      "outputs": [],
      "stateMutability": "nonpayable",
      "type": "function"
    },
    {
      "inputs": [
        {
          "internalType": "address",
          "name": "from",
          "type": "address"
        },
        {
          "internalType": "address",
          "name": "to",
          "type": "address"
        },
        {
          "internalType": "uint256",
          "name": "tokenId",
          "type": "uint256"
        }
      ],
      "name": "transferFrom",
      "outputs": [],
      "stateMutability": "nonpayable",
      "type": "function"
    },
    {
      "inputs": [
        {
          "internalType": "address",
          "name": "newOwner",
          "type": "address"
        }
      ],
      "name": "transferOwnership",
      "outputs": [],
      "stateMutability": "nonpayable",
      "type": "function"
    },
    {
      "inputs": [
        {
          "internalType": "uint256",
          "name": "_ID",
          "type": "uint256"
        },
        {
          "internalType": "string",
          "name": "_URI",
          "type": "string"
        }
      ],
      "name": "updateOneURI",
      "outputs": [],
      "stateMutability": "nonpayable",
      "type": "function"
    },
    {
      "inputs": [
        {
          "internalType": "uint256[]",
          "name": "_IDs",
          "type": "uint256[]"
        },
        {
          "internalType": "string[]",
          "name": "_URIs",
          "type": "string[]"
        }
      ],
      "name": "updateURIs",
      "outputs": [],
      "stateMutability": "nonpayable",
      "type": "function"
    },
    {
      "inputs": [
        {
          "internalType": "uint256",
          "name": "_amount",
          "type": "uint256"
        }
      ],
      "name": "withdraw",
      "outputs": [],
      "stateMutability": "nonpayable",
      "type": "function"
    }
  ],
  "bytecode": "0x60806040526000600960006101000a81548160ff021916908315150217905550610309600a556701140bbd030c4000600b5560405180608001604052806050815260200162004a4d60509139600c9080519060200190620000629291906200030a565b503480156200007057600080fd5b506040518060400160405280600d81526020017f48656176656e6c79776f726473000000000000000000000000000000000000008152506040518060400160405280600381526020017f48577300000000000000000000000000000000000000000000000000000000008152508160009080519060200190620000f59291906200030a565b5080600190805190602001906200010e9291906200030a565b50505062000131620001256200023c60201b60201c565b6200024460201b60201c565b33600d60006101000a81548173ffffffffffffffffffffffffffffffffffffffff021916908373ffffffffffffffffffffffffffffffffffffffff1602179055506001600e60003373ffffffffffffffffffffffffffffffffffffffff1673ffffffffffffffffffffffffffffffffffffffff16815260200190815260200160002060006101000a81548160ff0219169083151502179055506001600e6000737b4af61acdfb66127d8ee3119f2d49a6a662a36773ffffffffffffffffffffffffffffffffffffffff1673ffffffffffffffffffffffffffffffffffffffff16815260200190815260200160002060006101000a81548160ff0219169083151502179055506200041f565b600033905090565b6000600760009054906101000a900473ffffffffffffffffffffffffffffffffffffffff16905081600760006101000a81548173ffffffffffffffffffffffffffffffffffffffff021916908373ffffffffffffffffffffffffffffffffffffffff1602179055508173ffffffffffffffffffffffffffffffffffffffff168173ffffffffffffffffffffffffffffffffffffffff167f8be0079c531659141344cd1fd0a4f28419497f9722a3daafe3b4186f6b6457e060405160405180910390a35050565b8280546200031890620003ba565b90600052602060002090601f0160209004810192826200033c576000855562000388565b82601f106200035757805160ff191683800117855562000388565b8280016001018555821562000388579182015b82811115620003875782518255916020019190600101906200036a565b5b5090506200039791906200039b565b5090565b5b80821115620003b65760008160009055506001016200039c565b5090565b60006002820490506001821680620003d357607f821691505b60208210811415620003ea57620003e9620003f0565b5b50919050565b7f4e487b7100000000000000000000000000000000000000000000000000000000600052602260045260246000fd5b61461e806200042f6000396000f3fe6080604052600436106102675760003560e01c80636805b84b11610144578063a9059cbb116100b6578063ce606ee01161007a578063ce606ee01461093e578063d0def52114610969578063d5abeb0114610999578063e8a3d485146109c4578063e985e9c5146109ef578063f2fde38b14610a2c57610267565b8063a9059cbb14610859578063b88d4fde14610882578063bd3e19d4146108ab578063c87b56dd146108d6578063c9a230771461091357610267565b8063893d20e811610108578063893d20e81461075b5780638da5cb5b146107865780638fc3b549146107b157806395d89b41146107dc578063a22cb46514610807578063a32a7b651461083057610267565b80636805b84b1461068a5780636f8b44b0146106b5578063704b6c02146106de57806370a0823114610707578063715018a61461074457610267565b80632e1a7d4d116101dd57806344a0d68a116101a157806344a0d68a1461057a5780634c0f38c2146105a357806358873820146105ce5780635c5b6f49146105f95780635c975abb146106225780636352211e1461064d57610267565b80632e1a7d4d146104715780632e298ba31461049a578063306a838c146104d757806342842e0e14610514578063429b62e51461053d57610267565b806313faede61161022f57806313faede61461036557806316c38b3c146103905780631785f53c146103b957806318546706146103e257806323b872dd1461040b57806324d7806c1461043457610267565b806301ffc9a71461026c57806306fdde03146102a9578063081812fc146102d4578063095ea7b31461031157806312065fe01461033a575b600080fd5b34801561027857600080fd5b50610293600480360381019061028e9190613480565b610a55565b6040516102a09190613e25565b60405180910390f35b3480156102b557600080fd5b506102be610b37565b6040516102cb9190613e40565b60405180910390f35b3480156102e057600080fd5b506102fb60048036038101906102f69190613513565b610bc9565b6040516103089190613dbe565b60405180910390f35b34801561031d57600080fd5b50610338600480360381019061033391906133af565b610c4e565b005b34801561034657600080fd5b5061034f610d66565b60405161035c91906140e2565b60405180910390f35b34801561037157600080fd5b5061037a610dc4565b60405161038791906140e2565b60405180910390f35b34801561039c57600080fd5b506103b760048036038101906103b29190613457565b610dca565b005b3480156103c557600080fd5b506103e060048036038101906103db91906131b4565b610e3d565b005b3480156103ee57600080fd5b50610409600480360381019061040491906133eb565b610f14565b005b34801561041757600080fd5b50610432600480360381019061042d9190613255565b611026565b005b34801561044057600080fd5b5061045b600480360381019061045691906131b4565b611086565b6040516104689190613e25565b60405180910390f35b34801561047d57600080fd5b5061049860048036038101906104939190613513565b6110dc565b005b3480156104a657600080fd5b506104c160048036038101906104bc9190613513565b6111a2565b6040516104ce9190613e40565b60405180910390f35b3480156104e357600080fd5b506104fe60048036038101906104f99190613513565b611242565b60405161050b9190613e40565b60405180910390f35b34801561052057600080fd5b5061053b60048036038101906105369190613255565b6112e7565b005b34801561054957600080fd5b50610564600480360381019061055f91906131b4565b611307565b6040516105719190613e25565b60405180910390f35b34801561058657600080fd5b506105a1600480360381019061059c9190613513565b611327565b005b3480156105af57600080fd5b506105b86113ad565b6040516105c591906140e2565b60405180910390f35b3480156105da57600080fd5b506105e36113b7565b6040516105f09190613e40565b60405180910390f35b34801561060557600080fd5b50610620600480360381019061061b919061353c565b611449565b005b34801561062e57600080fd5b506106376114ad565b6040516106449190613e25565b60405180910390f35b34801561065957600080fd5b50610674600480360381019061066f9190613513565b6114c0565b6040516106819190613dbe565b60405180910390f35b34801561069657600080fd5b5061069f611572565b6040516106ac9190613e25565b60405180910390f35b3480156106c157600080fd5b506106dc60048036038101906106d79190613513565b611589565b005b3480156106ea57600080fd5b50610705600480360381019061070091906131b4565b61160f565b005b34801561071357600080fd5b5061072e600480360381019061072991906131b4565b6116e6565b60405161073b91906140e2565b60405180910390f35b34801561075057600080fd5b5061075961179e565b005b34801561076757600080fd5b50610770611826565b60405161077d9190613dbe565b60405180910390f35b34801561079257600080fd5b5061079b611850565b6040516107a89190613dbe565b60405180910390f35b3480156107bd57600080fd5b506107c661187a565b6040516107d391906140e2565b60405180910390f35b3480156107e857600080fd5b506107f16118e1565b6040516107fe9190613e40565b60405180910390f35b34801561081357600080fd5b5061082e6004803603810190610829919061331f565b611973565b005b34801561083c57600080fd5b50610857600480360381019061085291906134d2565b611af4565b005b34801561086557600080fd5b50610880600480360381019061087b91906131dd565b611b64565b005b34801561088e57600080fd5b506108a960048036038101906108a491906132a4565b611c2b565b005b3480156108b757600080fd5b506108c0611c8d565b6040516108cd91906140e2565b60405180910390f35b3480156108e257600080fd5b506108fd60048036038101906108f89190613513565b611c97565b60405161090a9190613e40565b60405180910390f35b34801561091f57600080fd5b50610928611de9565b6040516109359190613e40565b60405180910390f35b34801561094a57600080fd5b50610953611e77565b6040516109609190613dbe565b60405180910390f35b610983600480360381019061097e919061335b565b611e9d565b60405161099091906140e2565b60405180910390f35b3480156109a557600080fd5b506109ae612081565b6040516109bb91906140e2565b60405180910390f35b3480156109d057600080fd5b506109d9612087565b6040516109e69190613e40565b60405180910390f35b3480156109fb57600080fd5b50610a166004803603810190610a119190613219565b6120a7565b604051610a239190613e25565b60405180910390f35b348015610a3857600080fd5b50610a536004803603810190610a4e91906131b4565b61213b565b005b60007f80ac58cd000000000000000000000000000000000000000000000000000000007bffffffffffffffffffffffffffffffffffffffffffffffffffffffff1916827bffffffffffffffffffffffffffffffffffffffffffffffffffffffff19161480610b2057507f5b5e139f000000000000000000000000000000000000000000000000000000007bffffffffffffffffffffffffffffffffffffffffffffffffffffffff1916827bffffffffffffffffffffffffffffffffffffffffffffffffffffffff1916145b80610b305750610b2f82612233565b5b9050919050565b606060008054610b46906143ac565b80601f0160208091040260200160405190810160405280929190818152602001828054610b72906143ac565b8015610bbf5780601f10610b9457610100808354040283529160200191610bbf565b820191906000526020600020905b815481529060010190602001808311610ba257829003601f168201915b5050505050905090565b6000610bd48261229d565b610c13576040517f08c379a0000000000000000000000000000000000000000000000000000000008152600401610c0a90613fe2565b60405180910390fd5b6004600083815260200190815260200160002060009054906101000a900473ffffffffffffffffffffffffffffffffffffffff169050919050565b6000610c59826114c0565b90508073ffffffffffffffffffffffffffffffffffffffff168373ffffffffffffffffffffffffffffffffffffffff161415610cca576040517f08c379a0000000000000000000000000000000000000000000000000000000008152600401610cc190614062565b60405180910390fd5b8073ffffffffffffffffffffffffffffffffffffffff16610ce9612309565b73ffffffffffffffffffffffffffffffffffffffff161480610d185750610d1781610d12612309565b6120a7565b5b610d57576040517f08c379a0000000000000000000000000000000000000000000000000000000008152600401610d4e90613f22565b60405180910390fd5b610d618383612311565b505050565b6000600e60003373ffffffffffffffffffffffffffffffffffffffff1673ffffffffffffffffffffffffffffffffffffffff16815260200190815260200160002060009054906101000a900460ff16610dbe57600080fd5b47905090565b600b5481565b600e60003373ffffffffffffffffffffffffffffffffffffffff1673ffffffffffffffffffffffffffffffffffffffff16815260200190815260200160002060009054906101000a900460ff16610e2057600080fd5b80600960006101000a81548160ff02191690831515021790555050565b610e45612309565b73ffffffffffffffffffffffffffffffffffffffff16610e63611850565b73ffffffffffffffffffffffffffffffffffffffff1614610eb9576040517f08c379a0000000000000000000000000000000000000000000000000000000008152600401610eb090614002565b60405180910390fd5b6000600e60008373ffffffffffffffffffffffffffffffffffffffff1673ffffffffffffffffffffffffffffffffffffffff16815260200190815260200160002060006101000a81548160ff02191690831515021790555050565b600e60003373ffffffffffffffffffffffffffffffffffffffff1673ffffffffffffffffffffffffffffffffffffffff16815260200190815260200160002060009054906101000a900460ff16610f6a57600080fd5b8051825114610f7857600080fd5b60005b82518110156110215761100e838281518110610fc0577f4e487b7100000000000000000000000000000000000000000000000000000000600052603260045260246000fd5b6020026020010151838381518110611001577f4e487b7100000000000000000000000000000000000000000000000000000000600052603260045260246000fd5b60200260200101516123ca565b8080611019906143de565b915050610f7b565b505050565b611037611031612309565b8261243e565b611076576040517f08c379a000000000000000000000000000000000000000000000000000000000815260040161106d90614082565b60405180910390fd5b61108183838361251c565b505050565b6000600e60008373ffffffffffffffffffffffffffffffffffffffff1673ffffffffffffffffffffffffffffffffffffffff16815260200190815260200160002060009054906101000a900460ff169050919050565b6110e4612309565b73ffffffffffffffffffffffffffffffffffffffff16611102611850565b73ffffffffffffffffffffffffffffffffffffffff1614611158576040517f08c379a000000000000000000000000000000000000000000000000000000000815260040161114f90614002565b60405180910390fd5b3373ffffffffffffffffffffffffffffffffffffffff166108fc829081150290604051600060405180830381858888f1935050505015801561119e573d6000803e3d6000fd5b5050565b600f60205280600052604060002060009150905080546111c1906143ac565b80601f01602080910402602001604051908101604052809291908181526020018280546111ed906143ac565b801561123a5780601f1061120f5761010080835404028352916020019161123a565b820191906000526020600020905b81548152906001019060200180831161121d57829003601f168201915b505050505081565b6060600f60008381526020019081526020016000208054611262906143ac565b80601f016020809104026020016040519081016040528092919081815260200182805461128e906143ac565b80156112db5780601f106112b0576101008083540402835291602001916112db565b820191906000526020600020905b8154815290600101906020018083116112be57829003601f168201915b50505050509050919050565b61130283838360405180602001604052806000815250611c2b565b505050565b600e6020528060005260406000206000915054906101000a900460ff1681565b61132f612309565b73ffffffffffffffffffffffffffffffffffffffff1661134d611850565b73ffffffffffffffffffffffffffffffffffffffff16146113a3576040517f08c379a000000000000000000000000000000000000000000000000000000000815260040161139a90614002565b60405180910390fd5b80600b8190555050565b6000600a54905090565b6060600c80546113c6906143ac565b80601f01602080910402602001604051908101604052809291908181526020018280546113f2906143ac565b801561143f5780601f106114145761010080835404028352916020019161143f565b820191906000526020600020905b81548152906001019060200180831161142257829003601f168201915b5050505050905090565b600e60003373ffffffffffffffffffffffffffffffffffffffff1673ffffffffffffffffffffffffffffffffffffffff16815260200190815260200160002060009054906101000a900460ff1661149f57600080fd5b6114a982826123ca565b5050565b600960009054906101000a900460ff1681565b6000806002600084815260200190815260200160002060009054906101000a900473ffffffffffffffffffffffffffffffffffffffff169050600073ffffffffffffffffffffffffffffffffffffffff168173ffffffffffffffffffffffffffffffffffffffff161415611569576040517f08c379a000000000000000000000000000000000000000000000000000000000815260040161156090613f62565b60405180910390fd5b80915050919050565b6000600960009054906101000a900460ff16905090565b611591612309565b73ffffffffffffffffffffffffffffffffffffffff166115af611850565b73ffffffffffffffffffffffffffffffffffffffff1614611605576040517f08c379a00000000000000000000000000000000000000000000000000000000081526004016115fc90614002565b60405180910390fd5b80600a8190555050565b611617612309565b73ffffffffffffffffffffffffffffffffffffffff16611635611850565b73ffffffffffffffffffffffffffffffffffffffff161461168b576040517f08c379a000000000000000000000000000000000000000000000000000000000815260040161168290614002565b60405180910390fd5b6001600e60008373ffffffffffffffffffffffffffffffffffffffff1673ffffffffffffffffffffffffffffffffffffffff16815260200190815260200160002060006101000a81548160ff02191690831515021790555050565b60008073ffffffffffffffffffffffffffffffffffffffff168273ffffffffffffffffffffffffffffffffffffffff161415611757576040517f08c379a000000000000000000000000000000000000000000000000000000000815260040161174e90613f42565b60405180910390fd5b600360008373ffffffffffffffffffffffffffffffffffffffff1673ffffffffffffffffffffffffffffffffffffffff168152602001908152602001600020549050919050565b6117a6612309565b73ffffffffffffffffffffffffffffffffffffffff166117c4611850565b73ffffffffffffffffffffffffffffffffffffffff161461181a576040517f08c379a000000000000000000000000000000000000000000000000000000000815260040161181190614002565b60405180910390fd5b6118246000612778565b565b6000600d60009054906101000a900473ffffffffffffffffffffffffffffffffffffffff16905090565b6000600760009054906101000a900473ffffffffffffffffffffffffffffffffffffffff16905090565b6000600e60003373ffffffffffffffffffffffffffffffffffffffff1673ffffffffffffffffffffffffffffffffffffffff16815260200190815260200160002060009054906101000a900460ff166118d257600080fd5b6118dc600861283e565b905090565b6060600180546118f0906143ac565b80601f016020809104026020016040519081016040528092919081815260200182805461191c906143ac565b80156119695780601f1061193e57610100808354040283529160200191611969565b820191906000526020600020905b81548152906001019060200180831161194c57829003601f168201915b5050505050905090565b61197b612309565b73ffffffffffffffffffffffffffffffffffffffff168273ffffffffffffffffffffffffffffffffffffffff1614156119e9576040517f08c379a00000000000000000000000000000000000000000000000000000000081526004016119e090613ee2565b60405180910390fd5b80600560006119f6612309565b73ffffffffffffffffffffffffffffffffffffffff1673ffffffffffffffffffffffffffffffffffffffff16815260200190815260200160002060008473ffffffffffffffffffffffffffffffffffffffff1673ffffffffffffffffffffffffffffffffffffffff16815260200190815260200160002060006101000a81548160ff0219169083151502179055508173ffffffffffffffffffffffffffffffffffffffff16611aa3612309565b73ffffffffffffffffffffffffffffffffffffffff167f17307eab39ab6107e8899845ad3d59bd9653f200f220920489ca2b5937696c3183604051611ae89190613e25565b60405180910390a35050565b600e60003373ffffffffffffffffffffffffffffffffffffffff1673ffffffffffffffffffffffffffffffffffffffff16815260200190815260200160002060009054906101000a900460ff16611b4a57600080fd5b80600c9080519060200190611b60929190612ea6565b5050565b611b6c612309565b73ffffffffffffffffffffffffffffffffffffffff16611b8a611850565b73ffffffffffffffffffffffffffffffffffffffff1614611be0576040517f08c379a0000000000000000000000000000000000000000000000000000000008152600401611bd790614002565b60405180910390fd5b8173ffffffffffffffffffffffffffffffffffffffff166108fc829081150290604051600060405180830381858888f19350505050158015611c26573d6000803e3d6000fd5b505050565b611c3c611c36612309565b8361243e565b611c7b576040517f08c379a0000000000000000000000000000000000000000000000000000000008152600401611c7290614082565b60405180910390fd5b611c878484848461284c565b50505050565b6000600b54905090565b6060611ca28261229d565b611ce1576040517f08c379a0000000000000000000000000000000000000000000000000000000008152600401611cd890613fc2565b60405180910390fd5b6000600660008481526020019081526020016000208054611d01906143ac565b80601f0160208091040260200160405190810160405280929190818152602001828054611d2d906143ac565b8015611d7a5780601f10611d4f57610100808354040283529160200191611d7a565b820191906000526020600020905b815481529060010190602001808311611d5d57829003601f168201915b505050505090506000611d8b6128a8565b9050600081511415611da1578192505050611de4565b600082511115611dd6578082604051602001611dbe929190613d9a565b60405160208183030381529060405292505050611de4565b611ddf846128bf565b925050505b919050565b600c8054611df6906143ac565b80601f0160208091040260200160405190810160405280929190818152602001828054611e22906143ac565b8015611e6f5780601f10611e4457610100808354040283529160200191611e6f565b820191906000526020600020905b815481529060010190602001808311611e5257829003601f168201915b505050505081565b600d60009054906101000a900473ffffffffffffffffffffffffffffffffffffffff1681565b6000600960009054906101000a900460ff1615611eef576040517f08c379a0000000000000000000000000000000000000000000000000000000008152600401611ee6906140a2565b60405180910390fd5b600d60009054906101000a900473ffffffffffffffffffffffffffffffffffffffff1673ffffffffffffffffffffffffffffffffffffffff163373ffffffffffffffffffffffffffffffffffffffff1614611f8a57600b54341015611f89576040517f08c379a0000000000000000000000000000000000000000000000000000000008152600401611f80906140c2565b60405180910390fd5b5b611f946008612966565b6000611fa0600861283e565b9050600a54811115611fb157600080fd5b611fbb848261297c565b61204f81600c8054611fcc906143ac565b80601f0160208091040260200160405190810160405280929190818152602001828054611ff8906143ac565b80156120455780601f1061201a57610100808354040283529160200191612045565b820191906000526020600020905b81548152906001019060200180831161202857829003601f168201915b50505050506123ca565b82600f60008381526020019081526020016000209080519060200190612076929190612ea6565b508091505092915050565b600a5481565b606060405180608001604052806050815260200161459960509139905090565b6000600560008473ffffffffffffffffffffffffffffffffffffffff1673ffffffffffffffffffffffffffffffffffffffff16815260200190815260200160002060008373ffffffffffffffffffffffffffffffffffffffff1673ffffffffffffffffffffffffffffffffffffffff16815260200190815260200160002060009054906101000a900460ff16905092915050565b612143612309565b73ffffffffffffffffffffffffffffffffffffffff16612161611850565b73ffffffffffffffffffffffffffffffffffffffff16146121b7576040517f08c379a00000000000000000000000000000000000000000000000000000000081526004016121ae90614002565b60405180910390fd5b600073ffffffffffffffffffffffffffffffffffffffff168173ffffffffffffffffffffffffffffffffffffffff161415612227576040517f08c379a000000000000000000000000000000000000000000000000000000000815260040161221e90613e82565b60405180910390fd5b61223081612778565b50565b60007f01ffc9a7000000000000000000000000000000000000000000000000000000007bffffffffffffffffffffffffffffffffffffffffffffffffffffffff1916827bffffffffffffffffffffffffffffffffffffffffffffffffffffffff1916149050919050565b60008073ffffffffffffffffffffffffffffffffffffffff166002600084815260200190815260200160002060009054906101000a900473ffffffffffffffffffffffffffffffffffffffff1673ffffffffffffffffffffffffffffffffffffffff1614159050919050565b600033905090565b816004600083815260200190815260200160002060006101000a81548173ffffffffffffffffffffffffffffffffffffffff021916908373ffffffffffffffffffffffffffffffffffffffff160217905550808273ffffffffffffffffffffffffffffffffffffffff16612384836114c0565b73ffffffffffffffffffffffffffffffffffffffff167f8c5be1e5ebec7d5bd14f71427d1e84f3dd0314c0f7b2291e5b200ac8c7c3b92560405160405180910390a45050565b6123d38261229d565b612412576040517f08c379a000000000000000000000000000000000000000000000000000000000815260040161240990613f82565b60405180910390fd5b80600660008481526020019081526020016000209080519060200190612439929190612ea6565b505050565b60006124498261229d565b612488576040517f08c379a000000000000000000000000000000000000000000000000000000000815260040161247f90613f02565b60405180910390fd5b6000612493836114c0565b90508073ffffffffffffffffffffffffffffffffffffffff168473ffffffffffffffffffffffffffffffffffffffff16148061250257508373ffffffffffffffffffffffffffffffffffffffff166124ea84610bc9565b73ffffffffffffffffffffffffffffffffffffffff16145b80612513575061251281856120a7565b5b91505092915050565b8273ffffffffffffffffffffffffffffffffffffffff1661253c826114c0565b73ffffffffffffffffffffffffffffffffffffffff1614612592576040517f08c379a000000000000000000000000000000000000000000000000000000000815260040161258990614022565b60405180910390fd5b600073ffffffffffffffffffffffffffffffffffffffff168273ffffffffffffffffffffffffffffffffffffffff161415612602576040517f08c379a00000000000000000000000000000000000000000000000000000000081526004016125f990613ec2565b60405180910390fd5b61260d838383612b4a565b612618600082612311565b6001600360008573ffffffffffffffffffffffffffffffffffffffff1673ffffffffffffffffffffffffffffffffffffffff168152602001908152602001600020600082825461266891906142b0565b925050819055506001600360008473ffffffffffffffffffffffffffffffffffffffff1673ffffffffffffffffffffffffffffffffffffffff16815260200190815260200160002060008282546126bf9190614229565b92505081905550816002600083815260200190815260200160002060006101000a81548173ffffffffffffffffffffffffffffffffffffffff021916908373ffffffffffffffffffffffffffffffffffffffff160217905550808273ffffffffffffffffffffffffffffffffffffffff168473ffffffffffffffffffffffffffffffffffffffff167fddf252ad1be2c89b69c2b068fc378daa952ba7f163c4a11628f55a4df523b3ef60405160405180910390a4505050565b6000600760009054906101000a900473ffffffffffffffffffffffffffffffffffffffff16905081600760006101000a81548173ffffffffffffffffffffffffffffffffffffffff021916908373ffffffffffffffffffffffffffffffffffffffff1602179055508173ffffffffffffffffffffffffffffffffffffffff168173ffffffffffffffffffffffffffffffffffffffff167f8be0079c531659141344cd1fd0a4f28419497f9722a3daafe3b4186f6b6457e060405160405180910390a35050565b600081600001549050919050565b61285784848461251c565b61286384848484612b4f565b6128a2576040517f08c379a000000000000000000000000000000000000000000000000000000000815260040161289990613e62565b60405180910390fd5b50505050565b606060405180602001604052806000815250905090565b60606128ca8261229d565b612909576040517f08c379a000000000000000000000000000000000000000000000000000000000815260040161290090614042565b60405180910390fd5b60006129136128a8565b90506000815111612933576040518060200160405280600081525061295e565b8061293d84612ce6565b60405160200161294e929190613d9a565b6040516020818303038152906040525b915050919050565b6001816000016000828254019250508190555050565b600073ffffffffffffffffffffffffffffffffffffffff168273ffffffffffffffffffffffffffffffffffffffff1614156129ec576040517f08c379a00000000000000000000000000000000000000000000000000000000081526004016129e390613fa2565b60405180910390fd5b6129f58161229d565b15612a35576040517f08c379a0000000000000000000000000000000000000000000000000000000008152600401612a2c90613ea2565b60405180910390fd5b612a4160008383612b4a565b6001600360008473ffffffffffffffffffffffffffffffffffffffff1673ffffffffffffffffffffffffffffffffffffffff1681526020019081526020016000206000828254612a919190614229565b92505081905550816002600083815260200190815260200160002060006101000a81548173ffffffffffffffffffffffffffffffffffffffff021916908373ffffffffffffffffffffffffffffffffffffffff160217905550808273ffffffffffffffffffffffffffffffffffffffff16600073ffffffffffffffffffffffffffffffffffffffff167fddf252ad1be2c89b69c2b068fc378daa952ba7f163c4a11628f55a4df523b3ef60405160405180910390a45050565b505050565b6000612b708473ffffffffffffffffffffffffffffffffffffffff16612e93565b15612cd9578373ffffffffffffffffffffffffffffffffffffffff1663150b7a02612b99612309565b8786866040518563ffffffff1660e01b8152600401612bbb9493929190613dd9565b602060405180830381600087803b158015612bd557600080fd5b505af1925050508015612c0657506040513d601f19601f82011682018060405250810190612c0391906134a9565b60015b612c89573d8060008114612c36576040519150601f19603f3d011682016040523d82523d6000602084013e612c3b565b606091505b50600081511415612c81576040517f08c379a0000000000000000000000000000000000000000000000000000000008152600401612c7890613e62565b60405180910390fd5b805181602001fd5b63150b7a0260e01b7bffffffffffffffffffffffffffffffffffffffffffffffffffffffff1916817bffffffffffffffffffffffffffffffffffffffffffffffffffffffff191614915050612cde565b600190505b949350505050565b60606000821415612d2e576040518060400160405280600181526020017f30000000000000000000000000000000000000000000000000000000000000008152509050612e8e565b600082905060005b60008214612d60578080612d49906143de565b915050600a82612d59919061427f565b9150612d36565b60008167ffffffffffffffff811115612da2577f4e487b7100000000000000000000000000000000000000000000000000000000600052604160045260246000fd5b6040519080825280601f01601f191660200182016040528015612dd45781602001600182028036833780820191505090505b5090505b60008514612e8757600182612ded91906142b0565b9150600a85612dfc9190614427565b6030612e089190614229565b60f81b818381518110612e44577f4e487b7100000000000000000000000000000000000000000000000000000000600052603260045260246000fd5b60200101907effffffffffffffffffffffffffffffffffffffffffffffffffffffffffffff1916908160001a905350600a85612e80919061427f565b9450612dd8565b8093505050505b919050565b600080823b905060008111915050919050565b828054612eb2906143ac565b90600052602060002090601f016020900481019282612ed45760008555612f1b565b82601f10612eed57805160ff1916838001178555612f1b565b82800160010185558215612f1b579182015b82811115612f1a578251825591602001919060010190612eff565b5b509050612f289190612f2c565b5090565b5b80821115612f45576000816000905550600101612f2d565b5090565b6000612f5c612f578461412e565b6140fd565b9050808382526020820190508260005b85811015612f9c5781358501612f828882613175565b845260208401935060208301925050600181019050612f6c565b5050509392505050565b6000612fb9612fb48461415a565b6140fd565b90508083825260208201905082856020860282011115612fd857600080fd5b60005b858110156130085781612fee888261319f565b845260208401935060208301925050600181019050612fdb565b5050509392505050565b600061302561302084614186565b6140fd565b90508281526020810184848401111561303d57600080fd5b61304884828561436a565b509392505050565b600061306361305e846141b6565b6140fd565b90508281526020810184848401111561307b57600080fd5b61308684828561436a565b509392505050565b60008135905061309d81614525565b92915050565b6000813590506130b28161453c565b92915050565b600082601f8301126130c957600080fd5b81356130d9848260208601612f49565b91505092915050565b600082601f8301126130f357600080fd5b8135613103848260208601612fa6565b91505092915050565b60008135905061311b81614553565b92915050565b6000813590506131308161456a565b92915050565b6000815190506131458161456a565b92915050565b600082601f83011261315c57600080fd5b813561316c848260208601613012565b91505092915050565b600082601f83011261318657600080fd5b8135613196848260208601613050565b91505092915050565b6000813590506131ae81614581565b92915050565b6000602082840312156131c657600080fd5b60006131d48482850161308e565b91505092915050565b600080604083850312156131f057600080fd5b60006131fe858286016130a3565b925050602061320f8582860161319f565b9150509250929050565b6000806040838503121561322c57600080fd5b600061323a8582860161308e565b925050602061324b8582860161308e565b9150509250929050565b60008060006060848603121561326a57600080fd5b60006132788682870161308e565b93505060206132898682870161308e565b925050604061329a8682870161319f565b9150509250925092565b600080600080608085870312156132ba57600080fd5b60006132c88782880161308e565b94505060206132d98782880161308e565b93505060406132ea8782880161319f565b925050606085013567ffffffffffffffff81111561330757600080fd5b6133138782880161314b565b91505092959194509250565b6000806040838503121561333257600080fd5b60006133408582860161308e565b92505060206133518582860161310c565b9150509250929050565b6000806040838503121561336e57600080fd5b600061337c8582860161308e565b925050602083013567ffffffffffffffff81111561339957600080fd5b6133a585828601613175565b9150509250929050565b600080604083850312156133c257600080fd5b60006133d08582860161308e565b92505060206133e18582860161319f565b9150509250929050565b600080604083850312156133fe57600080fd5b600083013567ffffffffffffffff81111561341857600080fd5b613424858286016130e2565b925050602083013567ffffffffffffffff81111561344157600080fd5b61344d858286016130b8565b9150509250929050565b60006020828403121561346957600080fd5b60006134778482850161310c565b91505092915050565b60006020828403121561349257600080fd5b60006134a084828501613121565b91505092915050565b6000602082840312156134bb57600080fd5b60006134c984828501613136565b91505092915050565b6000602082840312156134e457600080fd5b600082013567ffffffffffffffff8111156134fe57600080fd5b61350a84828501613175565b91505092915050565b60006020828403121561352557600080fd5b60006135338482850161319f565b91505092915050565b6000806040838503121561354f57600080fd5b600061355d8582860161319f565b925050602083013567ffffffffffffffff81111561357a57600080fd5b61358685828601613175565b9150509250929050565b613599816142e4565b82525050565b6135a881614308565b82525050565b60006135b9826141e6565b6135c381856141fc565b93506135d3818560208601614379565b6135dc81614514565b840191505092915050565b60006135f2826141f1565b6135fc818561420d565b935061360c818560208601614379565b61361581614514565b840191505092915050565b600061362b826141f1565b613635818561421e565b9350613645818560208601614379565b80840191505092915050565b600061365e60328361420d565b91507f4552433732313a207472616e7366657220746f206e6f6e20455243373231526560008301527f63656976657220696d706c656d656e74657200000000000000000000000000006020830152604082019050919050565b60006136c460268361420d565b91507f4f776e61626c653a206e6577206f776e657220697320746865207a65726f206160008301527f64647265737300000000000000000000000000000000000000000000000000006020830152604082019050919050565b600061372a601c8361420d565b91507f4552433732313a20746f6b656e20616c7265616479206d696e746564000000006000830152602082019050919050565b600061376a60248361420d565b91507f4552433732313a207472616e7366657220746f20746865207a65726f2061646460008301527f72657373000000000000000000000000000000000000000000000000000000006020830152604082019050919050565b60006137d060198361420d565b91507f4552433732313a20617070726f766520746f2063616c6c6572000000000000006000830152602082019050919050565b6000613810602c8361420d565b91507f4552433732313a206f70657261746f7220717565727920666f72206e6f6e657860008301527f697374656e7420746f6b656e00000000000000000000000000000000000000006020830152604082019050919050565b600061387660388361420d565b91507f4552433732313a20617070726f76652063616c6c6572206973206e6f74206f7760008301527f6e6572206e6f7220617070726f76656420666f7220616c6c00000000000000006020830152604082019050919050565b60006138dc602a8361420d565b91507f4552433732313a2062616c616e636520717565727920666f7220746865207a6560008301527f726f2061646472657373000000000000000000000000000000000000000000006020830152604082019050919050565b600061394260298361420d565b91507f4552433732313a206f776e657220717565727920666f72206e6f6e657869737460008301527f656e7420746f6b656e00000000000000000000000000000000000000000000006020830152604082019050919050565b60006139a8602e8361420d565b91507f45524337323155524953746f726167653a2055524920736574206f66206e6f6e60008301527f6578697374656e7420746f6b656e0000000000000000000000000000000000006020830152604082019050919050565b6000613a0e60208361420d565b91507f4552433732313a206d696e7420746f20746865207a65726f20616464726573736000830152602082019050919050565b6000613a4e60318361420d565b91507f45524337323155524953746f726167653a2055524920717565727920666f722060008301527f6e6f6e6578697374656e7420746f6b656e0000000000000000000000000000006020830152604082019050919050565b6000613ab4602c8361420d565b91507f4552433732313a20617070726f76656420717565727920666f72206e6f6e657860008301527f697374656e7420746f6b656e00000000000000000000000000000000000000006020830152604082019050919050565b6000613b1a60208361420d565b91507f4f776e61626c653a2063616c6c6572206973206e6f7420746865206f776e65726000830152602082019050919050565b6000613b5a60298361420d565b91507f4552433732313a207472616e73666572206f6620746f6b656e2074686174206960008301527f73206e6f74206f776e00000000000000000000000000000000000000000000006020830152604082019050919050565b6000613bc0602f8361420d565b91507f4552433732314d657461646174613a2055524920717565727920666f72206e6f60008301527f6e6578697374656e7420746f6b656e00000000000000000000000000000000006020830152604082019050919050565b6000613c2660218361420d565b91507f4552433732313a20617070726f76616c20746f2063757272656e74206f776e6560008301527f72000000000000000000000000000000000000000000000000000000000000006020830152604082019050919050565b6000613c8c60318361420d565b91507f4552433732313a207472616e736665722063616c6c6572206973206e6f74206f60008301527f776e6572206e6f7220617070726f7665640000000000000000000000000000006020830152604082019050919050565b6000613cf260118361420d565b91507f4d696e74696e67206973207061757365640000000000000000000000000000006000830152602082019050919050565b6000613d3260218361420d565b91507f4e6f7420656e6f756768204554482073656e743b20636865636b20707269636560008301527f21000000000000000000000000000000000000000000000000000000000000006020830152604082019050919050565b613d9481614360565b82525050565b6000613da68285613620565b9150613db28284613620565b91508190509392505050565b6000602082019050613dd36000830184613590565b92915050565b6000608082019050613dee6000830187613590565b613dfb6020830186613590565b613e086040830185613d8b565b8181036060830152613e1a81846135ae565b905095945050505050565b6000602082019050613e3a600083018461359f565b92915050565b60006020820190508181036000830152613e5a81846135e7565b905092915050565b60006020820190508181036000830152613e7b81613651565b9050919050565b60006020820190508181036000830152613e9b816136b7565b9050919050565b60006020820190508181036000830152613ebb8161371d565b9050919050565b60006020820190508181036000830152613edb8161375d565b9050919050565b60006020820190508181036000830152613efb816137c3565b9050919050565b60006020820190508181036000830152613f1b81613803565b9050919050565b60006020820190508181036000830152613f3b81613869565b9050919050565b60006020820190508181036000830152613f5b816138cf565b9050919050565b60006020820190508181036000830152613f7b81613935565b9050919050565b60006020820190508181036000830152613f9b8161399b565b9050919050565b60006020820190508181036000830152613fbb81613a01565b9050919050565b60006020820190508181036000830152613fdb81613a41565b9050919050565b60006020820190508181036000830152613ffb81613aa7565b9050919050565b6000602082019050818103600083015261401b81613b0d565b9050919050565b6000602082019050818103600083015261403b81613b4d565b9050919050565b6000602082019050818103600083015261405b81613bb3565b9050919050565b6000602082019050818103600083015261407b81613c19565b9050919050565b6000602082019050818103600083015261409b81613c7f565b9050919050565b600060208201905081810360008301526140bb81613ce5565b9050919050565b600060208201905081810360008301526140db81613d25565b9050919050565b60006020820190506140f76000830184613d8b565b92915050565b6000604051905081810181811067ffffffffffffffff82111715614124576141236144e5565b5b8060405250919050565b600067ffffffffffffffff821115614149576141486144e5565b5b602082029050602081019050919050565b600067ffffffffffffffff821115614175576141746144e5565b5b602082029050602081019050919050565b600067ffffffffffffffff8211156141a1576141a06144e5565b5b601f19601f8301169050602081019050919050565b600067ffffffffffffffff8211156141d1576141d06144e5565b5b601f19601f8301169050602081019050919050565b600081519050919050565b600081519050919050565b600082825260208201905092915050565b600082825260208201905092915050565b600081905092915050565b600061423482614360565b915061423f83614360565b9250827fffffffffffffffffffffffffffffffffffffffffffffffffffffffffffffffff0382111561427457614273614458565b5b828201905092915050565b600061428a82614360565b915061429583614360565b9250826142a5576142a4614487565b5b828204905092915050565b60006142bb82614360565b91506142c683614360565b9250828210156142d9576142d8614458565b5b828203905092915050565b60006142ef82614340565b9050919050565b600061430182614340565b9050919050565b60008115159050919050565b60007fffffffff0000000000000000000000000000000000000000000000000000000082169050919050565b600073ffffffffffffffffffffffffffffffffffffffff82169050919050565b6000819050919050565b82818337600083830152505050565b60005b8381101561439757808201518184015260208101905061437c565b838111156143a6576000848401525b50505050565b600060028204905060018216806143c457607f821691505b602082108114156143d8576143d76144b6565b5b50919050565b60006143e982614360565b91507fffffffffffffffffffffffffffffffffffffffffffffffffffffffffffffffff82141561441c5761441b614458565b5b600182019050919050565b600061443282614360565b915061443d83614360565b92508261444d5761444c614487565b5b828206905092915050565b7f4e487b7100000000000000000000000000000000000000000000000000000000600052601160045260246000fd5b7f4e487b7100000000000000000000000000000000000000000000000000000000600052601260045260246000fd5b7f4e487b7100000000000000000000000000000000000000000000000000000000600052602260045260246000fd5b7f4e487b7100000000000000000000000000000000000000000000000000000000600052604160045260246000fd5b6000601f19601f8301169050919050565b61452e816142e4565b811461453957600080fd5b50565b614545816142f6565b811461455057600080fd5b50565b61455c81614308565b811461456757600080fd5b50565b61457381614314565b811461457e57600080fd5b50565b61458a81614360565b811461459557600080fd5b5056fe68747470733a2f2f676174657761792e70696e6174612e636c6f75642f697066732f516d6543586247455863334269507a336a6f68483770464e5668467843333372737670637a59475850326f414879a2646970667358221220c0fd3d2bd3f3d9f3aff266853990d6c1e5a0abd87f646b5499ba6f89bab9cca764736f6c6343000800003368747470733a2f2f676174657761792e70696e6174612e636c6f75642f697066732f516d633773445659756345534e4173656538453343536a326633654e6d4e6e71724a37356447433170645a433636",
  "linkReferences": {},
  "deployedLinkReferences": {}
}