{
  "_format": "hh-sol-artifact-1",
  "contractName": "Heavenlywords",
  "sourceName": "contracts/MyNFT.sol",
  "abi": [
    {
      "inputs": [],
      "stateMutability": "nonpayable",
      "type": "constructor"
    },
    {
      "anonymous": false,
      "inputs": [
        {
          "indexed": true,
          "internalType": "address",
          "name": "owner",
          "type": "address"
        },
        {
          "indexed": true,
          "internalType": "address",
          "name": "approved",
          "type": "address"
        },
        {
          "indexed": true,
          "internalType": "uint256",
          "name": "tokenId",
          "type": "uint256"
        }
      ],
      "name": "Approval",
      "type": "event"
    },
    {
      "anonymous": false,
      "inputs": [
        {
          "indexed": true,
          "internalType": "address",
          "name": "owner",
          "type": "address"
        },
        {
          "indexed": true,
          "internalType": "address",
          "name": "operator",
          "type": "address"
        },
        {
          "indexed": false,
          "internalType": "bool",
          "name": "approved",
          "type": "bool"
        }
      ],
      "name": "ApprovalForAll",
      "type": "event"
    },
    {
      "anonymous": false,
      "inputs": [
        {
          "indexed": true,
          "internalType": "address",
          "name": "from",
          "type": "address"
        },
        {
          "indexed": true,
          "internalType": "address",
          "name": "to",
          "type": "address"
        },
        {
          "indexed": true,
          "internalType": "uint256",
          "name": "tokenId",
          "type": "uint256"
        }
      ],
      "name": "Transfer",
      "type": "event"
    },
    {
      "inputs": [
        {
          "internalType": "address",
          "name": "",
          "type": "address"
        }
      ],
      "name": "admins",
      "outputs": [
        {
          "internalType": "bool",
          "name": "",
          "type": "bool"
        }
      ],
      "stateMutability": "view",
      "type": "function"
    },
    {
      "inputs": [
        {
          "internalType": "address",
          "name": "to",
          "type": "address"
        },
        {
          "internalType": "uint256",
          "name": "tokenId",
          "type": "uint256"
        }
      ],
      "name": "approve",
      "outputs": [],
      "stateMutability": "nonpayable",
      "type": "function"
    },
    {
      "inputs": [
        {
          "internalType": "address",
          "name": "owner",
          "type": "address"
        }
      ],
      "name": "balanceOf",
      "outputs": [
        {
          "internalType": "uint256",
          "name": "",
          "type": "uint256"
        }
      ],
      "stateMutability": "view",
      "type": "function"
    },
    {
      "inputs": [],
      "name": "contractOwner",
      "outputs": [
        {
          "internalType": "address",
          "name": "",
          "type": "address"
        }
      ],
      "stateMutability": "view",
      "type": "function"
    },
    {
      "inputs": [],
      "name": "cost",
      "outputs": [
        {
          "internalType": "uint256",
          "name": "",
          "type": "uint256"
        }
      ],
      "stateMutability": "view",
      "type": "function"
    },
    {
      "inputs": [
        {
          "internalType": "uint256",
          "name": "tokenId",
          "type": "uint256"
        }
      ],
      "name": "getApproved",
      "outputs": [
        {
          "internalType": "address",
          "name": "",
          "type": "address"
        }
      ],
      "stateMutability": "view",
      "type": "function"
    },
    {
      "inputs": [],
      "name": "getBalance",
      "outputs": [
        {
          "internalType": "uint256",
          "name": "",
          "type": "uint256"
        }
      ],
      "stateMutability": "view",
      "type": "function"
    },
    {
      "inputs": [],
      "name": "getCost",
      "outputs": [
        {
          "internalType": "uint256",
          "name": "",
          "type": "uint256"
        }
      ],
      "stateMutability": "view",
      "type": "function"
    },
    {
      "inputs": [
        {
          "internalType": "uint256",
          "name": "_id",
          "type": "uint256"
        }
      ],
      "name": "getImageDescById",
      "outputs": [
        {
          "internalType": "string",
          "name": "",
          "type": "string"
        }
      ],
      "stateMutability": "view",
      "type": "function"
    },
    {
      "inputs": [],
      "name": "getInitialURI",
      "outputs": [
        {
          "internalType": "string",
          "name": "",
          "type": "string"
        }
      ],
      "stateMutability": "view",
      "type": "function"
    },
    {
      "inputs": [],
      "name": "getMaxSupply",
      "outputs": [
        {
          "internalType": "uint256",
          "name": "",
          "type": "uint256"
        }
      ],
      "stateMutability": "view",
      "type": "function"
    },
    {
      "inputs": [],
      "name": "getMintCount",
      "outputs": [
        {
          "internalType": "uint256",
          "name": "",
          "type": "uint256"
        }
      ],
      "stateMutability": "view",
      "type": "function"
    },
    {
      "inputs": [],
      "name": "getOwner",
      "outputs": [
        {
          "internalType": "address",
          "name": "",
          "type": "address"
        }
      ],
      "stateMutability": "view",
      "type": "function"
    },
    {
      "inputs": [],
      "name": "getPaused",
      "outputs": [
        {
          "internalType": "bool",
          "name": "",
          "type": "bool"
        }
      ],
      "stateMutability": "view",
      "type": "function"
    },
    {
      "inputs": [],
      "name": "getPresale",
      "outputs": [
        {
          "internalType": "bool",
          "name": "",
          "type": "bool"
        }
      ],
      "stateMutability": "view",
      "type": "function"
    },
    {
      "inputs": [
        {
          "internalType": "uint256",
          "name": "",
          "type": "uint256"
        }
      ],
      "name": "idToImageDesc",
      "outputs": [
        {
          "internalType": "string",
          "name": "",
          "type": "string"
        }
      ],
      "stateMutability": "view",
      "type": "function"
    },
    {
      "inputs": [],
      "name": "initialURI",
      "outputs": [
        {
          "internalType": "string",
          "name": "",
          "type": "string"
        }
      ],
      "stateMutability": "view",
      "type": "function"
    },
    {
      "inputs": [
        {
          "internalType": "address",
          "name": "_addr",
          "type": "address"
        }
      ],
      "name": "isAdmin",
      "outputs": [
        {
          "internalType": "bool",
          "name": "",
          "type": "bool"
        }
      ],
      "stateMutability": "view",
      "type": "function"
    },
    {
      "inputs": [
        {
          "internalType": "address",
          "name": "owner",
          "type": "address"
        },
        {
          "internalType": "address",
          "name": "operator",
          "type": "address"
        }
      ],
      "name": "isApprovedForAll",
      "outputs": [
        {
          "internalType": "bool",
          "name": "",
          "type": "bool"
        }
      ],
      "stateMutability": "view",
      "type": "function"
    },
    {
      "inputs": [
        {
          "internalType": "address",
          "name": "_addr",
          "type": "address"
        }
      ],
      "name": "isWhitelisted",
      "outputs": [
        {
          "internalType": "bool",
          "name": "",
          "type": "bool"
        }
      ],
      "stateMutability": "view",
      "type": "function"
    },
    {
      "inputs": [],
      "name": "maxSupply",
      "outputs": [
        {
          "internalType": "uint256",
          "name": "",
          "type": "uint256"
        }
      ],
      "stateMutability": "view",
      "type": "function"
    },
    {
      "inputs": [
        {
          "internalType": "address",
          "name": "_recipient",
          "type": "address"
        },
        {
          "internalType": "string",
          "name": "_imageDesc",
          "type": "string"
        }
      ],
      "name": "mint",
      "outputs": [
        {
          "internalType": "uint256",
          "name": "",
          "type": "uint256"
        }
      ],
      "stateMutability": "payable",
      "type": "function"
    },
    {
      "inputs": [],
      "name": "name",
      "outputs": [
        {
          "internalType": "string",
          "name": "",
          "type": "string"
        }
      ],
      "stateMutability": "view",
      "type": "function"
    },
    {
      "inputs": [
        {
          "internalType": "uint256",
          "name": "tokenId",
          "type": "uint256"
        }
      ],
      "name": "ownerOf",
      "outputs": [
        {
          "internalType": "address",
          "name": "",
          "type": "address"
        }
      ],
      "stateMutability": "view",
      "type": "function"
    },
    {
      "inputs": [],
      "name": "paused",
      "outputs": [
        {
          "internalType": "bool",
          "name": "",
          "type": "bool"
        }
      ],
      "stateMutability": "view",
      "type": "function"
    },
    {
      "inputs": [],
      "name": "presale",
      "outputs": [
        {
          "internalType": "bool",
          "name": "",
          "type": "bool"
        }
      ],
      "stateMutability": "view",
      "type": "function"
    },
    {
      "inputs": [
        {
          "internalType": "address",
          "name": "_addr",
          "type": "address"
        }
      ],
      "name": "removeAdmin",
      "outputs": [],
      "stateMutability": "nonpayable",
      "type": "function"
    },
    {
      "inputs": [
        {
          "internalType": "address[]",
          "name": "_addrs",
          "type": "address[]"
        }
      ],
      "name": "removeBatch",
      "outputs": [],
      "stateMutability": "nonpayable",
      "type": "function"
    },
    {
      "inputs": [
        {
          "internalType": "address",
          "name": "_addr",
          "type": "address"
        }
      ],
      "name": "removeFromWhitelist",
      "outputs": [],
      "stateMutability": "nonpayable",
      "type": "function"
    },
    {
      "inputs": [
        {
          "internalType": "address",
          "name": "from",
          "type": "address"
        },
        {
          "internalType": "address",
          "name": "to",
          "type": "address"
        },
        {
          "internalType": "uint256",
          "name": "tokenId",
          "type": "uint256"
        }
      ],
      "name": "safeTransferFrom",
      "outputs": [],
      "stateMutability": "nonpayable",
      "type": "function"
    },
    {
      "inputs": [
        {
          "internalType": "address",
          "name": "from",
          "type": "address"
        },
        {
          "internalType": "address",
          "name": "to",
          "type": "address"
        },
        {
          "internalType": "uint256",
          "name": "tokenId",
          "type": "uint256"
        },
        {
          "internalType": "bytes",
          "name": "_data",
          "type": "bytes"
        }
      ],
      "name": "safeTransferFrom",
      "outputs": [],
      "stateMutability": "nonpayable",
      "type": "function"
    },
    {
      "inputs": [
        {
          "internalType": "address",
          "name": "_addr",
          "type": "address"
        }
      ],
      "name": "setAdmin",
      "outputs": [],
      "stateMutability": "nonpayable",
      "type": "function"
    },
    {
      "inputs": [
        {
          "internalType": "address",
          "name": "operator",
          "type": "address"
        },
        {
          "internalType": "bool",
          "name": "approved",
          "type": "bool"
        }
      ],
      "name": "setApprovalForAll",
      "outputs": [],
      "stateMutability": "nonpayable",
      "type": "function"
    },
    {
      "inputs": [
        {
          "internalType": "uint256",
          "name": "_newCost",
          "type": "uint256"
        }
      ],
      "name": "setCost",
      "outputs": [],
      "stateMutability": "nonpayable",
      "type": "function"
    },
    {
      "inputs": [
        {
          "internalType": "string",
          "name": "_newURI",
          "type": "string"
        }
      ],
      "name": "setInitialURI",
      "outputs": [],
      "stateMutability": "nonpayable",
      "type": "function"
    },
    {
      "inputs": [
        {
          "internalType": "uint256",
          "name": "_value",
          "type": "uint256"
        }
      ],
      "name": "setMaxSupply",
      "outputs": [],
      "stateMutability": "nonpayable",
      "type": "function"
    },
    {
      "inputs": [
        {
          "internalType": "bool",
          "name": "_value",
          "type": "bool"
        }
      ],
      "name": "setPaused",
      "outputs": [],
      "stateMutability": "nonpayable",
      "type": "function"
    },
    {
      "inputs": [
        {
          "internalType": "bool",
          "name": "_value",
          "type": "bool"
        }
      ],
      "name": "setPresale",
      "outputs": [],
      "stateMutability": "nonpayable",
      "type": "function"
    },
    {
      "inputs": [
        {
          "internalType": "bytes4",
          "name": "interfaceId",
          "type": "bytes4"
        }
      ],
      "name": "supportsInterface",
      "outputs": [
        {
          "internalType": "bool",
          "name": "",
          "type": "bool"
        }
      ],
      "stateMutability": "view",
      "type": "function"
    },
    {
      "inputs": [],
      "name": "symbol",
      "outputs": [
        {
          "internalType": "string",
          "name": "",
          "type": "string"
        }
      ],
      "stateMutability": "view",
      "type": "function"
    },
    {
      "inputs": [
        {
          "internalType": "uint256",
          "name": "tokenId",
          "type": "uint256"
        }
      ],
      "name": "tokenURI",
      "outputs": [
        {
          "internalType": "string",
          "name": "",
          "type": "string"
        }
      ],
      "stateMutability": "view",
      "type": "function"
    },
    {
      "inputs": [
        {
          "internalType": "address payable",
          "name": "_addr",
          "type": "address"
        },
        {
          "internalType": "uint256",
          "name": "_amount",
          "type": "uint256"
        }
      ],
      "name": "transfer",
      "outputs": [],
      "stateMutability": "nonpayable",
      "type": "function"
    },
    {
      "inputs": [
        {
          "internalType": "address",
          "name": "from",
          "type": "address"
        },
        {
          "internalType": "address",
          "name": "to",
          "type": "address"
        },
        {
          "internalType": "uint256",
          "name": "tokenId",
          "type": "uint256"
        }
      ],
      "name": "transferFrom",
      "outputs": [],
      "stateMutability": "nonpayable",
      "type": "function"
    },
    {
      "inputs": [
        {
          "internalType": "uint256",
          "name": "_ID",
          "type": "uint256"
        },
        {
          "internalType": "string",
          "name": "_URI",
          "type": "string"
        }
      ],
      "name": "updateOneURI",
      "outputs": [],
      "stateMutability": "nonpayable",
      "type": "function"
    },
    {
      "inputs": [
        {
          "internalType": "uint256[]",
          "name": "_IDs",
          "type": "uint256[]"
        },
        {
          "internalType": "string[]",
          "name": "_URIs",
          "type": "string[]"
        }
      ],
      "name": "updateURIs",
      "outputs": [],
      "stateMutability": "nonpayable",
      "type": "function"
    },
    {
      "inputs": [
        {
          "internalType": "address",
          "name": "",
          "type": "address"
        }
      ],
      "name": "whitelist",
      "outputs": [
        {
          "internalType": "bool",
          "name": "",
          "type": "bool"
        }
      ],
      "stateMutability": "view",
      "type": "function"
    },
    {
      "inputs": [
        {
          "internalType": "address",
          "name": "_addr",
          "type": "address"
        }
      ],
      "name": "whitelistAddress",
      "outputs": [],
      "stateMutability": "nonpayable",
      "type": "function"
    },
    {
      "inputs": [
        {
          "internalType": "address[]",
          "name": "_addrs",
          "type": "address[]"
        }
      ],
      "name": "whitelistBatch",
      "outputs": [],
      "stateMutability": "nonpayable",
      "type": "function"
    },
    {
      "inputs": [
        {
          "internalType": "uint256",
          "name": "_amount",
          "type": "uint256"
        }
      ],
      "name": "withdraw",
      "outputs": [],
      "stateMutability": "nonpayable",
      "type": "function"
    }
  ],
  "bytecode": "0x60806040526001600860006101000a81548160ff0219169083151502179055506000600860016101000a81548160ff021916908315150217905550611e6160095566f8b0a10e470000600a5560405180608001604052806050815260200162004b8b60509139600b90805190602001906200007c929190620001ca565b503480156200008a57600080fd5b506040518060400160405280600d81526020017f48656176656e6c79776f726473000000000000000000000000000000000000008152506040518060400160405280600381526020017f485773000000000000000000000000000000000000000000000000000000000081525081600090805190602001906200010f929190620001ca565b50806001908051906020019062000128929190620001ca565b50505033600c60006101000a81548173ffffffffffffffffffffffffffffffffffffffff021916908373ffffffffffffffffffffffffffffffffffffffff1602179055506001600d60003373ffffffffffffffffffffffffffffffffffffffff1673ffffffffffffffffffffffffffffffffffffffff16815260200190815260200160002060006101000a81548160ff021916908315150217905550620002df565b828054620001d8906200027a565b90600052602060002090601f016020900481019282620001fc576000855562000248565b82601f106200021757805160ff191683800117855562000248565b8280016001018555821562000248579182015b82811115620002475782518255916020019190600101906200022a565b5b5090506200025791906200025b565b5090565b5b80821115620002765760008160009055506001016200025c565b5090565b600060028204905060018216806200029357607f821691505b60208210811415620002aa57620002a9620002b0565b5b50919050565b7f4e487b7100000000000000000000000000000000000000000000000000000000600052602260045260246000fd5b61489c80620002ef6000396000f3fe6080604052600436106102ae5760003560e01c80636805b84b11610175578063a9059cbb116100dc578063c9a2307711610095578063d5abeb011161006f578063d5abeb0114610ae7578063e985e9c514610b12578063eaa5352314610b4f578063fdea8e0b14610b78576102ae565b8063c9a2307714610a61578063ce606ee014610a8c578063d0def52114610ab7576102ae565b8063a9059cbb14610953578063aee99e521461097c578063b88d4fde146109a7578063bd3e19d4146109d0578063c54e73e3146109fb578063c87b56dd14610a24576102ae565b80638ab1d6811161012e5780638ab1d681146108455780638fc3b5491461086e57806395d89b41146108995780639b19251a146108c4578063a22cb46514610901578063a32a7b651461092a576102ae565b80636805b84b146107375780636b845bfe146107625780636f8b44b01461078b578063704b6c02146107b457806370a08231146107dd578063893d20e81461081a576102ae565b80632e298ba31161021957806344a0d68a116101d257806344a0d68a146106275780634c0f38c214610650578063588738201461067b5780635c5b6f49146106a65780635c975abb146106cf5780636352211e146106fa576102ae565b80632e298ba3146104e1578063306a838c1461051e5780633af32abf1461055b578063415665851461059857806342842e0e146105c1578063429b62e5146105ea576102ae565b806316c38b3c1161026b57806316c38b3c146103d75780631785f53c14610400578063185467061461042957806323b872dd1461045257806324d7806c1461047b5780632e1a7d4d146104b8576102ae565b806301ffc9a7146102b357806306fdde03146102f0578063081812fc1461031b578063095ea7b31461035857806312065fe01461038157806313faede6146103ac575b600080fd5b3480156102bf57600080fd5b506102da60048036038101906102d59190613808565b610ba3565b6040516102e79190614107565b60405180910390f35b3480156102fc57600080fd5b50610305610c85565b6040516103129190614122565b60405180910390f35b34801561032757600080fd5b50610342600480360381019061033d919061389b565b610d17565b60405161034f91906140a0565b60405180910390f35b34801561036457600080fd5b5061037f600480360381019061037a91906136f6565b610d9c565b005b34801561038d57600080fd5b50610396610eb4565b6040516103a39190614384565b60405180910390f35b3480156103b857600080fd5b506103c1610f12565b6040516103ce9190614384565b60405180910390f35b3480156103e357600080fd5b506103fe60048036038101906103f991906137df565b610f18565b005b34801561040c57600080fd5b50610427600480360381019061042291906134fb565b610f8b565b005b34801561043557600080fd5b50610450600480360381019061044b9190613773565b611040565b005b34801561045e57600080fd5b506104796004803603810190610474919061359c565b611152565b005b34801561048757600080fd5b506104a2600480360381019061049d91906134fb565b6111b2565b6040516104af9190614107565b60405180910390f35b3480156104c457600080fd5b506104df60048036038101906104da919061389b565b611208565b005b3480156104ed57600080fd5b506105086004803603810190610503919061389b565b6112ac565b6040516105159190614122565b60405180910390f35b34801561052a57600080fd5b506105456004803603810190610540919061389b565b61134c565b6040516105529190614122565b60405180910390f35b34801561056757600080fd5b50610582600480360381019061057d91906134fb565b6113f1565b60405161058f9190614107565b60405180910390f35b3480156105a457600080fd5b506105bf60048036038101906105ba91906134fb565b611447565b005b3480156105cd57600080fd5b506105e860048036038101906105e3919061359c565b6114f8565b005b3480156105f657600080fd5b50610611600480360381019061060c91906134fb565b611518565b60405161061e9190614107565b60405180910390f35b34801561063357600080fd5b5061064e6004803603810190610649919061389b565b611538565b005b34801561065c57600080fd5b5061066561159c565b6040516106729190614384565b60405180910390f35b34801561068757600080fd5b506106906115a6565b60405161069d9190614122565b60405180910390f35b3480156106b257600080fd5b506106cd60048036038101906106c891906138c4565b611638565b005b3480156106db57600080fd5b506106e461169c565b6040516106f19190614107565b60405180910390f35b34801561070657600080fd5b50610721600480360381019061071c919061389b565b6116af565b60405161072e91906140a0565b60405180910390f35b34801561074357600080fd5b5061074c611761565b6040516107599190614107565b60405180910390f35b34801561076e57600080fd5b5061078960048036038101906107849190613732565b611778565b005b34801561079757600080fd5b506107b260048036038101906107ad919061389b565b611889565b005b3480156107c057600080fd5b506107db60048036038101906107d691906134fb565b6118ed565b005b3480156107e957600080fd5b5061080460048036038101906107ff91906134fb565b6119a2565b6040516108119190614384565b60405180910390f35b34801561082657600080fd5b5061082f611a5a565b60405161083c91906140a0565b60405180910390f35b34801561085157600080fd5b5061086c600480360381019061086791906134fb565b611a84565b005b34801561087a57600080fd5b50610883611b35565b6040516108909190614384565b60405180910390f35b3480156108a557600080fd5b506108ae611b9c565b6040516108bb9190614122565b60405180910390f35b3480156108d057600080fd5b506108eb60048036038101906108e691906134fb565b611c2e565b6040516108f89190614107565b60405180910390f35b34801561090d57600080fd5b5061092860048036038101906109239190613666565b611c4e565b005b34801561093657600080fd5b50610951600480360381019061094c919061385a565b611dcf565b005b34801561095f57600080fd5b5061097a60048036038101906109759190613524565b611e3f565b005b34801561098857600080fd5b50610991611ee4565b60405161099e9190614107565b60405180910390f35b3480156109b357600080fd5b506109ce60048036038101906109c991906135eb565b611efb565b005b3480156109dc57600080fd5b506109e5611f5d565b6040516109f29190614384565b60405180910390f35b348015610a0757600080fd5b50610a226004803603810190610a1d91906137df565b611f67565b005b348015610a3057600080fd5b50610a4b6004803603810190610a46919061389b565b611fda565b604051610a589190614122565b60405180910390f35b348015610a6d57600080fd5b50610a7661212c565b604051610a839190614122565b60405180910390f35b348015610a9857600080fd5b50610aa16121ba565b604051610aae91906140a0565b60405180910390f35b610ad16004803603810190610acc91906136a2565b6121e0565b604051610ade9190614384565b60405180910390f35b348015610af357600080fd5b50610afc6123ec565b604051610b099190614384565b60405180910390f35b348015610b1e57600080fd5b50610b396004803603810190610b349190613560565b6123f2565b604051610b469190614107565b60405180910390f35b348015610b5b57600080fd5b50610b766004803603810190610b719190613732565b612486565b005b348015610b8457600080fd5b50610b8d612597565b604051610b9a9190614107565b60405180910390f35b60007f80ac58cd000000000000000000000000000000000000000000000000000000007bffffffffffffffffffffffffffffffffffffffffffffffffffffffff1916827bffffffffffffffffffffffffffffffffffffffffffffffffffffffff19161480610c6e57507f5b5e139f000000000000000000000000000000000000000000000000000000007bffffffffffffffffffffffffffffffffffffffffffffffffffffffff1916827bffffffffffffffffffffffffffffffffffffffffffffffffffffffff1916145b80610c7e5750610c7d826125aa565b5b9050919050565b606060008054610c949061467a565b80601f0160208091040260200160405190810160405280929190818152602001828054610cc09061467a565b8015610d0d5780601f10610ce257610100808354040283529160200191610d0d565b820191906000526020600020905b815481529060010190602001808311610cf057829003601f168201915b5050505050905090565b6000610d2282612614565b610d61576040517f08c379a0000000000000000000000000000000000000000000000000000000008152600401610d58906142a4565b60405180910390fd5b6004600083815260200190815260200160002060009054906101000a900473ffffffffffffffffffffffffffffffffffffffff169050919050565b6000610da7826116af565b90508073ffffffffffffffffffffffffffffffffffffffff168373ffffffffffffffffffffffffffffffffffffffff161415610e18576040517f08c379a0000000000000000000000000000000000000000000000000000000008152600401610e0f90614304565b60405180910390fd5b8073ffffffffffffffffffffffffffffffffffffffff16610e37612680565b73ffffffffffffffffffffffffffffffffffffffff161480610e665750610e6581610e60612680565b6123f2565b5b610ea5576040517f08c379a0000000000000000000000000000000000000000000000000000000008152600401610e9c906141e4565b60405180910390fd5b610eaf8383612688565b505050565b6000600d60003373ffffffffffffffffffffffffffffffffffffffff1673ffffffffffffffffffffffffffffffffffffffff16815260200190815260200160002060009054906101000a900460ff16610f0c57600080fd5b47905090565b600a5481565b600d60003373ffffffffffffffffffffffffffffffffffffffff1673ffffffffffffffffffffffffffffffffffffffff16815260200190815260200160002060009054906101000a900460ff16610f6e57600080fd5b80600860016101000a81548160ff02191690831515021790555050565b600c60009054906101000a900473ffffffffffffffffffffffffffffffffffffffff1673ffffffffffffffffffffffffffffffffffffffff163373ffffffffffffffffffffffffffffffffffffffff1614610fe557600080fd5b6000600d60008373ffffffffffffffffffffffffffffffffffffffff1673ffffffffffffffffffffffffffffffffffffffff16815260200190815260200160002060006101000a81548160ff02191690831515021790555050565b600d60003373ffffffffffffffffffffffffffffffffffffffff1673ffffffffffffffffffffffffffffffffffffffff16815260200190815260200160002060009054906101000a900460ff1661109657600080fd5b80518251146110a457600080fd5b60005b825181101561114d5761113a8382815181106110ec577f4e487b7100000000000000000000000000000000000000000000000000000000600052603260045260246000fd5b602002602001015183838151811061112d577f4e487b7100000000000000000000000000000000000000000000000000000000600052603260045260246000fd5b6020026020010151612741565b8080611145906146ac565b9150506110a7565b505050565b61116361115d612680565b826127b5565b6111a2576040517f08c379a000000000000000000000000000000000000000000000000000000000815260040161119990614324565b60405180910390fd5b6111ad838383612893565b505050565b6000600d60008373ffffffffffffffffffffffffffffffffffffffff1673ffffffffffffffffffffffffffffffffffffffff16815260200190815260200160002060009054906101000a900460ff169050919050565b600c60009054906101000a900473ffffffffffffffffffffffffffffffffffffffff1673ffffffffffffffffffffffffffffffffffffffff163373ffffffffffffffffffffffffffffffffffffffff161461126257600080fd5b3373ffffffffffffffffffffffffffffffffffffffff166108fc829081150290604051600060405180830381858888f193505050501580156112a8573d6000803e3d6000fd5b5050565b600f60205280600052604060002060009150905080546112cb9061467a565b80601f01602080910402602001604051908101604052809291908181526020018280546112f79061467a565b80156113445780601f1061131957610100808354040283529160200191611344565b820191906000526020600020905b81548152906001019060200180831161132757829003601f168201915b505050505081565b6060600f6000838152602001908152602001600020805461136c9061467a565b80601f01602080910402602001604051908101604052809291908181526020018280546113989061467a565b80156113e55780601f106113ba576101008083540402835291602001916113e5565b820191906000526020600020905b8154815290600101906020018083116113c857829003601f168201915b50505050509050919050565b6000600e60008373ffffffffffffffffffffffffffffffffffffffff1673ffffffffffffffffffffffffffffffffffffffff16815260200190815260200160002060009054906101000a900460ff169050919050565b600d60003373ffffffffffffffffffffffffffffffffffffffff1673ffffffffffffffffffffffffffffffffffffffff16815260200190815260200160002060009054906101000a900460ff1661149d57600080fd5b6001600e60008373ffffffffffffffffffffffffffffffffffffffff1673ffffffffffffffffffffffffffffffffffffffff16815260200190815260200160002060006101000a81548160ff02191690831515021790555050565b61151383838360405180602001604052806000815250611efb565b505050565b600d6020528060005260406000206000915054906101000a900460ff1681565b600c60009054906101000a900473ffffffffffffffffffffffffffffffffffffffff1673ffffffffffffffffffffffffffffffffffffffff163373ffffffffffffffffffffffffffffffffffffffff161461159257600080fd5b80600a8190555050565b6000600954905090565b6060600b80546115b59061467a565b80601f01602080910402602001604051908101604052809291908181526020018280546115e19061467a565b801561162e5780601f106116035761010080835404028352916020019161162e565b820191906000526020600020905b81548152906001019060200180831161161157829003601f168201915b5050505050905090565b600d60003373ffffffffffffffffffffffffffffffffffffffff1673ffffffffffffffffffffffffffffffffffffffff16815260200190815260200160002060009054906101000a900460ff1661168e57600080fd5b6116988282612741565b5050565b600860019054906101000a900460ff1681565b6000806002600084815260200190815260200160002060009054906101000a900473ffffffffffffffffffffffffffffffffffffffff169050600073ffffffffffffffffffffffffffffffffffffffff168173ffffffffffffffffffffffffffffffffffffffff161415611758576040517f08c379a000000000000000000000000000000000000000000000000000000000815260040161174f90614224565b60405180910390fd5b80915050919050565b6000600860019054906101000a900460ff16905090565b600d60003373ffffffffffffffffffffffffffffffffffffffff1673ffffffffffffffffffffffffffffffffffffffff16815260200190815260200160002060009054906101000a900460ff166117ce57600080fd5b60005b8151811015611885576000600e6000848481518110611819577f4e487b7100000000000000000000000000000000000000000000000000000000600052603260045260246000fd5b602002602001015173ffffffffffffffffffffffffffffffffffffffff1673ffffffffffffffffffffffffffffffffffffffff16815260200190815260200160002060006101000a81548160ff021916908315150217905550808061187d906146ac565b9150506117d1565b5050565b600c60009054906101000a900473ffffffffffffffffffffffffffffffffffffffff1673ffffffffffffffffffffffffffffffffffffffff163373ffffffffffffffffffffffffffffffffffffffff16146118e357600080fd5b8060098190555050565b600c60009054906101000a900473ffffffffffffffffffffffffffffffffffffffff1673ffffffffffffffffffffffffffffffffffffffff163373ffffffffffffffffffffffffffffffffffffffff161461194757600080fd5b6001600d60008373ffffffffffffffffffffffffffffffffffffffff1673ffffffffffffffffffffffffffffffffffffffff16815260200190815260200160002060006101000a81548160ff02191690831515021790555050565b60008073ffffffffffffffffffffffffffffffffffffffff168273ffffffffffffffffffffffffffffffffffffffff161415611a13576040517f08c379a0000000000000000000000000000000000000000000000000000000008152600401611a0a90614204565b60405180910390fd5b600360008373ffffffffffffffffffffffffffffffffffffffff1673ffffffffffffffffffffffffffffffffffffffff168152602001908152602001600020549050919050565b6000600c60009054906101000a900473ffffffffffffffffffffffffffffffffffffffff16905090565b600d60003373ffffffffffffffffffffffffffffffffffffffff1673ffffffffffffffffffffffffffffffffffffffff16815260200190815260200160002060009054906101000a900460ff16611ada57600080fd5b6000600e60008373ffffffffffffffffffffffffffffffffffffffff1673ffffffffffffffffffffffffffffffffffffffff16815260200190815260200160002060006101000a81548160ff02191690831515021790555050565b6000600d60003373ffffffffffffffffffffffffffffffffffffffff1673ffffffffffffffffffffffffffffffffffffffff16815260200190815260200160002060009054906101000a900460ff16611b8d57600080fd5b611b976007612aef565b905090565b606060018054611bab9061467a565b80601f0160208091040260200160405190810160405280929190818152602001828054611bd79061467a565b8015611c245780601f10611bf957610100808354040283529160200191611c24565b820191906000526020600020905b815481529060010190602001808311611c0757829003601f168201915b5050505050905090565b600e6020528060005260406000206000915054906101000a900460ff1681565b611c56612680565b73ffffffffffffffffffffffffffffffffffffffff168273ffffffffffffffffffffffffffffffffffffffff161415611cc4576040517f08c379a0000000000000000000000000000000000000000000000000000000008152600401611cbb906141a4565b60405180910390fd5b8060056000611cd1612680565b73ffffffffffffffffffffffffffffffffffffffff1673ffffffffffffffffffffffffffffffffffffffff16815260200190815260200160002060008473ffffffffffffffffffffffffffffffffffffffff1673ffffffffffffffffffffffffffffffffffffffff16815260200190815260200160002060006101000a81548160ff0219169083151502179055508173ffffffffffffffffffffffffffffffffffffffff16611d7e612680565b73ffffffffffffffffffffffffffffffffffffffff167f17307eab39ab6107e8899845ad3d59bd9653f200f220920489ca2b5937696c3183604051611dc39190614107565b60405180910390a35050565b600d60003373ffffffffffffffffffffffffffffffffffffffff1673ffffffffffffffffffffffffffffffffffffffff16815260200190815260200160002060009054906101000a900460ff16611e2557600080fd5b80600b9080519060200190611e3b929190613157565b5050565b600c60009054906101000a900473ffffffffffffffffffffffffffffffffffffffff1673ffffffffffffffffffffffffffffffffffffffff163373ffffffffffffffffffffffffffffffffffffffff1614611e9957600080fd5b8173ffffffffffffffffffffffffffffffffffffffff166108fc829081150290604051600060405180830381858888f19350505050158015611edf573d6000803e3d6000fd5b505050565b6000600860009054906101000a900460ff16905090565b611f0c611f06612680565b836127b5565b611f4b576040517f08c379a0000000000000000000000000000000000000000000000000000000008152600401611f4290614324565b60405180910390fd5b611f5784848484612afd565b50505050565b6000600a54905090565b600d60003373ffffffffffffffffffffffffffffffffffffffff1673ffffffffffffffffffffffffffffffffffffffff16815260200190815260200160002060009054906101000a900460ff16611fbd57600080fd5b80600860006101000a81548160ff02191690831515021790555050565b6060611fe582612614565b612024576040517f08c379a000000000000000000000000000000000000000000000000000000000815260040161201b90614284565b60405180910390fd5b60006006600084815260200190815260200160002080546120449061467a565b80601f01602080910402602001604051908101604052809291908181526020018280546120709061467a565b80156120bd5780601f10612092576101008083540402835291602001916120bd565b820191906000526020600020905b8154815290600101906020018083116120a057829003601f168201915b5050505050905060006120ce612b59565b90506000815114156120e4578192505050612127565b60008251111561211957808260405160200161210192919061407c565b60405160208183030381529060405292505050612127565b61212284612b70565b925050505b919050565b600b80546121399061467a565b80601f01602080910402602001604051908101604052809291908181526020018280546121659061467a565b80156121b25780601f10612187576101008083540402835291602001916121b2565b820191906000526020600020905b81548152906001019060200180831161219557829003601f168201915b505050505081565b600c60009054906101000a900473ffffffffffffffffffffffffffffffffffffffff1681565b6000600860019054906101000a900460ff1615612232576040517f08c379a000000000000000000000000000000000000000000000000000000000815260040161222990614344565b60405180910390fd5b600c60009054906101000a900473ffffffffffffffffffffffffffffffffffffffff1673ffffffffffffffffffffffffffffffffffffffff163373ffffffffffffffffffffffffffffffffffffffff16146122f557600860009054906101000a900460ff16156122af576122a5836113f1565b6122ae57600080fd5b5b600a543410156122f4576040517f08c379a00000000000000000000000000000000000000000000000000000000081526004016122eb90614364565b60405180910390fd5b5b6122ff6007612c17565b600061230b6007612aef565b905060095481111561231c57600080fd5b6123268482612c2d565b6123ba81600b80546123379061467a565b80601f01602080910402602001604051908101604052809291908181526020018280546123639061467a565b80156123b05780601f10612385576101008083540402835291602001916123b0565b820191906000526020600020905b81548152906001019060200180831161239357829003601f168201915b5050505050612741565b82600f600083815260200190815260200160002090805190602001906123e1929190613157565b508091505092915050565b60095481565b6000600560008473ffffffffffffffffffffffffffffffffffffffff1673ffffffffffffffffffffffffffffffffffffffff16815260200190815260200160002060008373ffffffffffffffffffffffffffffffffffffffff1673ffffffffffffffffffffffffffffffffffffffff16815260200190815260200160002060009054906101000a900460ff16905092915050565b600d60003373ffffffffffffffffffffffffffffffffffffffff1673ffffffffffffffffffffffffffffffffffffffff16815260200190815260200160002060009054906101000a900460ff166124dc57600080fd5b60005b8151811015612593576001600e6000848481518110612527577f4e487b7100000000000000000000000000000000000000000000000000000000600052603260045260246000fd5b602002602001015173ffffffffffffffffffffffffffffffffffffffff1673ffffffffffffffffffffffffffffffffffffffff16815260200190815260200160002060006101000a81548160ff021916908315150217905550808061258b906146ac565b9150506124df565b5050565b600860009054906101000a900460ff1681565b60007f01ffc9a7000000000000000000000000000000000000000000000000000000007bffffffffffffffffffffffffffffffffffffffffffffffffffffffff1916827bffffffffffffffffffffffffffffffffffffffffffffffffffffffff1916149050919050565b60008073ffffffffffffffffffffffffffffffffffffffff166002600084815260200190815260200160002060009054906101000a900473ffffffffffffffffffffffffffffffffffffffff1673ffffffffffffffffffffffffffffffffffffffff1614159050919050565b600033905090565b816004600083815260200190815260200160002060006101000a81548173ffffffffffffffffffffffffffffffffffffffff021916908373ffffffffffffffffffffffffffffffffffffffff160217905550808273ffffffffffffffffffffffffffffffffffffffff166126fb836116af565b73ffffffffffffffffffffffffffffffffffffffff167f8c5be1e5ebec7d5bd14f71427d1e84f3dd0314c0f7b2291e5b200ac8c7c3b92560405160405180910390a45050565b61274a82612614565b612789576040517f08c379a000000000000000000000000000000000000000000000000000000000815260040161278090614244565b60405180910390fd5b806006600084815260200190815260200160002090805190602001906127b0929190613157565b505050565b60006127c082612614565b6127ff576040517f08c379a00000000000000000000000000000000000000000000000000000000081526004016127f6906141c4565b60405180910390fd5b600061280a836116af565b90508073ffffffffffffffffffffffffffffffffffffffff168473ffffffffffffffffffffffffffffffffffffffff16148061287957508373ffffffffffffffffffffffffffffffffffffffff1661286184610d17565b73ffffffffffffffffffffffffffffffffffffffff16145b8061288a575061288981856123f2565b5b91505092915050565b8273ffffffffffffffffffffffffffffffffffffffff166128b3826116af565b73ffffffffffffffffffffffffffffffffffffffff1614612909576040517f08c379a0000000000000000000000000000000000000000000000000000000008152600401612900906142c4565b60405180910390fd5b600073ffffffffffffffffffffffffffffffffffffffff168273ffffffffffffffffffffffffffffffffffffffff161415612979576040517f08c379a000000000000000000000000000000000000000000000000000000000815260040161297090614184565b60405180910390fd5b612984838383612dfb565b61298f600082612688565b6001600360008573ffffffffffffffffffffffffffffffffffffffff1673ffffffffffffffffffffffffffffffffffffffff16815260200190815260200160002060008282546129df919061457e565b925050819055506001600360008473ffffffffffffffffffffffffffffffffffffffff1673ffffffffffffffffffffffffffffffffffffffff1681526020019081526020016000206000828254612a3691906144f7565b92505081905550816002600083815260200190815260200160002060006101000a81548173ffffffffffffffffffffffffffffffffffffffff021916908373ffffffffffffffffffffffffffffffffffffffff160217905550808273ffffffffffffffffffffffffffffffffffffffff168473ffffffffffffffffffffffffffffffffffffffff167fddf252ad1be2c89b69c2b068fc378daa952ba7f163c4a11628f55a4df523b3ef60405160405180910390a4505050565b600081600001549050919050565b612b08848484612893565b612b1484848484612e00565b612b53576040517f08c379a0000000000000000000000000000000000000000000000000000000008152600401612b4a90614144565b60405180910390fd5b50505050565b606060405180602001604052806000815250905090565b6060612b7b82612614565b612bba576040517f08c379a0000000000000000000000000000000000000000000000000000000008152600401612bb1906142e4565b60405180910390fd5b6000612bc4612b59565b90506000815111612be45760405180602001604052806000815250612c0f565b80612bee84612f97565b604051602001612bff92919061407c565b6040516020818303038152906040525b915050919050565b6001816000016000828254019250508190555050565b600073ffffffffffffffffffffffffffffffffffffffff168273ffffffffffffffffffffffffffffffffffffffff161415612c9d576040517f08c379a0000000000000000000000000000000000000000000000000000000008152600401612c9490614264565b60405180910390fd5b612ca681612614565b15612ce6576040517f08c379a0000000000000000000000000000000000000000000000000000000008152600401612cdd90614164565b60405180910390fd5b612cf260008383612dfb565b6001600360008473ffffffffffffffffffffffffffffffffffffffff1673ffffffffffffffffffffffffffffffffffffffff1681526020019081526020016000206000828254612d4291906144f7565b92505081905550816002600083815260200190815260200160002060006101000a81548173ffffffffffffffffffffffffffffffffffffffff021916908373ffffffffffffffffffffffffffffffffffffffff160217905550808273ffffffffffffffffffffffffffffffffffffffff16600073ffffffffffffffffffffffffffffffffffffffff167fddf252ad1be2c89b69c2b068fc378daa952ba7f163c4a11628f55a4df523b3ef60405160405180910390a45050565b505050565b6000612e218473ffffffffffffffffffffffffffffffffffffffff16613144565b15612f8a578373ffffffffffffffffffffffffffffffffffffffff1663150b7a02612e4a612680565b8786866040518563ffffffff1660e01b8152600401612e6c94939291906140bb565b602060405180830381600087803b158015612e8657600080fd5b505af1925050508015612eb757506040513d601f19601f82011682018060405250810190612eb49190613831565b60015b612f3a573d8060008114612ee7576040519150601f19603f3d011682016040523d82523d6000602084013e612eec565b606091505b50600081511415612f32576040517f08c379a0000000000000000000000000000000000000000000000000000000008152600401612f2990614144565b60405180910390fd5b805181602001fd5b63150b7a0260e01b7bffffffffffffffffffffffffffffffffffffffffffffffffffffffff1916817bffffffffffffffffffffffffffffffffffffffffffffffffffffffff191614915050612f8f565b600190505b949350505050565b60606000821415612fdf576040518060400160405280600181526020017f3000000000000000000000000000000000000000000000000000000000000000815250905061313f565b600082905060005b60008214613011578080612ffa906146ac565b915050600a8261300a919061454d565b9150612fe7565b60008167ffffffffffffffff811115613053577f4e487b7100000000000000000000000000000000000000000000000000000000600052604160045260246000fd5b6040519080825280601f01601f1916602001820160405280156130855781602001600182028036833780820191505090505b5090505b600085146131385760018261309e919061457e565b9150600a856130ad91906146f5565b60306130b991906144f7565b60f81b8183815181106130f5577f4e487b7100000000000000000000000000000000000000000000000000000000600052603260045260246000fd5b60200101907effffffffffffffffffffffffffffffffffffffffffffffffffffffffffffff1916908160001a905350600a85613131919061454d565b9450613089565b8093505050505b919050565b600080823b905060008111915050919050565b8280546131639061467a565b90600052602060002090601f01602090048101928261318557600085556131cc565b82601f1061319e57805160ff19168380011785556131cc565b828001600101855582156131cc579182015b828111156131cb5782518255916020019190600101906131b0565b5b5090506131d991906131dd565b5090565b5b808211156131f65760008160009055506001016131de565b5090565b600061320d613208846143d0565b61439f565b9050808382526020820190508285602086028201111561322c57600080fd5b60005b8581101561325c578161324288826133ab565b84526020840193506020830192505060018101905061322f565b5050509392505050565b6000613279613274846143fc565b61439f565b9050808382526020820190508260005b858110156132b9578135850161329f88826134bc565b845260208401935060208301925050600181019050613289565b5050509392505050565b60006132d66132d184614428565b61439f565b905080838252602082019050828560208602820111156132f557600080fd5b60005b85811015613325578161330b88826134e6565b8452602084019350602083019250506001810190506132f8565b5050509392505050565b600061334261333d84614454565b61439f565b90508281526020810184848401111561335a57600080fd5b613365848285614638565b509392505050565b600061338061337b84614484565b61439f565b90508281526020810184848401111561339857600080fd5b6133a3848285614638565b509392505050565b6000813590506133ba816147f3565b92915050565b6000813590506133cf8161480a565b92915050565b600082601f8301126133e657600080fd5b81356133f68482602086016131fa565b91505092915050565b600082601f83011261341057600080fd5b8135613420848260208601613266565b91505092915050565b600082601f83011261343a57600080fd5b813561344a8482602086016132c3565b91505092915050565b60008135905061346281614821565b92915050565b60008135905061347781614838565b92915050565b60008151905061348c81614838565b92915050565b600082601f8301126134a357600080fd5b81356134b384826020860161332f565b91505092915050565b600082601f8301126134cd57600080fd5b81356134dd84826020860161336d565b91505092915050565b6000813590506134f58161484f565b92915050565b60006020828403121561350d57600080fd5b600061351b848285016133ab565b91505092915050565b6000806040838503121561353757600080fd5b6000613545858286016133c0565b9250506020613556858286016134e6565b9150509250929050565b6000806040838503121561357357600080fd5b6000613581858286016133ab565b9250506020613592858286016133ab565b9150509250929050565b6000806000606084860312156135b157600080fd5b60006135bf868287016133ab565b93505060206135d0868287016133ab565b92505060406135e1868287016134e6565b9150509250925092565b6000806000806080858703121561360157600080fd5b600061360f878288016133ab565b9450506020613620878288016133ab565b9350506040613631878288016134e6565b925050606085013567ffffffffffffffff81111561364e57600080fd5b61365a87828801613492565b91505092959194509250565b6000806040838503121561367957600080fd5b6000613687858286016133ab565b925050602061369885828601613453565b9150509250929050565b600080604083850312156136b557600080fd5b60006136c3858286016133ab565b925050602083013567ffffffffffffffff8111156136e057600080fd5b6136ec858286016134bc565b9150509250929050565b6000806040838503121561370957600080fd5b6000613717858286016133ab565b9250506020613728858286016134e6565b9150509250929050565b60006020828403121561374457600080fd5b600082013567ffffffffffffffff81111561375e57600080fd5b61376a848285016133d5565b91505092915050565b6000806040838503121561378657600080fd5b600083013567ffffffffffffffff8111156137a057600080fd5b6137ac85828601613429565b925050602083013567ffffffffffffffff8111156137c957600080fd5b6137d5858286016133ff565b9150509250929050565b6000602082840312156137f157600080fd5b60006137ff84828501613453565b91505092915050565b60006020828403121561381a57600080fd5b600061382884828501613468565b91505092915050565b60006020828403121561384357600080fd5b60006138518482850161347d565b91505092915050565b60006020828403121561386c57600080fd5b600082013567ffffffffffffffff81111561388657600080fd5b613892848285016134bc565b91505092915050565b6000602082840312156138ad57600080fd5b60006138bb848285016134e6565b91505092915050565b600080604083850312156138d757600080fd5b60006138e5858286016134e6565b925050602083013567ffffffffffffffff81111561390257600080fd5b61390e858286016134bc565b9150509250929050565b613921816145b2565b82525050565b613930816145d6565b82525050565b6000613941826144b4565b61394b81856144ca565b935061395b818560208601614647565b613964816147e2565b840191505092915050565b600061397a826144bf565b61398481856144db565b9350613994818560208601614647565b61399d816147e2565b840191505092915050565b60006139b3826144bf565b6139bd81856144ec565b93506139cd818560208601614647565b80840191505092915050565b60006139e66032836144db565b91507f4552433732313a207472616e7366657220746f206e6f6e20455243373231526560008301527f63656976657220696d706c656d656e74657200000000000000000000000000006020830152604082019050919050565b6000613a4c601c836144db565b91507f4552433732313a20746f6b656e20616c7265616479206d696e746564000000006000830152602082019050919050565b6000613a8c6024836144db565b91507f4552433732313a207472616e7366657220746f20746865207a65726f2061646460008301527f72657373000000000000000000000000000000000000000000000000000000006020830152604082019050919050565b6000613af26019836144db565b91507f4552433732313a20617070726f766520746f2063616c6c6572000000000000006000830152602082019050919050565b6000613b32602c836144db565b91507f4552433732313a206f70657261746f7220717565727920666f72206e6f6e657860008301527f697374656e7420746f6b656e00000000000000000000000000000000000000006020830152604082019050919050565b6000613b986038836144db565b91507f4552433732313a20617070726f76652063616c6c6572206973206e6f74206f7760008301527f6e6572206e6f7220617070726f76656420666f7220616c6c00000000000000006020830152604082019050919050565b6000613bfe602a836144db565b91507f4552433732313a2062616c616e636520717565727920666f7220746865207a6560008301527f726f2061646472657373000000000000000000000000000000000000000000006020830152604082019050919050565b6000613c646029836144db565b91507f4552433732313a206f776e657220717565727920666f72206e6f6e657869737460008301527f656e7420746f6b656e00000000000000000000000000000000000000000000006020830152604082019050919050565b6000613cca602e836144db565b91507f45524337323155524953746f726167653a2055524920736574206f66206e6f6e60008301527f6578697374656e7420746f6b656e0000000000000000000000000000000000006020830152604082019050919050565b6000613d306020836144db565b91507f4552433732313a206d696e7420746f20746865207a65726f20616464726573736000830152602082019050919050565b6000613d706031836144db565b91507f45524337323155524953746f726167653a2055524920717565727920666f722060008301527f6e6f6e6578697374656e7420746f6b656e0000000000000000000000000000006020830152604082019050919050565b6000613dd6602c836144db565b91507f4552433732313a20617070726f76656420717565727920666f72206e6f6e657860008301527f697374656e7420746f6b656e00000000000000000000000000000000000000006020830152604082019050919050565b6000613e3c6029836144db565b91507f4552433732313a207472616e73666572206f6620746f6b656e2074686174206960008301527f73206e6f74206f776e00000000000000000000000000000000000000000000006020830152604082019050919050565b6000613ea2602f836144db565b91507f4552433732314d657461646174613a2055524920717565727920666f72206e6f60008301527f6e6578697374656e7420746f6b656e00000000000000000000000000000000006020830152604082019050919050565b6000613f086021836144db565b91507f4552433732313a20617070726f76616c20746f2063757272656e74206f776e6560008301527f72000000000000000000000000000000000000000000000000000000000000006020830152604082019050919050565b6000613f6e6031836144db565b91507f4552433732313a207472616e736665722063616c6c6572206973206e6f74206f60008301527f776e6572206e6f7220617070726f7665640000000000000000000000000000006020830152604082019050919050565b6000613fd46011836144db565b91507f4d696e74696e67206973207061757365640000000000000000000000000000006000830152602082019050919050565b60006140146021836144db565b91507f4e6f7420656e6f756768204554482073656e743b20636865636b20707269636560008301527f21000000000000000000000000000000000000000000000000000000000000006020830152604082019050919050565b6140768161462e565b82525050565b600061408882856139a8565b915061409482846139a8565b91508190509392505050565b60006020820190506140b56000830184613918565b92915050565b60006080820190506140d06000830187613918565b6140dd6020830186613918565b6140ea604083018561406d565b81810360608301526140fc8184613936565b905095945050505050565b600060208201905061411c6000830184613927565b92915050565b6000602082019050818103600083015261413c818461396f565b905092915050565b6000602082019050818103600083015261415d816139d9565b9050919050565b6000602082019050818103600083015261417d81613a3f565b9050919050565b6000602082019050818103600083015261419d81613a7f565b9050919050565b600060208201905081810360008301526141bd81613ae5565b9050919050565b600060208201905081810360008301526141dd81613b25565b9050919050565b600060208201905081810360008301526141fd81613b8b565b9050919050565b6000602082019050818103600083015261421d81613bf1565b9050919050565b6000602082019050818103600083015261423d81613c57565b9050919050565b6000602082019050818103600083015261425d81613cbd565b9050919050565b6000602082019050818103600083015261427d81613d23565b9050919050565b6000602082019050818103600083015261429d81613d63565b9050919050565b600060208201905081810360008301526142bd81613dc9565b9050919050565b600060208201905081810360008301526142dd81613e2f565b9050919050565b600060208201905081810360008301526142fd81613e95565b9050919050565b6000602082019050818103600083015261431d81613efb565b9050919050565b6000602082019050818103600083015261433d81613f61565b9050919050565b6000602082019050818103600083015261435d81613fc7565b9050919050565b6000602082019050818103600083015261437d81614007565b9050919050565b6000602082019050614399600083018461406d565b92915050565b6000604051905081810181811067ffffffffffffffff821117156143c6576143c56147b3565b5b8060405250919050565b600067ffffffffffffffff8211156143eb576143ea6147b3565b5b602082029050602081019050919050565b600067ffffffffffffffff821115614417576144166147b3565b5b602082029050602081019050919050565b600067ffffffffffffffff821115614443576144426147b3565b5b602082029050602081019050919050565b600067ffffffffffffffff82111561446f5761446e6147b3565b5b601f19601f8301169050602081019050919050565b600067ffffffffffffffff82111561449f5761449e6147b3565b5b601f19601f8301169050602081019050919050565b600081519050919050565b600081519050919050565b600082825260208201905092915050565b600082825260208201905092915050565b600081905092915050565b60006145028261462e565b915061450d8361462e565b9250827fffffffffffffffffffffffffffffffffffffffffffffffffffffffffffffffff0382111561454257614541614726565b5b828201905092915050565b60006145588261462e565b91506145638361462e565b92508261457357614572614755565b5b828204905092915050565b60006145898261462e565b91506145948361462e565b9250828210156145a7576145a6614726565b5b828203905092915050565b60006145bd8261460e565b9050919050565b60006145cf8261460e565b9050919050565b60008115159050919050565b60007fffffffff0000000000000000000000000000000000000000000000000000000082169050919050565b600073ffffffffffffffffffffffffffffffffffffffff82169050919050565b6000819050919050565b82818337600083830152505050565b60005b8381101561466557808201518184015260208101905061464a565b83811115614674576000848401525b50505050565b6000600282049050600182168061469257607f821691505b602082108114156146a6576146a5614784565b5b50919050565b60006146b78261462e565b91507fffffffffffffffffffffffffffffffffffffffffffffffffffffffffffffffff8214156146ea576146e9614726565b5b600182019050919050565b60006147008261462e565b915061470b8361462e565b92508261471b5761471a614755565b5b828206905092915050565b7f4e487b7100000000000000000000000000000000000000000000000000000000600052601160045260246000fd5b7f4e487b7100000000000000000000000000000000000000000000000000000000600052601260045260246000fd5b7f4e487b7100000000000000000000000000000000000000000000000000000000600052602260045260246000fd5b7f4e487b7100000000000000000000000000000000000000000000000000000000600052604160045260246000fd5b6000601f19601f8301169050919050565b6147fc816145b2565b811461480757600080fd5b50565b614813816145c4565b811461481e57600080fd5b50565b61482a816145d6565b811461483557600080fd5b50565b614841816145e2565b811461484c57600080fd5b50565b6148588161462e565b811461486357600080fd5b5056fea2646970667358221220b2aead6a4351b2a6e8d25bddcf4b256ebbeca3b8b5700124f196d5b822e1b04364736f6c6343000800003368747470733a2f2f676174657761792e70696e6174612e636c6f75642f697066732f516d523139767671487765746646707264433356735643644a674e5646544d654362756354576850765131506631",
  "linkReferences": {},
  "deployedLinkReferences": {}
}