{
  "_format": "hh-sol-artifact-1",
  "contractName": "MyNFT",
  "sourceName": "contracts/MyNFT.sol",
  "abi": [
    {
      "inputs": [],
      "stateMutability": "nonpayable",
      "type": "constructor"
    },
    {
      "anonymous": false,
      "inputs": [
        {
          "indexed": true,
          "internalType": "address",
          "name": "owner",
          "type": "address"
        },
        {
          "indexed": true,
          "internalType": "address",
          "name": "approved",
          "type": "address"
        },
        {
          "indexed": true,
          "internalType": "uint256",
          "name": "tokenId",
          "type": "uint256"
        }
      ],
      "name": "Approval",
      "type": "event"
    },
    {
      "anonymous": false,
      "inputs": [
        {
          "indexed": true,
          "internalType": "address",
          "name": "owner",
          "type": "address"
        },
        {
          "indexed": true,
          "internalType": "address",
          "name": "operator",
          "type": "address"
        },
        {
          "indexed": false,
          "internalType": "bool",
          "name": "approved",
          "type": "bool"
        }
      ],
      "name": "ApprovalForAll",
      "type": "event"
    },
    {
      "anonymous": false,
      "inputs": [
        {
          "indexed": true,
          "internalType": "address",
          "name": "from",
          "type": "address"
        },
        {
          "indexed": true,
          "internalType": "address",
          "name": "to",
          "type": "address"
        },
        {
          "indexed": true,
          "internalType": "uint256",
          "name": "tokenId",
          "type": "uint256"
        }
      ],
      "name": "Transfer",
      "type": "event"
    },
    {
      "inputs": [
        {
          "internalType": "address",
          "name": "",
          "type": "address"
        }
      ],
      "name": "admins",
      "outputs": [
        {
          "internalType": "bool",
          "name": "",
          "type": "bool"
        }
      ],
      "stateMutability": "view",
      "type": "function"
    },
    {
      "inputs": [
        {
          "internalType": "address",
          "name": "to",
          "type": "address"
        },
        {
          "internalType": "uint256",
          "name": "tokenId",
          "type": "uint256"
        }
      ],
      "name": "approve",
      "outputs": [],
      "stateMutability": "nonpayable",
      "type": "function"
    },
    {
      "inputs": [
        {
          "internalType": "address",
          "name": "owner",
          "type": "address"
        }
      ],
      "name": "balanceOf",
      "outputs": [
        {
          "internalType": "uint256",
          "name": "",
          "type": "uint256"
        }
      ],
      "stateMutability": "view",
      "type": "function"
    },
    {
      "inputs": [],
      "name": "cost",
      "outputs": [
        {
          "internalType": "uint256",
          "name": "",
          "type": "uint256"
        }
      ],
      "stateMutability": "view",
      "type": "function"
    },
    {
      "inputs": [
        {
          "internalType": "uint256",
          "name": "tokenId",
          "type": "uint256"
        }
      ],
      "name": "getApproved",
      "outputs": [
        {
          "internalType": "address",
          "name": "",
          "type": "address"
        }
      ],
      "stateMutability": "view",
      "type": "function"
    },
    {
      "inputs": [],
      "name": "getBalance",
      "outputs": [
        {
          "internalType": "uint256",
          "name": "",
          "type": "uint256"
        }
      ],
      "stateMutability": "view",
      "type": "function"
    },
    {
      "inputs": [],
      "name": "getCost",
      "outputs": [
        {
          "internalType": "uint256",
          "name": "",
          "type": "uint256"
        }
      ],
      "stateMutability": "view",
      "type": "function"
    },
    {
      "inputs": [],
      "name": "getInitialURI",
      "outputs": [
        {
          "internalType": "string",
          "name": "",
          "type": "string"
        }
      ],
      "stateMutability": "view",
      "type": "function"
    },
    {
      "inputs": [],
      "name": "getMaxSupply",
      "outputs": [
        {
          "internalType": "uint256",
          "name": "",
          "type": "uint256"
        }
      ],
      "stateMutability": "view",
      "type": "function"
    },
    {
      "inputs": [],
      "name": "getMintCount",
      "outputs": [
        {
          "internalType": "uint256",
          "name": "",
          "type": "uint256"
        }
      ],
      "stateMutability": "view",
      "type": "function"
    },
    {
      "inputs": [],
      "name": "getOwner",
      "outputs": [
        {
          "internalType": "address",
          "name": "",
          "type": "address"
        }
      ],
      "stateMutability": "view",
      "type": "function"
    },
    {
      "inputs": [],
      "name": "getPaused",
      "outputs": [
        {
          "internalType": "bool",
          "name": "",
          "type": "bool"
        }
      ],
      "stateMutability": "view",
      "type": "function"
    },
    {
      "inputs": [],
      "name": "getPresale",
      "outputs": [
        {
          "internalType": "bool",
          "name": "",
          "type": "bool"
        }
      ],
      "stateMutability": "view",
      "type": "function"
    },
    {
      "inputs": [],
      "name": "getRevaledTokens",
      "outputs": [
        {
          "internalType": "uint256",
          "name": "",
          "type": "uint256"
        }
      ],
      "stateMutability": "view",
      "type": "function"
    },
    {
      "inputs": [
        {
          "internalType": "uint256",
          "name": "",
          "type": "uint256"
        }
      ],
      "name": "idToUri",
      "outputs": [
        {
          "internalType": "string",
          "name": "",
          "type": "string"
        }
      ],
      "stateMutability": "view",
      "type": "function"
    },
    {
      "inputs": [],
      "name": "initialURI",
      "outputs": [
        {
          "internalType": "string",
          "name": "",
          "type": "string"
        }
      ],
      "stateMutability": "view",
      "type": "function"
    },
    {
      "inputs": [
        {
          "internalType": "address",
          "name": "_addr",
          "type": "address"
        }
      ],
      "name": "isAdmin",
      "outputs": [
        {
          "internalType": "bool",
          "name": "",
          "type": "bool"
        }
      ],
      "stateMutability": "view",
      "type": "function"
    },
    {
      "inputs": [
        {
          "internalType": "address",
          "name": "owner",
          "type": "address"
        },
        {
          "internalType": "address",
          "name": "operator",
          "type": "address"
        }
      ],
      "name": "isApprovedForAll",
      "outputs": [
        {
          "internalType": "bool",
          "name": "",
          "type": "bool"
        }
      ],
      "stateMutability": "view",
      "type": "function"
    },
    {
      "inputs": [
        {
          "internalType": "address",
          "name": "_addr",
          "type": "address"
        }
      ],
      "name": "isWhitelisted",
      "outputs": [
        {
          "internalType": "bool",
          "name": "",
          "type": "bool"
        }
      ],
      "stateMutability": "view",
      "type": "function"
    },
    {
      "inputs": [],
      "name": "maxSupply",
      "outputs": [
        {
          "internalType": "uint256",
          "name": "",
          "type": "uint256"
        }
      ],
      "stateMutability": "view",
      "type": "function"
    },
    {
      "inputs": [
        {
          "internalType": "address",
          "name": "_recipient",
          "type": "address"
        }
      ],
      "name": "mintNFT",
      "outputs": [
        {
          "internalType": "uint256",
          "name": "",
          "type": "uint256"
        }
      ],
      "stateMutability": "payable",
      "type": "function"
    },
    {
      "inputs": [],
      "name": "name",
      "outputs": [
        {
          "internalType": "string",
          "name": "",
          "type": "string"
        }
      ],
      "stateMutability": "view",
      "type": "function"
    },
    {
      "inputs": [
        {
          "internalType": "uint256",
          "name": "tokenId",
          "type": "uint256"
        }
      ],
      "name": "ownerOf",
      "outputs": [
        {
          "internalType": "address",
          "name": "",
          "type": "address"
        }
      ],
      "stateMutability": "view",
      "type": "function"
    },
    {
      "inputs": [],
      "name": "paused",
      "outputs": [
        {
          "internalType": "bool",
          "name": "",
          "type": "bool"
        }
      ],
      "stateMutability": "view",
      "type": "function"
    },
    {
      "inputs": [],
      "name": "presale",
      "outputs": [
        {
          "internalType": "bool",
          "name": "",
          "type": "bool"
        }
      ],
      "stateMutability": "view",
      "type": "function"
    },
    {
      "inputs": [
        {
          "internalType": "address",
          "name": "_addr",
          "type": "address"
        }
      ],
      "name": "removeAdmin",
      "outputs": [],
      "stateMutability": "nonpayable",
      "type": "function"
    },
    {
      "inputs": [
        {
          "internalType": "address",
          "name": "_addr",
          "type": "address"
        }
      ],
      "name": "removeFromWhitelist",
      "outputs": [],
      "stateMutability": "nonpayable",
      "type": "function"
    },
    {
      "inputs": [],
      "name": "reveal",
      "outputs": [],
      "stateMutability": "nonpayable",
      "type": "function"
    },
    {
      "inputs": [
        {
          "internalType": "uint256",
          "name": "_ID",
          "type": "uint256"
        }
      ],
      "name": "revealOne",
      "outputs": [],
      "stateMutability": "nonpayable",
      "type": "function"
    },
    {
      "inputs": [
        {
          "internalType": "address",
          "name": "from",
          "type": "address"
        },
        {
          "internalType": "address",
          "name": "to",
          "type": "address"
        },
        {
          "internalType": "uint256",
          "name": "tokenId",
          "type": "uint256"
        }
      ],
      "name": "safeTransferFrom",
      "outputs": [],
      "stateMutability": "nonpayable",
      "type": "function"
    },
    {
      "inputs": [
        {
          "internalType": "address",
          "name": "from",
          "type": "address"
        },
        {
          "internalType": "address",
          "name": "to",
          "type": "address"
        },
        {
          "internalType": "uint256",
          "name": "tokenId",
          "type": "uint256"
        },
        {
          "internalType": "bytes",
          "name": "_data",
          "type": "bytes"
        }
      ],
      "name": "safeTransferFrom",
      "outputs": [],
      "stateMutability": "nonpayable",
      "type": "function"
    },
    {
      "inputs": [
        {
          "internalType": "address",
          "name": "_addr",
          "type": "address"
        }
      ],
      "name": "setAdmin",
      "outputs": [],
      "stateMutability": "nonpayable",
      "type": "function"
    },
    {
      "inputs": [
        {
          "internalType": "address",
          "name": "operator",
          "type": "address"
        },
        {
          "internalType": "bool",
          "name": "approved",
          "type": "bool"
        }
      ],
      "name": "setApprovalForAll",
      "outputs": [],
      "stateMutability": "nonpayable",
      "type": "function"
    },
    {
      "inputs": [
        {
          "internalType": "uint256",
          "name": "_newCost",
          "type": "uint256"
        }
      ],
      "name": "setCost",
      "outputs": [],
      "stateMutability": "nonpayable",
      "type": "function"
    },
    {
      "inputs": [
        {
          "internalType": "string",
          "name": "_newURI",
          "type": "string"
        }
      ],
      "name": "setInitialURI",
      "outputs": [],
      "stateMutability": "nonpayable",
      "type": "function"
    },
    {
      "inputs": [
        {
          "internalType": "uint256",
          "name": "_value",
          "type": "uint256"
        }
      ],
      "name": "setMaxSupply",
      "outputs": [],
      "stateMutability": "nonpayable",
      "type": "function"
    },
    {
      "inputs": [
        {
          "internalType": "bool",
          "name": "_value",
          "type": "bool"
        }
      ],
      "name": "setPaused",
      "outputs": [],
      "stateMutability": "nonpayable",
      "type": "function"
    },
    {
      "inputs": [
        {
          "internalType": "bool",
          "name": "_value",
          "type": "bool"
        }
      ],
      "name": "setPresale",
      "outputs": [],
      "stateMutability": "nonpayable",
      "type": "function"
    },
    {
      "inputs": [
        {
          "internalType": "bytes4",
          "name": "interfaceId",
          "type": "bytes4"
        }
      ],
      "name": "supportsInterface",
      "outputs": [
        {
          "internalType": "bool",
          "name": "",
          "type": "bool"
        }
      ],
      "stateMutability": "view",
      "type": "function"
    },
    {
      "inputs": [],
      "name": "symbol",
      "outputs": [
        {
          "internalType": "string",
          "name": "",
          "type": "string"
        }
      ],
      "stateMutability": "view",
      "type": "function"
    },
    {
      "inputs": [
        {
          "internalType": "uint256",
          "name": "tokenId",
          "type": "uint256"
        }
      ],
      "name": "tokenURI",
      "outputs": [
        {
          "internalType": "string",
          "name": "",
          "type": "string"
        }
      ],
      "stateMutability": "view",
      "type": "function"
    },
    {
      "inputs": [
        {
          "internalType": "address payable",
          "name": "_addr",
          "type": "address"
        },
        {
          "internalType": "uint256",
          "name": "_amount",
          "type": "uint256"
        }
      ],
      "name": "transfer",
      "outputs": [],
      "stateMutability": "nonpayable",
      "type": "function"
    },
    {
      "inputs": [
        {
          "internalType": "address",
          "name": "from",
          "type": "address"
        },
        {
          "internalType": "address",
          "name": "to",
          "type": "address"
        },
        {
          "internalType": "uint256",
          "name": "tokenId",
          "type": "uint256"
        }
      ],
      "name": "transferFrom",
      "outputs": [],
      "stateMutability": "nonpayable",
      "type": "function"
    },
    {
      "inputs": [
        {
          "internalType": "uint256",
          "name": "_ID",
          "type": "uint256"
        },
        {
          "internalType": "string",
          "name": "_URI",
          "type": "string"
        }
      ],
      "name": "updateOneURI",
      "outputs": [],
      "stateMutability": "nonpayable",
      "type": "function"
    },
    {
      "inputs": [
        {
          "internalType": "uint256[]",
          "name": "_IDs",
          "type": "uint256[]"
        },
        {
          "internalType": "string[]",
          "name": "_URIs",
          "type": "string[]"
        }
      ],
      "name": "updateURIs",
      "outputs": [],
      "stateMutability": "nonpayable",
      "type": "function"
    },
    {
      "inputs": [
        {
          "internalType": "address",
          "name": "",
          "type": "address"
        }
      ],
      "name": "whitelist",
      "outputs": [
        {
          "internalType": "bool",
          "name": "",
          "type": "bool"
        }
      ],
      "stateMutability": "view",
      "type": "function"
    },
    {
      "inputs": [
        {
          "internalType": "address",
          "name": "_addr",
          "type": "address"
        }
      ],
      "name": "whitelistAddress",
      "outputs": [],
      "stateMutability": "nonpayable",
      "type": "function"
    },
    {
      "inputs": [
        {
          "internalType": "uint256",
          "name": "_amount",
          "type": "uint256"
        }
      ],
      "name": "withdraw",
      "outputs": [],
      "stateMutability": "nonpayable",
      "type": "function"
    }
  ],
  "bytecode": "0x60806040526001600860006101000a81548160ff0219169083151502179055506000600860016101000a81548160ff021916908315150217905550611e6160095566f8b0a10e470000600a5560405180602001604052806000815250600b908051906020019062000072929190620001c5565b506000600c5533600d60006101000a81548173ffffffffffffffffffffffffffffffffffffffff021916908373ffffffffffffffffffffffffffffffffffffffff160217905550348015620000c657600080fd5b506040518060400160405280600d81526020017f48656176656e6c79776f726473000000000000000000000000000000000000008152506040518060400160405280600381526020017f485773000000000000000000000000000000000000000000000000000000000081525081600090805190602001906200014b929190620001c5565b50806001908051906020019062000164929190620001c5565b5050506001600e60003373ffffffffffffffffffffffffffffffffffffffff1673ffffffffffffffffffffffffffffffffffffffff16815260200190815260200160002060006101000a81548160ff021916908315150217905550620002da565b828054620001d39062000275565b90600052602060002090601f016020900481019282620001f7576000855562000243565b82601f106200021257805160ff191683800117855562000243565b8280016001018555821562000243579182015b828111156200024257825182559160200191906001019062000225565b5b50905062000252919062000256565b5090565b5b808211156200027157600081600090555060010162000257565b5090565b600060028204905060018216806200028e57607f821691505b60208210811415620002a557620002a4620002ab565b5b50919050565b7f4e487b7100000000000000000000000000000000000000000000000000000000600052602260045260246000fd5b61482280620002ea6000396000f3fe6080604052600436106102935760003560e01c80636f8b44b01161015a578063a9059cbb116100c1578063c9a230771161007a578063c9a2307714610a13578063d5abeb0114610a3e578063daeeea5714610a69578063e6fb9e9414610a94578063e985e9c514610ad1578063fdea8e0b14610b0e57610293565b8063a9059cbb14610905578063aee99e521461092e578063b88d4fde14610959578063bd3e19d414610982578063c54e73e3146109ad578063c87b56dd146109d657610293565b80638fc3b549116101135780638fc3b5491461080957806395d89b41146108345780639b19251a1461085f578063a22cb4651461089c578063a32a7b65146108c5578063a475b5dd146108ee57610293565b80636f8b44b0146106fd578063704b6c021461072657806370a082311461074f578063871110a31461078c578063893d20e8146107b55780638ab1d681146107e057610293565b80633af32abf116101fe57806354ba0f27116101b757806354ba0f27146105e657806358873820146106165780635c5b6f49146106415780635c975abb1461066a5780636352211e146106955780636805b84b146106d257610293565b80633af32abf146104c6578063415665851461050357806342842e0e1461052c578063429b62e51461055557806344a0d68a146105925780634c0f38c2146105bb57610293565b806316c38b3c1161025057806316c38b3c146103bc5780631785f53c146103e5578063185467061461040e57806323b872dd1461043757806324d7806c146104605780632e1a7d4d1461049d57610293565b806301ffc9a71461029857806306fdde03146102d5578063081812fc14610300578063095ea7b31461033d57806312065fe01461036657806313faede614610391575b600080fd5b3480156102a457600080fd5b506102bf60048036038101906102ba91906137ba565b610b39565b6040516102cc91906140b9565b60405180910390f35b3480156102e157600080fd5b506102ea610c1b565b6040516102f791906140d4565b60405180910390f35b34801561030c57600080fd5b506103276004803603810190610322919061384d565b610cad565b6040516103349190614052565b60405180910390f35b34801561034957600080fd5b50610364600480360381019061035f91906136e9565b610d32565b005b34801561037257600080fd5b5061037b610e4a565b6040516103889190614336565b60405180910390f35b34801561039d57600080fd5b506103a6610f02565b6040516103b39190614336565b60405180910390f35b3480156103c857600080fd5b506103e360048036038101906103de9190613791565b610f08565b005b3480156103f157600080fd5b5061040c60048036038101906104079190613542565b610f7b565b005b34801561041a57600080fd5b5061043560048036038101906104309190613725565b611030565b005b34801561044357600080fd5b5061045e600480360381019061045991906135e3565b611160565b005b34801561046c57600080fd5b5061048760048036038101906104829190613542565b6111c0565b60405161049491906140b9565b60405180910390f35b3480156104a957600080fd5b506104c460048036038101906104bf919061384d565b611216565b005b3480156104d257600080fd5b506104ed60048036038101906104e89190613542565b611314565b6040516104fa91906140b9565b60405180910390f35b34801561050f57600080fd5b5061052a60048036038101906105259190613542565b61136a565b005b34801561053857600080fd5b50610553600480360381019061054e91906135e3565b61141b565b005b34801561056157600080fd5b5061057c60048036038101906105779190613542565b61143b565b60405161058991906140b9565b60405180910390f35b34801561059e57600080fd5b506105b960048036038101906105b4919061384d565b61145b565b005b3480156105c757600080fd5b506105d06114bf565b6040516105dd9190614336565b60405180910390f35b61060060048036038101906105fb9190613542565b6114c9565b60405161060d9190614336565b60405180910390f35b34801561062257600080fd5b5061062b6116d9565b60405161063891906140d4565b60405180910390f35b34801561064d57600080fd5b5061066860048036038101906106639190613876565b61176b565b005b34801561067657600080fd5b5061067f6117ed565b60405161068c91906140b9565b60405180910390f35b3480156106a157600080fd5b506106bc60048036038101906106b7919061384d565b611800565b6040516106c99190614052565b60405180910390f35b3480156106de57600080fd5b506106e76118b2565b6040516106f491906140b9565b60405180910390f35b34801561070957600080fd5b50610724600480360381019061071f919061384d565b6118c9565b005b34801561073257600080fd5b5061074d60048036038101906107489190613542565b61192d565b005b34801561075b57600080fd5b5061077660048036038101906107719190613542565b6119e2565b6040516107839190614336565b60405180910390f35b34801561079857600080fd5b506107b360048036038101906107ae919061384d565b611a9a565b005b3480156107c157600080fd5b506107ca611b98565b6040516107d79190614052565b60405180910390f35b3480156107ec57600080fd5b5061080760048036038101906108029190613542565b611bc2565b005b34801561081557600080fd5b5061081e611c73565b60405161082b9190614336565b60405180910390f35b34801561084057600080fd5b50610849611cda565b60405161085691906140d4565b60405180910390f35b34801561086b57600080fd5b5061088660048036038101906108819190613542565b611d6c565b60405161089391906140b9565b60405180910390f35b3480156108a857600080fd5b506108c360048036038101906108be91906136ad565b611d8c565b005b3480156108d157600080fd5b506108ec60048036038101906108e7919061380c565b611f0d565b005b3480156108fa57600080fd5b50610903611f7d565b005b34801561091157600080fd5b5061092c6004803603810190610927919061356b565b6120ce565b005b34801561093a57600080fd5b506109436121cd565b60405161095091906140b9565b60405180910390f35b34801561096557600080fd5b50610980600480360381019061097b9190613632565b6121e4565b005b34801561098e57600080fd5b50610997612246565b6040516109a49190614336565b60405180910390f35b3480156109b957600080fd5b506109d460048036038101906109cf9190613791565b612250565b005b3480156109e257600080fd5b506109fd60048036038101906109f8919061384d565b6122c3565b604051610a0a91906140d4565b60405180910390f35b348015610a1f57600080fd5b50610a28612415565b604051610a3591906140d4565b60405180910390f35b348015610a4a57600080fd5b50610a536124a3565b604051610a609190614336565b60405180910390f35b348015610a7557600080fd5b50610a7e6124a9565b604051610a8b9190614336565b60405180910390f35b348015610aa057600080fd5b50610abb6004803603810190610ab6919061384d565b6124b3565b604051610ac891906140d4565b60405180910390f35b348015610add57600080fd5b50610af86004803603810190610af391906135a7565b612553565b604051610b0591906140b9565b60405180910390f35b348015610b1a57600080fd5b50610b236125e7565b604051610b3091906140b9565b60405180910390f35b60007f80ac58cd000000000000000000000000000000000000000000000000000000007bffffffffffffffffffffffffffffffffffffffffffffffffffffffff1916827bffffffffffffffffffffffffffffffffffffffffffffffffffffffff19161480610c0457507f5b5e139f000000000000000000000000000000000000000000000000000000007bffffffffffffffffffffffffffffffffffffffffffffffffffffffff1916827bffffffffffffffffffffffffffffffffffffffffffffffffffffffff1916145b80610c145750610c13826125fa565b5b9050919050565b606060008054610c2a90614600565b80601f0160208091040260200160405190810160405280929190818152602001828054610c5690614600565b8015610ca35780601f10610c7857610100808354040283529160200191610ca3565b820191906000526020600020905b815481529060010190602001808311610c8657829003601f168201915b5050505050905090565b6000610cb882612664565b610cf7576040517f08c379a0000000000000000000000000000000000000000000000000000000008152600401610cee90614256565b60405180910390fd5b6004600083815260200190815260200160002060009054906101000a900473ffffffffffffffffffffffffffffffffffffffff169050919050565b6000610d3d82611800565b90508073ffffffffffffffffffffffffffffffffffffffff168373ffffffffffffffffffffffffffffffffffffffff161415610dae576040517f08c379a0000000000000000000000000000000000000000000000000000000008152600401610da5906142b6565b60405180910390fd5b8073ffffffffffffffffffffffffffffffffffffffff16610dcd6126d0565b73ffffffffffffffffffffffffffffffffffffffff161480610dfc5750610dfb81610df66126d0565b612553565b5b610e3b576040517f08c379a0000000000000000000000000000000000000000000000000000000008152600401610e3290614196565b60405180910390fd5b610e4583836126d8565b505050565b6000600e60003373ffffffffffffffffffffffffffffffffffffffff1673ffffffffffffffffffffffffffffffffffffffff16815260200190815260200160002060009054906101000a900460ff16610ea257600080fd5b600d60009054906101000a900473ffffffffffffffffffffffffffffffffffffffff1673ffffffffffffffffffffffffffffffffffffffff163373ffffffffffffffffffffffffffffffffffffffff1614610efc57600080fd5b47905090565b600a5481565b600e60003373ffffffffffffffffffffffffffffffffffffffff1673ffffffffffffffffffffffffffffffffffffffff16815260200190815260200160002060009054906101000a900460ff16610f5e57600080fd5b80600860016101000a81548160ff02191690831515021790555050565b600d60009054906101000a900473ffffffffffffffffffffffffffffffffffffffff1673ffffffffffffffffffffffffffffffffffffffff163373ffffffffffffffffffffffffffffffffffffffff1614610fd557600080fd5b6000600e60008373ffffffffffffffffffffffffffffffffffffffff1673ffffffffffffffffffffffffffffffffffffffff16815260200190815260200160002060006101000a81548160ff02191690831515021790555050565b600e60003373ffffffffffffffffffffffffffffffffffffffff1673ffffffffffffffffffffffffffffffffffffffff16815260200190815260200160002060009054906101000a900460ff1661108657600080fd5b805182511461109457600080fd5b60005b825181101561115b578181815181106110d9577f4e487b7100000000000000000000000000000000000000000000000000000000600052603260045260246000fd5b60200260200101516010600085848151811061111e577f4e487b7100000000000000000000000000000000000000000000000000000000600052603260045260246000fd5b6020026020010151815260200190815260200160002090805190602001906111479291906131a7565b50808061115390614632565b915050611097565b505050565b61117161116b6126d0565b82612791565b6111b0576040517f08c379a00000000000000000000000000000000000000000000000000000000081526004016111a7906142d6565b60405180910390fd5b6111bb83838361286f565b505050565b6000600e60008373ffffffffffffffffffffffffffffffffffffffff1673ffffffffffffffffffffffffffffffffffffffff16815260200190815260200160002060009054906101000a900460ff169050919050565b600d60009054906101000a900473ffffffffffffffffffffffffffffffffffffffff1673ffffffffffffffffffffffffffffffffffffffff163373ffffffffffffffffffffffffffffffffffffffff161461127057600080fd5b600d60009054906101000a900473ffffffffffffffffffffffffffffffffffffffff1673ffffffffffffffffffffffffffffffffffffffff163373ffffffffffffffffffffffffffffffffffffffff16146112ca57600080fd5b3373ffffffffffffffffffffffffffffffffffffffff166108fc829081150290604051600060405180830381858888f19350505050158015611310573d6000803e3d6000fd5b5050565b6000600f60008373ffffffffffffffffffffffffffffffffffffffff1673ffffffffffffffffffffffffffffffffffffffff16815260200190815260200160002060009054906101000a900460ff169050919050565b600e60003373ffffffffffffffffffffffffffffffffffffffff1673ffffffffffffffffffffffffffffffffffffffff16815260200190815260200160002060009054906101000a900460ff166113c057600080fd5b6001600f60008373ffffffffffffffffffffffffffffffffffffffff1673ffffffffffffffffffffffffffffffffffffffff16815260200190815260200160002060006101000a81548160ff02191690831515021790555050565b611436838383604051806020016040528060008152506121e4565b505050565b600e6020528060005260406000206000915054906101000a900460ff1681565b600d60009054906101000a900473ffffffffffffffffffffffffffffffffffffffff1673ffffffffffffffffffffffffffffffffffffffff163373ffffffffffffffffffffffffffffffffffffffff16146114b557600080fd5b80600a8190555050565b6000600954905090565b6000600860019054906101000a900460ff161561151b576040517f08c379a0000000000000000000000000000000000000000000000000000000008152600401611512906142f6565b60405180910390fd5b600d60009054906101000a900473ffffffffffffffffffffffffffffffffffffffff1673ffffffffffffffffffffffffffffffffffffffff163373ffffffffffffffffffffffffffffffffffffffff16146115de57600860009054906101000a900460ff16156115985761158e82611314565b61159757600080fd5b5b600a543410156115dd576040517f08c379a00000000000000000000000000000000000000000000000000000000081526004016115d490614316565b60405180910390fd5b5b6115e86007612acb565b60006115f46007612ae1565b905060095481111561160557600080fd5b61160f8382612aef565b6116a381600b805461162090614600565b80601f016020809104026020016040519081016040528092919081815260200182805461164c90614600565b80156116995780601f1061166e57610100808354040283529160200191611699565b820191906000526020600020905b81548152906001019060200180831161167c57829003601f168201915b5050505050612cbd565b600b601060008381526020019081526020016000209080546116c490614600565b6116cf92919061322d565b5080915050919050565b6060600b80546116e890614600565b80601f016020809104026020016040519081016040528092919081815260200182805461171490614600565b80156117615780601f1061173657610100808354040283529160200191611761565b820191906000526020600020905b81548152906001019060200180831161174457829003601f168201915b5050505050905090565b600e60003373ffffffffffffffffffffffffffffffffffffffff1673ffffffffffffffffffffffffffffffffffffffff16815260200190815260200160002060009054906101000a900460ff166117c157600080fd5b806010600084815260200190815260200160002090805190602001906117e89291906131a7565b505050565b600860019054906101000a900460ff1681565b6000806002600084815260200190815260200160002060009054906101000a900473ffffffffffffffffffffffffffffffffffffffff169050600073ffffffffffffffffffffffffffffffffffffffff168173ffffffffffffffffffffffffffffffffffffffff1614156118a9576040517f08c379a00000000000000000000000000000000000000000000000000000000081526004016118a0906141d6565b60405180910390fd5b80915050919050565b6000600860019054906101000a900460ff16905090565b600d60009054906101000a900473ffffffffffffffffffffffffffffffffffffffff1673ffffffffffffffffffffffffffffffffffffffff163373ffffffffffffffffffffffffffffffffffffffff161461192357600080fd5b8060098190555050565b600d60009054906101000a900473ffffffffffffffffffffffffffffffffffffffff1673ffffffffffffffffffffffffffffffffffffffff163373ffffffffffffffffffffffffffffffffffffffff161461198757600080fd5b6001600e60008373ffffffffffffffffffffffffffffffffffffffff1673ffffffffffffffffffffffffffffffffffffffff16815260200190815260200160002060006101000a81548160ff02191690831515021790555050565b60008073ffffffffffffffffffffffffffffffffffffffff168273ffffffffffffffffffffffffffffffffffffffff161415611a53576040517f08c379a0000000000000000000000000000000000000000000000000000000008152600401611a4a906141b6565b60405180910390fd5b600360008373ffffffffffffffffffffffffffffffffffffffff1673ffffffffffffffffffffffffffffffffffffffff168152602001908152602001600020549050919050565b600e60003373ffffffffffffffffffffffffffffffffffffffff1673ffffffffffffffffffffffffffffffffffffffff16815260200190815260200160002060009054906101000a900460ff16611af057600080fd5b611b9581601060008481526020019081526020016000208054611b1290614600565b80601f0160208091040260200160405190810160405280929190818152602001828054611b3e90614600565b8015611b8b5780601f10611b6057610100808354040283529160200191611b8b565b820191906000526020600020905b815481529060010190602001808311611b6e57829003601f168201915b5050505050612cbd565b50565b6000600d60009054906101000a900473ffffffffffffffffffffffffffffffffffffffff16905090565b600e60003373ffffffffffffffffffffffffffffffffffffffff1673ffffffffffffffffffffffffffffffffffffffff16815260200190815260200160002060009054906101000a900460ff16611c1857600080fd5b6000600f60008373ffffffffffffffffffffffffffffffffffffffff1673ffffffffffffffffffffffffffffffffffffffff16815260200190815260200160002060006101000a81548160ff02191690831515021790555050565b6000600e60003373ffffffffffffffffffffffffffffffffffffffff1673ffffffffffffffffffffffffffffffffffffffff16815260200190815260200160002060009054906101000a900460ff16611ccb57600080fd5b611cd56007612ae1565b905090565b606060018054611ce990614600565b80601f0160208091040260200160405190810160405280929190818152602001828054611d1590614600565b8015611d625780601f10611d3757610100808354040283529160200191611d62565b820191906000526020600020905b815481529060010190602001808311611d4557829003601f168201915b5050505050905090565b600f6020528060005260406000206000915054906101000a900460ff1681565b611d946126d0565b73ffffffffffffffffffffffffffffffffffffffff168273ffffffffffffffffffffffffffffffffffffffff161415611e02576040517f08c379a0000000000000000000000000000000000000000000000000000000008152600401611df990614156565b60405180910390fd5b8060056000611e0f6126d0565b73ffffffffffffffffffffffffffffffffffffffff1673ffffffffffffffffffffffffffffffffffffffff16815260200190815260200160002060008473ffffffffffffffffffffffffffffffffffffffff1673ffffffffffffffffffffffffffffffffffffffff16815260200190815260200160002060006101000a81548160ff0219169083151502179055508173ffffffffffffffffffffffffffffffffffffffff16611ebc6126d0565b73ffffffffffffffffffffffffffffffffffffffff167f17307eab39ab6107e8899845ad3d59bd9653f200f220920489ca2b5937696c3183604051611f0191906140b9565b60405180910390a35050565b600e60003373ffffffffffffffffffffffffffffffffffffffff1673ffffffffffffffffffffffffffffffffffffffff16815260200190815260200160002060009054906101000a900460ff16611f6357600080fd5b80600b9080519060200190611f799291906131a7565b5050565b600e60003373ffffffffffffffffffffffffffffffffffffffff1673ffffffffffffffffffffffffffffffffffffffff16815260200190815260200160002060009054906101000a900460ff16611fd357600080fd5b600c6000815480929190611fe690614632565b91905055506000600c5490505b611ffd6007612ae1565b81116120bb576120a88160106000848152602001908152602001600020805461202590614600565b80601f016020809104026020016040519081016040528092919081815260200182805461205190614600565b801561209e5780601f106120735761010080835404028352916020019161209e565b820191906000526020600020905b81548152906001019060200180831161208157829003601f168201915b5050505050612cbd565b80806120b390614632565b915050611ff3565b506120c66007612ae1565b600c81905550565b600d60009054906101000a900473ffffffffffffffffffffffffffffffffffffffff1673ffffffffffffffffffffffffffffffffffffffff163373ffffffffffffffffffffffffffffffffffffffff161461212857600080fd5b600d60009054906101000a900473ffffffffffffffffffffffffffffffffffffffff1673ffffffffffffffffffffffffffffffffffffffff163373ffffffffffffffffffffffffffffffffffffffff161461218257600080fd5b8173ffffffffffffffffffffffffffffffffffffffff166108fc829081150290604051600060405180830381858888f193505050501580156121c8573d6000803e3d6000fd5b505050565b6000600860009054906101000a900460ff16905090565b6121f56121ef6126d0565b83612791565b612234576040517f08c379a000000000000000000000000000000000000000000000000000000000815260040161222b906142d6565b60405180910390fd5b61224084848484612d31565b50505050565b6000600a54905090565b600e60003373ffffffffffffffffffffffffffffffffffffffff1673ffffffffffffffffffffffffffffffffffffffff16815260200190815260200160002060009054906101000a900460ff166122a657600080fd5b80600860006101000a81548160ff02191690831515021790555050565b60606122ce82612664565b61230d576040517f08c379a000000000000000000000000000000000000000000000000000000000815260040161230490614236565b60405180910390fd5b600060066000848152602001908152602001600020805461232d90614600565b80601f016020809104026020016040519081016040528092919081815260200182805461235990614600565b80156123a65780601f1061237b576101008083540402835291602001916123a6565b820191906000526020600020905b81548152906001019060200180831161238957829003601f168201915b5050505050905060006123b7612d8d565b90506000815114156123cd578192505050612410565b6000825111156124025780826040516020016123ea92919061402e565b60405160208183030381529060405292505050612410565b61240b84612da4565b925050505b919050565b600b805461242290614600565b80601f016020809104026020016040519081016040528092919081815260200182805461244e90614600565b801561249b5780601f106124705761010080835404028352916020019161249b565b820191906000526020600020905b81548152906001019060200180831161247e57829003601f168201915b505050505081565b60095481565b6000600c54905090565b601060205280600052604060002060009150905080546124d290614600565b80601f01602080910402602001604051908101604052809291908181526020018280546124fe90614600565b801561254b5780601f106125205761010080835404028352916020019161254b565b820191906000526020600020905b81548152906001019060200180831161252e57829003601f168201915b505050505081565b6000600560008473ffffffffffffffffffffffffffffffffffffffff1673ffffffffffffffffffffffffffffffffffffffff16815260200190815260200160002060008373ffffffffffffffffffffffffffffffffffffffff1673ffffffffffffffffffffffffffffffffffffffff16815260200190815260200160002060009054906101000a900460ff16905092915050565b600860009054906101000a900460ff1681565b60007f01ffc9a7000000000000000000000000000000000000000000000000000000007bffffffffffffffffffffffffffffffffffffffffffffffffffffffff1916827bffffffffffffffffffffffffffffffffffffffffffffffffffffffff1916149050919050565b60008073ffffffffffffffffffffffffffffffffffffffff166002600084815260200190815260200160002060009054906101000a900473ffffffffffffffffffffffffffffffffffffffff1673ffffffffffffffffffffffffffffffffffffffff1614159050919050565b600033905090565b816004600083815260200190815260200160002060006101000a81548173ffffffffffffffffffffffffffffffffffffffff021916908373ffffffffffffffffffffffffffffffffffffffff160217905550808273ffffffffffffffffffffffffffffffffffffffff1661274b83611800565b73ffffffffffffffffffffffffffffffffffffffff167f8c5be1e5ebec7d5bd14f71427d1e84f3dd0314c0f7b2291e5b200ac8c7c3b92560405160405180910390a45050565b600061279c82612664565b6127db576040517f08c379a00000000000000000000000000000000000000000000000000000000081526004016127d290614176565b60405180910390fd5b60006127e683611800565b90508073ffffffffffffffffffffffffffffffffffffffff168473ffffffffffffffffffffffffffffffffffffffff16148061285557508373ffffffffffffffffffffffffffffffffffffffff1661283d84610cad565b73ffffffffffffffffffffffffffffffffffffffff16145b8061286657506128658185612553565b5b91505092915050565b8273ffffffffffffffffffffffffffffffffffffffff1661288f82611800565b73ffffffffffffffffffffffffffffffffffffffff16146128e5576040517f08c379a00000000000000000000000000000000000000000000000000000000081526004016128dc90614276565b60405180910390fd5b600073ffffffffffffffffffffffffffffffffffffffff168273ffffffffffffffffffffffffffffffffffffffff161415612955576040517f08c379a000000000000000000000000000000000000000000000000000000000815260040161294c90614136565b60405180910390fd5b612960838383612e4b565b61296b6000826126d8565b6001600360008573ffffffffffffffffffffffffffffffffffffffff1673ffffffffffffffffffffffffffffffffffffffff16815260200190815260200160002060008282546129bb9190614504565b925050819055506001600360008473ffffffffffffffffffffffffffffffffffffffff1673ffffffffffffffffffffffffffffffffffffffff1681526020019081526020016000206000828254612a12919061447d565b92505081905550816002600083815260200190815260200160002060006101000a81548173ffffffffffffffffffffffffffffffffffffffff021916908373ffffffffffffffffffffffffffffffffffffffff160217905550808273ffffffffffffffffffffffffffffffffffffffff168473ffffffffffffffffffffffffffffffffffffffff167fddf252ad1be2c89b69c2b068fc378daa952ba7f163c4a11628f55a4df523b3ef60405160405180910390a4505050565b6001816000016000828254019250508190555050565b600081600001549050919050565b600073ffffffffffffffffffffffffffffffffffffffff168273ffffffffffffffffffffffffffffffffffffffff161415612b5f576040517f08c379a0000000000000000000000000000000000000000000000000000000008152600401612b5690614216565b60405180910390fd5b612b6881612664565b15612ba8576040517f08c379a0000000000000000000000000000000000000000000000000000000008152600401612b9f90614116565b60405180910390fd5b612bb460008383612e4b565b6001600360008473ffffffffffffffffffffffffffffffffffffffff1673ffffffffffffffffffffffffffffffffffffffff1681526020019081526020016000206000828254612c04919061447d565b92505081905550816002600083815260200190815260200160002060006101000a81548173ffffffffffffffffffffffffffffffffffffffff021916908373ffffffffffffffffffffffffffffffffffffffff160217905550808273ffffffffffffffffffffffffffffffffffffffff16600073ffffffffffffffffffffffffffffffffffffffff167fddf252ad1be2c89b69c2b068fc378daa952ba7f163c4a11628f55a4df523b3ef60405160405180910390a45050565b612cc682612664565b612d05576040517f08c379a0000000000000000000000000000000000000000000000000000000008152600401612cfc906141f6565b60405180910390fd5b80600660008481526020019081526020016000209080519060200190612d2c9291906131a7565b505050565b612d3c84848461286f565b612d4884848484612e50565b612d87576040517f08c379a0000000000000000000000000000000000000000000000000000000008152600401612d7e906140f6565b60405180910390fd5b50505050565b606060405180602001604052806000815250905090565b6060612daf82612664565b612dee576040517f08c379a0000000000000000000000000000000000000000000000000000000008152600401612de590614296565b60405180910390fd5b6000612df8612d8d565b90506000815111612e185760405180602001604052806000815250612e43565b80612e2284612fe7565b604051602001612e3392919061402e565b6040516020818303038152906040525b915050919050565b505050565b6000612e718473ffffffffffffffffffffffffffffffffffffffff16613194565b15612fda578373ffffffffffffffffffffffffffffffffffffffff1663150b7a02612e9a6126d0565b8786866040518563ffffffff1660e01b8152600401612ebc949392919061406d565b602060405180830381600087803b158015612ed657600080fd5b505af1925050508015612f0757506040513d601f19601f82011682018060405250810190612f0491906137e3565b60015b612f8a573d8060008114612f37576040519150601f19603f3d011682016040523d82523d6000602084013e612f3c565b606091505b50600081511415612f82576040517f08c379a0000000000000000000000000000000000000000000000000000000008152600401612f79906140f6565b60405180910390fd5b805181602001fd5b63150b7a0260e01b7bffffffffffffffffffffffffffffffffffffffffffffffffffffffff1916817bffffffffffffffffffffffffffffffffffffffffffffffffffffffff191614915050612fdf565b600190505b949350505050565b6060600082141561302f576040518060400160405280600181526020017f3000000000000000000000000000000000000000000000000000000000000000815250905061318f565b600082905060005b6000821461306157808061304a90614632565b915050600a8261305a91906144d3565b9150613037565b60008167ffffffffffffffff8111156130a3577f4e487b7100000000000000000000000000000000000000000000000000000000600052604160045260246000fd5b6040519080825280601f01601f1916602001820160405280156130d55781602001600182028036833780820191505090505b5090505b60008514613188576001826130ee9190614504565b9150600a856130fd919061467b565b6030613109919061447d565b60f81b818381518110613145577f4e487b7100000000000000000000000000000000000000000000000000000000600052603260045260246000fd5b60200101907effffffffffffffffffffffffffffffffffffffffffffffffffffffffffffff1916908160001a905350600a8561318191906144d3565b94506130d9565b8093505050505b919050565b600080823b905060008111915050919050565b8280546131b390614600565b90600052602060002090601f0160209004810192826131d5576000855561321c565b82601f106131ee57805160ff191683800117855561321c565b8280016001018555821561321c579182015b8281111561321b578251825591602001919060010190613200565b5b50905061322991906132ba565b5090565b82805461323990614600565b90600052602060002090601f01602090048101928261325b57600085556132a9565b82601f1061326c57805485556132a9565b828001600101855582156132a957600052602060002091601f016020900482015b828111156132a857825482559160010191906001019061328d565b5b5090506132b691906132ba565b5090565b5b808211156132d35760008160009055506001016132bb565b5090565b60006132ea6132e584614382565b614351565b9050808382526020820190508260005b8581101561332a57813585016133108882613503565b8452602084019350602083019250506001810190506132fa565b5050509392505050565b6000613347613342846143ae565b614351565b9050808382526020820190508285602086028201111561336657600080fd5b60005b85811015613396578161337c888261352d565b845260208401935060208301925050600181019050613369565b5050509392505050565b60006133b36133ae846143da565b614351565b9050828152602081018484840111156133cb57600080fd5b6133d68482856145be565b509392505050565b60006133f16133ec8461440a565b614351565b90508281526020810184848401111561340957600080fd5b6134148482856145be565b509392505050565b60008135905061342b81614779565b92915050565b60008135905061344081614790565b92915050565b600082601f83011261345757600080fd5b81356134678482602086016132d7565b91505092915050565b600082601f83011261348157600080fd5b8135613491848260208601613334565b91505092915050565b6000813590506134a9816147a7565b92915050565b6000813590506134be816147be565b92915050565b6000815190506134d3816147be565b92915050565b600082601f8301126134ea57600080fd5b81356134fa8482602086016133a0565b91505092915050565b600082601f83011261351457600080fd5b81356135248482602086016133de565b91505092915050565b60008135905061353c816147d5565b92915050565b60006020828403121561355457600080fd5b60006135628482850161341c565b91505092915050565b6000806040838503121561357e57600080fd5b600061358c85828601613431565b925050602061359d8582860161352d565b9150509250929050565b600080604083850312156135ba57600080fd5b60006135c88582860161341c565b92505060206135d98582860161341c565b9150509250929050565b6000806000606084860312156135f857600080fd5b60006136068682870161341c565b93505060206136178682870161341c565b92505060406136288682870161352d565b9150509250925092565b6000806000806080858703121561364857600080fd5b60006136568782880161341c565b94505060206136678782880161341c565b93505060406136788782880161352d565b925050606085013567ffffffffffffffff81111561369557600080fd5b6136a1878288016134d9565b91505092959194509250565b600080604083850312156136c057600080fd5b60006136ce8582860161341c565b92505060206136df8582860161349a565b9150509250929050565b600080604083850312156136fc57600080fd5b600061370a8582860161341c565b925050602061371b8582860161352d565b9150509250929050565b6000806040838503121561373857600080fd5b600083013567ffffffffffffffff81111561375257600080fd5b61375e85828601613470565b925050602083013567ffffffffffffffff81111561377b57600080fd5b61378785828601613446565b9150509250929050565b6000602082840312156137a357600080fd5b60006137b18482850161349a565b91505092915050565b6000602082840312156137cc57600080fd5b60006137da848285016134af565b91505092915050565b6000602082840312156137f557600080fd5b6000613803848285016134c4565b91505092915050565b60006020828403121561381e57600080fd5b600082013567ffffffffffffffff81111561383857600080fd5b61384484828501613503565b91505092915050565b60006020828403121561385f57600080fd5b600061386d8482850161352d565b91505092915050565b6000806040838503121561388957600080fd5b60006138978582860161352d565b925050602083013567ffffffffffffffff8111156138b457600080fd5b6138c085828601613503565b9150509250929050565b6138d381614538565b82525050565b6138e28161455c565b82525050565b60006138f38261443a565b6138fd8185614450565b935061390d8185602086016145cd565b61391681614768565b840191505092915050565b600061392c82614445565b6139368185614461565b93506139468185602086016145cd565b61394f81614768565b840191505092915050565b600061396582614445565b61396f8185614472565b935061397f8185602086016145cd565b80840191505092915050565b6000613998603283614461565b91507f4552433732313a207472616e7366657220746f206e6f6e20455243373231526560008301527f63656976657220696d706c656d656e74657200000000000000000000000000006020830152604082019050919050565b60006139fe601c83614461565b91507f4552433732313a20746f6b656e20616c7265616479206d696e746564000000006000830152602082019050919050565b6000613a3e602483614461565b91507f4552433732313a207472616e7366657220746f20746865207a65726f2061646460008301527f72657373000000000000000000000000000000000000000000000000000000006020830152604082019050919050565b6000613aa4601983614461565b91507f4552433732313a20617070726f766520746f2063616c6c6572000000000000006000830152602082019050919050565b6000613ae4602c83614461565b91507f4552433732313a206f70657261746f7220717565727920666f72206e6f6e657860008301527f697374656e7420746f6b656e00000000000000000000000000000000000000006020830152604082019050919050565b6000613b4a603883614461565b91507f4552433732313a20617070726f76652063616c6c6572206973206e6f74206f7760008301527f6e6572206e6f7220617070726f76656420666f7220616c6c00000000000000006020830152604082019050919050565b6000613bb0602a83614461565b91507f4552433732313a2062616c616e636520717565727920666f7220746865207a6560008301527f726f2061646472657373000000000000000000000000000000000000000000006020830152604082019050919050565b6000613c16602983614461565b91507f4552433732313a206f776e657220717565727920666f72206e6f6e657869737460008301527f656e7420746f6b656e00000000000000000000000000000000000000000000006020830152604082019050919050565b6000613c7c602e83614461565b91507f45524337323155524953746f726167653a2055524920736574206f66206e6f6e60008301527f6578697374656e7420746f6b656e0000000000000000000000000000000000006020830152604082019050919050565b6000613ce2602083614461565b91507f4552433732313a206d696e7420746f20746865207a65726f20616464726573736000830152602082019050919050565b6000613d22603183614461565b91507f45524337323155524953746f726167653a2055524920717565727920666f722060008301527f6e6f6e6578697374656e7420746f6b656e0000000000000000000000000000006020830152604082019050919050565b6000613d88602c83614461565b91507f4552433732313a20617070726f76656420717565727920666f72206e6f6e657860008301527f697374656e7420746f6b656e00000000000000000000000000000000000000006020830152604082019050919050565b6000613dee602983614461565b91507f4552433732313a207472616e73666572206f6620746f6b656e2074686174206960008301527f73206e6f74206f776e00000000000000000000000000000000000000000000006020830152604082019050919050565b6000613e54602f83614461565b91507f4552433732314d657461646174613a2055524920717565727920666f72206e6f60008301527f6e6578697374656e7420746f6b656e00000000000000000000000000000000006020830152604082019050919050565b6000613eba602183614461565b91507f4552433732313a20617070726f76616c20746f2063757272656e74206f776e6560008301527f72000000000000000000000000000000000000000000000000000000000000006020830152604082019050919050565b6000613f20603183614461565b91507f4552433732313a207472616e736665722063616c6c6572206973206e6f74206f60008301527f776e6572206e6f7220617070726f7665640000000000000000000000000000006020830152604082019050919050565b6000613f86601183614461565b91507f4d696e74696e67206973207061757365640000000000000000000000000000006000830152602082019050919050565b6000613fc6602183614461565b91507f4e6f7420656e6f756768204554482073656e743b20636865636b20707269636560008301527f21000000000000000000000000000000000000000000000000000000000000006020830152604082019050919050565b614028816145b4565b82525050565b600061403a828561395a565b9150614046828461395a565b91508190509392505050565b600060208201905061406760008301846138ca565b92915050565b600060808201905061408260008301876138ca565b61408f60208301866138ca565b61409c604083018561401f565b81810360608301526140ae81846138e8565b905095945050505050565b60006020820190506140ce60008301846138d9565b92915050565b600060208201905081810360008301526140ee8184613921565b905092915050565b6000602082019050818103600083015261410f8161398b565b9050919050565b6000602082019050818103600083015261412f816139f1565b9050919050565b6000602082019050818103600083015261414f81613a31565b9050919050565b6000602082019050818103600083015261416f81613a97565b9050919050565b6000602082019050818103600083015261418f81613ad7565b9050919050565b600060208201905081810360008301526141af81613b3d565b9050919050565b600060208201905081810360008301526141cf81613ba3565b9050919050565b600060208201905081810360008301526141ef81613c09565b9050919050565b6000602082019050818103600083015261420f81613c6f565b9050919050565b6000602082019050818103600083015261422f81613cd5565b9050919050565b6000602082019050818103600083015261424f81613d15565b9050919050565b6000602082019050818103600083015261426f81613d7b565b9050919050565b6000602082019050818103600083015261428f81613de1565b9050919050565b600060208201905081810360008301526142af81613e47565b9050919050565b600060208201905081810360008301526142cf81613ead565b9050919050565b600060208201905081810360008301526142ef81613f13565b9050919050565b6000602082019050818103600083015261430f81613f79565b9050919050565b6000602082019050818103600083015261432f81613fb9565b9050919050565b600060208201905061434b600083018461401f565b92915050565b6000604051905081810181811067ffffffffffffffff8211171561437857614377614739565b5b8060405250919050565b600067ffffffffffffffff82111561439d5761439c614739565b5b602082029050602081019050919050565b600067ffffffffffffffff8211156143c9576143c8614739565b5b602082029050602081019050919050565b600067ffffffffffffffff8211156143f5576143f4614739565b5b601f19601f8301169050602081019050919050565b600067ffffffffffffffff82111561442557614424614739565b5b601f19601f8301169050602081019050919050565b600081519050919050565b600081519050919050565b600082825260208201905092915050565b600082825260208201905092915050565b600081905092915050565b6000614488826145b4565b9150614493836145b4565b9250827fffffffffffffffffffffffffffffffffffffffffffffffffffffffffffffffff038211156144c8576144c76146ac565b5b828201905092915050565b60006144de826145b4565b91506144e9836145b4565b9250826144f9576144f86146db565b5b828204905092915050565b600061450f826145b4565b915061451a836145b4565b92508282101561452d5761452c6146ac565b5b828203905092915050565b600061454382614594565b9050919050565b600061455582614594565b9050919050565b60008115159050919050565b60007fffffffff0000000000000000000000000000000000000000000000000000000082169050919050565b600073ffffffffffffffffffffffffffffffffffffffff82169050919050565b6000819050919050565b82818337600083830152505050565b60005b838110156145eb5780820151818401526020810190506145d0565b838111156145fa576000848401525b50505050565b6000600282049050600182168061461857607f821691505b6020821081141561462c5761462b61470a565b5b50919050565b600061463d826145b4565b91507fffffffffffffffffffffffffffffffffffffffffffffffffffffffffffffffff8214156146705761466f6146ac565b5b600182019050919050565b6000614686826145b4565b9150614691836145b4565b9250826146a1576146a06146db565b5b828206905092915050565b7f4e487b7100000000000000000000000000000000000000000000000000000000600052601160045260246000fd5b7f4e487b7100000000000000000000000000000000000000000000000000000000600052601260045260246000fd5b7f4e487b7100000000000000000000000000000000000000000000000000000000600052602260045260246000fd5b7f4e487b7100000000000000000000000000000000000000000000000000000000600052604160045260246000fd5b6000601f19601f8301169050919050565b61478281614538565b811461478d57600080fd5b50565b6147998161454a565b81146147a457600080fd5b50565b6147b08161455c565b81146147bb57600080fd5b50565b6147c781614568565b81146147d257600080fd5b50565b6147de816145b4565b81146147e957600080fd5b5056fea264697066735822122093d4d37f016de29adc6c5094b7927fbe4a0bbc7b7ad184f2605a0f474ba7406c64736f6c63430008000033",
  "linkReferences": {},
  "deployedLinkReferences": {}
}