{
  "_format": "hh-sol-artifact-1",
  "contractName": "MyNFT",
  "sourceName": "contracts/MyNFT.sol",
  "abi": [
    {
      "inputs": [],
      "stateMutability": "nonpayable",
      "type": "constructor"
    },
    {
      "anonymous": false,
      "inputs": [
        {
          "indexed": true,
          "internalType": "address",
          "name": "owner",
          "type": "address"
        },
        {
          "indexed": true,
          "internalType": "address",
          "name": "approved",
          "type": "address"
        },
        {
          "indexed": true,
          "internalType": "uint256",
          "name": "tokenId",
          "type": "uint256"
        }
      ],
      "name": "Approval",
      "type": "event"
    },
    {
      "anonymous": false,
      "inputs": [
        {
          "indexed": true,
          "internalType": "address",
          "name": "owner",
          "type": "address"
        },
        {
          "indexed": true,
          "internalType": "address",
          "name": "operator",
          "type": "address"
        },
        {
          "indexed": false,
          "internalType": "bool",
          "name": "approved",
          "type": "bool"
        }
      ],
      "name": "ApprovalForAll",
      "type": "event"
    },
    {
      "anonymous": false,
      "inputs": [
        {
          "indexed": true,
          "internalType": "address",
          "name": "from",
          "type": "address"
        },
        {
          "indexed": true,
          "internalType": "address",
          "name": "to",
          "type": "address"
        },
        {
          "indexed": true,
          "internalType": "uint256",
          "name": "tokenId",
          "type": "uint256"
        }
      ],
      "name": "Transfer",
      "type": "event"
    },
    {
      "inputs": [
        {
          "internalType": "address",
          "name": "to",
          "type": "address"
        },
        {
          "internalType": "uint256",
          "name": "tokenId",
          "type": "uint256"
        }
      ],
      "name": "approve",
      "outputs": [],
      "stateMutability": "nonpayable",
      "type": "function"
    },
    {
      "inputs": [
        {
          "internalType": "address",
          "name": "owner",
          "type": "address"
        }
      ],
      "name": "balanceOf",
      "outputs": [
        {
          "internalType": "uint256",
          "name": "",
          "type": "uint256"
        }
      ],
      "stateMutability": "view",
      "type": "function"
    },
    {
      "inputs": [],
      "name": "checkBalance",
      "outputs": [
        {
          "internalType": "uint256",
          "name": "",
          "type": "uint256"
        }
      ],
      "stateMutability": "view",
      "type": "function"
    },
    {
      "inputs": [],
      "name": "cost",
      "outputs": [
        {
          "internalType": "uint256",
          "name": "",
          "type": "uint256"
        }
      ],
      "stateMutability": "view",
      "type": "function"
    },
    {
      "inputs": [
        {
          "internalType": "uint256",
          "name": "tokenId",
          "type": "uint256"
        }
      ],
      "name": "getApproved",
      "outputs": [
        {
          "internalType": "address",
          "name": "",
          "type": "address"
        }
      ],
      "stateMutability": "view",
      "type": "function"
    },
    {
      "inputs": [],
      "name": "getMintCount",
      "outputs": [
        {
          "internalType": "uint256",
          "name": "",
          "type": "uint256"
        }
      ],
      "stateMutability": "view",
      "type": "function"
    },
    {
      "inputs": [
        {
          "internalType": "address",
          "name": "_addr",
          "type": "address"
        }
      ],
      "name": "isAddressWhitelisted",
      "outputs": [
        {
          "internalType": "bool",
          "name": "",
          "type": "bool"
        }
      ],
      "stateMutability": "view",
      "type": "function"
    },
    {
      "inputs": [
        {
          "internalType": "address",
          "name": "owner",
          "type": "address"
        },
        {
          "internalType": "address",
          "name": "operator",
          "type": "address"
        }
      ],
      "name": "isApprovedForAll",
      "outputs": [
        {
          "internalType": "bool",
          "name": "",
          "type": "bool"
        }
      ],
      "stateMutability": "view",
      "type": "function"
    },
    {
      "inputs": [],
      "name": "maxSupply",
      "outputs": [
        {
          "internalType": "uint256",
          "name": "",
          "type": "uint256"
        }
      ],
      "stateMutability": "view",
      "type": "function"
    },
    {
      "inputs": [
        {
          "internalType": "address",
          "name": "_recipient",
          "type": "address"
        },
        {
          "internalType": "string",
          "name": "_tokenURI",
          "type": "string"
        }
      ],
      "name": "mintNFT",
      "outputs": [
        {
          "internalType": "uint256",
          "name": "",
          "type": "uint256"
        }
      ],
      "stateMutability": "payable",
      "type": "function"
    },
    {
      "inputs": [],
      "name": "name",
      "outputs": [
        {
          "internalType": "string",
          "name": "",
          "type": "string"
        }
      ],
      "stateMutability": "view",
      "type": "function"
    },
    {
      "inputs": [
        {
          "internalType": "uint256",
          "name": "tokenId",
          "type": "uint256"
        }
      ],
      "name": "ownerOf",
      "outputs": [
        {
          "internalType": "address",
          "name": "",
          "type": "address"
        }
      ],
      "stateMutability": "view",
      "type": "function"
    },
    {
      "inputs": [],
      "name": "paused",
      "outputs": [
        {
          "internalType": "bool",
          "name": "",
          "type": "bool"
        }
      ],
      "stateMutability": "view",
      "type": "function"
    },
    {
      "inputs": [],
      "name": "presale",
      "outputs": [
        {
          "internalType": "bool",
          "name": "",
          "type": "bool"
        }
      ],
      "stateMutability": "view",
      "type": "function"
    },
    {
      "inputs": [
        {
          "internalType": "address",
          "name": "from",
          "type": "address"
        },
        {
          "internalType": "address",
          "name": "to",
          "type": "address"
        },
        {
          "internalType": "uint256",
          "name": "tokenId",
          "type": "uint256"
        }
      ],
      "name": "safeTransferFrom",
      "outputs": [],
      "stateMutability": "nonpayable",
      "type": "function"
    },
    {
      "inputs": [
        {
          "internalType": "address",
          "name": "from",
          "type": "address"
        },
        {
          "internalType": "address",
          "name": "to",
          "type": "address"
        },
        {
          "internalType": "uint256",
          "name": "tokenId",
          "type": "uint256"
        },
        {
          "internalType": "bytes",
          "name": "_data",
          "type": "bytes"
        }
      ],
      "name": "safeTransferFrom",
      "outputs": [],
      "stateMutability": "nonpayable",
      "type": "function"
    },
    {
      "inputs": [
        {
          "internalType": "address",
          "name": "operator",
          "type": "address"
        },
        {
          "internalType": "bool",
          "name": "approved",
          "type": "bool"
        }
      ],
      "name": "setApprovalForAll",
      "outputs": [],
      "stateMutability": "nonpayable",
      "type": "function"
    },
    {
      "inputs": [
        {
          "internalType": "uint256",
          "name": "_newCost",
          "type": "uint256"
        }
      ],
      "name": "setCost",
      "outputs": [],
      "stateMutability": "nonpayable",
      "type": "function"
    },
    {
      "inputs": [
        {
          "internalType": "bool",
          "name": "_value",
          "type": "bool"
        }
      ],
      "name": "setPaused",
      "outputs": [],
      "stateMutability": "nonpayable",
      "type": "function"
    },
    {
      "inputs": [
        {
          "internalType": "bool",
          "name": "_value",
          "type": "bool"
        }
      ],
      "name": "setPresale",
      "outputs": [],
      "stateMutability": "nonpayable",
      "type": "function"
    },
    {
      "inputs": [
        {
          "internalType": "bytes4",
          "name": "interfaceId",
          "type": "bytes4"
        }
      ],
      "name": "supportsInterface",
      "outputs": [
        {
          "internalType": "bool",
          "name": "",
          "type": "bool"
        }
      ],
      "stateMutability": "view",
      "type": "function"
    },
    {
      "inputs": [],
      "name": "symbol",
      "outputs": [
        {
          "internalType": "string",
          "name": "",
          "type": "string"
        }
      ],
      "stateMutability": "view",
      "type": "function"
    },
    {
      "inputs": [
        {
          "internalType": "uint256",
          "name": "tokenId",
          "type": "uint256"
        }
      ],
      "name": "tokenURI",
      "outputs": [
        {
          "internalType": "string",
          "name": "",
          "type": "string"
        }
      ],
      "stateMutability": "view",
      "type": "function"
    },
    {
      "inputs": [
        {
          "internalType": "address payable",
          "name": "_addr",
          "type": "address"
        },
        {
          "internalType": "uint256",
          "name": "_amount",
          "type": "uint256"
        }
      ],
      "name": "transferEther",
      "outputs": [],
      "stateMutability": "nonpayable",
      "type": "function"
    },
    {
      "inputs": [
        {
          "internalType": "address",
          "name": "from",
          "type": "address"
        },
        {
          "internalType": "address",
          "name": "to",
          "type": "address"
        },
        {
          "internalType": "uint256",
          "name": "tokenId",
          "type": "uint256"
        }
      ],
      "name": "transferFrom",
      "outputs": [],
      "stateMutability": "nonpayable",
      "type": "function"
    },
    {
      "inputs": [
        {
          "internalType": "uint256",
          "name": "_tokenID",
          "type": "uint256"
        },
        {
          "internalType": "string",
          "name": "_tokenURI",
          "type": "string"
        }
      ],
      "name": "updateNFT",
      "outputs": [],
      "stateMutability": "nonpayable",
      "type": "function"
    },
    {
      "inputs": [
        {
          "internalType": "address",
          "name": "",
          "type": "address"
        }
      ],
      "name": "whitelist",
      "outputs": [
        {
          "internalType": "bool",
          "name": "",
          "type": "bool"
        }
      ],
      "stateMutability": "view",
      "type": "function"
    },
    {
      "inputs": [
        {
          "internalType": "address",
          "name": "_addr",
          "type": "address"
        }
      ],
      "name": "whitelistAddress",
      "outputs": [],
      "stateMutability": "nonpayable",
      "type": "function"
    },
    {
      "inputs": [
        {
          "internalType": "uint256",
          "name": "_amount",
          "type": "uint256"
        }
      ],
      "name": "withdrawEther",
      "outputs": [],
      "stateMutability": "nonpayable",
      "type": "function"
    }
  ],
  "bytecode": "0x60806040526001600860006101000a81548160ff0219169083151502179055506000600860016101000a81548160ff021916908315150217905550611e6160095566f8b0a10e470000600a5533600b60006101000a81548173ffffffffffffffffffffffffffffffffffffffff021916908373ffffffffffffffffffffffffffffffffffffffff1602179055503480156200009957600080fd5b506040518060400160405280600d81526020017f48656176656e6c79776f726473000000000000000000000000000000000000008152506040518060400160405280600381526020017f4e4654000000000000000000000000000000000000000000000000000000000081525081600090805190602001906200011e92919062000140565b5080600190805190602001906200013792919062000140565b50505062000255565b8280546200014e90620001f0565b90600052602060002090601f016020900481019282620001725760008555620001be565b82601f106200018d57805160ff1916838001178555620001be565b82800160010185558215620001be579182015b82811115620001bd578251825591602001919060010190620001a0565b5b509050620001cd9190620001d1565b5090565b5b80821115620001ec576000816000905550600101620001d2565b5090565b600060028204905060018216806200020957607f821691505b6020821081141562000220576200021f62000226565b5b50919050565b7f4e487b7100000000000000000000000000000000000000000000000000000000600052602260045260246000fd5b6136d180620002656000396000f3fe6080604052600436106101c25760003560e01c80636352211e116100f7578063c318d8f811610095578063d5abeb0111610064578063d5abeb0114610660578063e985e9c51461068b578063eacabe14146106c8578063fdea8e0b146106f8576101c2565b8063c318d8f8146105a6578063c54e73e3146105cf578063c71daccb146105f8578063c87b56dd14610623576101c2565b806395d89b41116100d157806395d89b41146104ec5780639b19251a14610517578063a22cb46514610554578063b88d4fde1461057d576101c2565b80636352211e1461044757806370a08231146104845780638fc3b549146104c1576101c2565b806316c38b3c11610164578063415665851161013e57806341566585146103a157806342842e0e146103ca57806344a0d68a146103f35780635c975abb1461041c576101c2565b806316c38b3c1461032657806323b872dd1461034f5780633bed33ce14610378576101c2565b8063081812fc116101a0578063081812fc14610258578063095ea7b31461029557806313f44d10146102be57806313faede6146102fb576101c2565b806301ffc9a7146101c757806305b1137b1461020457806306fdde031461022d575b600080fd5b3480156101d357600080fd5b506101ee60048036038101906101e99190612702565b610723565b6040516101fb9190612fc0565b60405180910390f35b34801561021057600080fd5b5061022b600480360381019061022691906124cb565b610805565b005b34801561023957600080fd5b506102426108aa565b60405161024f9190612fdb565b60405180910390f35b34801561026457600080fd5b5061027f600480360381019061027a9190612754565b61093c565b60405161028c9190612f59565b60405180910390f35b3480156102a157600080fd5b506102bc60048036038101906102b7919061269d565b6109c1565b005b3480156102ca57600080fd5b506102e560048036038101906102e091906124a2565b610ad9565b6040516102f29190612fc0565b60405180910390f35b34801561030757600080fd5b50610310610b89565b60405161031d919061323d565b60405180910390f35b34801561033257600080fd5b5061034d600480360381019061034891906126d9565b610b8f565b005b34801561035b57600080fd5b5061037660048036038101906103719190612543565b610c06565b005b34801561038457600080fd5b5061039f600480360381019061039a9190612754565b610c66565b005b3480156103ad57600080fd5b506103c860048036038101906103c391906124a2565b610d0a565b005b3480156103d657600080fd5b506103f160048036038101906103ec9190612543565b610dbf565b005b3480156103ff57600080fd5b5061041a60048036038101906104159190612754565b610ddf565b005b34801561042857600080fd5b50610431610e43565b60405161043e9190612fc0565b60405180910390f35b34801561045357600080fd5b5061046e60048036038101906104699190612754565b610e56565b60405161047b9190612f59565b60405180910390f35b34801561049057600080fd5b506104ab60048036038101906104a691906124a2565b610f08565b6040516104b8919061323d565b60405180910390f35b3480156104cd57600080fd5b506104d6610fc0565b6040516104e3919061323d565b60405180910390f35b3480156104f857600080fd5b5061050161102b565b60405161050e9190612fdb565b60405180910390f35b34801561052357600080fd5b5061053e600480360381019061053991906124a2565b6110bd565b60405161054b9190612fc0565b60405180910390f35b34801561056057600080fd5b5061057b6004803603810190610576919061260d565b6110dd565b005b34801561058957600080fd5b506105a4600480360381019061059f9190612592565b61125e565b005b3480156105b257600080fd5b506105cd60048036038101906105c8919061277d565b6112c0565b005b3480156105db57600080fd5b506105f660048036038101906105f191906126d9565b611328565b005b34801561060457600080fd5b5061060d61139f565b60405161061a919061323d565b60405180910390f35b34801561062f57600080fd5b5061064a60048036038101906106459190612754565b611401565b6040516106579190612fdb565b60405180910390f35b34801561066c57600080fd5b50610675611553565b604051610682919061323d565b60405180910390f35b34801561069757600080fd5b506106b260048036038101906106ad9190612507565b611559565b6040516106bf9190612fc0565b60405180910390f35b6106e260048036038101906106dd9190612649565b6115ed565b6040516106ef919061323d565b60405180910390f35b34801561070457600080fd5b5061070d6116f1565b60405161071a9190612fc0565b60405180910390f35b60007f80ac58cd000000000000000000000000000000000000000000000000000000007bffffffffffffffffffffffffffffffffffffffffffffffffffffffff1916827bffffffffffffffffffffffffffffffffffffffffffffffffffffffff191614806107ee57507f5b5e139f000000000000000000000000000000000000000000000000000000007bffffffffffffffffffffffffffffffffffffffffffffffffffffffff1916827bffffffffffffffffffffffffffffffffffffffffffffffffffffffff1916145b806107fe57506107fd82611704565b5b9050919050565b600b60009054906101000a900473ffffffffffffffffffffffffffffffffffffffff1673ffffffffffffffffffffffffffffffffffffffff163373ffffffffffffffffffffffffffffffffffffffff161461085f57600080fd5b8173ffffffffffffffffffffffffffffffffffffffff166108fc829081150290604051600060405180830381858888f193505050501580156108a5573d6000803e3d6000fd5b505050565b6060600080546108b9906134af565b80601f01602080910402602001604051908101604052809291908181526020018280546108e5906134af565b80156109325780601f1061090757610100808354040283529160200191610932565b820191906000526020600020905b81548152906001019060200180831161091557829003601f168201915b5050505050905090565b60006109478261176e565b610986576040517f08c379a000000000000000000000000000000000000000000000000000000000815260040161097d9061315d565b60405180910390fd5b6004600083815260200190815260200160002060009054906101000a900473ffffffffffffffffffffffffffffffffffffffff169050919050565b60006109cc82610e56565b90508073ffffffffffffffffffffffffffffffffffffffff168373ffffffffffffffffffffffffffffffffffffffff161415610a3d576040517f08c379a0000000000000000000000000000000000000000000000000000000008152600401610a34906131bd565b60405180910390fd5b8073ffffffffffffffffffffffffffffffffffffffff16610a5c6117da565b73ffffffffffffffffffffffffffffffffffffffff161480610a8b5750610a8a81610a856117da565b611559565b5b610aca576040517f08c379a0000000000000000000000000000000000000000000000000000000008152600401610ac19061309d565b60405180910390fd5b610ad483836117e2565b505050565b6000600b60009054906101000a900473ffffffffffffffffffffffffffffffffffffffff1673ffffffffffffffffffffffffffffffffffffffff163373ffffffffffffffffffffffffffffffffffffffff1614610b3557600080fd5b600c60008373ffffffffffffffffffffffffffffffffffffffff1673ffffffffffffffffffffffffffffffffffffffff16815260200190815260200160002060009054906101000a900460ff169050919050565b600a5481565b600b60009054906101000a900473ffffffffffffffffffffffffffffffffffffffff1673ffffffffffffffffffffffffffffffffffffffff163373ffffffffffffffffffffffffffffffffffffffff1614610be957600080fd5b80600860016101000a81548160ff02191690831515021790555050565b610c17610c116117da565b8261189b565b610c56576040517f08c379a0000000000000000000000000000000000000000000000000000000008152600401610c4d906131dd565b60405180910390fd5b610c61838383611979565b505050565b600b60009054906101000a900473ffffffffffffffffffffffffffffffffffffffff1673ffffffffffffffffffffffffffffffffffffffff163373ffffffffffffffffffffffffffffffffffffffff1614610cc057600080fd5b3373ffffffffffffffffffffffffffffffffffffffff166108fc829081150290604051600060405180830381858888f19350505050158015610d06573d6000803e3d6000fd5b5050565b600b60009054906101000a900473ffffffffffffffffffffffffffffffffffffffff1673ffffffffffffffffffffffffffffffffffffffff163373ffffffffffffffffffffffffffffffffffffffff1614610d6457600080fd5b6001600c60008373ffffffffffffffffffffffffffffffffffffffff1673ffffffffffffffffffffffffffffffffffffffff16815260200190815260200160002060006101000a81548160ff02191690831515021790555050565b610dda8383836040518060200160405280600081525061125e565b505050565b600b60009054906101000a900473ffffffffffffffffffffffffffffffffffffffff1673ffffffffffffffffffffffffffffffffffffffff163373ffffffffffffffffffffffffffffffffffffffff1614610e3957600080fd5b80600a8190555050565b600860019054906101000a900460ff1681565b6000806002600084815260200190815260200160002060009054906101000a900473ffffffffffffffffffffffffffffffffffffffff169050600073ffffffffffffffffffffffffffffffffffffffff168173ffffffffffffffffffffffffffffffffffffffff161415610eff576040517f08c379a0000000000000000000000000000000000000000000000000000000008152600401610ef6906130dd565b60405180910390fd5b80915050919050565b60008073ffffffffffffffffffffffffffffffffffffffff168273ffffffffffffffffffffffffffffffffffffffff161415610f79576040517f08c379a0000000000000000000000000000000000000000000000000000000008152600401610f70906130bd565b60405180910390fd5b600360008373ffffffffffffffffffffffffffffffffffffffff1673ffffffffffffffffffffffffffffffffffffffff168152602001908152602001600020549050919050565b6000600b60009054906101000a900473ffffffffffffffffffffffffffffffffffffffff1673ffffffffffffffffffffffffffffffffffffffff163373ffffffffffffffffffffffffffffffffffffffff161461101c57600080fd5b6110266007611bd5565b905090565b60606001805461103a906134af565b80601f0160208091040260200160405190810160405280929190818152602001828054611066906134af565b80156110b35780601f10611088576101008083540402835291602001916110b3565b820191906000526020600020905b81548152906001019060200180831161109657829003601f168201915b5050505050905090565b600c6020528060005260406000206000915054906101000a900460ff1681565b6110e56117da565b73ffffffffffffffffffffffffffffffffffffffff168273ffffffffffffffffffffffffffffffffffffffff161415611153576040517f08c379a000000000000000000000000000000000000000000000000000000000815260040161114a9061305d565b60405180910390fd5b80600560006111606117da565b73ffffffffffffffffffffffffffffffffffffffff1673ffffffffffffffffffffffffffffffffffffffff16815260200190815260200160002060008473ffffffffffffffffffffffffffffffffffffffff1673ffffffffffffffffffffffffffffffffffffffff16815260200190815260200160002060006101000a81548160ff0219169083151502179055508173ffffffffffffffffffffffffffffffffffffffff1661120d6117da565b73ffffffffffffffffffffffffffffffffffffffff167f17307eab39ab6107e8899845ad3d59bd9653f200f220920489ca2b5937696c31836040516112529190612fc0565b60405180910390a35050565b61126f6112696117da565b8361189b565b6112ae576040517f08c379a00000000000000000000000000000000000000000000000000000000081526004016112a5906131dd565b60405180910390fd5b6112ba84848484611be3565b50505050565b600b60009054906101000a900473ffffffffffffffffffffffffffffffffffffffff1673ffffffffffffffffffffffffffffffffffffffff163373ffffffffffffffffffffffffffffffffffffffff161461131a57600080fd5b6113248282611c3f565b5050565b600b60009054906101000a900473ffffffffffffffffffffffffffffffffffffffff1673ffffffffffffffffffffffffffffffffffffffff163373ffffffffffffffffffffffffffffffffffffffff161461138257600080fd5b80600860006101000a81548160ff02191690831515021790555050565b6000600b60009054906101000a900473ffffffffffffffffffffffffffffffffffffffff1673ffffffffffffffffffffffffffffffffffffffff163373ffffffffffffffffffffffffffffffffffffffff16146113fb57600080fd5b47905090565b606061140c8261176e565b61144b576040517f08c379a00000000000000000000000000000000000000000000000000000000081526004016114429061313d565b60405180910390fd5b600060066000848152602001908152602001600020805461146b906134af565b80601f0160208091040260200160405190810160405280929190818152602001828054611497906134af565b80156114e45780601f106114b9576101008083540402835291602001916114e4565b820191906000526020600020905b8154815290600101906020018083116114c757829003601f168201915b5050505050905060006114f5611cb3565b905060008151141561150b57819250505061154e565b600082511115611540578082604051602001611528929190612f35565b6040516020818303038152906040529250505061154e565b61154984611cca565b925050505b919050565b60095481565b6000600560008473ffffffffffffffffffffffffffffffffffffffff1673ffffffffffffffffffffffffffffffffffffffff16815260200190815260200160002060008373ffffffffffffffffffffffffffffffffffffffff1673ffffffffffffffffffffffffffffffffffffffff16815260200190815260200160002060009054906101000a900460ff16905092915050565b6000600860009054906101000a900460ff16156116175761160d83610ad9565b61161657600080fd5b5b600860019054906101000a900460ff1615611667576040517f08c379a000000000000000000000000000000000000000000000000000000000815260040161165e906131fd565b60405180910390fd5b600a543410156116ac576040517f08c379a00000000000000000000000000000000000000000000000000000000081526004016116a39061321d565b60405180910390fd5b6116b66007611d71565b60006116c26007611bd5565b90506009548111156116d357600080fd5b6116dd8482611d87565b6116e78184611c3f565b8091505092915050565b600860009054906101000a900460ff1681565b60007f01ffc9a7000000000000000000000000000000000000000000000000000000007bffffffffffffffffffffffffffffffffffffffffffffffffffffffff1916827bffffffffffffffffffffffffffffffffffffffffffffffffffffffff1916149050919050565b60008073ffffffffffffffffffffffffffffffffffffffff166002600084815260200190815260200160002060009054906101000a900473ffffffffffffffffffffffffffffffffffffffff1673ffffffffffffffffffffffffffffffffffffffff1614159050919050565b600033905090565b816004600083815260200190815260200160002060006101000a81548173ffffffffffffffffffffffffffffffffffffffff021916908373ffffffffffffffffffffffffffffffffffffffff160217905550808273ffffffffffffffffffffffffffffffffffffffff1661185583610e56565b73ffffffffffffffffffffffffffffffffffffffff167f8c5be1e5ebec7d5bd14f71427d1e84f3dd0314c0f7b2291e5b200ac8c7c3b92560405160405180910390a45050565b60006118a68261176e565b6118e5576040517f08c379a00000000000000000000000000000000000000000000000000000000081526004016118dc9061307d565b60405180910390fd5b60006118f083610e56565b90508073ffffffffffffffffffffffffffffffffffffffff168473ffffffffffffffffffffffffffffffffffffffff16148061195f57508373ffffffffffffffffffffffffffffffffffffffff166119478461093c565b73ffffffffffffffffffffffffffffffffffffffff16145b80611970575061196f8185611559565b5b91505092915050565b8273ffffffffffffffffffffffffffffffffffffffff1661199982610e56565b73ffffffffffffffffffffffffffffffffffffffff16146119ef576040517f08c379a00000000000000000000000000000000000000000000000000000000081526004016119e69061317d565b60405180910390fd5b600073ffffffffffffffffffffffffffffffffffffffff168273ffffffffffffffffffffffffffffffffffffffff161415611a5f576040517f08c379a0000000000000000000000000000000000000000000000000000000008152600401611a569061303d565b60405180910390fd5b611a6a838383611f55565b611a756000826117e2565b6001600360008573ffffffffffffffffffffffffffffffffffffffff1673ffffffffffffffffffffffffffffffffffffffff1681526020019081526020016000206000828254611ac591906133b3565b925050819055506001600360008473ffffffffffffffffffffffffffffffffffffffff1673ffffffffffffffffffffffffffffffffffffffff1681526020019081526020016000206000828254611b1c919061332c565b92505081905550816002600083815260200190815260200160002060006101000a81548173ffffffffffffffffffffffffffffffffffffffff021916908373ffffffffffffffffffffffffffffffffffffffff160217905550808273ffffffffffffffffffffffffffffffffffffffff168473ffffffffffffffffffffffffffffffffffffffff167fddf252ad1be2c89b69c2b068fc378daa952ba7f163c4a11628f55a4df523b3ef60405160405180910390a4505050565b600081600001549050919050565b611bee848484611979565b611bfa84848484611f5a565b611c39576040517f08c379a0000000000000000000000000000000000000000000000000000000008152600401611c3090612ffd565b60405180910390fd5b50505050565b611c488261176e565b611c87576040517f08c379a0000000000000000000000000000000000000000000000000000000008152600401611c7e906130fd565b60405180910390fd5b80600660008481526020019081526020016000209080519060200190611cae9291906122b1565b505050565b606060405180602001604052806000815250905090565b6060611cd58261176e565b611d14576040517f08c379a0000000000000000000000000000000000000000000000000000000008152600401611d0b9061319d565b60405180910390fd5b6000611d1e611cb3565b90506000815111611d3e5760405180602001604052806000815250611d69565b80611d48846120f1565b604051602001611d59929190612f35565b6040516020818303038152906040525b915050919050565b6001816000016000828254019250508190555050565b600073ffffffffffffffffffffffffffffffffffffffff168273ffffffffffffffffffffffffffffffffffffffff161415611df7576040517f08c379a0000000000000000000000000000000000000000000000000000000008152600401611dee9061311d565b60405180910390fd5b611e008161176e565b15611e40576040517f08c379a0000000000000000000000000000000000000000000000000000000008152600401611e379061301d565b60405180910390fd5b611e4c60008383611f55565b6001600360008473ffffffffffffffffffffffffffffffffffffffff1673ffffffffffffffffffffffffffffffffffffffff1681526020019081526020016000206000828254611e9c919061332c565b92505081905550816002600083815260200190815260200160002060006101000a81548173ffffffffffffffffffffffffffffffffffffffff021916908373ffffffffffffffffffffffffffffffffffffffff160217905550808273ffffffffffffffffffffffffffffffffffffffff16600073ffffffffffffffffffffffffffffffffffffffff167fddf252ad1be2c89b69c2b068fc378daa952ba7f163c4a11628f55a4df523b3ef60405160405180910390a45050565b505050565b6000611f7b8473ffffffffffffffffffffffffffffffffffffffff1661229e565b156120e4578373ffffffffffffffffffffffffffffffffffffffff1663150b7a02611fa46117da565b8786866040518563ffffffff1660e01b8152600401611fc69493929190612f74565b602060405180830381600087803b158015611fe057600080fd5b505af192505050801561201157506040513d601f19601f8201168201806040525081019061200e919061272b565b60015b612094573d8060008114612041576040519150601f19603f3d011682016040523d82523d6000602084013e612046565b606091505b5060008151141561208c576040517f08c379a000000000000000000000000000000000000000000000000000000000815260040161208390612ffd565b60405180910390fd5b805181602001fd5b63150b7a0260e01b7bffffffffffffffffffffffffffffffffffffffffffffffffffffffff1916817bffffffffffffffffffffffffffffffffffffffffffffffffffffffff1916149150506120e9565b600190505b949350505050565b60606000821415612139576040518060400160405280600181526020017f30000000000000000000000000000000000000000000000000000000000000008152509050612299565b600082905060005b6000821461216b578080612154906134e1565b915050600a826121649190613382565b9150612141565b60008167ffffffffffffffff8111156121ad577f4e487b7100000000000000000000000000000000000000000000000000000000600052604160045260246000fd5b6040519080825280601f01601f1916602001820160405280156121df5781602001600182028036833780820191505090505b5090505b60008514612292576001826121f891906133b3565b9150600a85612207919061352a565b6030612213919061332c565b60f81b81838151811061224f577f4e487b7100000000000000000000000000000000000000000000000000000000600052603260045260246000fd5b60200101907effffffffffffffffffffffffffffffffffffffffffffffffffffffffffffff1916908160001a905350600a8561228b9190613382565b94506121e3565b8093505050505b919050565b600080823b905060008111915050919050565b8280546122bd906134af565b90600052602060002090601f0160209004810192826122df5760008555612326565b82601f106122f857805160ff1916838001178555612326565b82800160010185558215612326579182015b8281111561232557825182559160200191906001019061230a565b5b5090506123339190612337565b5090565b5b80821115612350576000816000905550600101612338565b5090565b600061236761236284613289565b613258565b90508281526020810184848401111561237f57600080fd5b61238a84828561346d565b509392505050565b60006123a56123a0846132b9565b613258565b9050828152602081018484840111156123bd57600080fd5b6123c884828561346d565b509392505050565b6000813590506123df81613628565b92915050565b6000813590506123f48161363f565b92915050565b60008135905061240981613656565b92915050565b60008135905061241e8161366d565b92915050565b6000815190506124338161366d565b92915050565b600082601f83011261244a57600080fd5b813561245a848260208601612354565b91505092915050565b600082601f83011261247457600080fd5b8135612484848260208601612392565b91505092915050565b60008135905061249c81613684565b92915050565b6000602082840312156124b457600080fd5b60006124c2848285016123d0565b91505092915050565b600080604083850312156124de57600080fd5b60006124ec858286016123e5565b92505060206124fd8582860161248d565b9150509250929050565b6000806040838503121561251a57600080fd5b6000612528858286016123d0565b9250506020612539858286016123d0565b9150509250929050565b60008060006060848603121561255857600080fd5b6000612566868287016123d0565b9350506020612577868287016123d0565b92505060406125888682870161248d565b9150509250925092565b600080600080608085870312156125a857600080fd5b60006125b6878288016123d0565b94505060206125c7878288016123d0565b93505060406125d88782880161248d565b925050606085013567ffffffffffffffff8111156125f557600080fd5b61260187828801612439565b91505092959194509250565b6000806040838503121561262057600080fd5b600061262e858286016123d0565b925050602061263f858286016123fa565b9150509250929050565b6000806040838503121561265c57600080fd5b600061266a858286016123d0565b925050602083013567ffffffffffffffff81111561268757600080fd5b61269385828601612463565b9150509250929050565b600080604083850312156126b057600080fd5b60006126be858286016123d0565b92505060206126cf8582860161248d565b9150509250929050565b6000602082840312156126eb57600080fd5b60006126f9848285016123fa565b91505092915050565b60006020828403121561271457600080fd5b60006127228482850161240f565b91505092915050565b60006020828403121561273d57600080fd5b600061274b84828501612424565b91505092915050565b60006020828403121561276657600080fd5b60006127748482850161248d565b91505092915050565b6000806040838503121561279057600080fd5b600061279e8582860161248d565b925050602083013567ffffffffffffffff8111156127bb57600080fd5b6127c785828601612463565b9150509250929050565b6127da816133e7565b82525050565b6127e98161340b565b82525050565b60006127fa826132e9565b61280481856132ff565b935061281481856020860161347c565b61281d81613617565b840191505092915050565b6000612833826132f4565b61283d8185613310565b935061284d81856020860161347c565b61285681613617565b840191505092915050565b600061286c826132f4565b6128768185613321565b935061288681856020860161347c565b80840191505092915050565b600061289f603283613310565b91507f4552433732313a207472616e7366657220746f206e6f6e20455243373231526560008301527f63656976657220696d706c656d656e74657200000000000000000000000000006020830152604082019050919050565b6000612905601c83613310565b91507f4552433732313a20746f6b656e20616c7265616479206d696e746564000000006000830152602082019050919050565b6000612945602483613310565b91507f4552433732313a207472616e7366657220746f20746865207a65726f2061646460008301527f72657373000000000000000000000000000000000000000000000000000000006020830152604082019050919050565b60006129ab601983613310565b91507f4552433732313a20617070726f766520746f2063616c6c6572000000000000006000830152602082019050919050565b60006129eb602c83613310565b91507f4552433732313a206f70657261746f7220717565727920666f72206e6f6e657860008301527f697374656e7420746f6b656e00000000000000000000000000000000000000006020830152604082019050919050565b6000612a51603883613310565b91507f4552433732313a20617070726f76652063616c6c6572206973206e6f74206f7760008301527f6e6572206e6f7220617070726f76656420666f7220616c6c00000000000000006020830152604082019050919050565b6000612ab7602a83613310565b91507f4552433732313a2062616c616e636520717565727920666f7220746865207a6560008301527f726f2061646472657373000000000000000000000000000000000000000000006020830152604082019050919050565b6000612b1d602983613310565b91507f4552433732313a206f776e657220717565727920666f72206e6f6e657869737460008301527f656e7420746f6b656e00000000000000000000000000000000000000000000006020830152604082019050919050565b6000612b83602e83613310565b91507f45524337323155524953746f726167653a2055524920736574206f66206e6f6e60008301527f6578697374656e7420746f6b656e0000000000000000000000000000000000006020830152604082019050919050565b6000612be9602083613310565b91507f4552433732313a206d696e7420746f20746865207a65726f20616464726573736000830152602082019050919050565b6000612c29603183613310565b91507f45524337323155524953746f726167653a2055524920717565727920666f722060008301527f6e6f6e6578697374656e7420746f6b656e0000000000000000000000000000006020830152604082019050919050565b6000612c8f602c83613310565b91507f4552433732313a20617070726f76656420717565727920666f72206e6f6e657860008301527f697374656e7420746f6b656e00000000000000000000000000000000000000006020830152604082019050919050565b6000612cf5602983613310565b91507f4552433732313a207472616e73666572206f6620746f6b656e2074686174206960008301527f73206e6f74206f776e00000000000000000000000000000000000000000000006020830152604082019050919050565b6000612d5b602f83613310565b91507f4552433732314d657461646174613a2055524920717565727920666f72206e6f60008301527f6e6578697374656e7420746f6b656e00000000000000000000000000000000006020830152604082019050919050565b6000612dc1602183613310565b91507f4552433732313a20617070726f76616c20746f2063757272656e74206f776e6560008301527f72000000000000000000000000000000000000000000000000000000000000006020830152604082019050919050565b6000612e27603183613310565b91507f4552433732313a207472616e736665722063616c6c6572206973206e6f74206f60008301527f776e6572206e6f7220617070726f7665640000000000000000000000000000006020830152604082019050919050565b6000612e8d601183613310565b91507f4d696e74696e67206973207061757365640000000000000000000000000000006000830152602082019050919050565b6000612ecd602183613310565b91507f4e6f7420656e6f756768204554482073656e743b20636865636b20707269636560008301527f21000000000000000000000000000000000000000000000000000000000000006020830152604082019050919050565b612f2f81613463565b82525050565b6000612f418285612861565b9150612f4d8284612861565b91508190509392505050565b6000602082019050612f6e60008301846127d1565b92915050565b6000608082019050612f8960008301876127d1565b612f9660208301866127d1565b612fa36040830185612f26565b8181036060830152612fb581846127ef565b905095945050505050565b6000602082019050612fd560008301846127e0565b92915050565b60006020820190508181036000830152612ff58184612828565b905092915050565b6000602082019050818103600083015261301681612892565b9050919050565b60006020820190508181036000830152613036816128f8565b9050919050565b6000602082019050818103600083015261305681612938565b9050919050565b600060208201905081810360008301526130768161299e565b9050919050565b60006020820190508181036000830152613096816129de565b9050919050565b600060208201905081810360008301526130b681612a44565b9050919050565b600060208201905081810360008301526130d681612aaa565b9050919050565b600060208201905081810360008301526130f681612b10565b9050919050565b6000602082019050818103600083015261311681612b76565b9050919050565b6000602082019050818103600083015261313681612bdc565b9050919050565b6000602082019050818103600083015261315681612c1c565b9050919050565b6000602082019050818103600083015261317681612c82565b9050919050565b6000602082019050818103600083015261319681612ce8565b9050919050565b600060208201905081810360008301526131b681612d4e565b9050919050565b600060208201905081810360008301526131d681612db4565b9050919050565b600060208201905081810360008301526131f681612e1a565b9050919050565b6000602082019050818103600083015261321681612e80565b9050919050565b6000602082019050818103600083015261323681612ec0565b9050919050565b60006020820190506132526000830184612f26565b92915050565b6000604051905081810181811067ffffffffffffffff8211171561327f5761327e6135e8565b5b8060405250919050565b600067ffffffffffffffff8211156132a4576132a36135e8565b5b601f19601f8301169050602081019050919050565b600067ffffffffffffffff8211156132d4576132d36135e8565b5b601f19601f8301169050602081019050919050565b600081519050919050565b600081519050919050565b600082825260208201905092915050565b600082825260208201905092915050565b600081905092915050565b600061333782613463565b915061334283613463565b9250827fffffffffffffffffffffffffffffffffffffffffffffffffffffffffffffffff038211156133775761337661355b565b5b828201905092915050565b600061338d82613463565b915061339883613463565b9250826133a8576133a761358a565b5b828204905092915050565b60006133be82613463565b91506133c983613463565b9250828210156133dc576133db61355b565b5b828203905092915050565b60006133f282613443565b9050919050565b600061340482613443565b9050919050565b60008115159050919050565b60007fffffffff0000000000000000000000000000000000000000000000000000000082169050919050565b600073ffffffffffffffffffffffffffffffffffffffff82169050919050565b6000819050919050565b82818337600083830152505050565b60005b8381101561349a57808201518184015260208101905061347f565b838111156134a9576000848401525b50505050565b600060028204905060018216806134c757607f821691505b602082108114156134db576134da6135b9565b5b50919050565b60006134ec82613463565b91507fffffffffffffffffffffffffffffffffffffffffffffffffffffffffffffffff82141561351f5761351e61355b565b5b600182019050919050565b600061353582613463565b915061354083613463565b9250826135505761354f61358a565b5b828206905092915050565b7f4e487b7100000000000000000000000000000000000000000000000000000000600052601160045260246000fd5b7f4e487b7100000000000000000000000000000000000000000000000000000000600052601260045260246000fd5b7f4e487b7100000000000000000000000000000000000000000000000000000000600052602260045260246000fd5b7f4e487b7100000000000000000000000000000000000000000000000000000000600052604160045260246000fd5b6000601f19601f8301169050919050565b613631816133e7565b811461363c57600080fd5b50565b613648816133f9565b811461365357600080fd5b50565b61365f8161340b565b811461366a57600080fd5b50565b61367681613417565b811461368157600080fd5b50565b61368d81613463565b811461369857600080fd5b5056fea2646970667358221220cbb3d65540b46e027394b0d95ba8933bc3e84c8f02b27eafce96961a9fa74aeb64736f6c63430008000033",
  "linkReferences": {},
  "deployedLinkReferences": {}
}