{
  "_format": "hh-sol-artifact-1",
  "contractName": "MyNFT",
  "sourceName": "contracts/MyNFT.sol",
  "abi": [
    {
      "inputs": [],
      "stateMutability": "nonpayable",
      "type": "constructor"
    },
    {
      "anonymous": false,
      "inputs": [
        {
          "indexed": true,
          "internalType": "address",
          "name": "owner",
          "type": "address"
        },
        {
          "indexed": true,
          "internalType": "address",
          "name": "approved",
          "type": "address"
        },
        {
          "indexed": true,
          "internalType": "uint256",
          "name": "tokenId",
          "type": "uint256"
        }
      ],
      "name": "Approval",
      "type": "event"
    },
    {
      "anonymous": false,
      "inputs": [
        {
          "indexed": true,
          "internalType": "address",
          "name": "owner",
          "type": "address"
        },
        {
          "indexed": true,
          "internalType": "address",
          "name": "operator",
          "type": "address"
        },
        {
          "indexed": false,
          "internalType": "bool",
          "name": "approved",
          "type": "bool"
        }
      ],
      "name": "ApprovalForAll",
      "type": "event"
    },
    {
      "anonymous": false,
      "inputs": [
        {
          "indexed": true,
          "internalType": "address",
          "name": "previousOwner",
          "type": "address"
        },
        {
          "indexed": true,
          "internalType": "address",
          "name": "newOwner",
          "type": "address"
        }
      ],
      "name": "OwnershipTransferred",
      "type": "event"
    },
    {
      "anonymous": false,
      "inputs": [
        {
          "indexed": true,
          "internalType": "address",
          "name": "from",
          "type": "address"
        },
        {
          "indexed": true,
          "internalType": "address",
          "name": "to",
          "type": "address"
        },
        {
          "indexed": true,
          "internalType": "uint256",
          "name": "tokenId",
          "type": "uint256"
        }
      ],
      "name": "Transfer",
      "type": "event"
    },
    {
      "inputs": [
        {
          "internalType": "address",
          "name": "_recipient",
          "type": "address"
        },
        {
          "internalType": "string",
          "name": "_tokenURI",
          "type": "string"
        }
      ],
      "name": "airDrop",
      "outputs": [
        {
          "internalType": "uint256",
          "name": "",
          "type": "uint256"
        }
      ],
      "stateMutability": "nonpayable",
      "type": "function"
    },
    {
      "inputs": [],
      "name": "airdropTokenId",
      "outputs": [
        {
          "internalType": "uint256",
          "name": "",
          "type": "uint256"
        }
      ],
      "stateMutability": "view",
      "type": "function"
    },
    {
      "inputs": [],
      "name": "allWhitelistedAddresses",
      "outputs": [
        {
          "internalType": "address[]",
          "name": "",
          "type": "address[]"
        }
      ],
      "stateMutability": "view",
      "type": "function"
    },
    {
      "inputs": [
        {
          "internalType": "address",
          "name": "to",
          "type": "address"
        },
        {
          "internalType": "uint256",
          "name": "tokenId",
          "type": "uint256"
        }
      ],
      "name": "approve",
      "outputs": [],
      "stateMutability": "nonpayable",
      "type": "function"
    },
    {
      "inputs": [
        {
          "internalType": "address",
          "name": "owner",
          "type": "address"
        }
      ],
      "name": "balanceOf",
      "outputs": [
        {
          "internalType": "uint256",
          "name": "",
          "type": "uint256"
        }
      ],
      "stateMutability": "view",
      "type": "function"
    },
    {
      "inputs": [],
      "name": "checkBalance",
      "outputs": [
        {
          "internalType": "uint256",
          "name": "",
          "type": "uint256"
        }
      ],
      "stateMutability": "view",
      "type": "function"
    },
    {
      "inputs": [],
      "name": "cost",
      "outputs": [
        {
          "internalType": "uint256",
          "name": "",
          "type": "uint256"
        }
      ],
      "stateMutability": "view",
      "type": "function"
    },
    {
      "inputs": [
        {
          "internalType": "uint256",
          "name": "tokenId",
          "type": "uint256"
        }
      ],
      "name": "getApproved",
      "outputs": [
        {
          "internalType": "address",
          "name": "",
          "type": "address"
        }
      ],
      "stateMutability": "view",
      "type": "function"
    },
    {
      "inputs": [],
      "name": "getTotalMinted",
      "outputs": [
        {
          "internalType": "uint256",
          "name": "",
          "type": "uint256"
        }
      ],
      "stateMutability": "view",
      "type": "function"
    },
    {
      "inputs": [],
      "name": "getWhitelistedAddresses",
      "outputs": [
        {
          "internalType": "address[]",
          "name": "",
          "type": "address[]"
        }
      ],
      "stateMutability": "view",
      "type": "function"
    },
    {
      "inputs": [
        {
          "internalType": "address",
          "name": "_addr",
          "type": "address"
        }
      ],
      "name": "isAddressWhitelisted",
      "outputs": [
        {
          "internalType": "bool",
          "name": "",
          "type": "bool"
        }
      ],
      "stateMutability": "view",
      "type": "function"
    },
    {
      "inputs": [
        {
          "internalType": "address",
          "name": "owner",
          "type": "address"
        },
        {
          "internalType": "address",
          "name": "operator",
          "type": "address"
        }
      ],
      "name": "isApprovedForAll",
      "outputs": [
        {
          "internalType": "bool",
          "name": "",
          "type": "bool"
        }
      ],
      "stateMutability": "view",
      "type": "function"
    },
    {
      "inputs": [],
      "name": "maxSupply",
      "outputs": [
        {
          "internalType": "uint256",
          "name": "",
          "type": "uint256"
        }
      ],
      "stateMutability": "view",
      "type": "function"
    },
    {
      "inputs": [
        {
          "internalType": "address",
          "name": "_recipient",
          "type": "address"
        },
        {
          "internalType": "string",
          "name": "_tokenURI",
          "type": "string"
        }
      ],
      "name": "mintNFT",
      "outputs": [
        {
          "internalType": "uint256",
          "name": "",
          "type": "uint256"
        }
      ],
      "stateMutability": "payable",
      "type": "function"
    },
    {
      "inputs": [],
      "name": "name",
      "outputs": [
        {
          "internalType": "string",
          "name": "",
          "type": "string"
        }
      ],
      "stateMutability": "view",
      "type": "function"
    },
    {
      "inputs": [],
      "name": "owner",
      "outputs": [
        {
          "internalType": "address",
          "name": "",
          "type": "address"
        }
      ],
      "stateMutability": "view",
      "type": "function"
    },
    {
      "inputs": [
        {
          "internalType": "uint256",
          "name": "tokenId",
          "type": "uint256"
        }
      ],
      "name": "ownerOf",
      "outputs": [
        {
          "internalType": "address",
          "name": "",
          "type": "address"
        }
      ],
      "stateMutability": "view",
      "type": "function"
    },
    {
      "inputs": [],
      "name": "paused",
      "outputs": [
        {
          "internalType": "bool",
          "name": "",
          "type": "bool"
        }
      ],
      "stateMutability": "view",
      "type": "function"
    },
    {
      "inputs": [],
      "name": "presale",
      "outputs": [
        {
          "internalType": "bool",
          "name": "",
          "type": "bool"
        }
      ],
      "stateMutability": "view",
      "type": "function"
    },
    {
      "inputs": [],
      "name": "renounceOwnership",
      "outputs": [],
      "stateMutability": "nonpayable",
      "type": "function"
    },
    {
      "inputs": [
        {
          "internalType": "address",
          "name": "from",
          "type": "address"
        },
        {
          "internalType": "address",
          "name": "to",
          "type": "address"
        },
        {
          "internalType": "uint256",
          "name": "tokenId",
          "type": "uint256"
        }
      ],
      "name": "safeTransferFrom",
      "outputs": [],
      "stateMutability": "nonpayable",
      "type": "function"
    },
    {
      "inputs": [
        {
          "internalType": "address",
          "name": "from",
          "type": "address"
        },
        {
          "internalType": "address",
          "name": "to",
          "type": "address"
        },
        {
          "internalType": "uint256",
          "name": "tokenId",
          "type": "uint256"
        },
        {
          "internalType": "bytes",
          "name": "_data",
          "type": "bytes"
        }
      ],
      "name": "safeTransferFrom",
      "outputs": [],
      "stateMutability": "nonpayable",
      "type": "function"
    },
    {
      "inputs": [
        {
          "internalType": "address",
          "name": "operator",
          "type": "address"
        },
        {
          "internalType": "bool",
          "name": "approved",
          "type": "bool"
        }
      ],
      "name": "setApprovalForAll",
      "outputs": [],
      "stateMutability": "nonpayable",
      "type": "function"
    },
    {
      "inputs": [
        {
          "internalType": "uint256",
          "name": "_newCost",
          "type": "uint256"
        }
      ],
      "name": "setCost",
      "outputs": [],
      "stateMutability": "nonpayable",
      "type": "function"
    },
    {
      "inputs": [
        {
          "internalType": "bool",
          "name": "_value",
          "type": "bool"
        }
      ],
      "name": "setPresale",
      "outputs": [],
      "stateMutability": "nonpayable",
      "type": "function"
    },
    {
      "inputs": [
        {
          "internalType": "bytes4",
          "name": "interfaceId",
          "type": "bytes4"
        }
      ],
      "name": "supportsInterface",
      "outputs": [
        {
          "internalType": "bool",
          "name": "",
          "type": "bool"
        }
      ],
      "stateMutability": "view",
      "type": "function"
    },
    {
      "inputs": [],
      "name": "symbol",
      "outputs": [
        {
          "internalType": "string",
          "name": "",
          "type": "string"
        }
      ],
      "stateMutability": "view",
      "type": "function"
    },
    {
      "inputs": [
        {
          "internalType": "uint256",
          "name": "tokenId",
          "type": "uint256"
        }
      ],
      "name": "tokenURI",
      "outputs": [
        {
          "internalType": "string",
          "name": "",
          "type": "string"
        }
      ],
      "stateMutability": "view",
      "type": "function"
    },
    {
      "inputs": [
        {
          "internalType": "address payable",
          "name": "_addr",
          "type": "address"
        },
        {
          "internalType": "uint256",
          "name": "_amount",
          "type": "uint256"
        }
      ],
      "name": "transferEther",
      "outputs": [],
      "stateMutability": "nonpayable",
      "type": "function"
    },
    {
      "inputs": [
        {
          "internalType": "address",
          "name": "from",
          "type": "address"
        },
        {
          "internalType": "address",
          "name": "to",
          "type": "address"
        },
        {
          "internalType": "uint256",
          "name": "tokenId",
          "type": "uint256"
        }
      ],
      "name": "transferFrom",
      "outputs": [],
      "stateMutability": "nonpayable",
      "type": "function"
    },
    {
      "inputs": [
        {
          "internalType": "address",
          "name": "newOwner",
          "type": "address"
        }
      ],
      "name": "transferOwnership",
      "outputs": [],
      "stateMutability": "nonpayable",
      "type": "function"
    },
    {
      "inputs": [
        {
          "internalType": "address[]",
          "name": "_addrs",
          "type": "address[]"
        }
      ],
      "name": "whitelistAddresses",
      "outputs": [],
      "stateMutability": "nonpayable",
      "type": "function"
    },
    {
      "inputs": [
        {
          "internalType": "uint256",
          "name": "_amount",
          "type": "uint256"
        }
      ],
      "name": "withdrawEther",
      "outputs": [],
      "stateMutability": "nonpayable",
      "type": "function"
    }
  ],
  "bytecode": "0x60806040526001600960006101000a81548160ff0219169083151502179055506000600960016101000a81548160ff021916908315150217905550611e61600a5566f8b0a10e470000600b556000600c553480156200005d57600080fd5b506040518060400160405280600581526020017f4d794e46540000000000000000000000000000000000000000000000000000008152506040518060400160405280600381526020017f4e465400000000000000000000000000000000000000000000000000000000008152508160009080519060200190620000e2929190620001f2565b508060019080519060200190620000fb929190620001f2565b5050506200011e620001126200012460201b60201c565b6200012c60201b60201c565b62000307565b600033905090565b6000600760009054906101000a900473ffffffffffffffffffffffffffffffffffffffff16905081600760006101000a81548173ffffffffffffffffffffffffffffffffffffffff021916908373ffffffffffffffffffffffffffffffffffffffff1602179055508173ffffffffffffffffffffffffffffffffffffffff168173ffffffffffffffffffffffffffffffffffffffff167f8be0079c531659141344cd1fd0a4f28419497f9722a3daafe3b4186f6b6457e060405160405180910390a35050565b8280546200020090620002a2565b90600052602060002090601f01602090048101928262000224576000855562000270565b82601f106200023f57805160ff191683800117855562000270565b8280016001018555821562000270579182015b828111156200026f57825182559160200191906001019062000252565b5b5090506200027f919062000283565b5090565b5b808211156200029e57600081600090555060010162000284565b5090565b60006002820490506001821680620002bb57607f821691505b60208210811415620002d257620002d1620002d8565b5b50919050565b7f4e487b7100000000000000000000000000000000000000000000000000000000600052602260045260246000fd5b61414a80620003176000396000f3fe6080604052600436106101ee5760003560e01c80636d0280271161010d578063c54e73e3116100a0578063e985e9c51161006f578063e985e9c5146106fd578063eacabe141461073a578063f2fde38b1461076a578063f779acbb14610793578063fdea8e0b146107be576101ee565b8063c54e73e314610641578063c71daccb1461066a578063c87b56dd14610695578063d5abeb01146106d2576101ee565b806395d89b41116100dc57806395d89b4114610599578063a1f1a500146105c4578063a22cb465146105ef578063b88d4fde14610618576101ee565b80636d028027146104ef57806370a082311461051a578063715018a6146105575780638da5cb5b1461056e576101ee565b806323b872dd1161018557806342842e0e1161015457806342842e0e1461043557806344a0d68a1461045e5780635c975abb146104875780636352211e146104b2576101ee565b806323b872dd1461037d5780632bf04304146103a65780632cd07c50146103cf5780633bed33ce1461040c576101ee565b8063095ea7b3116101c1578063095ea7b3146102c15780630ca1c5c9146102ea57806313f44d101461031557806313faede614610352576101ee565b806301ffc9a7146101f357806305b1137b1461023057806306fdde0314610259578063081812fc14610284575b600080fd5b3480156101ff57600080fd5b5061021a60048036038101906102159190612f57565b6107e9565b6040516102279190613974565b60405180910390f35b34801561023c57600080fd5b5061025760048036038101906102529190612cdf565b6108cb565b005b34801561026557600080fd5b5061026e610992565b60405161027b919061398f565b60405180910390f35b34801561029057600080fd5b506102ab60048036038101906102a69190612fa9565b610a24565b6040516102b891906138eb565b60405180910390f35b3480156102cd57600080fd5b506102e860048036038101906102e39190612eb1565b610aa9565b005b3480156102f657600080fd5b506102ff610bc1565b60405161030c9190613c51565b60405180910390f35b34801561032157600080fd5b5061033c60048036038101906103379190612cb6565b610bd2565b6040516103499190613974565b60405180910390f35b34801561035e57600080fd5b50610367610d23565b6040516103749190613c51565b60405180910390f35b34801561038957600080fd5b506103a4600480360381019061039f9190612d57565b610d29565b005b3480156103b257600080fd5b506103cd60048036038101906103c89190612eed565b610d89565b005b3480156103db57600080fd5b506103f660048036038101906103f19190612e5d565b610ece565b6040516104039190613c51565b60405180910390f35b34801561041857600080fd5b50610433600480360381019061042e9190612fa9565b611044565b005b34801561044157600080fd5b5061045c60048036038101906104579190612d57565b61110a565b005b34801561046a57600080fd5b5061048560048036038101906104809190612fa9565b61112a565b005b34801561049357600080fd5b5061049c6111b0565b6040516104a99190613974565b60405180910390f35b3480156104be57600080fd5b506104d960048036038101906104d49190612fa9565b6111c3565b6040516104e691906138eb565b60405180910390f35b3480156104fb57600080fd5b50610504611275565b6040516105119190613952565b60405180910390f35b34801561052657600080fd5b50610541600480360381019061053c9190612cb6565b61137f565b60405161054e9190613c51565b60405180910390f35b34801561056357600080fd5b5061056c611437565b005b34801561057a57600080fd5b506105836114bf565b60405161059091906138eb565b60405180910390f35b3480156105a557600080fd5b506105ae6114e9565b6040516105bb919061398f565b60405180910390f35b3480156105d057600080fd5b506105d961157b565b6040516105e69190613c51565b60405180910390f35b3480156105fb57600080fd5b5061061660048036038101906106119190612e21565b611581565b005b34801561062457600080fd5b5061063f600480360381019061063a9190612da6565b611702565b005b34801561064d57600080fd5b5061066860048036038101906106639190612f2e565b611764565b005b34801561067657600080fd5b5061067f6117fd565b60405161068c9190613c51565b60405180910390f35b3480156106a157600080fd5b506106bc60048036038101906106b79190612fa9565b611881565b6040516106c9919061398f565b60405180910390f35b3480156106de57600080fd5b506106e76119d3565b6040516106f49190613c51565b60405180910390f35b34801561070957600080fd5b50610724600480360381019061071f9190612d1b565b6119d9565b6040516107319190613974565b60405180910390f35b610754600480360381019061074f9190612e5d565b611a6d565b6040516107619190613c51565b60405180910390f35b34801561077657600080fd5b50610791600480360381019061078c9190612cb6565b611ba7565b005b34801561079f57600080fd5b506107a8611c9f565b6040516107b59190613952565b60405180910390f35b3480156107ca57600080fd5b506107d3611da9565b6040516107e09190613974565b60405180910390f35b60007f80ac58cd000000000000000000000000000000000000000000000000000000007bffffffffffffffffffffffffffffffffffffffffffffffffffffffff1916827bffffffffffffffffffffffffffffffffffffffffffffffffffffffff191614806108b457507f5b5e139f000000000000000000000000000000000000000000000000000000007bffffffffffffffffffffffffffffffffffffffffffffffffffffffff1916827bffffffffffffffffffffffffffffffffffffffffffffffffffffffff1916145b806108c457506108c382611dbc565b5b9050919050565b6108d3611e26565b73ffffffffffffffffffffffffffffffffffffffff166108f16114bf565b73ffffffffffffffffffffffffffffffffffffffff1614610947576040517f08c379a000000000000000000000000000000000000000000000000000000000815260040161093e90613b71565b60405180910390fd5b8173ffffffffffffffffffffffffffffffffffffffff166108fc829081150290604051600060405180830381858888f1935050505015801561098d573d6000803e3d6000fd5b505050565b6060600080546109a190613f28565b80601f01602080910402602001604051908101604052809291908181526020018280546109cd90613f28565b8015610a1a5780601f106109ef57610100808354040283529160200191610a1a565b820191906000526020600020905b8154815290600101906020018083116109fd57829003601f168201915b5050505050905090565b6000610a2f82611e2e565b610a6e576040517f08c379a0000000000000000000000000000000000000000000000000000000008152600401610a6590613b31565b60405180910390fd5b6004600083815260200190815260200160002060009054906101000a900473ffffffffffffffffffffffffffffffffffffffff169050919050565b6000610ab4826111c3565b90508073ffffffffffffffffffffffffffffffffffffffff168373ffffffffffffffffffffffffffffffffffffffff161415610b25576040517f08c379a0000000000000000000000000000000000000000000000000000000008152600401610b1c90613bd1565b60405180910390fd5b8073ffffffffffffffffffffffffffffffffffffffff16610b44611e26565b73ffffffffffffffffffffffffffffffffffffffff161480610b735750610b7281610b6d611e26565b6119d9565b5b610bb2576040517f08c379a0000000000000000000000000000000000000000000000000000000008152600401610ba990613a71565b60405180910390fd5b610bbc8383611e9a565b505050565b6000610bcd6008611f53565b905090565b6000610bdc611e26565b73ffffffffffffffffffffffffffffffffffffffff16610bfa6114bf565b73ffffffffffffffffffffffffffffffffffffffff1614610c50576040517f08c379a0000000000000000000000000000000000000000000000000000000008152600401610c4790613b71565b60405180910390fd5b6000600190505b600d805490508111610d18578273ffffffffffffffffffffffffffffffffffffffff16600d8281548110610cb4577f4e487b7100000000000000000000000000000000000000000000000000000000600052603260045260246000fd5b9060005260206000200160009054906101000a900473ffffffffffffffffffffffffffffffffffffffff1673ffffffffffffffffffffffffffffffffffffffff161415610d05576001915050610d1e565b8080610d1090613f5a565b915050610c57565b50600090505b919050565b600b5481565b610d3a610d34611e26565b82611f61565b610d79576040517f08c379a0000000000000000000000000000000000000000000000000000000008152600401610d7090613bf1565b60405180910390fd5b610d8483838361203f565b505050565b610d91611e26565b73ffffffffffffffffffffffffffffffffffffffff16610daf6114bf565b73ffffffffffffffffffffffffffffffffffffffff1614610e05576040517f08c379a0000000000000000000000000000000000000000000000000000000008152600401610dfc90613b71565b60405180910390fd5b6000600190505b81518111610eca57600d828281518110610e4f577f4e487b7100000000000000000000000000000000000000000000000000000000600052603260045260246000fd5b60200260200101519080600181540180825580915050600190039060005260206000200160009091909190916101000a81548173ffffffffffffffffffffffffffffffffffffffff021916908373ffffffffffffffffffffffffffffffffffffffff1602179055508080610ec290613f5a565b915050610e0c565b5050565b6000610ed8611e26565b73ffffffffffffffffffffffffffffffffffffffff16610ef66114bf565b73ffffffffffffffffffffffffffffffffffffffff1614610f4c576040517f08c379a0000000000000000000000000000000000000000000000000000000008152600401610f4390613b71565b60405180910390fd5b600960009054906101000a900460ff1615610faa57610f6a83610bd2565b610fa9576040517f08c379a0000000000000000000000000000000000000000000000000000000008152600401610fa090613b51565b60405180910390fd5b5b600960019054906101000a900460ff1615610ffa576040517f08c379a0000000000000000000000000000000000000000000000000000000008152600401610ff190613c11565b60405180910390fd5b600c6000815461100990613f5a565b91905081905550600a54600c54111561102157600080fd5b61102d83600c5461229b565b611039600c5483612469565b600c54905092915050565b61104c611e26565b73ffffffffffffffffffffffffffffffffffffffff1661106a6114bf565b73ffffffffffffffffffffffffffffffffffffffff16146110c0576040517f08c379a00000000000000000000000000000000000000000000000000000000081526004016110b790613b71565b60405180910390fd5b3373ffffffffffffffffffffffffffffffffffffffff166108fc829081150290604051600060405180830381858888f19350505050158015611106573d6000803e3d6000fd5b5050565b61112583838360405180602001604052806000815250611702565b505050565b611132611e26565b73ffffffffffffffffffffffffffffffffffffffff166111506114bf565b73ffffffffffffffffffffffffffffffffffffffff16146111a6576040517f08c379a000000000000000000000000000000000000000000000000000000000815260040161119d90613b71565b60405180910390fd5b80600b8190555050565b600960019054906101000a900460ff1681565b6000806002600084815260200190815260200160002060009054906101000a900473ffffffffffffffffffffffffffffffffffffffff169050600073ffffffffffffffffffffffffffffffffffffffff168173ffffffffffffffffffffffffffffffffffffffff16141561126c576040517f08c379a000000000000000000000000000000000000000000000000000000000815260040161126390613ab1565b60405180910390fd5b80915050919050565b606061127f611e26565b73ffffffffffffffffffffffffffffffffffffffff1661129d6114bf565b73ffffffffffffffffffffffffffffffffffffffff16146112f3576040517f08c379a00000000000000000000000000000000000000000000000000000000081526004016112ea90613b71565b60405180910390fd5b600d80548060200260200160405190810160405280929190818152602001828054801561137557602002820191906000526020600020905b8160009054906101000a900473ffffffffffffffffffffffffffffffffffffffff1673ffffffffffffffffffffffffffffffffffffffff168152602001906001019080831161132b575b5050505050905090565b60008073ffffffffffffffffffffffffffffffffffffffff168273ffffffffffffffffffffffffffffffffffffffff1614156113f0576040517f08c379a00000000000000000000000000000000000000000000000000000000081526004016113e790613a91565b60405180910390fd5b600360008373ffffffffffffffffffffffffffffffffffffffff1673ffffffffffffffffffffffffffffffffffffffff168152602001908152602001600020549050919050565b61143f611e26565b73ffffffffffffffffffffffffffffffffffffffff1661145d6114bf565b73ffffffffffffffffffffffffffffffffffffffff16146114b3576040517f08c379a00000000000000000000000000000000000000000000000000000000081526004016114aa90613b71565b60405180910390fd5b6114bd60006124dd565b565b6000600760009054906101000a900473ffffffffffffffffffffffffffffffffffffffff16905090565b6060600180546114f890613f28565b80601f016020809104026020016040519081016040528092919081815260200182805461152490613f28565b80156115715780601f1061154657610100808354040283529160200191611571565b820191906000526020600020905b81548152906001019060200180831161155457829003601f168201915b5050505050905090565b600c5481565b611589611e26565b73ffffffffffffffffffffffffffffffffffffffff168273ffffffffffffffffffffffffffffffffffffffff1614156115f7576040517f08c379a00000000000000000000000000000000000000000000000000000000081526004016115ee90613a31565b60405180910390fd5b8060056000611604611e26565b73ffffffffffffffffffffffffffffffffffffffff1673ffffffffffffffffffffffffffffffffffffffff16815260200190815260200160002060008473ffffffffffffffffffffffffffffffffffffffff1673ffffffffffffffffffffffffffffffffffffffff16815260200190815260200160002060006101000a81548160ff0219169083151502179055508173ffffffffffffffffffffffffffffffffffffffff166116b1611e26565b73ffffffffffffffffffffffffffffffffffffffff167f17307eab39ab6107e8899845ad3d59bd9653f200f220920489ca2b5937696c31836040516116f69190613974565b60405180910390a35050565b61171361170d611e26565b83611f61565b611752576040517f08c379a000000000000000000000000000000000000000000000000000000000815260040161174990613bf1565b60405180910390fd5b61175e848484846125a3565b50505050565b61176c611e26565b73ffffffffffffffffffffffffffffffffffffffff1661178a6114bf565b73ffffffffffffffffffffffffffffffffffffffff16146117e0576040517f08c379a00000000000000000000000000000000000000000000000000000000081526004016117d790613b71565b60405180910390fd5b80600960006101000a81548160ff02191690831515021790555050565b6000611807611e26565b73ffffffffffffffffffffffffffffffffffffffff166118256114bf565b73ffffffffffffffffffffffffffffffffffffffff161461187b576040517f08c379a000000000000000000000000000000000000000000000000000000000815260040161187290613b71565b60405180910390fd5b47905090565b606061188c82611e2e565b6118cb576040517f08c379a00000000000000000000000000000000000000000000000000000000081526004016118c290613b11565b60405180910390fd5b60006006600084815260200190815260200160002080546118eb90613f28565b80601f016020809104026020016040519081016040528092919081815260200182805461191790613f28565b80156119645780601f1061193957610100808354040283529160200191611964565b820191906000526020600020905b81548152906001019060200180831161194757829003601f168201915b5050505050905060006119756125ff565b905060008151141561198b5781925050506119ce565b6000825111156119c05780826040516020016119a89291906138c7565b604051602081830303815290604052925050506119ce565b6119c984612616565b925050505b919050565b600a5481565b6000600560008473ffffffffffffffffffffffffffffffffffffffff1673ffffffffffffffffffffffffffffffffffffffff16815260200190815260200160002060008373ffffffffffffffffffffffffffffffffffffffff1673ffffffffffffffffffffffffffffffffffffffff16815260200190815260200160002060009054906101000a900460ff16905092915050565b6000600960009054906101000a900460ff1615611acd57611a8d83610bd2565b611acc576040517f08c379a0000000000000000000000000000000000000000000000000000000008152600401611ac390613b51565b60405180910390fd5b5b600960019054906101000a900460ff1615611b1d576040517f08c379a0000000000000000000000000000000000000000000000000000000008152600401611b1490613c11565b60405180910390fd5b600b54341015611b62576040517f08c379a0000000000000000000000000000000000000000000000000000000008152600401611b5990613c31565b60405180910390fd5b611b6c60086126bd565b6000611b786008611f53565b9050600a54811115611b8957600080fd5b611b93848261229b565b611b9d8184612469565b8091505092915050565b611baf611e26565b73ffffffffffffffffffffffffffffffffffffffff16611bcd6114bf565b73ffffffffffffffffffffffffffffffffffffffff1614611c23576040517f08c379a0000000000000000000000000000000000000000000000000000000008152600401611c1a90613b71565b60405180910390fd5b600073ffffffffffffffffffffffffffffffffffffffff168173ffffffffffffffffffffffffffffffffffffffff161415611c93576040517f08c379a0000000000000000000000000000000000000000000000000000000008152600401611c8a906139d1565b60405180910390fd5b611c9c816124dd565b50565b6060611ca9611e26565b73ffffffffffffffffffffffffffffffffffffffff16611cc76114bf565b73ffffffffffffffffffffffffffffffffffffffff1614611d1d576040517f08c379a0000000000000000000000000000000000000000000000000000000008152600401611d1490613b71565b60405180910390fd5b600d805480602002602001604051908101604052809291908181526020018280548015611d9f57602002820191906000526020600020905b8160009054906101000a900473ffffffffffffffffffffffffffffffffffffffff1673ffffffffffffffffffffffffffffffffffffffff1681526020019060010190808311611d55575b5050505050905090565b600960009054906101000a900460ff1681565b60007f01ffc9a7000000000000000000000000000000000000000000000000000000007bffffffffffffffffffffffffffffffffffffffffffffffffffffffff1916827bffffffffffffffffffffffffffffffffffffffffffffffffffffffff1916149050919050565b600033905090565b60008073ffffffffffffffffffffffffffffffffffffffff166002600084815260200190815260200160002060009054906101000a900473ffffffffffffffffffffffffffffffffffffffff1673ffffffffffffffffffffffffffffffffffffffff1614159050919050565b816004600083815260200190815260200160002060006101000a81548173ffffffffffffffffffffffffffffffffffffffff021916908373ffffffffffffffffffffffffffffffffffffffff160217905550808273ffffffffffffffffffffffffffffffffffffffff16611f0d836111c3565b73ffffffffffffffffffffffffffffffffffffffff167f8c5be1e5ebec7d5bd14f71427d1e84f3dd0314c0f7b2291e5b200ac8c7c3b92560405160405180910390a45050565b600081600001549050919050565b6000611f6c82611e2e565b611fab576040517f08c379a0000000000000000000000000000000000000000000000000000000008152600401611fa290613a51565b60405180910390fd5b6000611fb6836111c3565b90508073ffffffffffffffffffffffffffffffffffffffff168473ffffffffffffffffffffffffffffffffffffffff16148061202557508373ffffffffffffffffffffffffffffffffffffffff1661200d84610a24565b73ffffffffffffffffffffffffffffffffffffffff16145b80612036575061203581856119d9565b5b91505092915050565b8273ffffffffffffffffffffffffffffffffffffffff1661205f826111c3565b73ffffffffffffffffffffffffffffffffffffffff16146120b5576040517f08c379a00000000000000000000000000000000000000000000000000000000081526004016120ac90613b91565b60405180910390fd5b600073ffffffffffffffffffffffffffffffffffffffff168273ffffffffffffffffffffffffffffffffffffffff161415612125576040517f08c379a000000000000000000000000000000000000000000000000000000000815260040161211c90613a11565b60405180910390fd5b6121308383836126d3565b61213b600082611e9a565b6001600360008573ffffffffffffffffffffffffffffffffffffffff1673ffffffffffffffffffffffffffffffffffffffff168152602001908152602001600020600082825461218b9190613e2c565b925050819055506001600360008473ffffffffffffffffffffffffffffffffffffffff1673ffffffffffffffffffffffffffffffffffffffff16815260200190815260200160002060008282546121e29190613da5565b92505081905550816002600083815260200190815260200160002060006101000a81548173ffffffffffffffffffffffffffffffffffffffff021916908373ffffffffffffffffffffffffffffffffffffffff160217905550808273ffffffffffffffffffffffffffffffffffffffff168473ffffffffffffffffffffffffffffffffffffffff167fddf252ad1be2c89b69c2b068fc378daa952ba7f163c4a11628f55a4df523b3ef60405160405180910390a4505050565b600073ffffffffffffffffffffffffffffffffffffffff168273ffffffffffffffffffffffffffffffffffffffff16141561230b576040517f08c379a000000000000000000000000000000000000000000000000000000000815260040161230290613af1565b60405180910390fd5b61231481611e2e565b15612354576040517f08c379a000000000000000000000000000000000000000000000000000000000815260040161234b906139f1565b60405180910390fd5b612360600083836126d3565b6001600360008473ffffffffffffffffffffffffffffffffffffffff1673ffffffffffffffffffffffffffffffffffffffff16815260200190815260200160002060008282546123b09190613da5565b92505081905550816002600083815260200190815260200160002060006101000a81548173ffffffffffffffffffffffffffffffffffffffff021916908373ffffffffffffffffffffffffffffffffffffffff160217905550808273ffffffffffffffffffffffffffffffffffffffff16600073ffffffffffffffffffffffffffffffffffffffff167fddf252ad1be2c89b69c2b068fc378daa952ba7f163c4a11628f55a4df523b3ef60405160405180910390a45050565b61247282611e2e565b6124b1576040517f08c379a00000000000000000000000000000000000000000000000000000000081526004016124a890613ad1565b60405180910390fd5b806006600084815260200190815260200160002090805190602001906124d8929190612a2f565b505050565b6000600760009054906101000a900473ffffffffffffffffffffffffffffffffffffffff16905081600760006101000a81548173ffffffffffffffffffffffffffffffffffffffff021916908373ffffffffffffffffffffffffffffffffffffffff1602179055508173ffffffffffffffffffffffffffffffffffffffff168173ffffffffffffffffffffffffffffffffffffffff167f8be0079c531659141344cd1fd0a4f28419497f9722a3daafe3b4186f6b6457e060405160405180910390a35050565b6125ae84848461203f565b6125ba848484846126d8565b6125f9576040517f08c379a00000000000000000000000000000000000000000000000000000000081526004016125f0906139b1565b60405180910390fd5b50505050565b606060405180602001604052806000815250905090565b606061262182611e2e565b612660576040517f08c379a000000000000000000000000000000000000000000000000000000000815260040161265790613bb1565b60405180910390fd5b600061266a6125ff565b9050600081511161268a57604051806020016040528060008152506126b5565b806126948461286f565b6040516020016126a59291906138c7565b6040516020818303038152906040525b915050919050565b6001816000016000828254019250508190555050565b505050565b60006126f98473ffffffffffffffffffffffffffffffffffffffff16612a1c565b15612862578373ffffffffffffffffffffffffffffffffffffffff1663150b7a02612722611e26565b8786866040518563ffffffff1660e01b81526004016127449493929190613906565b602060405180830381600087803b15801561275e57600080fd5b505af192505050801561278f57506040513d601f19601f8201168201806040525081019061278c9190612f80565b60015b612812573d80600081146127bf576040519150601f19603f3d011682016040523d82523d6000602084013e6127c4565b606091505b5060008151141561280a576040517f08c379a0000000000000000000000000000000000000000000000000000000008152600401612801906139b1565b60405180910390fd5b805181602001fd5b63150b7a0260e01b7bffffffffffffffffffffffffffffffffffffffffffffffffffffffff1916817bffffffffffffffffffffffffffffffffffffffffffffffffffffffff191614915050612867565b600190505b949350505050565b606060008214156128b7576040518060400160405280600181526020017f30000000000000000000000000000000000000000000000000000000000000008152509050612a17565b600082905060005b600082146128e95780806128d290613f5a565b915050600a826128e29190613dfb565b91506128bf565b60008167ffffffffffffffff81111561292b577f4e487b7100000000000000000000000000000000000000000000000000000000600052604160045260246000fd5b6040519080825280601f01601f19166020018201604052801561295d5781602001600182028036833780820191505090505b5090505b60008514612a10576001826129769190613e2c565b9150600a856129859190613fa3565b60306129919190613da5565b60f81b8183815181106129cd577f4e487b7100000000000000000000000000000000000000000000000000000000600052603260045260246000fd5b60200101907effffffffffffffffffffffffffffffffffffffffffffffffffffffffffffff1916908160001a905350600a85612a099190613dfb565b9450612961565b8093505050505b919050565b600080823b905060008111915050919050565b828054612a3b90613f28565b90600052602060002090601f016020900481019282612a5d5760008555612aa4565b82601f10612a7657805160ff1916838001178555612aa4565b82800160010185558215612aa4579182015b82811115612aa3578251825591602001919060010190612a88565b5b509050612ab19190612ab5565b5090565b5b80821115612ace576000816000905550600101612ab6565b5090565b6000612ae5612ae084613c9d565b613c6c565b90508083825260208201905082856020860282011115612b0457600080fd5b60005b85811015612b345781612b1a8882612bba565b845260208401935060208301925050600181019050612b07565b5050509392505050565b6000612b51612b4c84613cc9565b613c6c565b905082815260208101848484011115612b6957600080fd5b612b74848285613ee6565b509392505050565b6000612b8f612b8a84613cf9565b613c6c565b905082815260208101848484011115612ba757600080fd5b612bb2848285613ee6565b509392505050565b600081359050612bc9816140a1565b92915050565b600081359050612bde816140b8565b92915050565b600082601f830112612bf557600080fd5b8135612c05848260208601612ad2565b91505092915050565b600081359050612c1d816140cf565b92915050565b600081359050612c32816140e6565b92915050565b600081519050612c47816140e6565b92915050565b600082601f830112612c5e57600080fd5b8135612c6e848260208601612b3e565b91505092915050565b600082601f830112612c8857600080fd5b8135612c98848260208601612b7c565b91505092915050565b600081359050612cb0816140fd565b92915050565b600060208284031215612cc857600080fd5b6000612cd684828501612bba565b91505092915050565b60008060408385031215612cf257600080fd5b6000612d0085828601612bcf565b9250506020612d1185828601612ca1565b9150509250929050565b60008060408385031215612d2e57600080fd5b6000612d3c85828601612bba565b9250506020612d4d85828601612bba565b9150509250929050565b600080600060608486031215612d6c57600080fd5b6000612d7a86828701612bba565b9350506020612d8b86828701612bba565b9250506040612d9c86828701612ca1565b9150509250925092565b60008060008060808587031215612dbc57600080fd5b6000612dca87828801612bba565b9450506020612ddb87828801612bba565b9350506040612dec87828801612ca1565b925050606085013567ffffffffffffffff811115612e0957600080fd5b612e1587828801612c4d565b91505092959194509250565b60008060408385031215612e3457600080fd5b6000612e4285828601612bba565b9250506020612e5385828601612c0e565b9150509250929050565b60008060408385031215612e7057600080fd5b6000612e7e85828601612bba565b925050602083013567ffffffffffffffff811115612e9b57600080fd5b612ea785828601612c77565b9150509250929050565b60008060408385031215612ec457600080fd5b6000612ed285828601612bba565b9250506020612ee385828601612ca1565b9150509250929050565b600060208284031215612eff57600080fd5b600082013567ffffffffffffffff811115612f1957600080fd5b612f2584828501612be4565b91505092915050565b600060208284031215612f4057600080fd5b6000612f4e84828501612c0e565b91505092915050565b600060208284031215612f6957600080fd5b6000612f7784828501612c23565b91505092915050565b600060208284031215612f9257600080fd5b6000612fa084828501612c38565b91505092915050565b600060208284031215612fbb57600080fd5b6000612fc984828501612ca1565b91505092915050565b6000612fde8383612fea565b60208301905092915050565b612ff381613e60565b82525050565b61300281613e60565b82525050565b600061301382613d39565b61301d8185613d67565b935061302883613d29565b8060005b838110156130595781516130408882612fd2565b975061304b83613d5a565b92505060018101905061302c565b5085935050505092915050565b61306f81613e84565b82525050565b600061308082613d44565b61308a8185613d78565b935061309a818560208601613ef5565b6130a381614090565b840191505092915050565b60006130b982613d4f565b6130c38185613d89565b93506130d3818560208601613ef5565b6130dc81614090565b840191505092915050565b60006130f282613d4f565b6130fc8185613d9a565b935061310c818560208601613ef5565b80840191505092915050565b6000613125603283613d89565b91507f4552433732313a207472616e7366657220746f206e6f6e20455243373231526560008301527f63656976657220696d706c656d656e74657200000000000000000000000000006020830152604082019050919050565b600061318b602683613d89565b91507f4f776e61626c653a206e6577206f776e657220697320746865207a65726f206160008301527f64647265737300000000000000000000000000000000000000000000000000006020830152604082019050919050565b60006131f1601c83613d89565b91507f4552433732313a20746f6b656e20616c7265616479206d696e746564000000006000830152602082019050919050565b6000613231602483613d89565b91507f4552433732313a207472616e7366657220746f20746865207a65726f2061646460008301527f72657373000000000000000000000000000000000000000000000000000000006020830152604082019050919050565b6000613297601983613d89565b91507f4552433732313a20617070726f766520746f2063616c6c6572000000000000006000830152602082019050919050565b60006132d7602c83613d89565b91507f4552433732313a206f70657261746f7220717565727920666f72206e6f6e657860008301527f697374656e7420746f6b656e00000000000000000000000000000000000000006020830152604082019050919050565b600061333d603883613d89565b91507f4552433732313a20617070726f76652063616c6c6572206973206e6f74206f7760008301527f6e6572206e6f7220617070726f76656420666f7220616c6c00000000000000006020830152604082019050919050565b60006133a3602a83613d89565b91507f4552433732313a2062616c616e636520717565727920666f7220746865207a6560008301527f726f2061646472657373000000000000000000000000000000000000000000006020830152604082019050919050565b6000613409602983613d89565b91507f4552433732313a206f776e657220717565727920666f72206e6f6e657869737460008301527f656e7420746f6b656e00000000000000000000000000000000000000000000006020830152604082019050919050565b600061346f602e83613d89565b91507f45524337323155524953746f726167653a2055524920736574206f66206e6f6e60008301527f6578697374656e7420746f6b656e0000000000000000000000000000000000006020830152604082019050919050565b60006134d5602083613d89565b91507f4552433732313a206d696e7420746f20746865207a65726f20616464726573736000830152602082019050919050565b6000613515603183613d89565b91507f45524337323155524953746f726167653a2055524920717565727920666f722060008301527f6e6f6e6578697374656e7420746f6b656e0000000000000000000000000000006020830152604082019050919050565b600061357b602c83613d89565b91507f4552433732313a20617070726f76656420717565727920666f72206e6f6e657860008301527f697374656e7420746f6b656e00000000000000000000000000000000000000006020830152604082019050919050565b60006135e1603283613d89565b91507f4f6e6c792077686974656c6973746564206164647265737365732063616e206d60008301527f696e7420647572696e672070726573616c6500000000000000000000000000006020830152604082019050919050565b6000613647602083613d89565b91507f4f776e61626c653a2063616c6c6572206973206e6f7420746865206f776e65726000830152602082019050919050565b6000613687602983613d89565b91507f4552433732313a207472616e73666572206f6620746f6b656e2074686174206960008301527f73206e6f74206f776e00000000000000000000000000000000000000000000006020830152604082019050919050565b60006136ed602f83613d89565b91507f4552433732314d657461646174613a2055524920717565727920666f72206e6f60008301527f6e6578697374656e7420746f6b656e00000000000000000000000000000000006020830152604082019050919050565b6000613753602183613d89565b91507f4552433732313a20617070726f76616c20746f2063757272656e74206f776e6560008301527f72000000000000000000000000000000000000000000000000000000000000006020830152604082019050919050565b60006137b9603183613d89565b91507f4552433732313a207472616e736665722063616c6c6572206973206e6f74206f60008301527f776e6572206e6f7220617070726f7665640000000000000000000000000000006020830152604082019050919050565b600061381f601183613d89565b91507f4d696e74696e67206973207061757365640000000000000000000000000000006000830152602082019050919050565b600061385f602183613d89565b91507f4e6f7420656e6f756768204554482073656e743b20636865636b20707269636560008301527f21000000000000000000000000000000000000000000000000000000000000006020830152604082019050919050565b6138c181613edc565b82525050565b60006138d382856130e7565b91506138df82846130e7565b91508190509392505050565b60006020820190506139006000830184612ff9565b92915050565b600060808201905061391b6000830187612ff9565b6139286020830186612ff9565b61393560408301856138b8565b81810360608301526139478184613075565b905095945050505050565b6000602082019050818103600083015261396c8184613008565b905092915050565b60006020820190506139896000830184613066565b92915050565b600060208201905081810360008301526139a981846130ae565b905092915050565b600060208201905081810360008301526139ca81613118565b9050919050565b600060208201905081810360008301526139ea8161317e565b9050919050565b60006020820190508181036000830152613a0a816131e4565b9050919050565b60006020820190508181036000830152613a2a81613224565b9050919050565b60006020820190508181036000830152613a4a8161328a565b9050919050565b60006020820190508181036000830152613a6a816132ca565b9050919050565b60006020820190508181036000830152613a8a81613330565b9050919050565b60006020820190508181036000830152613aaa81613396565b9050919050565b60006020820190508181036000830152613aca816133fc565b9050919050565b60006020820190508181036000830152613aea81613462565b9050919050565b60006020820190508181036000830152613b0a816134c8565b9050919050565b60006020820190508181036000830152613b2a81613508565b9050919050565b60006020820190508181036000830152613b4a8161356e565b9050919050565b60006020820190508181036000830152613b6a816135d4565b9050919050565b60006020820190508181036000830152613b8a8161363a565b9050919050565b60006020820190508181036000830152613baa8161367a565b9050919050565b60006020820190508181036000830152613bca816136e0565b9050919050565b60006020820190508181036000830152613bea81613746565b9050919050565b60006020820190508181036000830152613c0a816137ac565b9050919050565b60006020820190508181036000830152613c2a81613812565b9050919050565b60006020820190508181036000830152613c4a81613852565b9050919050565b6000602082019050613c6660008301846138b8565b92915050565b6000604051905081810181811067ffffffffffffffff82111715613c9357613c92614061565b5b8060405250919050565b600067ffffffffffffffff821115613cb857613cb7614061565b5b602082029050602081019050919050565b600067ffffffffffffffff821115613ce457613ce3614061565b5b601f19601f8301169050602081019050919050565b600067ffffffffffffffff821115613d1457613d13614061565b5b601f19601f8301169050602081019050919050565b6000819050602082019050919050565b600081519050919050565b600081519050919050565b600081519050919050565b6000602082019050919050565b600082825260208201905092915050565b600082825260208201905092915050565b600082825260208201905092915050565b600081905092915050565b6000613db082613edc565b9150613dbb83613edc565b9250827fffffffffffffffffffffffffffffffffffffffffffffffffffffffffffffffff03821115613df057613def613fd4565b5b828201905092915050565b6000613e0682613edc565b9150613e1183613edc565b925082613e2157613e20614003565b5b828204905092915050565b6000613e3782613edc565b9150613e4283613edc565b925082821015613e5557613e54613fd4565b5b828203905092915050565b6000613e6b82613ebc565b9050919050565b6000613e7d82613ebc565b9050919050565b60008115159050919050565b60007fffffffff0000000000000000000000000000000000000000000000000000000082169050919050565b600073ffffffffffffffffffffffffffffffffffffffff82169050919050565b6000819050919050565b82818337600083830152505050565b60005b83811015613f13578082015181840152602081019050613ef8565b83811115613f22576000848401525b50505050565b60006002820490506001821680613f4057607f821691505b60208210811415613f5457613f53614032565b5b50919050565b6000613f6582613edc565b91507fffffffffffffffffffffffffffffffffffffffffffffffffffffffffffffffff821415613f9857613f97613fd4565b5b600182019050919050565b6000613fae82613edc565b9150613fb983613edc565b925082613fc957613fc8614003565b5b828206905092915050565b7f4e487b7100000000000000000000000000000000000000000000000000000000600052601160045260246000fd5b7f4e487b7100000000000000000000000000000000000000000000000000000000600052601260045260246000fd5b7f4e487b7100000000000000000000000000000000000000000000000000000000600052602260045260246000fd5b7f4e487b7100000000000000000000000000000000000000000000000000000000600052604160045260246000fd5b6000601f19601f8301169050919050565b6140aa81613e60565b81146140b557600080fd5b50565b6140c181613e72565b81146140cc57600080fd5b50565b6140d881613e84565b81146140e357600080fd5b50565b6140ef81613e90565b81146140fa57600080fd5b50565b61410681613edc565b811461411157600080fd5b5056fea2646970667358221220126253049c543e9f24a5090dd9066bfeaa1fa5bce482f3607a7c9729f39af7a864736f6c63430008000033",
  "linkReferences": {},
  "deployedLinkReferences": {}
}