{
  "_format": "hh-sol-artifact-1",
  "contractName": "MyNFT",
  "sourceName": "contracts/MyNFT.sol",
  "abi": [
    {
      "inputs": [],
      "stateMutability": "nonpayable",
      "type": "constructor"
    },
    {
      "anonymous": false,
      "inputs": [
        {
          "indexed": true,
          "internalType": "address",
          "name": "owner",
          "type": "address"
        },
        {
          "indexed": true,
          "internalType": "address",
          "name": "approved",
          "type": "address"
        },
        {
          "indexed": true,
          "internalType": "uint256",
          "name": "tokenId",
          "type": "uint256"
        }
      ],
      "name": "Approval",
      "type": "event"
    },
    {
      "anonymous": false,
      "inputs": [
        {
          "indexed": true,
          "internalType": "address",
          "name": "owner",
          "type": "address"
        },
        {
          "indexed": true,
          "internalType": "address",
          "name": "operator",
          "type": "address"
        },
        {
          "indexed": false,
          "internalType": "bool",
          "name": "approved",
          "type": "bool"
        }
      ],
      "name": "ApprovalForAll",
      "type": "event"
    },
    {
      "anonymous": false,
      "inputs": [
        {
          "indexed": true,
          "internalType": "address",
          "name": "previousOwner",
          "type": "address"
        },
        {
          "indexed": true,
          "internalType": "address",
          "name": "newOwner",
          "type": "address"
        }
      ],
      "name": "OwnershipTransferred",
      "type": "event"
    },
    {
      "anonymous": false,
      "inputs": [
        {
          "indexed": true,
          "internalType": "address",
          "name": "from",
          "type": "address"
        },
        {
          "indexed": true,
          "internalType": "address",
          "name": "to",
          "type": "address"
        },
        {
          "indexed": true,
          "internalType": "uint256",
          "name": "tokenId",
          "type": "uint256"
        }
      ],
      "name": "Transfer",
      "type": "event"
    },
    {
      "inputs": [
        {
          "internalType": "address",
          "name": "to",
          "type": "address"
        },
        {
          "internalType": "uint256",
          "name": "tokenId",
          "type": "uint256"
        }
      ],
      "name": "approve",
      "outputs": [],
      "stateMutability": "nonpayable",
      "type": "function"
    },
    {
      "inputs": [
        {
          "internalType": "address",
          "name": "owner",
          "type": "address"
        }
      ],
      "name": "balanceOf",
      "outputs": [
        {
          "internalType": "uint256",
          "name": "",
          "type": "uint256"
        }
      ],
      "stateMutability": "view",
      "type": "function"
    },
    {
      "inputs": [],
      "name": "checkBalance",
      "outputs": [
        {
          "internalType": "uint256",
          "name": "",
          "type": "uint256"
        }
      ],
      "stateMutability": "view",
      "type": "function"
    },
    {
      "inputs": [],
      "name": "contractOwner",
      "outputs": [
        {
          "internalType": "address payable",
          "name": "",
          "type": "address"
        }
      ],
      "stateMutability": "view",
      "type": "function"
    },
    {
      "inputs": [
        {
          "internalType": "uint256",
          "name": "tokenId",
          "type": "uint256"
        }
      ],
      "name": "getApproved",
      "outputs": [
        {
          "internalType": "address",
          "name": "",
          "type": "address"
        }
      ],
      "stateMutability": "view",
      "type": "function"
    },
    {
      "inputs": [
        {
          "internalType": "address",
          "name": "owner",
          "type": "address"
        },
        {
          "internalType": "address",
          "name": "operator",
          "type": "address"
        }
      ],
      "name": "isApprovedForAll",
      "outputs": [
        {
          "internalType": "bool",
          "name": "",
          "type": "bool"
        }
      ],
      "stateMutability": "view",
      "type": "function"
    },
    {
      "inputs": [
        {
          "internalType": "address",
          "name": "recipient",
          "type": "address"
        },
        {
          "internalType": "string",
          "name": "tokenURI",
          "type": "string"
        }
      ],
      "name": "mintNFT",
      "outputs": [
        {
          "internalType": "uint256",
          "name": "",
          "type": "uint256"
        }
      ],
      "stateMutability": "payable",
      "type": "function"
    },
    {
      "inputs": [],
      "name": "name",
      "outputs": [
        {
          "internalType": "string",
          "name": "",
          "type": "string"
        }
      ],
      "stateMutability": "view",
      "type": "function"
    },
    {
      "inputs": [],
      "name": "owner",
      "outputs": [
        {
          "internalType": "address",
          "name": "",
          "type": "address"
        }
      ],
      "stateMutability": "view",
      "type": "function"
    },
    {
      "inputs": [
        {
          "internalType": "uint256",
          "name": "tokenId",
          "type": "uint256"
        }
      ],
      "name": "ownerOf",
      "outputs": [
        {
          "internalType": "address",
          "name": "",
          "type": "address"
        }
      ],
      "stateMutability": "view",
      "type": "function"
    },
    {
      "inputs": [],
      "name": "renounceOwnership",
      "outputs": [],
      "stateMutability": "nonpayable",
      "type": "function"
    },
    {
      "inputs": [
        {
          "internalType": "address",
          "name": "from",
          "type": "address"
        },
        {
          "internalType": "address",
          "name": "to",
          "type": "address"
        },
        {
          "internalType": "uint256",
          "name": "tokenId",
          "type": "uint256"
        }
      ],
      "name": "safeTransferFrom",
      "outputs": [],
      "stateMutability": "nonpayable",
      "type": "function"
    },
    {
      "inputs": [
        {
          "internalType": "address",
          "name": "from",
          "type": "address"
        },
        {
          "internalType": "address",
          "name": "to",
          "type": "address"
        },
        {
          "internalType": "uint256",
          "name": "tokenId",
          "type": "uint256"
        },
        {
          "internalType": "bytes",
          "name": "_data",
          "type": "bytes"
        }
      ],
      "name": "safeTransferFrom",
      "outputs": [],
      "stateMutability": "nonpayable",
      "type": "function"
    },
    {
      "inputs": [
        {
          "internalType": "address",
          "name": "operator",
          "type": "address"
        },
        {
          "internalType": "bool",
          "name": "approved",
          "type": "bool"
        }
      ],
      "name": "setApprovalForAll",
      "outputs": [],
      "stateMutability": "nonpayable",
      "type": "function"
    },
    {
      "inputs": [
        {
          "internalType": "bytes4",
          "name": "interfaceId",
          "type": "bytes4"
        }
      ],
      "name": "supportsInterface",
      "outputs": [
        {
          "internalType": "bool",
          "name": "",
          "type": "bool"
        }
      ],
      "stateMutability": "view",
      "type": "function"
    },
    {
      "inputs": [],
      "name": "symbol",
      "outputs": [
        {
          "internalType": "string",
          "name": "",
          "type": "string"
        }
      ],
      "stateMutability": "view",
      "type": "function"
    },
    {
      "inputs": [
        {
          "internalType": "uint256",
          "name": "tokenId",
          "type": "uint256"
        }
      ],
      "name": "tokenURI",
      "outputs": [
        {
          "internalType": "string",
          "name": "",
          "type": "string"
        }
      ],
      "stateMutability": "view",
      "type": "function"
    },
    {
      "inputs": [
        {
          "internalType": "address payable",
          "name": "addr",
          "type": "address"
        },
        {
          "internalType": "uint256",
          "name": "amount",
          "type": "uint256"
        }
      ],
      "name": "transferEther",
      "outputs": [],
      "stateMutability": "nonpayable",
      "type": "function"
    },
    {
      "inputs": [
        {
          "internalType": "address",
          "name": "from",
          "type": "address"
        },
        {
          "internalType": "address",
          "name": "to",
          "type": "address"
        },
        {
          "internalType": "uint256",
          "name": "tokenId",
          "type": "uint256"
        }
      ],
      "name": "transferFrom",
      "outputs": [],
      "stateMutability": "nonpayable",
      "type": "function"
    },
    {
      "inputs": [
        {
          "internalType": "address",
          "name": "newOwner",
          "type": "address"
        }
      ],
      "name": "transferOwnership",
      "outputs": [],
      "stateMutability": "nonpayable",
      "type": "function"
    },
    {
      "inputs": [
        {
          "internalType": "uint256",
          "name": "amount",
          "type": "uint256"
        }
      ],
      "name": "withdrawEther",
      "outputs": [],
      "stateMutability": "nonpayable",
      "type": "function"
    }
  ],
  "bytecode": "0x608060405273ac14513e6b0e6d403592cbb21e0e044726ccf3e4600960006101000a81548173ffffffffffffffffffffffffffffffffffffffff021916908373ffffffffffffffffffffffffffffffffffffffff1602179055503480156200006657600080fd5b506040518060400160405280600581526020017f4d794e46540000000000000000000000000000000000000000000000000000008152506040518060400160405280600381526020017f4e465400000000000000000000000000000000000000000000000000000000008152508160009080519060200190620000eb929190620001fb565b50806001908051906020019062000104929190620001fb565b505050620001276200011b6200012d60201b60201c565b6200013560201b60201c565b62000310565b600033905090565b6000600760009054906101000a900473ffffffffffffffffffffffffffffffffffffffff16905081600760006101000a81548173ffffffffffffffffffffffffffffffffffffffff021916908373ffffffffffffffffffffffffffffffffffffffff1602179055508173ffffffffffffffffffffffffffffffffffffffff168173ffffffffffffffffffffffffffffffffffffffff167f8be0079c531659141344cd1fd0a4f28419497f9722a3daafe3b4186f6b6457e060405160405180910390a35050565b8280546200020990620002ab565b90600052602060002090601f0160209004810192826200022d576000855562000279565b82601f106200024857805160ff191683800117855562000279565b8280016001018555821562000279579182015b82811115620002785782518255916020019190600101906200025b565b5b5090506200028891906200028c565b5090565b5b80821115620002a75760008160009055506001016200028d565b5090565b60006002820490506001821680620002c457607f821691505b60208210811415620002db57620002da620002e1565b5b50919050565b7f4e487b7100000000000000000000000000000000000000000000000000000000600052602260045260246000fd5b6133b080620003206000396000f3fe60806040526004361061012a5760003560e01c8063715018a6116100ab578063c71daccb1161006f578063c71daccb146103da578063c87b56dd14610405578063ce606ee014610442578063e985e9c51461046d578063eacabe14146104aa578063f2fde38b146104da5761012a565b8063715018a61461031b5780638da5cb5b1461033257806395d89b411461035d578063a22cb46514610388578063b88d4fde146103b15761012a565b806323b872dd116100f257806323b872dd146102265780633bed33ce1461024f57806342842e0e146102785780636352211e146102a157806370a08231146102de5761012a565b806301ffc9a71461012f57806305b1137b1461016c57806306fdde0314610195578063081812fc146101c0578063095ea7b3146101fd575b600080fd5b34801561013b57600080fd5b5061015660048036038101906101519190612325565b610503565b6040516101639190612c5f565b60405180910390f35b34801561017857600080fd5b50610193600480360381019061018e9190612117565b6105e5565b005b3480156101a157600080fd5b506101aa6106c0565b6040516101b79190612c7a565b60405180910390f35b3480156101cc57600080fd5b506101e760048036038101906101e29190612377565b610752565b6040516101f49190612bdd565b60405180910390f35b34801561020957600080fd5b50610224600480360381019061021f91906122e9565b6107d7565b005b34801561023257600080fd5b5061024d6004803603810190610248919061218f565b6108ef565b005b34801561025b57600080fd5b5061027660048036038101906102719190612377565b61094f565b005b34801561028457600080fd5b5061029f600480360381019061029a919061218f565b610a4b565b005b3480156102ad57600080fd5b506102c860048036038101906102c39190612377565b610a6b565b6040516102d59190612bdd565b60405180910390f35b3480156102ea57600080fd5b50610305600480360381019061030091906120ee565b610b1d565b6040516103129190612f1c565b60405180910390f35b34801561032757600080fd5b50610330610bd5565b005b34801561033e57600080fd5b50610347610c5d565b6040516103549190612bdd565b60405180910390f35b34801561036957600080fd5b50610372610c87565b60405161037f9190612c7a565b60405180910390f35b34801561039457600080fd5b506103af60048036038101906103aa9190612259565b610d19565b005b3480156103bd57600080fd5b506103d860048036038101906103d391906121de565b610e9a565b005b3480156103e657600080fd5b506103ef610efc565b6040516103fc9190612f1c565b60405180910390f35b34801561041157600080fd5b5061042c60048036038101906104279190612377565b610f04565b6040516104399190612c7a565b60405180910390f35b34801561044e57600080fd5b50610457611056565b6040516104649190612bf8565b60405180910390f35b34801561047957600080fd5b50610494600480360381019061048f9190612153565b61107c565b6040516104a19190612c5f565b60405180910390f35b6104c460048036038101906104bf9190612295565b611110565b6040516104d19190612f1c565b60405180910390f35b3480156104e657600080fd5b5061050160048036038101906104fc91906120ee565b611192565b005b60007f80ac58cd000000000000000000000000000000000000000000000000000000007bffffffffffffffffffffffffffffffffffffffffffffffffffffffff1916827bffffffffffffffffffffffffffffffffffffffffffffffffffffffff191614806105ce57507f5b5e139f000000000000000000000000000000000000000000000000000000007bffffffffffffffffffffffffffffffffffffffffffffffffffffffff1916827bffffffffffffffffffffffffffffffffffffffffffffffffffffffff1916145b806105de57506105dd8261128a565b5b9050919050565b600960009054906101000a900473ffffffffffffffffffffffffffffffffffffffff1673ffffffffffffffffffffffffffffffffffffffff163373ffffffffffffffffffffffffffffffffffffffff1614610675576040517f08c379a000000000000000000000000000000000000000000000000000000000815260040161066c90612efc565b60405180910390fd5b8173ffffffffffffffffffffffffffffffffffffffff166108fc829081150290604051600060405180830381858888f193505050501580156106bb573d6000803e3d6000fd5b505050565b6060600080546106cf9061318e565b80601f01602080910402602001604051908101604052809291908181526020018280546106fb9061318e565b80156107485780601f1061071d57610100808354040283529160200191610748565b820191906000526020600020905b81548152906001019060200180831161072b57829003601f168201915b5050505050905090565b600061075d826112f4565b61079c576040517f08c379a000000000000000000000000000000000000000000000000000000000815260040161079390612e1c565b60405180910390fd5b6004600083815260200190815260200160002060009054906101000a900473ffffffffffffffffffffffffffffffffffffffff169050919050565b60006107e282610a6b565b90508073ffffffffffffffffffffffffffffffffffffffff168373ffffffffffffffffffffffffffffffffffffffff161415610853576040517f08c379a000000000000000000000000000000000000000000000000000000000815260040161084a90612e9c565b60405180910390fd5b8073ffffffffffffffffffffffffffffffffffffffff16610872611360565b73ffffffffffffffffffffffffffffffffffffffff1614806108a157506108a08161089b611360565b61107c565b5b6108e0576040517f08c379a00000000000000000000000000000000000000000000000000000000081526004016108d790612d5c565b60405180910390fd5b6108ea8383611368565b505050565b6109006108fa611360565b82611421565b61093f576040517f08c379a000000000000000000000000000000000000000000000000000000000815260040161093690612ebc565b60405180910390fd5b61094a8383836114ff565b505050565b600960009054906101000a900473ffffffffffffffffffffffffffffffffffffffff1673ffffffffffffffffffffffffffffffffffffffff163373ffffffffffffffffffffffffffffffffffffffff16146109df576040517f08c379a00000000000000000000000000000000000000000000000000000000081526004016109d690612efc565b60405180910390fd5b600960009054906101000a900473ffffffffffffffffffffffffffffffffffffffff1673ffffffffffffffffffffffffffffffffffffffff166108fc829081150290604051600060405180830381858888f19350505050158015610a47573d6000803e3d6000fd5b5050565b610a6683838360405180602001604052806000815250610e9a565b505050565b6000806002600084815260200190815260200160002060009054906101000a900473ffffffffffffffffffffffffffffffffffffffff169050600073ffffffffffffffffffffffffffffffffffffffff168173ffffffffffffffffffffffffffffffffffffffff161415610b14576040517f08c379a0000000000000000000000000000000000000000000000000000000008152600401610b0b90612d9c565b60405180910390fd5b80915050919050565b60008073ffffffffffffffffffffffffffffffffffffffff168273ffffffffffffffffffffffffffffffffffffffff161415610b8e576040517f08c379a0000000000000000000000000000000000000000000000000000000008152600401610b8590612d7c565b60405180910390fd5b600360008373ffffffffffffffffffffffffffffffffffffffff1673ffffffffffffffffffffffffffffffffffffffff168152602001908152602001600020549050919050565b610bdd611360565b73ffffffffffffffffffffffffffffffffffffffff16610bfb610c5d565b73ffffffffffffffffffffffffffffffffffffffff1614610c51576040517f08c379a0000000000000000000000000000000000000000000000000000000008152600401610c4890612e3c565b60405180910390fd5b610c5b600061175b565b565b6000600760009054906101000a900473ffffffffffffffffffffffffffffffffffffffff16905090565b606060018054610c969061318e565b80601f0160208091040260200160405190810160405280929190818152602001828054610cc29061318e565b8015610d0f5780601f10610ce457610100808354040283529160200191610d0f565b820191906000526020600020905b815481529060010190602001808311610cf257829003601f168201915b5050505050905090565b610d21611360565b73ffffffffffffffffffffffffffffffffffffffff168273ffffffffffffffffffffffffffffffffffffffff161415610d8f576040517f08c379a0000000000000000000000000000000000000000000000000000000008152600401610d8690612d1c565b60405180910390fd5b8060056000610d9c611360565b73ffffffffffffffffffffffffffffffffffffffff1673ffffffffffffffffffffffffffffffffffffffff16815260200190815260200160002060008473ffffffffffffffffffffffffffffffffffffffff1673ffffffffffffffffffffffffffffffffffffffff16815260200190815260200160002060006101000a81548160ff0219169083151502179055508173ffffffffffffffffffffffffffffffffffffffff16610e49611360565b73ffffffffffffffffffffffffffffffffffffffff167f17307eab39ab6107e8899845ad3d59bd9653f200f220920489ca2b5937696c3183604051610e8e9190612c5f565b60405180910390a35050565b610eab610ea5611360565b83611421565b610eea576040517f08c379a0000000000000000000000000000000000000000000000000000000008152600401610ee190612ebc565b60405180910390fd5b610ef684848484611821565b50505050565b600047905090565b6060610f0f826112f4565b610f4e576040517f08c379a0000000000000000000000000000000000000000000000000000000008152600401610f4590612dfc565b60405180910390fd5b6000600660008481526020019081526020016000208054610f6e9061318e565b80601f0160208091040260200160405190810160405280929190818152602001828054610f9a9061318e565b8015610fe75780601f10610fbc57610100808354040283529160200191610fe7565b820191906000526020600020905b815481529060010190602001808311610fca57829003601f168201915b505050505090506000610ff861187d565b905060008151141561100e578192505050611051565b60008251111561104357808260405160200161102b929190612bb9565b60405160208183030381529060405292505050611051565b61104c84611894565b925050505b919050565b600960009054906101000a900473ffffffffffffffffffffffffffffffffffffffff1681565b6000600560008473ffffffffffffffffffffffffffffffffffffffff1673ffffffffffffffffffffffffffffffffffffffff16815260200190815260200160002060008373ffffffffffffffffffffffffffffffffffffffff1673ffffffffffffffffffffffffffffffffffffffff16815260200190815260200160002060009054906101000a900460ff16905092915050565b600066470de4df82000034101561115c576040517f08c379a000000000000000000000000000000000000000000000000000000000815260040161115390612edc565b60405180910390fd5b611166600861193b565b60006111726008611951565b905061117e848261195f565b6111888184611b2d565b8091505092915050565b61119a611360565b73ffffffffffffffffffffffffffffffffffffffff166111b8610c5d565b73ffffffffffffffffffffffffffffffffffffffff161461120e576040517f08c379a000000000000000000000000000000000000000000000000000000000815260040161120590612e3c565b60405180910390fd5b600073ffffffffffffffffffffffffffffffffffffffff168173ffffffffffffffffffffffffffffffffffffffff16141561127e576040517f08c379a000000000000000000000000000000000000000000000000000000000815260040161127590612cbc565b60405180910390fd5b6112878161175b565b50565b60007f01ffc9a7000000000000000000000000000000000000000000000000000000007bffffffffffffffffffffffffffffffffffffffffffffffffffffffff1916827bffffffffffffffffffffffffffffffffffffffffffffffffffffffff1916149050919050565b60008073ffffffffffffffffffffffffffffffffffffffff166002600084815260200190815260200160002060009054906101000a900473ffffffffffffffffffffffffffffffffffffffff1673ffffffffffffffffffffffffffffffffffffffff1614159050919050565b600033905090565b816004600083815260200190815260200160002060006101000a81548173ffffffffffffffffffffffffffffffffffffffff021916908373ffffffffffffffffffffffffffffffffffffffff160217905550808273ffffffffffffffffffffffffffffffffffffffff166113db83610a6b565b73ffffffffffffffffffffffffffffffffffffffff167f8c5be1e5ebec7d5bd14f71427d1e84f3dd0314c0f7b2291e5b200ac8c7c3b92560405160405180910390a45050565b600061142c826112f4565b61146b576040517f08c379a000000000000000000000000000000000000000000000000000000000815260040161146290612d3c565b60405180910390fd5b600061147683610a6b565b90508073ffffffffffffffffffffffffffffffffffffffff168473ffffffffffffffffffffffffffffffffffffffff1614806114e557508373ffffffffffffffffffffffffffffffffffffffff166114cd84610752565b73ffffffffffffffffffffffffffffffffffffffff16145b806114f657506114f5818561107c565b5b91505092915050565b8273ffffffffffffffffffffffffffffffffffffffff1661151f82610a6b565b73ffffffffffffffffffffffffffffffffffffffff1614611575576040517f08c379a000000000000000000000000000000000000000000000000000000000815260040161156c90612e5c565b60405180910390fd5b600073ffffffffffffffffffffffffffffffffffffffff168273ffffffffffffffffffffffffffffffffffffffff1614156115e5576040517f08c379a00000000000000000000000000000000000000000000000000000000081526004016115dc90612cfc565b60405180910390fd5b6115f0838383611ba1565b6115fb600082611368565b6001600360008573ffffffffffffffffffffffffffffffffffffffff1673ffffffffffffffffffffffffffffffffffffffff168152602001908152602001600020600082825461164b9190613092565b925050819055506001600360008473ffffffffffffffffffffffffffffffffffffffff1673ffffffffffffffffffffffffffffffffffffffff16815260200190815260200160002060008282546116a2919061300b565b92505081905550816002600083815260200190815260200160002060006101000a81548173ffffffffffffffffffffffffffffffffffffffff021916908373ffffffffffffffffffffffffffffffffffffffff160217905550808273ffffffffffffffffffffffffffffffffffffffff168473ffffffffffffffffffffffffffffffffffffffff167fddf252ad1be2c89b69c2b068fc378daa952ba7f163c4a11628f55a4df523b3ef60405160405180910390a4505050565b6000600760009054906101000a900473ffffffffffffffffffffffffffffffffffffffff16905081600760006101000a81548173ffffffffffffffffffffffffffffffffffffffff021916908373ffffffffffffffffffffffffffffffffffffffff1602179055508173ffffffffffffffffffffffffffffffffffffffff168173ffffffffffffffffffffffffffffffffffffffff167f8be0079c531659141344cd1fd0a4f28419497f9722a3daafe3b4186f6b6457e060405160405180910390a35050565b61182c8484846114ff565b61183884848484611ba6565b611877576040517f08c379a000000000000000000000000000000000000000000000000000000000815260040161186e90612c9c565b60405180910390fd5b50505050565b606060405180602001604052806000815250905090565b606061189f826112f4565b6118de576040517f08c379a00000000000000000000000000000000000000000000000000000000081526004016118d590612e7c565b60405180910390fd5b60006118e861187d565b905060008151116119085760405180602001604052806000815250611933565b8061191284611d3d565b604051602001611923929190612bb9565b6040516020818303038152906040525b915050919050565b6001816000016000828254019250508190555050565b600081600001549050919050565b600073ffffffffffffffffffffffffffffffffffffffff168273ffffffffffffffffffffffffffffffffffffffff1614156119cf576040517f08c379a00000000000000000000000000000000000000000000000000000000081526004016119c690612ddc565b60405180910390fd5b6119d8816112f4565b15611a18576040517f08c379a0000000000000000000000000000000000000000000000000000000008152600401611a0f90612cdc565b60405180910390fd5b611a2460008383611ba1565b6001600360008473ffffffffffffffffffffffffffffffffffffffff1673ffffffffffffffffffffffffffffffffffffffff1681526020019081526020016000206000828254611a74919061300b565b92505081905550816002600083815260200190815260200160002060006101000a81548173ffffffffffffffffffffffffffffffffffffffff021916908373ffffffffffffffffffffffffffffffffffffffff160217905550808273ffffffffffffffffffffffffffffffffffffffff16600073ffffffffffffffffffffffffffffffffffffffff167fddf252ad1be2c89b69c2b068fc378daa952ba7f163c4a11628f55a4df523b3ef60405160405180910390a45050565b611b36826112f4565b611b75576040517f08c379a0000000000000000000000000000000000000000000000000000000008152600401611b6c90612dbc565b60405180910390fd5b80600660008481526020019081526020016000209080519060200190611b9c929190611efd565b505050565b505050565b6000611bc78473ffffffffffffffffffffffffffffffffffffffff16611eea565b15611d30578373ffffffffffffffffffffffffffffffffffffffff1663150b7a02611bf0611360565b8786866040518563ffffffff1660e01b8152600401611c129493929190612c13565b602060405180830381600087803b158015611c2c57600080fd5b505af1925050508015611c5d57506040513d601f19601f82011682018060405250810190611c5a919061234e565b60015b611ce0573d8060008114611c8d576040519150601f19603f3d011682016040523d82523d6000602084013e611c92565b606091505b50600081511415611cd8576040517f08c379a0000000000000000000000000000000000000000000000000000000008152600401611ccf90612c9c565b60405180910390fd5b805181602001fd5b63150b7a0260e01b7bffffffffffffffffffffffffffffffffffffffffffffffffffffffff1916817bffffffffffffffffffffffffffffffffffffffffffffffffffffffff191614915050611d35565b600190505b949350505050565b60606000821415611d85576040518060400160405280600181526020017f30000000000000000000000000000000000000000000000000000000000000008152509050611ee5565b600082905060005b60008214611db7578080611da0906131c0565b915050600a82611db09190613061565b9150611d8d565b60008167ffffffffffffffff811115611df9577f4e487b7100000000000000000000000000000000000000000000000000000000600052604160045260246000fd5b6040519080825280601f01601f191660200182016040528015611e2b5781602001600182028036833780820191505090505b5090505b60008514611ede57600182611e449190613092565b9150600a85611e539190613209565b6030611e5f919061300b565b60f81b818381518110611e9b577f4e487b7100000000000000000000000000000000000000000000000000000000600052603260045260246000fd5b60200101907effffffffffffffffffffffffffffffffffffffffffffffffffffffffffffff1916908160001a905350600a85611ed79190613061565b9450611e2f565b8093505050505b919050565b600080823b905060008111915050919050565b828054611f099061318e565b90600052602060002090601f016020900481019282611f2b5760008555611f72565b82601f10611f4457805160ff1916838001178555611f72565b82800160010185558215611f72579182015b82811115611f71578251825591602001919060010190611f56565b5b509050611f7f9190611f83565b5090565b5b80821115611f9c576000816000905550600101611f84565b5090565b6000611fb3611fae84612f68565b612f37565b905082815260208101848484011115611fcb57600080fd5b611fd684828561314c565b509392505050565b6000611ff1611fec84612f98565b612f37565b90508281526020810184848401111561200957600080fd5b61201484828561314c565b509392505050565b60008135905061202b81613307565b92915050565b6000813590506120408161331e565b92915050565b60008135905061205581613335565b92915050565b60008135905061206a8161334c565b92915050565b60008151905061207f8161334c565b92915050565b600082601f83011261209657600080fd5b81356120a6848260208601611fa0565b91505092915050565b600082601f8301126120c057600080fd5b81356120d0848260208601611fde565b91505092915050565b6000813590506120e881613363565b92915050565b60006020828403121561210057600080fd5b600061210e8482850161201c565b91505092915050565b6000806040838503121561212a57600080fd5b600061213885828601612031565b9250506020612149858286016120d9565b9150509250929050565b6000806040838503121561216657600080fd5b60006121748582860161201c565b92505060206121858582860161201c565b9150509250929050565b6000806000606084860312156121a457600080fd5b60006121b28682870161201c565b93505060206121c38682870161201c565b92505060406121d4868287016120d9565b9150509250925092565b600080600080608085870312156121f457600080fd5b60006122028782880161201c565b94505060206122138782880161201c565b9350506040612224878288016120d9565b925050606085013567ffffffffffffffff81111561224157600080fd5b61224d87828801612085565b91505092959194509250565b6000806040838503121561226c57600080fd5b600061227a8582860161201c565b925050602061228b85828601612046565b9150509250929050565b600080604083850312156122a857600080fd5b60006122b68582860161201c565b925050602083013567ffffffffffffffff8111156122d357600080fd5b6122df858286016120af565b9150509250929050565b600080604083850312156122fc57600080fd5b600061230a8582860161201c565b925050602061231b858286016120d9565b9150509250929050565b60006020828403121561233757600080fd5b60006123458482850161205b565b91505092915050565b60006020828403121561236057600080fd5b600061236e84828501612070565b91505092915050565b60006020828403121561238957600080fd5b6000612397848285016120d9565b91505092915050565b6123a9816130d8565b82525050565b6123b8816130c6565b82525050565b6123c7816130ea565b82525050565b60006123d882612fc8565b6123e28185612fde565b93506123f281856020860161315b565b6123fb816132f6565b840191505092915050565b600061241182612fd3565b61241b8185612fef565b935061242b81856020860161315b565b612434816132f6565b840191505092915050565b600061244a82612fd3565b6124548185613000565b935061246481856020860161315b565b80840191505092915050565b600061247d603283612fef565b91507f4552433732313a207472616e7366657220746f206e6f6e20455243373231526560008301527f63656976657220696d706c656d656e74657200000000000000000000000000006020830152604082019050919050565b60006124e3602683612fef565b91507f4f776e61626c653a206e6577206f776e657220697320746865207a65726f206160008301527f64647265737300000000000000000000000000000000000000000000000000006020830152604082019050919050565b6000612549601c83612fef565b91507f4552433732313a20746f6b656e20616c7265616479206d696e746564000000006000830152602082019050919050565b6000612589602483612fef565b91507f4552433732313a207472616e7366657220746f20746865207a65726f2061646460008301527f72657373000000000000000000000000000000000000000000000000000000006020830152604082019050919050565b60006125ef601983612fef565b91507f4552433732313a20617070726f766520746f2063616c6c6572000000000000006000830152602082019050919050565b600061262f602c83612fef565b91507f4552433732313a206f70657261746f7220717565727920666f72206e6f6e657860008301527f697374656e7420746f6b656e00000000000000000000000000000000000000006020830152604082019050919050565b6000612695603883612fef565b91507f4552433732313a20617070726f76652063616c6c6572206973206e6f74206f7760008301527f6e6572206e6f7220617070726f76656420666f7220616c6c00000000000000006020830152604082019050919050565b60006126fb602a83612fef565b91507f4552433732313a2062616c616e636520717565727920666f7220746865207a6560008301527f726f2061646472657373000000000000000000000000000000000000000000006020830152604082019050919050565b6000612761602983612fef565b91507f4552433732313a206f776e657220717565727920666f72206e6f6e657869737460008301527f656e7420746f6b656e00000000000000000000000000000000000000000000006020830152604082019050919050565b60006127c7602e83612fef565b91507f45524337323155524953746f726167653a2055524920736574206f66206e6f6e60008301527f6578697374656e7420746f6b656e0000000000000000000000000000000000006020830152604082019050919050565b600061282d602083612fef565b91507f4552433732313a206d696e7420746f20746865207a65726f20616464726573736000830152602082019050919050565b600061286d603183612fef565b91507f45524337323155524953746f726167653a2055524920717565727920666f722060008301527f6e6f6e6578697374656e7420746f6b656e0000000000000000000000000000006020830152604082019050919050565b60006128d3602c83612fef565b91507f4552433732313a20617070726f76656420717565727920666f72206e6f6e657860008301527f697374656e7420746f6b656e00000000000000000000000000000000000000006020830152604082019050919050565b6000612939602083612fef565b91507f4f776e61626c653a2063616c6c6572206973206e6f7420746865206f776e65726000830152602082019050919050565b6000612979602983612fef565b91507f4552433732313a207472616e73666572206f6620746f6b656e2074686174206960008301527f73206e6f74206f776e00000000000000000000000000000000000000000000006020830152604082019050919050565b60006129df602f83612fef565b91507f4552433732314d657461646174613a2055524920717565727920666f72206e6f60008301527f6e6578697374656e7420746f6b656e00000000000000000000000000000000006020830152604082019050919050565b6000612a45602183612fef565b91507f4552433732313a20617070726f76616c20746f2063757272656e74206f776e6560008301527f72000000000000000000000000000000000000000000000000000000000000006020830152604082019050919050565b6000612aab603183612fef565b91507f4552433732313a207472616e736665722063616c6c6572206973206e6f74206f60008301527f776e6572206e6f7220617070726f7665640000000000000000000000000000006020830152604082019050919050565b6000612b11602183612fef565b91507f4e6f7420656e6f756768204554482073656e743b20636865636b20707269636560008301527f21000000000000000000000000000000000000000000000000000000000000006020830152604082019050919050565b6000612b77601983612fef565b91507f4d6574686f6420726573657276656420666f72206f776e6572000000000000006000830152602082019050919050565b612bb381613142565b82525050565b6000612bc5828561243f565b9150612bd1828461243f565b91508190509392505050565b6000602082019050612bf260008301846123af565b92915050565b6000602082019050612c0d60008301846123a0565b92915050565b6000608082019050612c2860008301876123af565b612c3560208301866123af565b612c426040830185612baa565b8181036060830152612c5481846123cd565b905095945050505050565b6000602082019050612c7460008301846123be565b92915050565b60006020820190508181036000830152612c948184612406565b905092915050565b60006020820190508181036000830152612cb581612470565b9050919050565b60006020820190508181036000830152612cd5816124d6565b9050919050565b60006020820190508181036000830152612cf58161253c565b9050919050565b60006020820190508181036000830152612d158161257c565b9050919050565b60006020820190508181036000830152612d35816125e2565b9050919050565b60006020820190508181036000830152612d5581612622565b9050919050565b60006020820190508181036000830152612d7581612688565b9050919050565b60006020820190508181036000830152612d95816126ee565b9050919050565b60006020820190508181036000830152612db581612754565b9050919050565b60006020820190508181036000830152612dd5816127ba565b9050919050565b60006020820190508181036000830152612df581612820565b9050919050565b60006020820190508181036000830152612e1581612860565b9050919050565b60006020820190508181036000830152612e35816128c6565b9050919050565b60006020820190508181036000830152612e558161292c565b9050919050565b60006020820190508181036000830152612e758161296c565b9050919050565b60006020820190508181036000830152612e95816129d2565b9050919050565b60006020820190508181036000830152612eb581612a38565b9050919050565b60006020820190508181036000830152612ed581612a9e565b9050919050565b60006020820190508181036000830152612ef581612b04565b9050919050565b60006020820190508181036000830152612f1581612b6a565b9050919050565b6000602082019050612f316000830184612baa565b92915050565b6000604051905081810181811067ffffffffffffffff82111715612f5e57612f5d6132c7565b5b8060405250919050565b600067ffffffffffffffff821115612f8357612f826132c7565b5b601f19601f8301169050602081019050919050565b600067ffffffffffffffff821115612fb357612fb26132c7565b5b601f19601f8301169050602081019050919050565b600081519050919050565b600081519050919050565b600082825260208201905092915050565b600082825260208201905092915050565b600081905092915050565b600061301682613142565b915061302183613142565b9250827fffffffffffffffffffffffffffffffffffffffffffffffffffffffffffffffff038211156130565761305561323a565b5b828201905092915050565b600061306c82613142565b915061307783613142565b92508261308757613086613269565b5b828204905092915050565b600061309d82613142565b91506130a883613142565b9250828210156130bb576130ba61323a565b5b828203905092915050565b60006130d182613122565b9050919050565b60006130e382613122565b9050919050565b60008115159050919050565b60007fffffffff0000000000000000000000000000000000000000000000000000000082169050919050565b600073ffffffffffffffffffffffffffffffffffffffff82169050919050565b6000819050919050565b82818337600083830152505050565b60005b8381101561317957808201518184015260208101905061315e565b83811115613188576000848401525b50505050565b600060028204905060018216806131a657607f821691505b602082108114156131ba576131b9613298565b5b50919050565b60006131cb82613142565b91507fffffffffffffffffffffffffffffffffffffffffffffffffffffffffffffffff8214156131fe576131fd61323a565b5b600182019050919050565b600061321482613142565b915061321f83613142565b92508261322f5761322e613269565b5b828206905092915050565b7f4e487b7100000000000000000000000000000000000000000000000000000000600052601160045260246000fd5b7f4e487b7100000000000000000000000000000000000000000000000000000000600052601260045260246000fd5b7f4e487b7100000000000000000000000000000000000000000000000000000000600052602260045260246000fd5b7f4e487b7100000000000000000000000000000000000000000000000000000000600052604160045260246000fd5b6000601f19601f8301169050919050565b613310816130c6565b811461331b57600080fd5b50565b613327816130d8565b811461333257600080fd5b50565b61333e816130ea565b811461334957600080fd5b50565b613355816130f6565b811461336057600080fd5b50565b61336c81613142565b811461337757600080fd5b5056fea2646970667358221220b1871e8b54a6daf44ab473921ae8c1f34aa72c0efc69e4c6d1036761a1bd7b7664736f6c63430008000033",
  "linkReferences": {},
  "deployedLinkReferences": {}
}